{
  "contractName": "CableCompany",
  "abi": [
    {
      "inputs": [],
      "stateMutability": "nonpayable",
      "type": "constructor"
    },
    {
      "inputs": [
        {
          "internalType": "address",
          "name": "prosumerAddress",
          "type": "address"
        },
        {
          "internalType": "address",
          "name": "smartMeterAddress",
          "type": "address"
        }
      ],
      "name": "registerKey",
      "outputs": [],
      "stateMutability": "nonpayable",
      "type": "function"
    },
    {
      "inputs": [
        {
          "internalType": "address",
          "name": "prosumerAddress",
          "type": "address"
        },
        {
          "internalType": "address",
          "name": "smartMeterAddress",
          "type": "address"
        }
      ],
      "name": "isRegisteredKey",
      "outputs": [
        {
          "internalType": "bool",
          "name": "",
          "type": "bool"
        }
      ],
      "stateMutability": "view",
      "type": "function"
    },
    {
      "inputs": [
        {
          "internalType": "address",
          "name": "smartMeterPubKey",
          "type": "address"
        }
      ],
      "name": "removeRegisteredKey",
      "outputs": [],
      "stateMutability": "nonpayable",
      "type": "function"
    }
  ],
  "bytecode": "0x608060405234801561001057600080fd5b50336000806101000a81548173ffffffffffffffffffffffffffffffffffffffff021916908373ffffffffffffffffffffffffffffffffffffffff160217905550610502806100606000396000f3fe608060405234801561001057600080fd5b50600436106100415760003560e01c8063010da7251461004657806362e4eb6014610062578063eb4e352d1461007e575b600080fd5b610060600480360381019061005b91906103ac565b6100ae565b005b61007c600480360381019061007791906103d9565b6101a1565b005b610098600480360381019061009391906103d9565b6102b1565b6040516100a59190610434565b60405180910390f35b60008054906101000a900473ffffffffffffffffffffffffffffffffffffffff1673ffffffffffffffffffffffffffffffffffffffff163373ffffffffffffffffffffffffffffffffffffffff161461013c576040517f08c379a0000000000000000000000000000000000000000000000000000000008152600401610133906104ac565b60405180910390fd5b600160008273ffffffffffffffffffffffffffffffffffffffff1673ffffffffffffffffffffffffffffffffffffffff16815260200190815260200160002060006101000a81549073ffffffffffffffffffffffffffffffffffffffff021916905550565b60008054906101000a900473ffffffffffffffffffffffffffffffffffffffff1673ffffffffffffffffffffffffffffffffffffffff163373ffffffffffffffffffffffffffffffffffffffff161461022f576040517f08c379a0000000000000000000000000000000000000000000000000000000008152600401610226906104ac565b60405180910390fd5b80600160008473ffffffffffffffffffffffffffffffffffffffff1673ffffffffffffffffffffffffffffffffffffffff16815260200190815260200160002060006101000a81548173ffffffffffffffffffffffffffffffffffffffff021916908373ffffffffffffffffffffffffffffffffffffffff1602179055505050565b60008173ffffffffffffffffffffffffffffffffffffffff16600160008573ffffffffffffffffffffffffffffffffffffffff1673ffffffffffffffffffffffffffffffffffffffff16815260200190815260200160002060009054906101000a900473ffffffffffffffffffffffffffffffffffffffff1673ffffffffffffffffffffffffffffffffffffffff1614905092915050565b600080fd5b600073ffffffffffffffffffffffffffffffffffffffff82169050919050565b60006103798261034e565b9050919050565b6103898161036e565b811461039457600080fd5b50565b6000813590506103a681610380565b92915050565b6000602082840312156103c2576103c1610349565b5b60006103d084828501610397565b91505092915050565b600080604083850312156103f0576103ef610349565b5b60006103fe85828601610397565b925050602061040f85828601610397565b9150509250929050565b60008115159050919050565b61042e81610419565b82525050565b60006020820190506104496000830184610425565b92915050565b600082825260208201905092915050565b7f4f6e6c79206f776e65722063616e207265676973746572206e6577206b657973600082015250565b600061049660208361044f565b91506104a182610460565b602082019050919050565b600060208201905081810360008301526104c581610489565b905091905056fea264697066735822122038e44b4cdfe55feb8f70c7b01edf43e50bfa789dabc29adc7803fd6bb2303b9064736f6c63430008130033",
  "immutableReferences": {},
  "source": "// SPDX-License-Identifier: GPL-3.0\n// pragma experimental ABIEncoderV2;\npragma solidity ^0.8.9;\n\ncontract CableCompany {\n    address owner;\n    // in case people don't trust our api and wan't to verify themselves.\n    mapping(address => address) pubKeys;\n\n    constructor() {\n        owner = msg.sender;\n    }\n\n    modifier isOwner() {\n        require(msg.sender == owner, \"Only owner can register new keys\");\n        _;\n    }\n\n    function registerKey(\n        address prosumerAddress,\n        address smartMeterAddress\n    ) public isOwner {\n        pubKeys[prosumerAddress] = smartMeterAddress;\n    }\n\n    function isRegisteredKey(\n        address prosumerAddress,\n        address smartMeterAddress\n    ) public view returns (bool) {\n        return pubKeys[prosumerAddress] == smartMeterAddress;\n    }\n\n    function removeRegisteredKey(address smartMeterPubKey) public isOwner {\n        delete pubKeys[smartMeterPubKey];\n    }\n}\n",
  "sourcePath": "/Users/antonoeschmidt/Projects/Master/SmartGridEmpowered/contracts/CableCompany.sol",
  "compiler": {
    "name": "solc",
    "version": "0.8.19+commit.7dd6d404.Emscripten.clang"
  },
  "schemaVersion": "3.4.16",
  "updatedAt": "2024-01-23T15:25:59.459Z",
  "devdoc": {
    "kind": "dev",
    "methods": {},
    "version": 1
  },
  "userdoc": {
    "kind": "user",
    "methods": {},
    "version": 1
  }
}