{
  "contractName": "DSO",
  "abi": [
    {
      "inputs": [],
      "stateMutability": "nonpayable",
      "type": "constructor"
    },
    {
      "inputs": [
        {
          "internalType": "address",
          "name": "smartMeterPubKey",
          "type": "address"
        },
        {
          "internalType": "address",
          "name": "smartMeterAddress",
          "type": "address"
        }
      ],
      "name": "registerKey",
      "outputs": [],
      "stateMutability": "nonpayable",
      "type": "function"
    },
    {
      "inputs": [
        {
          "internalType": "address",
          "name": "smartMeterPubKey",
          "type": "address"
        },
        {
          "internalType": "address",
          "name": "smartMeterAddress",
          "type": "address"
        }
      ],
      "name": "isRegisteredKey",
      "outputs": [
        {
          "internalType": "bool",
          "name": "",
          "type": "bool"
        }
      ],
      "stateMutability": "view",
      "type": "function",
      "constant": true
    },
    {
      "inputs": [
        {
          "internalType": "address",
          "name": "smartMeterPubKey",
          "type": "address"
        }
      ],
      "name": "removeRegisteredKey",
      "outputs": [],
      "stateMutability": "nonpayable",
      "type": "function"
    },
    {
      "inputs": [],
      "name": "getOwner",
      "outputs": [
        {
          "internalType": "address",
          "name": "",
          "type": "address"
        }
      ],
      "stateMutability": "view",
      "type": "function",
      "constant": true
    }
  ],
  "bytecode": "0x608060405234801561001057600080fd5b50336000806101000a81548173ffffffffffffffffffffffffffffffffffffffff021916908373ffffffffffffffffffffffffffffffffffffffff16021790555061057e806100606000396000f3fe608060405234801561001057600080fd5b506004361061004c5760003560e01c8063010da7251461005157806362e4eb601461006d578063893d20e814610089578063eb4e352d146100a7575b600080fd5b61006b600480360381019061006691906103fe565b6100d7565b005b6100876004803603810190610082919061042b565b6101ca565b005b6100916102da565b60405161009e919061047a565b60405180910390f35b6100c160048036038101906100bc919061042b565b610303565b6040516100ce91906104b0565b60405180910390f35b60008054906101000a900473ffffffffffffffffffffffffffffffffffffffff1673ffffffffffffffffffffffffffffffffffffffff163373ffffffffffffffffffffffffffffffffffffffff1614610165576040517f08c379a000000000000000000000000000000000000000000000000000000000815260040161015c90610528565b60405180910390fd5b600160008273ffffffffffffffffffffffffffffffffffffffff1673ffffffffffffffffffffffffffffffffffffffff16815260200190815260200160002060006101000a81549073ffffffffffffffffffffffffffffffffffffffff021916905550565b60008054906101000a900473ffffffffffffffffffffffffffffffffffffffff1673ffffffffffffffffffffffffffffffffffffffff163373ffffffffffffffffffffffffffffffffffffffff1614610258576040517f08c379a000000000000000000000000000000000000000000000000000000000815260040161024f90610528565b60405180910390fd5b80600160008473ffffffffffffffffffffffffffffffffffffffff1673ffffffffffffffffffffffffffffffffffffffff16815260200190815260200160002060006101000a81548173ffffffffffffffffffffffffffffffffffffffff021916908373ffffffffffffffffffffffffffffffffffffffff1602179055505050565b60008060009054906101000a900473ffffffffffffffffffffffffffffffffffffffff16905090565b60008173ffffffffffffffffffffffffffffffffffffffff16600160008573ffffffffffffffffffffffffffffffffffffffff1673ffffffffffffffffffffffffffffffffffffffff16815260200190815260200160002060009054906101000a900473ffffffffffffffffffffffffffffffffffffffff1673ffffffffffffffffffffffffffffffffffffffff1614905092915050565b600080fd5b600073ffffffffffffffffffffffffffffffffffffffff82169050919050565b60006103cb826103a0565b9050919050565b6103db816103c0565b81146103e657600080fd5b50565b6000813590506103f8816103d2565b92915050565b6000602082840312156104145761041361039b565b5b6000610422848285016103e9565b91505092915050565b600080604083850312156104425761044161039b565b5b6000610450858286016103e9565b9250506020610461858286016103e9565b9150509250929050565b610474816103c0565b82525050565b600060208201905061048f600083018461046b565b92915050565b60008115159050919050565b6104aa81610495565b82525050565b60006020820190506104c560008301846104a1565b92915050565b600082825260208201905092915050565b7f4f6e6c79206f776e65722063616e206368616e6765206b6579206d6170000000600082015250565b6000610512601d836104cb565b915061051d826104dc565b602082019050919050565b6000602082019050818103600083015261054181610505565b905091905056fea2646970667358221220411982577a1ed7b9b84d60af52c5e0e719e6f520e9d88ec5d52d400eebedd01964736f6c63430008130033",
  "immutableReferences": {},
  "source": "// SPDX-License-Identifier: GPL-3.0\n// pragma experimental ABIEncoderV2;\npragma solidity ^0.8.9;\n\ncontract DSO {\n    address owner;\n\n    mapping(address => address) pubKeys;\n\n    constructor() {\n        owner = msg.sender;\n    }\n\n    modifier isOwner() {\n        require(msg.sender == owner, \"Only owner can change key map\");\n        _;\n    }\n\n    function registerKey(\n        address smartMeterPubKey,\n        address smartMeterAddress\n    ) public isOwner {\n        pubKeys[smartMeterPubKey] = smartMeterAddress;\n    }\n\n    function isRegisteredKey(\n        address smartMeterPubKey,\n        address smartMeterAddress\n    ) public view returns (bool) {\n        return pubKeys[smartMeterPubKey] == smartMeterAddress;\n    }\n\n    function removeRegisteredKey(address smartMeterPubKey) public isOwner {\n        delete pubKeys[smartMeterPubKey];\n    }\n\n    function getOwner() public view returns (address) {\n        return owner;\n    }\n}\n",
  "sourcePath": "/home/nobert/speciale/blockchain/contracts/DSO.sol",
  "compiler": {
    "name": "solc",
    "version": "0.8.19+commit.7dd6d404.Emscripten.clang"
  },
  "schemaVersion": "3.4.16",
  "updatedAt": "2024-01-21T09:35:10.024Z",
  "networkType": "ethereum",
  "devdoc": {
    "kind": "dev",
    "methods": {},
    "version": 1
  },
  "userdoc": {
    "kind": "user",
    "methods": {},
    "version": 1
  }
}