{
  "contractName": "DSO",
  "abi": [
    {
      "inputs": [],
      "stateMutability": "nonpayable",
      "type": "constructor"
    },
    {
      "inputs": [
        {
          "internalType": "address",
          "name": "smartMeterPubKey",
          "type": "address"
        },
        {
          "internalType": "address",
          "name": "smartMeterAddress",
          "type": "address"
        }
      ],
      "name": "registerKey",
      "outputs": [],
      "stateMutability": "nonpayable",
      "type": "function"
    },
    {
      "inputs": [
        {
          "internalType": "address",
          "name": "smartMeterPubKey",
          "type": "address"
        },
        {
          "internalType": "address",
          "name": "smartMeterAddress",
          "type": "address"
        }
      ],
      "name": "isRegisteredKey",
      "outputs": [
        {
          "internalType": "bool",
          "name": "",
          "type": "bool"
        }
      ],
      "stateMutability": "view",
      "type": "function",
      "constant": true
    },
    {
      "inputs": [
        {
          "internalType": "address",
          "name": "smartMeterPubKey",
          "type": "address"
        }
      ],
      "name": "removeRegisteredKey",
      "outputs": [],
      "stateMutability": "nonpayable",
      "type": "function"
    },
    {
      "inputs": [],
      "name": "getOwner",
      "outputs": [
        {
          "internalType": "address",
          "name": "",
          "type": "address"
        }
      ],
      "stateMutability": "view",
      "type": "function",
      "constant": true
    },
    {
      "inputs": [],
      "name": "getGroupkey",
      "outputs": [
        {
          "internalType": "string",
          "name": "",
          "type": "string"
        }
      ],
      "stateMutability": "view",
      "type": "function",
      "constant": true
    },
    {
      "inputs": [
        {
          "internalType": "string",
          "name": "_groupKey",
          "type": "string"
        }
      ],
      "name": "setGroupKey",
      "outputs": [],
      "stateMutability": "nonpayable",
      "type": "function"
    }
  ],
  "bytecode": "0x608060405234801561001057600080fd5b50336000806101000a81548173ffffffffffffffffffffffffffffffffffffffff021916908373ffffffffffffffffffffffffffffffffffffffff160217905550610cef806100606000396000f3fe608060405234801561001057600080fd5b50600436106100625760003560e01c8063010da72514610067578063553414251461008357806362e4eb601461009f578063893d20e8146100bb578063c4691437146100d9578063eb4e352d146100f7575b600080fd5b610081600480360381019061007c9190610590565b610127565b005b61009d60048036038101906100989190610703565b61021a565b005b6100b960048036038101906100b4919061074c565b6102bb565b005b6100c36103cb565b6040516100d0919061079b565b60405180910390f35b6100e16103f4565b6040516100ee9190610835565b60405180910390f35b610111600480360381019061010c919061074c565b610486565b60405161011e9190610872565b60405180910390f35b60008054906101000a900473ffffffffffffffffffffffffffffffffffffffff1673ffffffffffffffffffffffffffffffffffffffff163373ffffffffffffffffffffffffffffffffffffffff16146101b5576040517f08c379a00000000000000000000000000000000000000000000000000000000081526004016101ac906108d9565b60405180910390fd5b600160008273ffffffffffffffffffffffffffffffffffffffff1673ffffffffffffffffffffffffffffffffffffffff16815260200190815260200160002060006101000a81549073ffffffffffffffffffffffffffffffffffffffff021916905550565b60008054906101000a900473ffffffffffffffffffffffffffffffffffffffff1673ffffffffffffffffffffffffffffffffffffffff163373ffffffffffffffffffffffffffffffffffffffff16146102a8576040517f08c379a000000000000000000000000000000000000000000000000000000000815260040161029f90610945565b60405180910390fd5b80600290816102b79190610b7b565b5050565b60008054906101000a900473ffffffffffffffffffffffffffffffffffffffff1673ffffffffffffffffffffffffffffffffffffffff163373ffffffffffffffffffffffffffffffffffffffff1614610349576040517f08c379a000000000000000000000000000000000000000000000000000000000815260040161034090610c99565b60405180910390fd5b80600160008473ffffffffffffffffffffffffffffffffffffffff1673ffffffffffffffffffffffffffffffffffffffff16815260200190815260200160002060006101000a81548173ffffffffffffffffffffffffffffffffffffffff021916908373ffffffffffffffffffffffffffffffffffffffff1602179055505050565b60008060009054906101000a900473ffffffffffffffffffffffffffffffffffffffff16905090565b60606002805461040390610994565b80601f016020809104026020016040519081016040528092919081815260200182805461042f90610994565b801561047c5780601f106104515761010080835404028352916020019161047c565b820191906000526020600020905b81548152906001019060200180831161045f57829003601f168201915b5050505050905090565b60008173ffffffffffffffffffffffffffffffffffffffff16600160008573ffffffffffffffffffffffffffffffffffffffff1673ffffffffffffffffffffffffffffffffffffffff16815260200190815260200160002060009054906101000a900473ffffffffffffffffffffffffffffffffffffffff1673ffffffffffffffffffffffffffffffffffffffff1614905092915050565b6000604051905090565b600080fd5b600080fd5b600073ffffffffffffffffffffffffffffffffffffffff82169050919050565b600061055d82610532565b9050919050565b61056d81610552565b811461057857600080fd5b50565b60008135905061058a81610564565b92915050565b6000602082840312156105a6576105a5610528565b5b60006105b48482850161057b565b91505092915050565b600080fd5b600080fd5b6000601f19601f8301169050919050565b7f4e487b7100000000000000000000000000000000000000000000000000000000600052604160045260246000fd5b610610826105c7565b810181811067ffffffffffffffff8211171561062f5761062e6105d8565b5b80604052505050565b600061064261051e565b905061064e8282610607565b919050565b600067ffffffffffffffff82111561066e5761066d6105d8565b5b610677826105c7565b9050602081019050919050565b82818337600083830152505050565b60006106a66106a184610653565b610638565b9050828152602081018484840111156106c2576106c16105c2565b5b6106cd848285610684565b509392505050565b600082601f8301126106ea576106e96105bd565b5b81356106fa848260208601610693565b91505092915050565b60006020828403121561071957610718610528565b5b600082013567ffffffffffffffff8111156107375761073661052d565b5b610743848285016106d5565b91505092915050565b6000806040838503121561076357610762610528565b5b60006107718582860161057b565b92505060206107828582860161057b565b9150509250929050565b61079581610552565b82525050565b60006020820190506107b0600083018461078c565b92915050565b600081519050919050565b600082825260208201905092915050565b60005b838110156107f05780820151818401526020810190506107d5565b60008484015250505050565b6000610807826107b6565b61081181856107c1565b93506108218185602086016107d2565b61082a816105c7565b840191505092915050565b6000602082019050818103600083015261084f81846107fc565b905092915050565b60008115159050919050565b61086c81610857565b82525050565b60006020820190506108876000830184610863565b92915050565b7f4f6e6c79206f776e65722063616e2072656d6f7665206b657973000000000000600082015250565b60006108c3601a836107c1565b91506108ce8261088d565b602082019050919050565b600060208201905081810360008301526108f2816108b6565b9050919050565b7f4f6e6c79206f776e65722063616e20736574207468652067726f7570206b6579600082015250565b600061092f6020836107c1565b915061093a826108f9565b602082019050919050565b6000602082019050818103600083015261095e81610922565b9050919050565b7f4e487b7100000000000000000000000000000000000000000000000000000000600052602260045260246000fd5b600060028204905060018216806109ac57607f821691505b6020821081036109bf576109be610965565b5b50919050565b60008190508160005260206000209050919050565b60006020601f8301049050919050565b600082821b905092915050565b600060088302610a277fffffffffffffffffffffffffffffffffffffffffffffffffffffffffffffffff826109ea565b610a3186836109ea565b95508019841693508086168417925050509392505050565b6000819050919050565b6000819050919050565b6000610a78610a73610a6e84610a49565b610a53565b610a49565b9050919050565b6000819050919050565b610a9283610a5d565b610aa6610a9e82610a7f565b8484546109f7565b825550505050565b600090565b610abb610aae565b610ac6818484610a89565b505050565b5b81811015610aea57610adf600082610ab3565b600181019050610acc565b5050565b601f821115610b2f57610b00816109c5565b610b09846109da565b81016020851015610b18578190505b610b2c610b24856109da565b830182610acb565b50505b505050565b600082821c905092915050565b6000610b5260001984600802610b34565b1980831691505092915050565b6000610b6b8383610b41565b9150826002028217905092915050565b610b84826107b6565b67ffffffffffffffff811115610b9d57610b9c6105d8565b5b610ba78254610994565b610bb2828285610aee565b600060209050601f831160018114610be55760008415610bd3578287015190505b610bdd8582610b5f565b865550610c45565b601f198416610bf3866109c5565b60005b82811015610c1b57848901518255600182019150602085019450602081019050610bf6565b86831015610c385784890151610c34601f891682610b41565b8355505b6001600288020188555050505b505050505050565b7f4f6e6c79206f776e65722063616e207265676973746572206e6577206b657973600082015250565b6000610c836020836107c1565b9150610c8e82610c4d565b602082019050919050565b60006020820190508181036000830152610cb281610c76565b905091905056fea26469706673582212200fd88839c1f6420448b77d8a95ff63e003d436b2a35f1f49d2d5ee133e9ec71764736f6c63430008130033",
  "immutableReferences": {},
  "source": "// SPDX-License-Identifier: GPL-3.0\n// pragma experimental ABIEncoderV2;\npragma solidity ^0.8.9;\n\ncontract DSO {\n    address owner;\n\n    mapping(address => address) pubKeys;\n    string groupKey;\n\n    constructor() {\n        owner = msg.sender;\n    }\n\n    function registerKey(address smartMeterPubKey, address smartMeterAddress) public {\n        require(msg.sender == owner, \"Only owner can register new keys\");\n        pubKeys[smartMeterPubKey] = smartMeterAddress;\n    }\n\n    function isRegisteredKey(address smartMeterPubKey, address smartMeterAddress) view public returns (bool) {\n        return pubKeys[smartMeterPubKey] == smartMeterAddress;\n    }\n\n    function removeRegisteredKey(address smartMeterPubKey) public {\n        require(msg.sender == owner, \"Only owner can remove keys\");\n        delete pubKeys[smartMeterPubKey];\n    }\n\n     function getOwner() public view returns(address) {\n        return owner;\n    }\n\n    function getGroupkey() public view returns(string memory) {\n        return groupKey;\n    }\n\n    function setGroupKey(string memory _groupKey) public {\n        require(msg.sender == owner, \"Only owner can set the group key\");\n        groupKey = _groupKey;\n    }\n}",
  "sourcePath": "/home/nobert/speciale/blockchain/contracts/DSO.sol",
  "compiler": {
    "name": "solc",
    "version": "0.8.19+commit.7dd6d404.Emscripten.clang"
  },
  "schemaVersion": "3.4.16",
  "updatedAt": "2024-01-18T10:06:43.812Z",
  "networkType": "ethereum",
  "devdoc": {
    "kind": "dev",
    "methods": {},
    "version": 1
  },
  "userdoc": {
    "kind": "user",
    "methods": {},
    "version": 1
  }
}