{
  "contractName": "Market",
  "abi": [
    {
      "inputs": [
        {
          "internalType": "address",
          "name": "_dsoAddress",
          "type": "address"
        },
        {
          "internalType": "address",
          "name": "_smartMeterContractAddress",
          "type": "address"
        }
      ],
      "stateMutability": "payable",
      "type": "constructor",
      "payable": true
    },
    {
      "anonymous": false,
      "inputs": [
        {
          "indexed": false,
          "internalType": "string",
          "name": "buyerSignature",
          "type": "string"
        },
        {
          "indexed": false,
          "internalType": "string",
          "name": "sellerSignature",
          "type": "string"
        },
        {
          "indexed": false,
          "internalType": "uint256",
          "name": "amount",
          "type": "uint256"
        },
        {
          "indexed": false,
          "internalType": "uint256",
          "name": "timestamp",
          "type": "uint256"
        },
        {
          "indexed": false,
          "internalType": "uint256",
          "name": "price",
          "type": "uint256"
        }
      ],
      "name": "ApproveOffer",
      "type": "event"
    },
    {
      "inputs": [],
      "name": "lastestSupplyChainAddress",
      "outputs": [
        {
          "internalType": "address",
          "name": "",
          "type": "address"
        }
      ],
      "stateMutability": "view",
      "type": "function",
      "constant": true
    },
    {
      "inputs": [
        {
          "internalType": "uint256",
          "name": "",
          "type": "uint256"
        }
      ],
      "name": "offerIds",
      "outputs": [
        {
          "internalType": "string",
          "name": "",
          "type": "string"
        }
      ],
      "stateMutability": "view",
      "type": "function",
      "constant": true
    },
    {
      "inputs": [
        {
          "internalType": "string",
          "name": "",
          "type": "string"
        }
      ],
      "name": "offers",
      "outputs": [
        {
          "internalType": "string",
          "name": "id",
          "type": "string"
        },
        {
          "internalType": "uint256",
          "name": "price",
          "type": "uint256"
        },
        {
          "internalType": "uint256",
          "name": "amount",
          "type": "uint256"
        },
        {
          "internalType": "uint256",
          "name": "expiration",
          "type": "uint256"
        },
        {
          "internalType": "address",
          "name": "owner",
          "type": "address"
        },
        {
          "internalType": "address",
          "name": "smartMeterAddress",
          "type": "address"
        },
        {
          "internalType": "bool",
          "name": "active",
          "type": "bool"
        },
        {
          "internalType": "string",
          "name": "sellerSignature",
          "type": "string"
        },
        {
          "internalType": "uint256",
          "name": "nonce",
          "type": "uint256"
        }
      ],
      "stateMutability": "view",
      "type": "function",
      "constant": true
    },
    {
      "inputs": [
        {
          "internalType": "uint256",
          "name": "",
          "type": "uint256"
        }
      ],
      "name": "pendingConfirmationOffers",
      "outputs": [
        {
          "internalType": "string",
          "name": "buyerSignature",
          "type": "string"
        },
        {
          "internalType": "string",
          "name": "sellerSignature",
          "type": "string"
        },
        {
          "internalType": "address",
          "name": "smartMeterAddress",
          "type": "address"
        },
        {
          "internalType": "uint256",
          "name": "amount",
          "type": "uint256"
        },
        {
          "internalType": "uint256",
          "name": "price",
          "type": "uint256"
        },
        {
          "internalType": "uint256",
          "name": "timestamp",
          "type": "uint256"
        },
        {
          "internalType": "uint256",
          "name": "nonce",
          "type": "uint256"
        }
      ],
      "stateMutability": "view",
      "type": "function",
      "constant": true
    },
    {
      "inputs": [
        {
          "internalType": "string",
          "name": "id",
          "type": "string"
        },
        {
          "internalType": "uint256",
          "name": "amount",
          "type": "uint256"
        },
        {
          "internalType": "uint256",
          "name": "price",
          "type": "uint256"
        },
        {
          "internalType": "uint256",
          "name": "expiration",
          "type": "uint256"
        },
        {
          "internalType": "address",
          "name": "smartMeterAddress",
          "type": "address"
        },
        {
          "internalType": "string",
          "name": "sellerSignature",
          "type": "string"
        },
        {
          "internalType": "uint256",
          "name": "nonce",
          "type": "uint256"
        },
        {
          "internalType": "address",
          "name": "sellerAddress",
          "type": "address"
        },
        {
          "internalType": "bytes",
          "name": "ots",
          "type": "bytes"
        },
        {
          "internalType": "bytes32",
          "name": "nextOtsHash",
          "type": "bytes32"
        }
      ],
      "name": "addOffer",
      "outputs": [
        {
          "internalType": "bool",
          "name": "",
          "type": "bool"
        }
      ],
      "stateMutability": "nonpayable",
      "type": "function"
    },
    {
      "inputs": [
        {
          "internalType": "string",
          "name": "id",
          "type": "string"
        },
        {
          "internalType": "address",
          "name": "smartMeterAddress",
          "type": "address"
        }
      ],
      "name": "removeOffer",
      "outputs": [
        {
          "internalType": "bool",
          "name": "",
          "type": "bool"
        }
      ],
      "stateMutability": "nonpayable",
      "type": "function"
    },
    {
      "inputs": [
        {
          "internalType": "string",
          "name": "id",
          "type": "string"
        },
        {
          "internalType": "string",
          "name": "buyerSignature",
          "type": "string"
        }
      ],
      "name": "buyOffer",
      "outputs": [],
      "stateMutability": "nonpayable",
      "type": "function"
    },
    {
      "inputs": [
        {
          "internalType": "string",
          "name": "id",
          "type": "string"
        }
      ],
      "name": "getOffer",
      "outputs": [
        {
          "components": [
            {
              "internalType": "string",
              "name": "id",
              "type": "string"
            },
            {
              "internalType": "uint256",
              "name": "price",
              "type": "uint256"
            },
            {
              "internalType": "uint256",
              "name": "amount",
              "type": "uint256"
            },
            {
              "internalType": "uint256",
              "name": "expiration",
              "type": "uint256"
            },
            {
              "internalType": "address",
              "name": "owner",
              "type": "address"
            },
            {
              "internalType": "address",
              "name": "smartMeterAddress",
              "type": "address"
            },
            {
              "internalType": "bool",
              "name": "active",
              "type": "bool"
            },
            {
              "internalType": "string",
              "name": "sellerSignature",
              "type": "string"
            },
            {
              "internalType": "uint256",
              "name": "nonce",
              "type": "uint256"
            }
          ],
          "internalType": "struct Market.Offer",
          "name": "",
          "type": "tuple"
        }
      ],
      "stateMutability": "view",
      "type": "function",
      "constant": true
    },
    {
      "inputs": [],
      "name": "getOffers",
      "outputs": [
        {
          "components": [
            {
              "internalType": "string",
              "name": "id",
              "type": "string"
            },
            {
              "internalType": "uint256",
              "name": "price",
              "type": "uint256"
            },
            {
              "internalType": "uint256",
              "name": "amount",
              "type": "uint256"
            },
            {
              "internalType": "uint256",
              "name": "expiration",
              "type": "uint256"
            },
            {
              "internalType": "address",
              "name": "owner",
              "type": "address"
            },
            {
              "internalType": "address",
              "name": "smartMeterAddress",
              "type": "address"
            },
            {
              "internalType": "bool",
              "name": "active",
              "type": "bool"
            },
            {
              "internalType": "string",
              "name": "sellerSignature",
              "type": "string"
            },
            {
              "internalType": "uint256",
              "name": "nonce",
              "type": "uint256"
            }
          ],
          "internalType": "struct Market.Offer[]",
          "name": "",
          "type": "tuple[]"
        }
      ],
      "stateMutability": "view",
      "type": "function",
      "constant": true
    },
    {
      "inputs": [],
      "name": "getOfferIDs",
      "outputs": [
        {
          "internalType": "string[]",
          "name": "",
          "type": "string[]"
        }
      ],
      "stateMutability": "view",
      "type": "function",
      "constant": true
    },
    {
      "inputs": [],
      "name": "getPendingOffers",
      "outputs": [
        {
          "components": [
            {
              "internalType": "string",
              "name": "buyerSignature",
              "type": "string"
            },
            {
              "internalType": "string",
              "name": "sellerSignature",
              "type": "string"
            },
            {
              "internalType": "address",
              "name": "smartMeterAddress",
              "type": "address"
            },
            {
              "internalType": "uint256",
              "name": "amount",
              "type": "uint256"
            },
            {
              "internalType": "uint256",
              "name": "price",
              "type": "uint256"
            },
            {
              "internalType": "uint256",
              "name": "timestamp",
              "type": "uint256"
            },
            {
              "internalType": "uint256",
              "name": "nonce",
              "type": "uint256"
            }
          ],
          "internalType": "struct Market.PendingConfirmationOffer[]",
          "name": "",
          "type": "tuple[]"
        }
      ],
      "stateMutability": "view",
      "type": "function",
      "constant": true
    },
    {
      "inputs": [
        {
          "internalType": "bool[]",
          "name": "offerIndicies",
          "type": "bool[]"
        }
      ],
      "name": "validatePendingOffers",
      "outputs": [],
      "stateMutability": "nonpayable",
      "type": "function"
    }
  ],
  "bytecode": "0x608060405263240c84006002556040516200431d3803806200431d8339818101604052810190620000319190620001a6565b336000806101000a81548173ffffffffffffffffffffffffffffffffffffffff021916908373ffffffffffffffffffffffffffffffffffffffff16021790555081600160006101000a81548173ffffffffffffffffffffffffffffffffffffffff021916908373ffffffffffffffffffffffffffffffffffffffff16021790555081600460006101000a81548173ffffffffffffffffffffffffffffffffffffffff021916908373ffffffffffffffffffffffffffffffffffffffff16021790555080600360006101000a81548173ffffffffffffffffffffffffffffffffffffffff021916908373ffffffffffffffffffffffffffffffffffffffff1602179055505050620001ed565b600080fd5b600073ffffffffffffffffffffffffffffffffffffffff82169050919050565b60006200016e8262000141565b9050919050565b620001808162000161565b81146200018c57600080fd5b50565b600081519050620001a08162000175565b92915050565b60008060408385031215620001c057620001bf6200013c565b5b6000620001d0858286016200018f565b9250506020620001e3858286016200018f565b9150509250929050565b61412080620001fd6000396000f3fe608060405234801561001057600080fd5b50600436106100b45760003560e01c8063783be19811610071578063783be198146101a15780637a510116146101d7578063cdc2e6d714610207578063d5fd377614610223578063d6b85e8f1461025b578063f6a8019214610279576100b4565b80630753c9e3146100b9578063110b9d89146100d757806312538a3414610107578063197713bd146101235780633ee992ee1461015357806354e69aaa14610171575b600080fd5b6100c1610297565b6040516100ce91906126fa565b60405180910390f35b6100f160048036038101906100ec919061275c565b610498565b6040516100fe91906127d3565b60405180910390f35b610121600480360381019061011c9190612975565b610544565b005b61013d60048036038101906101389190612b76565b610ad9565b60405161014a9190612cb8565b60405180910390f35b61015b610fe7565b6040516101689190612e70565b60405180910390f35b61018b60048036038101906101869190612e92565b6112f5565b6040516101989190612cb8565b60405180910390f35b6101bb60048036038101906101b6919061275c565b61171c565b6040516101ce9796959493929190612f0c565b60405180910390f35b6101f160048036038101906101ec9190612f89565b61189e565b6040516101fe919061309e565b60405180910390f35b610221600480360381019061021c91906130c0565b611aea565b005b61023d60048036038101906102389190612f89565b612114565b60405161025299989796959493929190613138565b60405180910390f35b6102636122d5565b60405161027091906131d3565b60405180910390f35b6102816122fb565b60405161028e91906132b0565b60405180910390f35b60606006805480602002602001604051908101604052809291908181526020016000905b8282101561048f57838290600052602060002090600702016040518060e00160405290816000820180546102ee90613301565b80601f016020809104026020016040519081016040528092919081815260200182805461031a90613301565b80156103675780601f1061033c57610100808354040283529160200191610367565b820191906000526020600020905b81548152906001019060200180831161034a57829003601f168201915b5050505050815260200160018201805461038090613301565b80601f01602080910402602001604051908101604052809291908181526020018280546103ac90613301565b80156103f95780601f106103ce576101008083540402835291602001916103f9565b820191906000526020600020905b8154815290600101906020018083116103dc57829003601f168201915b505050505081526020016002820160009054906101000a900473ffffffffffffffffffffffffffffffffffffffff1673ffffffffffffffffffffffffffffffffffffffff1673ffffffffffffffffffffffffffffffffffffffff168152602001600382015481526020016004820154815260200160058201548152602001600682015481525050815260200190600101906102bb565b50505050905090565b600781815481106104a857600080fd5b9060005260206000200160009150905080546104c390613301565b80601f01602080910402602001604051908101604052809291908181526020018280546104ef90613301565b801561053c5780601f106105115761010080835404028352916020019161053c565b820191906000526020600020905b81548152906001019060200180831161051f57829003601f168201915b505050505081565b60008054906101000a900473ffffffffffffffffffffffffffffffffffffffff1673ffffffffffffffffffffffffffffffffffffffff163373ffffffffffffffffffffffffffffffffffffffff16146105d2576040517f08c379a00000000000000000000000000000000000000000000000000000000081526004016105c99061337e565b60405180910390fd5b60005b81518110156108ed576000600682815481106105f4576105f361339e565b5b90600052602060002090600702016040518060e001604052908160008201805461061d90613301565b80601f016020809104026020016040519081016040528092919081815260200182805461064990613301565b80156106965780601f1061066b57610100808354040283529160200191610696565b820191906000526020600020905b81548152906001019060200180831161067957829003601f168201915b505050505081526020016001820180546106af90613301565b80601f01602080910402602001604051908101604052809291908181526020018280546106db90613301565b80156107285780601f106106fd57610100808354040283529160200191610728565b820191906000526020600020905b81548152906001019060200180831161070b57829003601f168201915b505050505081526020016002820160009054906101000a900473ffffffffffffffffffffffffffffffffffffffff1673ffffffffffffffffffffffffffffffffffffffff1673ffffffffffffffffffffffffffffffffffffffff1681526020016003820154815260200160048201548152602001600582015481526020016006820154815250509050600115158383815181106107c8576107c761339e565b5b602002602001015115150361082f577fac6b62dd79b7acb29ba31fdbca961811a7a06fb0c878b878a58765ad13f0e2618160000151826020015183606001518460a0015185608001516040516108229594939291906133cd565b60405180910390a16108d9565b600360009054906101000a900473ffffffffffffffffffffffffffffffffffffffff1673ffffffffffffffffffffffffffffffffffffffff166324dee484826060015183604001516040518363ffffffff1660e01b815260040161089492919061342e565b6020604051808303816000875af11580156108b3573d6000803e3d6000fd5b505050506040513d601f19601f820116820180604052508101906108d7919061346c565b505b5080806108e5906134c8565b9150506105d5565b5060005b8151811015610ad5578060068054905061090b9190613510565b82511015610a305760068160016006805490506109289190613510565b6109329190613510565b815481106109435761094261339e565b5b9060005260206000209060070201600682815481106109655761096461339e565b5b9060005260206000209060070201600082018160000190816109879190613706565b506001820181600101908161099c9190613706565b506002820160009054906101000a900473ffffffffffffffffffffffffffffffffffffffff168160020160006101000a81548173ffffffffffffffffffffffffffffffffffffffff021916908373ffffffffffffffffffffffffffffffffffffffff160217905550600382015481600301556004820154816004015560058201548160050155600682015481600601559050505b6006805480610a4257610a416137ee565b5b600190038181906000526020600020906007020160008082016000610a6791906123d4565b600182016000610a7791906123d4565b6002820160006101000a81549073ffffffffffffffffffffffffffffffffffffffff02191690556003820160009055600482016000905560058201600090556006820160009055505090558080610acd906134c8565b9150506108f1565b5050565b6000846000600960008381526020019081526020016000205490506103e842610b02919061381d565b60028054610b10919061381d565b82610b1b919061385f565b1115610b5c576040517f08c379a0000000000000000000000000000000000000000000000000000000008152600401610b53906138df565b60405180910390fd5b600160009054906101000a900473ffffffffffffffffffffffffffffffffffffffff1673ffffffffffffffffffffffffffffffffffffffff1663eb4e352d338b6040518363ffffffff1660e01b8152600401610bb99291906138ff565b602060405180830381865afa158015610bd6573d6000803e3d6000fd5b505050506040513d601f19601f82011682018060405250810190610bfa919061346c565b610c39576040517f08c379a0000000000000000000000000000000000000000000000000000000008152600401610c309061399a565b60405180910390fd5b896002546103e842610c4b919061381d565b610c55919061385f565b11610c95576040517f08c379a0000000000000000000000000000000000000000000000000000000008152600401610c8c90613a06565b60405180910390fd5b3373ffffffffffffffffffffffffffffffffffffffff168673ffffffffffffffffffffffffffffffffffffffff1614610d03576040517f08c379a0000000000000000000000000000000000000000000000000000000008152600401610cfa90613a72565b60405180910390fd5b600360009054906101000a900473ffffffffffffffffffffffffffffffffffffffff1673ffffffffffffffffffffffffffffffffffffffff16635847ebed8d87878d6040518563ffffffff1660e01b8152600401610d649493929190613af6565b6020604051808303816000875af1158015610d83573d6000803e3d6000fd5b505050506040513d601f19601f82011682018060405250810190610da7919061346c565b610de6576040517f08c379a0000000000000000000000000000000000000000000000000000000008152600401610ddd90613b8e565b60405180910390fd5b6103e842610df4919061381d565b60096000898152602001908152602001600020819055506040518061012001604052808e81526020018c81526020018d81526020018b81526020013373ffffffffffffffffffffffffffffffffffffffff1681526020018a73ffffffffffffffffffffffffffffffffffffffff1681526020016001151581526020018981526020018881525060058e604051610e8a9190613bea565b90815260200160405180910390206000820151816000019081610ead9190613c01565b5060208201518160010155604082015181600201556060820151816003015560808201518160040160006101000a81548173ffffffffffffffffffffffffffffffffffffffff021916908373ffffffffffffffffffffffffffffffffffffffff16021790555060a08201518160050160006101000a81548173ffffffffffffffffffffffffffffffffffffffff021916908373ffffffffffffffffffffffffffffffffffffffff16021790555060c08201518160050160146101000a81548160ff02191690831515021790555060e0820151816006019081610f8f9190613c01565b50610100820151816007015590505060078d908060018154018082558091505060019003906000526020600020016000909190919091509081610fd29190613c01565b506001925050509a9950505050505050505050565b6060600060078054905067ffffffffffffffff81111561100a576110096127fa565b5b60405190808252806020026020018201604052801561104357816020015b611030612414565b8152602001906001900390816110285790505b50905060005b6007805490508110156112ed5760006007828154811061106c5761106b61339e565b5b906000526020600020019050600060058260405161108a9190613d6b565b9081526020016040518091039020905080604051806101200160405290816000820180546110b790613301565b80601f01602080910402602001604051908101604052809291908181526020018280546110e390613301565b80156111305780601f1061110557610100808354040283529160200191611130565b820191906000526020600020905b81548152906001019060200180831161111357829003601f168201915b505050505081526020016001820154815260200160028201548152602001600382015481526020016004820160009054906101000a900473ffffffffffffffffffffffffffffffffffffffff1673ffffffffffffffffffffffffffffffffffffffff1673ffffffffffffffffffffffffffffffffffffffff1681526020016005820160009054906101000a900473ffffffffffffffffffffffffffffffffffffffff1673ffffffffffffffffffffffffffffffffffffffff1673ffffffffffffffffffffffffffffffffffffffff1681526020016005820160149054906101000a900460ff1615151515815260200160068201805461122e90613301565b80601f016020809104026020016040519081016040528092919081815260200182805461125a90613301565b80156112a75780601f1061127c576101008083540402835291602001916112a7565b820191906000526020600020905b81548152906001019060200180831161128a57829003601f168201915b505050505081526020016007820154815250508484815181106112cd576112cc61339e565b5b6020026020010181905250505080806112e5906134c8565b915050611049565b508091505090565b6000806005846040516113089190613bea565b90815260200160405180910390206040518061012001604052908160008201805461133290613301565b80601f016020809104026020016040519081016040528092919081815260200182805461135e90613301565b80156113ab5780601f10611380576101008083540402835291602001916113ab565b820191906000526020600020905b81548152906001019060200180831161138e57829003601f168201915b505050505081526020016001820154815260200160028201548152602001600382015481526020016004820160009054906101000a900473ffffffffffffffffffffffffffffffffffffffff1673ffffffffffffffffffffffffffffffffffffffff1673ffffffffffffffffffffffffffffffffffffffff1681526020016005820160009054906101000a900473ffffffffffffffffffffffffffffffffffffffff1673ffffffffffffffffffffffffffffffffffffffff1673ffffffffffffffffffffffffffffffffffffffff1681526020016005820160149054906101000a900460ff161515151581526020016006820180546114a990613301565b80601f01602080910402602001604051908101604052809291908181526020018280546114d590613301565b80156115225780601f106114f757610100808354040283529160200191611522565b820191906000526020600020905b81548152906001019060200180831161150557829003601f168201915b505050505081526020016007820154815250509050806080015173ffffffffffffffffffffffffffffffffffffffff163373ffffffffffffffffffffffffffffffffffffffff16146115a9576040517f08c379a00000000000000000000000000000000000000000000000000000000081526004016115a090613dce565b60405180910390fd5b600360009054906101000a900473ffffffffffffffffffffffffffffffffffffffff1673ffffffffffffffffffffffffffffffffffffffff166324dee4848260400151856040518363ffffffff1660e01b815260040161160a92919061342e565b6020604051808303816000875af1158015611629573d6000803e3d6000fd5b505050506040513d601f19601f8201168201806040525081019061164d919061346c565b5060058460405161165e9190613bea565b90815260200160405180910390206000808201600061167d91906123d4565b6001820160009055600282016000905560038201600090556004820160006101000a81549073ffffffffffffffffffffffffffffffffffffffff02191690556005820160006101000a81549073ffffffffffffffffffffffffffffffffffffffff02191690556005820160146101000a81549060ff021916905560068201600061170791906123d4565b60078201600090555050600191505092915050565b6006818154811061172c57600080fd5b906000526020600020906007020160009150905080600001805461174f90613301565b80601f016020809104026020016040519081016040528092919081815260200182805461177b90613301565b80156117c85780601f1061179d576101008083540402835291602001916117c8565b820191906000526020600020905b8154815290600101906020018083116117ab57829003601f168201915b5050505050908060010180546117dd90613301565b80601f016020809104026020016040519081016040528092919081815260200182805461180990613301565b80156118565780601f1061182b57610100808354040283529160200191611856565b820191906000526020600020905b81548152906001019060200180831161183957829003601f168201915b5050505050908060020160009054906101000a900473ffffffffffffffffffffffffffffffffffffffff16908060030154908060040154908060050154908060060154905087565b6118a6612414565b6005826040516118b69190613bea565b9081526020016040518091039020604051806101200160405290816000820180546118e090613301565b80601f016020809104026020016040519081016040528092919081815260200182805461190c90613301565b80156119595780601f1061192e57610100808354040283529160200191611959565b820191906000526020600020905b81548152906001019060200180831161193c57829003601f168201915b505050505081526020016001820154815260200160028201548152602001600382015481526020016004820160009054906101000a900473ffffffffffffffffffffffffffffffffffffffff1673ffffffffffffffffffffffffffffffffffffffff1673ffffffffffffffffffffffffffffffffffffffff1681526020016005820160009054906101000a900473ffffffffffffffffffffffffffffffffffffffff1673ffffffffffffffffffffffffffffffffffffffff1673ffffffffffffffffffffffffffffffffffffffff1681526020016005820160149054906101000a900460ff16151515158152602001600682018054611a5790613301565b80601f0160208091040260200160405190810160405280929190818152602001828054611a8390613301565b8015611ad05780601f10611aa557610100808354040283529160200191611ad0565b820191906000526020600020905b815481529060010190602001808311611ab357829003601f168201915b505050505081526020016007820154815250509050919050565b6000600583604051611afc9190613bea565b908152602001604051809103902060405180610120016040529081600082018054611b2690613301565b80601f0160208091040260200160405190810160405280929190818152602001828054611b5290613301565b8015611b9f5780601f10611b7457610100808354040283529160200191611b9f565b820191906000526020600020905b815481529060010190602001808311611b8257829003601f168201915b505050505081526020016001820154815260200160028201548152602001600382015481526020016004820160009054906101000a900473ffffffffffffffffffffffffffffffffffffffff1673ffffffffffffffffffffffffffffffffffffffff1673ffffffffffffffffffffffffffffffffffffffff1681526020016005820160009054906101000a900473ffffffffffffffffffffffffffffffffffffffff1673ffffffffffffffffffffffffffffffffffffffff1673ffffffffffffffffffffffffffffffffffffffff1681526020016005820160149054906101000a900460ff16151515158152602001600682018054611c9d90613301565b80601f0160208091040260200160405190810160405280929190818152602001828054611cc990613301565b8015611d165780601f10611ceb57610100808354040283529160200191611d16565b820191906000526020600020905b815481529060010190602001808311611cf957829003601f168201915b505050505081526020016007820154815250509050828051906020012081600001518051906020012014611d7f576040517f08c379a0000000000000000000000000000000000000000000000000000000008152600401611d7690613e3a565b60405180910390fd5b42816060015111611dc5576040517f08c379a0000000000000000000000000000000000000000000000000000000008152600401611dbc90613ea6565b60405180910390fd5b806080015173ffffffffffffffffffffffffffffffffffffffff163373ffffffffffffffffffffffffffffffffffffffff1603611e37576040517f08c379a0000000000000000000000000000000000000000000000000000000008152600401611e2e90613f12565b60405180910390fd5b600583604051611e479190613bea565b908152602001604051809103902060008082016000611e6691906123d4565b6001820160009055600282016000905560038201600090556004820160006101000a81549073ffffffffffffffffffffffffffffffffffffffff02191690556005820160006101000a81549073ffffffffffffffffffffffffffffffffffffffff02191690556005820160146101000a81549060ff0219169055600682016000611ef091906123d4565b6007820160009055505060066040518060e001604052808481526020018360e0015181526020018360a0015173ffffffffffffffffffffffffffffffffffffffff168152602001836040015181526020018360200151815260200142815260200183610100015181525090806001815401808255809150506001900390600052602060002090600702016000909190919091506000820151816000019081611f989190613c01565b506020820151816001019081611fae9190613c01565b5060408201518160020160006101000a81548173ffffffffffffffffffffffffffffffffffffffff021916908373ffffffffffffffffffffffffffffffffffffffff160217905550606082015181600301556080820151816004015560a0820151816005015560c08201518160060155505060005b60078054905081101561210e5783805190602001206007828154811061204c5761204b61339e565b5b906000526020600020016040516120639190613fd5565b6040518091039020036120fb57600760016007805490506120849190613510565b815481106120955761209461339e565b5b90600052602060002001600782815481106120b3576120b261339e565b5b9060005260206000200190816120c99190614002565b5060078054806120dc576120db6137ee565b5b6001900381819060005260206000200160006120f891906123d4565b90555b8080612106906134c8565b915050612023565b50505050565b60058180516020810182018051848252602083016020850120818352809550505050505060009150905080600001805461214d90613301565b80601f016020809104026020016040519081016040528092919081815260200182805461217990613301565b80156121c65780601f1061219b576101008083540402835291602001916121c6565b820191906000526020600020905b8154815290600101906020018083116121a957829003601f168201915b5050505050908060010154908060020154908060030154908060040160009054906101000a900473ffffffffffffffffffffffffffffffffffffffff16908060050160009054906101000a900473ffffffffffffffffffffffffffffffffffffffff16908060050160149054906101000a900460ff169080600601805461224c90613301565b80601f016020809104026020016040519081016040528092919081815260200182805461227890613301565b80156122c55780601f1061229a576101008083540402835291602001916122c5565b820191906000526020600020905b8154815290600101906020018083116122a857829003601f168201915b5050505050908060070154905089565b600860009054906101000a900473ffffffffffffffffffffffffffffffffffffffff1681565b60606007805480602002602001604051908101604052809291908181526020016000905b828210156123cb57838290600052602060002001805461233e90613301565b80601f016020809104026020016040519081016040528092919081815260200182805461236a90613301565b80156123b75780601f1061238c576101008083540402835291602001916123b7565b820191906000526020600020905b81548152906001019060200180831161239a57829003601f168201915b50505050508152602001906001019061231f565b50505050905090565b5080546123e090613301565b6000825580601f106123f25750612411565b601f016020900490600052602060002090810190612410919061248e565b5b50565b60405180610120016040528060608152602001600081526020016000815260200160008152602001600073ffffffffffffffffffffffffffffffffffffffff168152602001600073ffffffffffffffffffffffffffffffffffffffff16815260200160001515815260200160608152602001600081525090565b5b808211156124a757600081600090555060010161248f565b5090565b600081519050919050565b600082825260208201905092915050565b6000819050602082019050919050565b600081519050919050565b600082825260208201905092915050565b60005b838110156125115780820151818401526020810190506124f6565b60008484015250505050565b6000601f19601f8301169050919050565b6000612539826124d7565b61254381856124e2565b93506125538185602086016124f3565b61255c8161251d565b840191505092915050565b600073ffffffffffffffffffffffffffffffffffffffff82169050919050565b600061259282612567565b9050919050565b6125a281612587565b82525050565b6000819050919050565b6125bb816125a8565b82525050565b600060e08301600083015184820360008601526125de828261252e565b915050602083015184820360208601526125f8828261252e565b915050604083015161260d6040860182612599565b50606083015161262060608601826125b2565b50608083015161263360808601826125b2565b5060a083015161264660a08601826125b2565b5060c083015161265960c08601826125b2565b508091505092915050565b600061267083836125c1565b905092915050565b6000602082019050919050565b6000612690826124ab565b61269a81856124b6565b9350836020820285016126ac856124c7565b8060005b858110156126e857848403895281516126c98582612664565b94506126d483612678565b925060208a019950506001810190506126b0565b50829750879550505050505092915050565b600060208201905081810360008301526127148184612685565b905092915050565b6000604051905090565b600080fd5b600080fd5b612739816125a8565b811461274457600080fd5b50565b60008135905061275681612730565b92915050565b60006020828403121561277257612771612726565b5b600061278084828501612747565b91505092915050565b600082825260208201905092915050565b60006127a5826124d7565b6127af8185612789565b93506127bf8185602086016124f3565b6127c88161251d565b840191505092915050565b600060208201905081810360008301526127ed818461279a565b905092915050565b600080fd5b7f4e487b7100000000000000000000000000000000000000000000000000000000600052604160045260246000fd5b6128328261251d565b810181811067ffffffffffffffff82111715612851576128506127fa565b5b80604052505050565b600061286461271c565b90506128708282612829565b919050565b600067ffffffffffffffff8211156128905761288f6127fa565b5b602082029050602081019050919050565b600080fd5b60008115159050919050565b6128bb816128a6565b81146128c657600080fd5b50565b6000813590506128d8816128b2565b92915050565b60006128f16128ec84612875565b61285a565b90508083825260208201905060208402830185811115612914576129136128a1565b5b835b8181101561293d578061292988826128c9565b845260208401935050602081019050612916565b5050509392505050565b600082601f83011261295c5761295b6127f5565b5b813561296c8482602086016128de565b91505092915050565b60006020828403121561298b5761298a612726565b5b600082013567ffffffffffffffff8111156129a9576129a861272b565b5b6129b584828501612947565b91505092915050565b600080fd5b600067ffffffffffffffff8211156129de576129dd6127fa565b5b6129e78261251d565b9050602081019050919050565b82818337600083830152505050565b6000612a16612a11846129c3565b61285a565b905082815260208101848484011115612a3257612a316129be565b5b612a3d8482856129f4565b509392505050565b600082601f830112612a5a57612a596127f5565b5b8135612a6a848260208601612a03565b91505092915050565b612a7c81612587565b8114612a8757600080fd5b50565b600081359050612a9981612a73565b92915050565b600067ffffffffffffffff821115612aba57612ab96127fa565b5b612ac38261251d565b9050602081019050919050565b6000612ae3612ade84612a9f565b61285a565b905082815260208101848484011115612aff57612afe6129be565b5b612b0a8482856129f4565b509392505050565b600082601f830112612b2757612b266127f5565b5b8135612b37848260208601612ad0565b91505092915050565b6000819050919050565b612b5381612b40565b8114612b5e57600080fd5b50565b600081359050612b7081612b4a565b92915050565b6000806000806000806000806000806101408b8d031215612b9a57612b99612726565b5b60008b013567ffffffffffffffff811115612bb857612bb761272b565b5b612bc48d828e01612a45565b9a50506020612bd58d828e01612747565b9950506040612be68d828e01612747565b9850506060612bf78d828e01612747565b9750506080612c088d828e01612a8a565b96505060a08b013567ffffffffffffffff811115612c2957612c2861272b565b5b612c358d828e01612a45565b95505060c0612c468d828e01612747565b94505060e0612c578d828e01612a8a565b9350506101008b013567ffffffffffffffff811115612c7957612c7861272b565b5b612c858d828e01612b12565b925050610120612c978d828e01612b61565b9150509295989b9194979a5092959850565b612cb2816128a6565b82525050565b6000602082019050612ccd6000830184612ca9565b92915050565b600081519050919050565b600082825260208201905092915050565b6000819050602082019050919050565b612d08816128a6565b82525050565b6000610120830160008301518482036000860152612d2c828261252e565b9150506020830151612d4160208601826125b2565b506040830151612d5460408601826125b2565b506060830151612d6760608601826125b2565b506080830151612d7a6080860182612599565b5060a0830151612d8d60a0860182612599565b5060c0830151612da060c0860182612cff565b5060e083015184820360e0860152612db8828261252e565b915050610100830151612dcf6101008601826125b2565b508091505092915050565b6000612de68383612d0e565b905092915050565b6000602082019050919050565b6000612e0682612cd3565b612e108185612cde565b935083602082028501612e2285612cef565b8060005b85811015612e5e5784840389528151612e3f8582612dda565b9450612e4a83612dee565b925060208a01995050600181019050612e26565b50829750879550505050505092915050565b60006020820190508181036000830152612e8a8184612dfb565b905092915050565b60008060408385031215612ea957612ea8612726565b5b600083013567ffffffffffffffff811115612ec757612ec661272b565b5b612ed385828601612a45565b9250506020612ee485828601612a8a565b9150509250929050565b612ef781612587565b82525050565b612f06816125a8565b82525050565b600060e0820190508181036000830152612f26818a61279a565b90508181036020830152612f3a818961279a565b9050612f496040830188612eee565b612f566060830187612efd565b612f636080830186612efd565b612f7060a0830185612efd565b612f7d60c0830184612efd565b98975050505050505050565b600060208284031215612f9f57612f9e612726565b5b600082013567ffffffffffffffff811115612fbd57612fbc61272b565b5b612fc984828501612a45565b91505092915050565b6000610120830160008301518482036000860152612ff0828261252e565b915050602083015161300560208601826125b2565b50604083015161301860408601826125b2565b50606083015161302b60608601826125b2565b50608083015161303e6080860182612599565b5060a083015161305160a0860182612599565b5060c083015161306460c0860182612cff565b5060e083015184820360e086015261307c828261252e565b9150506101008301516130936101008601826125b2565b508091505092915050565b600060208201905081810360008301526130b88184612fd2565b905092915050565b600080604083850312156130d7576130d6612726565b5b600083013567ffffffffffffffff8111156130f5576130f461272b565b5b61310185828601612a45565b925050602083013567ffffffffffffffff8111156131225761312161272b565b5b61312e85828601612a45565b9150509250929050565b6000610120820190508181036000830152613153818c61279a565b9050613162602083018b612efd565b61316f604083018a612efd565b61317c6060830189612efd565b6131896080830188612eee565b61319660a0830187612eee565b6131a360c0830186612ca9565b81810360e08301526131b5818561279a565b90506131c5610100830184612efd565b9a9950505050505050505050565b60006020820190506131e86000830184612eee565b92915050565b600081519050919050565b600082825260208201905092915050565b6000819050602082019050919050565b6000613226838361252e565b905092915050565b6000602082019050919050565b6000613246826131ee565b61325081856131f9565b9350836020820285016132628561320a565b8060005b8581101561329e578484038952815161327f858261321a565b945061328a8361322e565b925060208a01995050600181019050613266565b50829750879550505050505092915050565b600060208201905081810360008301526132ca818461323b565b905092915050565b7f4e487b7100000000000000000000000000000000000000000000000000000000600052602260045260246000fd5b6000600282049050600182168061331957607f821691505b60208210810361332c5761332b6132d2565b5b50919050565b7f73656e646572206973206e6f74206f776e657200000000000000000000000000600082015250565b6000613368601383612789565b915061337382613332565b602082019050919050565b600060208201905081810360008301526133978161335b565b9050919050565b7f4e487b7100000000000000000000000000000000000000000000000000000000600052603260045260246000fd5b600060a08201905081810360008301526133e7818861279a565b905081810360208301526133fb818761279a565b905061340a6040830186612efd565b6134176060830185612efd565b6134246080830184612efd565b9695505050505050565b60006040820190506134436000830185612efd565b6134506020830184612eee565b9392505050565b600081519050613466816128b2565b92915050565b60006020828403121561348257613481612726565b5b600061349084828501613457565b91505092915050565b7f4e487b7100000000000000000000000000000000000000000000000000000000600052601160045260246000fd5b60006134d3826125a8565b91507fffffffffffffffffffffffffffffffffffffffffffffffffffffffffffffffff820361350557613504613499565b5b600182019050919050565b600061351b826125a8565b9150613526836125a8565b925082820390508181111561353e5761353d613499565b5b92915050565b60008154905061355381613301565b9050919050565b60008190508160005260206000209050919050565b60006020601f8301049050919050565b600082821b905092915050565b6000600883026135bc7fffffffffffffffffffffffffffffffffffffffffffffffffffffffffffffffff8261357f565b6135c6868361357f565b95508019841693508086168417925050509392505050565b6000819050919050565b60006136036135fe6135f9846125a8565b6135de565b6125a8565b9050919050565b6000819050919050565b61361d836135e8565b6136316136298261360a565b84845461358c565b825550505050565b600090565b613646613639565b613651818484613614565b505050565b5b818110156136755761366a60008261363e565b600181019050613657565b5050565b601f8211156136ba5761368b8161355a565b6136948461356f565b810160208510156136a3578190505b6136b76136af8561356f565b830182613656565b50505b505050565b600082821c905092915050565b60006136dd600019846008026136bf565b1980831691505092915050565b60006136f683836136cc565b9150826002028217905092915050565b8181036137145750506137ec565b61371d82613544565b67ffffffffffffffff811115613736576137356127fa565b5b6137408254613301565b61374b828285613679565b6000601f83116001811461377a5760008415613768578287015490505b61377285826136ea565b8655506137e5565b601f1984166137888761355a565b96506137938661355a565b60005b828110156137bb57848901548255600182019150600185019450602081019050613796565b868310156137d857848901546137d4601f8916826136cc565b8355505b6001600288020188555050505b5050505050505b565b7f4e487b7100000000000000000000000000000000000000000000000000000000600052603160045260246000fd5b6000613828826125a8565b9150613833836125a8565b9250828202613841816125a8565b9150828204841483151761385857613857613499565b5b5092915050565b600061386a826125a8565b9150613875836125a8565b925082820190508082111561388d5761388c613499565b5b92915050565b7f4e6f6e636520776173207573656420726563656e746c79000000000000000000600082015250565b60006138c9601783612789565b91506138d482613893565b602082019050919050565b600060208201905081810360008301526138f8816138bc565b9050919050565b60006040820190506139146000830185612eee565b6139216020830184612eee565b9392505050565b7f536d617274204d65746572206e6f74207265676973746572656420627920445360008201527f4f00000000000000000000000000000000000000000000000000000000000000602082015250565b6000613984602183612789565b915061398f82613928565b604082019050919050565b600060208201905081810360008301526139b381613977565b9050919050565b7f4f6666657273206c6966657370616e20697320746f6f206c6f6e670000000000600082015250565b60006139f0601b83612789565b91506139fb826139ba565b602082019050919050565b60006020820190508181036000830152613a1f816139e3565b9050919050565b7f4f6e6c79206f776e65722063616e20616464206f666665720000000000000000600082015250565b6000613a5c601883612789565b9150613a6782613a26565b602082019050919050565b60006020820190508181036000830152613a8b81613a4f565b9050919050565b600081519050919050565b600082825260208201905092915050565b6000613ab982613a92565b613ac38185613a9d565b9350613ad38185602086016124f3565b613adc8161251d565b840191505092915050565b613af081612b40565b82525050565b6000608082019050613b0b6000830187612efd565b8181036020830152613b1d8186613aae565b9050613b2c6040830185613ae7565b613b396060830184612eee565b95945050505050565b7f4e6f7420656e6f7567682073746f72656420656e657267790000000000000000600082015250565b6000613b78601883612789565b9150613b8382613b42565b602082019050919050565b60006020820190508181036000830152613ba781613b6b565b9050919050565b600081905092915050565b6000613bc4826124d7565b613bce8185613bae565b9350613bde8185602086016124f3565b80840191505092915050565b6000613bf68284613bb9565b915081905092915050565b613c0a826124d7565b67ffffffffffffffff811115613c2357613c226127fa565b5b613c2d8254613301565b613c38828285613679565b600060209050601f831160018114613c6b5760008415613c59578287015190505b613c6385826136ea565b865550613ccb565b601f198416613c798661355a565b60005b82811015613ca157848901518255600182019150602085019450602081019050613c7c565b86831015613cbe5784890151613cba601f8916826136cc565b8355505b6001600288020188555050505b505050505050565b60008190508160005260206000209050919050565b60008154613cf581613301565b613cff8186613bae565b94506001821660008114613d1a5760018114613d2f57613d62565b60ff1983168652811515820286019350613d62565b613d3885613cd3565b60005b83811015613d5a57815481890152600182019150602081019050613d3b565b838801955050505b50505092915050565b6000613d778284613ce8565b915081905092915050565b7f4f6e6c79206f776e65722063616e2072656d6f7665206f666665720000000000600082015250565b6000613db8601b83612789565b9150613dc382613d82565b602082019050919050565b60006020820190508181036000830152613de781613dab565b9050919050565b7f4e6f206f6666657220666f756e64000000000000000000000000000000000000600082015250565b6000613e24600e83612789565b9150613e2f82613dee565b602082019050919050565b60006020820190508181036000830152613e5381613e17565b9050919050565b7f43616e6e6f74206275792065787069726564206f666665720000000000000000600082015250565b6000613e90601883612789565b9150613e9b82613e5a565b602082019050919050565b60006020820190508181036000830152613ebf81613e83565b9050919050565b7f4f776e65722063616e6e6f7420627579206f776e206f66666572000000000000600082015250565b6000613efc601a83612789565b9150613f0782613ec6565b602082019050919050565b60006020820190508181036000830152613f2b81613eef565b9050919050565b600081905092915050565b60008190508160005260206000209050919050565b60008154613f5f81613301565b613f698186613f32565b94506001821660008114613f845760018114613f9957613fcc565b60ff1983168652811515820286019350613fcc565b613fa285613f3d565b60005b83811015613fc457815481890152600182019150602081019050613fa5565b838801955050505b50505092915050565b6000613fe18284613f52565b915081905092915050565b600081549050613ffb81613301565b9050919050565b8181036140105750506140e8565b61401982613fec565b67ffffffffffffffff811115614032576140316127fa565b5b61403c8254613301565b614047828285613679565b6000601f8311600181146140765760008415614064578287015490505b61406e85826136ea565b8655506140e1565b601f19841661408487613cd3565b965061408f8661355a565b60005b828110156140b757848901548255600182019150600185019450602081019050614092565b868310156140d457848901546140d0601f8916826136cc565b8355505b6001600288020188555050505b5050505050505b56fea2646970667358221220d67f69b6b691b4f39cf9c5d6efbbeb00b34ce98773982357c3122ca72f00da2564736f6c63430008130033",
  "immutableReferences": {},
  "source": "// SPDX-License-Identifier: GPL-3.0\n// pragma experimental ABIEncoderV2;\npragma solidity ^0.8.9;\n\ninterface IDSO {\n    function registerKey(\n        address smartMeterPubKey,\n        address smartMeterAddress\n    ) external;\n\n    function isRegisteredKey(\n        address smartMeterPubKey,\n        address smartMeterAddress\n    ) external view returns (bool);\n\n    function removeRegisteredKey(address smartMeterPubKey) external;\n}\n\ninterface ISmartMeter {\n    function returnReservedBatteryCharge(\n        uint amount,\n        address smartMeterInstance\n    ) external returns (bool);\n\n    function subtractBatteryCharge(\n        uint amount,\n        bytes memory ots,\n        bytes32 nextOtsHash,\n        address smartMeterInstance\n    ) external returns (bool);\n\n    function getBatteryCharge() external view returns (uint);\n}\n\ncontract Market {\n    address owner;\n    IDSO dso;\n    uint maxOfferLivespan = 1000 * 60 * 60 * 24 * 7;\n    ISmartMeter smartMeter;\n    address dsoAddress;\n\n    struct Offer {\n        string id;\n        uint price;\n        uint amount;\n        uint expiration;\n        address owner;\n        address smartMeterAddress;\n        bool active;\n        string sellerSignature;\n        uint nonce;\n    }\n\n    struct PendingConfirmationOffer {\n        string buyerSignature;\n        string sellerSignature;\n        address smartMeterAddress;\n        uint amount; // Wh\n        uint price; // Euro cents\n        uint timestamp; // Unix\n        uint nonce;\n    }\n\n    mapping(string => Offer) public offers;\n    PendingConfirmationOffer[] public pendingConfirmationOffers;\n\n    string[] public offerIds;\n    address public lastestSupplyChainAddress;\n\n    // mapping is nonce to the timestamp it was used at.\n    mapping(uint => uint) private usedNonces;\n\n    modifier nonceGuard(uint nonce) {\n        uint timestamp = usedNonces[nonce];\n        // nonce was used within the last two weeks.\n        if (timestamp + maxOfferLivespan * 2 > block.timestamp * 1000) {\n            revert(\"Nonce was used recently\");\n        }\n        _;\n    }\n\n    constructor(\n        address _dsoAddress,\n        address _smartMeterContractAddress\n    ) payable {\n        owner = msg.sender;\n        dso = IDSO(_dsoAddress);\n        dsoAddress = _dsoAddress;\n        smartMeter = ISmartMeter(_smartMeterContractAddress);\n    }\n\n    function addOffer(\n        string memory id,\n        uint amount,\n        uint price,\n        uint expiration,\n        address smartMeterAddress,\n        string memory sellerSignature,\n        uint nonce,\n        address sellerAddress,\n        bytes memory ots,\n        bytes32 nextOtsHash\n    ) public nonceGuard(nonce) returns (bool) {\n        // Require conditions\n        require(\n            dso.isRegisteredKey(msg.sender, smartMeterAddress),\n            \"Smart Meter not registered by DSO\"\n        );\n        require(\n            block.timestamp * 1000 + maxOfferLivespan > expiration,\n            \"Offers lifespan is too long\"\n        );\n        require(sellerAddress == msg.sender, \"Only owner can add offer\");\n\n        require(\n            smartMeter.subtractBatteryCharge(\n                amount,\n                ots,\n                nextOtsHash,\n                smartMeterAddress\n            ),\n            \"Not enough stored energy\"\n        );\n\n        // Adding offer\n        usedNonces[nonce] = block.timestamp * 1000;\n        offers[id] = Offer({\n            id: id,\n            amount: amount,\n            price: price,\n            expiration: expiration,\n            owner: msg.sender,\n            smartMeterAddress: smartMeterAddress,\n            active: true,\n            sellerSignature: sellerSignature,\n            nonce: nonce\n        });\n        offerIds.push(id);\n\n        return true;\n    }\n\n    function removeOffer(\n        string memory id,\n        address smartMeterAddress\n    ) public returns (bool) {\n        // Initialization\n        Offer memory offer = offers[id];\n\n        // Require conditions\n        require(msg.sender == offer.owner, \"Only owner can remove offer\");\n\n        // Removing offer\n        smartMeter.returnReservedBatteryCharge(offer.amount, smartMeterAddress);\n        delete offers[id];\n\n        return true;\n    }\n\n    function buyOffer(string memory id, string memory buyerSignature) public {\n        // Initialization\n        Offer memory offer = offers[id];\n\n        // Require conditions\n        require(\n            keccak256(bytes(offer.id)) == keccak256(bytes(id)),\n            \"No offer found\"\n        );\n        require(offer.expiration > block.timestamp, \"Cannot buy expired offer\");\n        require(msg.sender != offer.owner, \"Owner cannot buy own offer\");\n\n        // Buying offer and creating SupplyContract\n\n        delete offers[id];\n\n        pendingConfirmationOffers.push(\n            PendingConfirmationOffer({\n                buyerSignature: buyerSignature,\n                sellerSignature: offer.sellerSignature,\n                amount: offer.amount,\n                price: offer.price,\n                timestamp: block.timestamp,\n                nonce: offer.nonce,\n                smartMeterAddress: offer.smartMeterAddress\n            })\n        );\n\n        for (uint i = 0; i < offerIds.length; i++) {\n            // String comparison to remove purchased offer\n            if (keccak256(bytes(offerIds[i])) == keccak256(bytes(id))) {\n                offerIds[i] = offerIds[offerIds.length - 1];\n                offerIds.pop();\n            }\n        }\n    }\n\n    function getOffer(string memory id) public view returns (Offer memory) {\n        return offers[id];\n    }\n\n    function getOffers() public view returns (Offer[] memory) {\n        Offer[] memory offersReturn = new Offer[](offerIds.length);\n        for (uint i = 0; i < offerIds.length; i++) {\n            string storage offerId = offerIds[i];\n            Offer storage offer = offers[offerId];\n\n            offersReturn[i] = offer;\n        }\n        return offersReturn;\n    }\n\n    function getOfferIDs() public view returns (string[] memory) {\n        return offerIds;\n    }\n\n    function getPendingOffers()\n        public\n        view\n        returns (PendingConfirmationOffer[] memory)\n    {\n        return pendingConfirmationOffers;\n    }\n\n    event ApproveOffer(\n        string buyerSignature,\n        string sellerSignature,\n        uint amount,\n        uint timestamp,\n        uint price\n    );\n\n\n    function validatePendingOffers(\n        bool[] memory offerIndicies\n    ) public {\n        require(msg.sender == owner, \"sender is not owner\");\n        for (uint i = 0; i < offerIndicies.length; i++) {\n            PendingConfirmationOffer memory offer = pendingConfirmationOffers[\n                i\n            ];\n            //if it's an accepted index we emit our event\n            if (offerIndicies[i] == true) {\n                emit ApproveOffer(\n                    offer.buyerSignature,\n                    offer.sellerSignature,\n                    offer.amount,\n                    offer.timestamp,\n                    offer.price\n                );\n            } else {\n                // if not the owner gets their battery back.\n                smartMeter.returnReservedBatteryCharge(\n                    offer.amount,\n                    offer.smartMeterAddress\n                );\n            }\n        }\n        // we loop agian to clean up the list\n        for (uint i = 0; i < offerIndicies.length; i++) {\n            // We move the indicies not yet approved down.\n            if (offerIndicies.length < pendingConfirmationOffers.length - i) {\n                pendingConfirmationOffers[i] = pendingConfirmationOffers[\n                    pendingConfirmationOffers.length - 1 - i\n                ];\n            }\n            // And lastly we pop everytime.\n            pendingConfirmationOffers.pop();\n        } \n    }\n}\n",
  "sourcePath": "/home/nobert/speciale/blockchain/contracts/Market.sol",
  "compiler": {
    "name": "solc",
    "version": "0.8.19+commit.7dd6d404.Emscripten.clang"
  },
  "schemaVersion": "3.4.16",
  "updatedAt": "2024-01-18T10:06:43.846Z",
  "networkType": "ethereum",
  "devdoc": {
    "kind": "dev",
    "methods": {},
    "version": 1
  },
  "userdoc": {
    "kind": "user",
    "methods": {},
    "version": 1
  }
}