{
  "contractName": "Market",
  "abi": [
    {
      "inputs": [
        {
          "internalType": "address",
          "name": "_cableCompanyAddress",
          "type": "address"
        }
      ],
      "stateMutability": "payable",
      "type": "constructor"
    },
    {
      "inputs": [],
      "name": "lastestSupplyChainAddress",
      "outputs": [
        {
          "internalType": "address",
          "name": "",
          "type": "address"
        }
      ],
      "stateMutability": "view",
      "type": "function"
    },
    {
      "inputs": [
        {
          "internalType": "uint256",
          "name": "",
          "type": "uint256"
        }
      ],
      "name": "offerIds",
      "outputs": [
        {
          "internalType": "string",
          "name": "",
          "type": "string"
        }
      ],
      "stateMutability": "view",
      "type": "function"
    },
    {
      "inputs": [
        {
          "internalType": "string",
          "name": "id",
          "type": "string"
        },
        {
          "internalType": "uint256",
          "name": "amount",
          "type": "uint256"
        },
        {
          "internalType": "uint256",
          "name": "price",
          "type": "uint256"
        },
        {
          "internalType": "uint256",
          "name": "expiration",
          "type": "uint256"
        },
        {
          "internalType": "address",
          "name": "smartMeterAddress",
          "type": "address"
        },
        {
          "internalType": "string",
          "name": "sellerSignature",
          "type": "string"
        }
      ],
      "name": "addOffer",
      "outputs": [
        {
          "internalType": "bool",
          "name": "",
          "type": "bool"
        }
      ],
      "stateMutability": "nonpayable",
      "type": "function"
    },
    {
      "inputs": [
        {
          "internalType": "string",
          "name": "id",
          "type": "string"
        },
        {
          "internalType": "address",
          "name": "smartMeterAddress",
          "type": "address"
        }
      ],
      "name": "removeOffer",
      "outputs": [
        {
          "internalType": "bool",
          "name": "",
          "type": "bool"
        }
      ],
      "stateMutability": "nonpayable",
      "type": "function"
    },
    {
      "inputs": [
        {
          "internalType": "string",
          "name": "id",
          "type": "string"
        },
        {
          "internalType": "string",
          "name": "buyerSignature",
          "type": "string"
        }
      ],
      "name": "buyOffer",
      "outputs": [
        {
          "internalType": "address",
          "name": "",
          "type": "address"
        }
      ],
      "stateMutability": "nonpayable",
      "type": "function"
    },
    {
      "inputs": [
        {
          "internalType": "string",
          "name": "id",
          "type": "string"
        }
      ],
      "name": "getOffer",
      "outputs": [
        {
          "components": [
            {
              "internalType": "string",
              "name": "id",
              "type": "string"
            },
            {
              "internalType": "uint256",
              "name": "price",
              "type": "uint256"
            },
            {
              "internalType": "uint256",
              "name": "amount",
              "type": "uint256"
            },
            {
              "internalType": "uint256",
              "name": "expiration",
              "type": "uint256"
            },
            {
              "internalType": "address",
              "name": "owner",
              "type": "address"
            },
            {
              "internalType": "address",
              "name": "smartMeterAddress",
              "type": "address"
            },
            {
              "internalType": "bool",
              "name": "active",
              "type": "bool"
            },
            {
              "internalType": "string",
              "name": "sellerSignature",
              "type": "string"
            }
          ],
          "internalType": "struct Market.Offer",
          "name": "",
          "type": "tuple"
        }
      ],
      "stateMutability": "view",
      "type": "function"
    },
    {
      "inputs": [],
      "name": "getOffers",
      "outputs": [
        {
          "components": [
            {
              "internalType": "string",
              "name": "id",
              "type": "string"
            },
            {
              "internalType": "uint256",
              "name": "price",
              "type": "uint256"
            },
            {
              "internalType": "uint256",
              "name": "amount",
              "type": "uint256"
            },
            {
              "internalType": "uint256",
              "name": "expiration",
              "type": "uint256"
            },
            {
              "internalType": "address",
              "name": "owner",
              "type": "address"
            },
            {
              "internalType": "address",
              "name": "smartMeterAddress",
              "type": "address"
            },
            {
              "internalType": "bool",
              "name": "active",
              "type": "bool"
            },
            {
              "internalType": "string",
              "name": "sellerSignature",
              "type": "string"
            }
          ],
          "internalType": "struct Market.Offer[]",
          "name": "",
          "type": "tuple[]"
        }
      ],
      "stateMutability": "view",
      "type": "function"
    },
    {
      "inputs": [],
      "name": "getOfferIDs",
      "outputs": [
        {
          "internalType": "string[]",
          "name": "",
          "type": "string[]"
        }
      ],
      "stateMutability": "view",
      "type": "function"
    },
    {
      "inputs": [],
      "name": "getLatestSupplyContract",
      "outputs": [
        {
          "internalType": "address",
          "name": "",
          "type": "address"
        }
      ],
      "stateMutability": "view",
      "type": "function"
    },
    {
      "inputs": [],
      "name": "getPendingOffers",
      "outputs": [
        {
          "internalType": "address",
          "name": "",
          "type": "address"
        }
      ],
      "stateMutability": "view",
      "type": "function"
    }
  ],
  "bytecode": "0x608060405260405162003bd538038062003bd583398181016040528101906200002991906200011b565b336000806101000a81548173ffffffffffffffffffffffffffffffffffffffff021916908373ffffffffffffffffffffffffffffffffffffffff16021790555080600160006101000a81548173ffffffffffffffffffffffffffffffffffffffff021916908373ffffffffffffffffffffffffffffffffffffffff160217905550506200014d565b600080fd5b600073ffffffffffffffffffffffffffffffffffffffff82169050919050565b6000620000e382620000b6565b9050919050565b620000f581620000d6565b81146200010157600080fd5b50565b6000815190506200011581620000ea565b92915050565b600060208284031215620001345762000133620000b1565b5b6000620001448482850162000104565b91505092915050565b613a78806200015d6000396000f3fe60806040523480156200001157600080fd5b5060043610620000ac5760003560e01c80637a510116116200006f5780637a5101161462000197578063a81333c414620001cd578063cdc2e6d714620001ef578063d6b85e8f1462000225578063f6a80192146200024757620000ac565b80630753c9e314620000b1578063110b9d8914620000d35780632976eede14620001095780633ee992ee146200013f57806354e69aaa1462000161575b600080fd5b620000bb62000269565b604051620000ca919062001898565b60405180910390f35b620000f16004803603810190620000eb919062001904565b62000293565b604051620001009190620019d0565b60405180910390f35b62000127600480360381019062000121919062001b76565b62000348565b60405162000136919062001c6d565b60405180910390f35b62000149620006c5565b60405162000158919062001ea6565b60405180910390f35b6200017f600480360381019062000179919062001eca565b620009ec565b6040516200018e919062001c6d565b60405180910390f35b620001b56004803603810190620001af919062001f30565b62000e03565b604051620001c4919062002048565b60405180910390f35b620001d762001059565b604051620001e6919062001898565b60405180910390f35b6200020d60048036038101906200020791906200206c565b62001083565b6040516200021c919062001898565b60405180910390f35b6200022f62001664565b6040516200023e919062001898565b60405180910390f35b620002516200168a565b604051620002609190620021c1565b60405180910390f35b6000600560009054906101000a900473ffffffffffffffffffffffffffffffffffffffff16905090565b60048181548110620002a457600080fd5b906000526020600020016000915090508054620002c19062002214565b80601f0160208091040260200160405190810160405280929190818152602001828054620002ef9062002214565b8015620003405780601f10620003145761010080835404028352916020019162000340565b820191906000526020600020905b8154815290600101906020018083116200032257829003601f168201915b505050505081565b6000600160009054906101000a900473ffffffffffffffffffffffffffffffffffffffff1673ffffffffffffffffffffffffffffffffffffffff1663eb4e352d33856040518363ffffffff1660e01b8152600401620003a992919062002249565b602060405180830381865afa158015620003c7573d6000803e3d6000fd5b505050506040513d601f19601f82011682018060405250810190620003ed9190620022a7565b6200042f576040517f08c379a000000000000000000000000000000000000000000000000000000000815260040162000426906200234f565b60405180910390fd5b60008390508073ffffffffffffffffffffffffffffffffffffffff1663f709bda8886040518263ffffffff1660e01b81526004016200046f919062002382565b6020604051808303816000875af11580156200048f573d6000803e3d6000fd5b505050506040513d601f19601f82011682018060405250810190620004b59190620022a7565b620004f7576040517f08c379a0000000000000000000000000000000000000000000000000000000008152600401620004ee90620023ef565b60405180910390fd5b6040518061010001604052808981526020018781526020018881526020018681526020013373ffffffffffffffffffffffffffffffffffffffff1681526020018573ffffffffffffffffffffffffffffffffffffffff1681526020016001151581526020018481525060028960405162000572919062002453565b908152602001604051809103902060008201518160000190816200059791906200263e565b5060208201518160010155604082015181600201556060820151816003015560808201518160040160006101000a81548173ffffffffffffffffffffffffffffffffffffffff021916908373ffffffffffffffffffffffffffffffffffffffff16021790555060a08201518160050160006101000a81548173ffffffffffffffffffffffffffffffffffffffff021916908373ffffffffffffffffffffffffffffffffffffffff16021790555060c08201518160050160146101000a81548160ff02191690831515021790555060e08201518160060190816200067b91906200263e565b50905050600488908060018154018082558091505060019003906000526020600020016000909190919091509081620006b591906200263e565b5060019150509695505050505050565b6060600060048054905067ffffffffffffffff811115620006eb57620006ea620019fe565b5b6040519080825280602002602001820160405280156200072857816020015b620007146200176d565b8152602001906001900390816200070a5790505b50905060005b600480549050811015620009e45760006004828154811062000755576200075462002725565b5b9060005260206000200190506000600282604051620007759190620027f8565b908152602001604051809103902090508060405180610100016040529081600082018054620007a49062002214565b80601f0160208091040260200160405190810160405280929190818152602001828054620007d29062002214565b8015620008235780601f10620007f75761010080835404028352916020019162000823565b820191906000526020600020905b8154815290600101906020018083116200080557829003601f168201915b505050505081526020016001820154815260200160028201548152602001600382015481526020016004820160009054906101000a900473ffffffffffffffffffffffffffffffffffffffff1673ffffffffffffffffffffffffffffffffffffffff1673ffffffffffffffffffffffffffffffffffffffff1681526020016005820160009054906101000a900473ffffffffffffffffffffffffffffffffffffffff1673ffffffffffffffffffffffffffffffffffffffff1673ffffffffffffffffffffffffffffffffffffffff1681526020016005820160149054906101000a900460ff16151515158152602001600682018054620009239062002214565b80601f0160208091040260200160405190810160405280929190818152602001828054620009519062002214565b8015620009a25780601f106200097657610100808354040283529160200191620009a2565b820191906000526020600020905b8154815290600101906020018083116200098457829003601f168201915b505050505081525050848481518110620009c157620009c062002725565b5b602002602001018190525050508080620009db9062002840565b9150506200072e565b508091505090565b60008060028460405162000a01919062002453565b90815260200160405180910390206040518061010001604052908160008201805462000a2d9062002214565b80601f016020809104026020016040519081016040528092919081815260200182805462000a5b9062002214565b801562000aac5780601f1062000a805761010080835404028352916020019162000aac565b820191906000526020600020905b81548152906001019060200180831162000a8e57829003601f168201915b505050505081526020016001820154815260200160028201548152602001600382015481526020016004820160009054906101000a900473ffffffffffffffffffffffffffffffffffffffff1673ffffffffffffffffffffffffffffffffffffffff1673ffffffffffffffffffffffffffffffffffffffff1681526020016005820160009054906101000a900473ffffffffffffffffffffffffffffffffffffffff1673ffffffffffffffffffffffffffffffffffffffff1673ffffffffffffffffffffffffffffffffffffffff1681526020016005820160149054906101000a900460ff1615151515815260200160068201805462000bac9062002214565b80601f016020809104026020016040519081016040528092919081815260200182805462000bda9062002214565b801562000c2b5780601f1062000bff5761010080835404028352916020019162000c2b565b820191906000526020600020905b81548152906001019060200180831162000c0d57829003601f168201915b5050505050815250509050806080015173ffffffffffffffffffffffffffffffffffffffff163373ffffffffffffffffffffffffffffffffffffffff161462000cab576040517f08c379a000000000000000000000000000000000000000000000000000000000815260040162000ca290620028dd565b60405180910390fd5b60008390508073ffffffffffffffffffffffffffffffffffffffff1663997d182683604001516040518263ffffffff1660e01b815260040162000cef919062002382565b6020604051808303816000875af115801562000d0f573d6000803e3d6000fd5b505050506040513d601f19601f8201168201806040525081019062000d359190620022a7565b5060028560405162000d48919062002453565b90815260200160405180910390206000808201600062000d699190620017e0565b6001820160009055600282016000905560038201600090556004820160006101000a81549073ffffffffffffffffffffffffffffffffffffffff02191690556005820160006101000a81549073ffffffffffffffffffffffffffffffffffffffff02191690556005820160146101000a81549060ff021916905560068201600062000df59190620017e0565b505060019250505092915050565b62000e0d6200176d565b60028260405162000e1f919062002453565b90815260200160405180910390206040518061010001604052908160008201805462000e4b9062002214565b80601f016020809104026020016040519081016040528092919081815260200182805462000e799062002214565b801562000eca5780601f1062000e9e5761010080835404028352916020019162000eca565b820191906000526020600020905b81548152906001019060200180831162000eac57829003601f168201915b505050505081526020016001820154815260200160028201548152602001600382015481526020016004820160009054906101000a900473ffffffffffffffffffffffffffffffffffffffff1673ffffffffffffffffffffffffffffffffffffffff1673ffffffffffffffffffffffffffffffffffffffff1681526020016005820160009054906101000a900473ffffffffffffffffffffffffffffffffffffffff1673ffffffffffffffffffffffffffffffffffffffff1673ffffffffffffffffffffffffffffffffffffffff1681526020016005820160149054906101000a900460ff1615151515815260200160068201805462000fca9062002214565b80601f016020809104026020016040519081016040528092919081815260200182805462000ff89062002214565b8015620010495780601f106200101d5761010080835404028352916020019162001049565b820191906000526020600020905b8154815290600101906020018083116200102b57829003601f168201915b5050505050815250509050919050565b6000600560009054906101000a900473ffffffffffffffffffffffffffffffffffffffff16905090565b60008060028460405162001098919062002453565b908152602001604051809103902060405180610100016040529081600082018054620010c49062002214565b80601f0160208091040260200160405190810160405280929190818152602001828054620010f29062002214565b8015620011435780601f10620011175761010080835404028352916020019162001143565b820191906000526020600020905b8154815290600101906020018083116200112557829003601f168201915b505050505081526020016001820154815260200160028201548152602001600382015481526020016004820160009054906101000a900473ffffffffffffffffffffffffffffffffffffffff1673ffffffffffffffffffffffffffffffffffffffff1673ffffffffffffffffffffffffffffffffffffffff1681526020016005820160009054906101000a900473ffffffffffffffffffffffffffffffffffffffff1673ffffffffffffffffffffffffffffffffffffffff1673ffffffffffffffffffffffffffffffffffffffff1681526020016005820160149054906101000a900460ff16151515158152602001600682018054620012439062002214565b80601f0160208091040260200160405190810160405280929190818152602001828054620012719062002214565b8015620012c25780601f106200129657610100808354040283529160200191620012c2565b820191906000526020600020905b815481529060010190602001808311620012a457829003601f168201915b505050505081525050905083805190602001208160000151805190602001201462001324576040517f08c379a00000000000000000000000000000000000000000000000000000000081526004016200131b906200294f565b60405180910390fd5b60008160e00151905060008260800151905060008360400151905060008460200151905060008560600151905042811162001396576040517f08c379a00000000000000000000000000000000000000000000000000000000081526004016200138d90620029c1565b60405180910390fd5b8373ffffffffffffffffffffffffffffffffffffffff163373ffffffffffffffffffffffffffffffffffffffff160362001407576040517f08c379a0000000000000000000000000000000000000000000000000000000008152600401620013fe9062002a33565b60405180910390fd5b6000888685856040516200141b9062001826565b6200142a949392919062002a55565b604051809103906000f08015801562001447573d6000803e3d6000fd5b50905080600560006101000a81548173ffffffffffffffffffffffffffffffffffffffff021916908373ffffffffffffffffffffffffffffffffffffffff16021790555060028a6040516200149d919062002453565b908152602001604051809103902060008082016000620014be9190620017e0565b6001820160009055600282016000905560038201600090556004820160006101000a81549073ffffffffffffffffffffffffffffffffffffffff02191690556005820160006101000a81549073ffffffffffffffffffffffffffffffffffffffff02191690556005820160146101000a81549060ff02191690556006820160006200154a9190620017e0565b505060005b60048054905081101562001653578a80519060200120600482815481106200157c576200157b62002725565b5b9060005260206000200160405162001595919062002b5f565b6040518091039020036200163d5760046001600480549050620015b9919062002b78565b81548110620015cd57620015cc62002725565b5b9060005260206000200160048281548110620015ee57620015ed62002725565b5b90600052602060002001908162001606919062002bcb565b5060048054806200161c576200161b62002ccc565b5b6001900381819060005260206000200160006200163a9190620017e0565b90555b80806200164a9062002840565b9150506200154f565b508097505050505050505092915050565b600560009054906101000a900473ffffffffffffffffffffffffffffffffffffffff1681565b60606004805480602002602001604051908101604052809291908181526020016000905b8282101562001764578382906000526020600020018054620016d09062002214565b80601f0160208091040260200160405190810160405280929190818152602001828054620016fe9062002214565b80156200174f5780601f1062001723576101008083540402835291602001916200174f565b820191906000526020600020905b8154815290600101906020018083116200173157829003601f168201915b505050505081526020019060010190620016ae565b50505050905090565b60405180610100016040528060608152602001600081526020016000815260200160008152602001600073ffffffffffffffffffffffffffffffffffffffff168152602001600073ffffffffffffffffffffffffffffffffffffffff168152602001600015158152602001606081525090565b508054620017ee9062002214565b6000825580601f1062001802575062001823565b601f01602090049060005260206000209081019062001822919062001834565b5b50565b610d478062002cfc83390190565b5b808211156200184f57600081600090555060010162001835565b5090565b600073ffffffffffffffffffffffffffffffffffffffff82169050919050565b6000620018808262001853565b9050919050565b620018928162001873565b82525050565b6000602082019050620018af600083018462001887565b92915050565b6000604051905090565b600080fd5b600080fd5b6000819050919050565b620018de81620018c9565b8114620018ea57600080fd5b50565b600081359050620018fe81620018d3565b92915050565b6000602082840312156200191d576200191c620018bf565b5b60006200192d84828501620018ed565b91505092915050565b600081519050919050565b600082825260208201905092915050565b60005b838110156200197257808201518184015260208101905062001955565b60008484015250505050565b6000601f19601f8301169050919050565b60006200199c8262001936565b620019a8818562001941565b9350620019ba81856020860162001952565b620019c5816200197e565b840191505092915050565b60006020820190508181036000830152620019ec81846200198f565b905092915050565b600080fd5b600080fd5b7f4e487b7100000000000000000000000000000000000000000000000000000000600052604160045260246000fd5b62001a38826200197e565b810181811067ffffffffffffffff8211171562001a5a5762001a59620019fe565b5b80604052505050565b600062001a6f620018b5565b905062001a7d828262001a2d565b919050565b600067ffffffffffffffff82111562001aa05762001a9f620019fe565b5b62001aab826200197e565b9050602081019050919050565b82818337600083830152505050565b600062001ade62001ad88462001a82565b62001a63565b90508281526020810184848401111562001afd5762001afc620019f9565b5b62001b0a84828562001ab8565b509392505050565b600082601f83011262001b2a5762001b29620019f4565b5b813562001b3c84826020860162001ac7565b91505092915050565b62001b508162001873565b811462001b5c57600080fd5b50565b60008135905062001b708162001b45565b92915050565b60008060008060008060c0878903121562001b965762001b95620018bf565b5b600087013567ffffffffffffffff81111562001bb75762001bb6620018c4565b5b62001bc589828a0162001b12565b965050602062001bd889828a01620018ed565b955050604062001beb89828a01620018ed565b945050606062001bfe89828a01620018ed565b935050608062001c1189828a0162001b5f565b92505060a087013567ffffffffffffffff81111562001c355762001c34620018c4565b5b62001c4389828a0162001b12565b9150509295509295509295565b60008115159050919050565b62001c678162001c50565b82525050565b600060208201905062001c84600083018462001c5c565b92915050565b600081519050919050565b600082825260208201905092915050565b6000819050602082019050919050565b600082825260208201905092915050565b600062001cd48262001936565b62001ce0818562001cb6565b935062001cf281856020860162001952565b62001cfd816200197e565b840191505092915050565b62001d1381620018c9565b82525050565b62001d248162001873565b82525050565b62001d358162001c50565b82525050565b600061010083016000830151848203600086015262001d5b828262001cc7565b915050602083015162001d72602086018262001d08565b50604083015162001d87604086018262001d08565b50606083015162001d9c606086018262001d08565b50608083015162001db1608086018262001d19565b5060a083015162001dc660a086018262001d19565b5060c083015162001ddb60c086018262001d2a565b5060e083015184820360e086015262001df5828262001cc7565b9150508091505092915050565b600062001e10838362001d3b565b905092915050565b6000602082019050919050565b600062001e328262001c8a565b62001e3e818562001c95565b93508360208202850162001e528562001ca6565b8060005b8581101562001e94578484038952815162001e72858262001e02565b945062001e7f8362001e18565b925060208a0199505060018101905062001e56565b50829750879550505050505092915050565b6000602082019050818103600083015262001ec2818462001e25565b905092915050565b6000806040838503121562001ee45762001ee3620018bf565b5b600083013567ffffffffffffffff81111562001f055762001f04620018c4565b5b62001f138582860162001b12565b925050602062001f268582860162001b5f565b9150509250929050565b60006020828403121562001f495762001f48620018bf565b5b600082013567ffffffffffffffff81111562001f6a5762001f69620018c4565b5b62001f788482850162001b12565b91505092915050565b600061010083016000830151848203600086015262001fa1828262001cc7565b915050602083015162001fb8602086018262001d08565b50604083015162001fcd604086018262001d08565b50606083015162001fe2606086018262001d08565b50608083015162001ff7608086018262001d19565b5060a08301516200200c60a086018262001d19565b5060c08301516200202160c086018262001d2a565b5060e083015184820360e08601526200203b828262001cc7565b9150508091505092915050565b6000602082019050818103600083015262002064818462001f81565b905092915050565b60008060408385031215620020865762002085620018bf565b5b600083013567ffffffffffffffff811115620020a757620020a6620018c4565b5b620020b58582860162001b12565b925050602083013567ffffffffffffffff811115620020d957620020d8620018c4565b5b620020e78582860162001b12565b9150509250929050565b600081519050919050565b600082825260208201905092915050565b6000819050602082019050919050565b60006200212b838362001cc7565b905092915050565b6000602082019050919050565b60006200214d82620020f1565b620021598185620020fc565b9350836020820285016200216d856200210d565b8060005b85811015620021af57848403895281516200218d85826200211d565b94506200219a8362002133565b925060208a0199505060018101905062002171565b50829750879550505050505092915050565b60006020820190508181036000830152620021dd818462002140565b905092915050565b7f4e487b7100000000000000000000000000000000000000000000000000000000600052602260045260246000fd5b600060028204905060018216806200222d57607f821691505b602082108103620022435762002242620021e5565b5b50919050565b600060408201905062002260600083018562001887565b6200226f602083018462001887565b9392505050565b620022818162001c50565b81146200228d57600080fd5b50565b600081519050620022a18162002276565b92915050565b600060208284031215620022c057620022bf620018bf565b5b6000620022d08482850162002290565b91505092915050565b7f536d617274204d65746572206e6f74207265676973746572656420627920436160008201527f626c6520436f6d70616e79000000000000000000000000000000000000000000602082015250565b600062002337602b8362001941565b91506200234482620022d9565b604082019050919050565b600060208201905081810360008301526200236a8162002328565b9050919050565b6200237c81620018c9565b82525050565b600060208201905062002399600083018462002371565b92915050565b7f4e6f7420656e6f7567682073746f72656420656e657267790000000000000000600082015250565b6000620023d760188362001941565b9150620023e4826200239f565b602082019050919050565b600060208201905081810360008301526200240a81620023c8565b9050919050565b600081905092915050565b6000620024298262001936565b62002435818562002411565b93506200244781856020860162001952565b80840191505092915050565b60006200246182846200241c565b915081905092915050565b60008190508160005260206000209050919050565b60006020601f8301049050919050565b600082821b905092915050565b600060088302620024d07fffffffffffffffffffffffffffffffffffffffffffffffffffffffffffffffff8262002491565b620024dc868362002491565b95508019841693508086168417925050509392505050565b6000819050919050565b60006200251f620025196200251384620018c9565b620024f4565b620018c9565b9050919050565b6000819050919050565b6200253b83620024fe565b620025536200254a8262002526565b8484546200249e565b825550505050565b600090565b6200256a6200255b565b6200257781848462002530565b505050565b5b818110156200259f576200259360008262002560565b6001810190506200257d565b5050565b601f821115620025ee57620025b8816200246c565b620025c38462002481565b81016020851015620025d3578190505b620025eb620025e28562002481565b8301826200257c565b50505b505050565b600082821c905092915050565b60006200261360001984600802620025f3565b1980831691505092915050565b60006200262e838362002600565b9150826002028217905092915050565b620026498262001936565b67ffffffffffffffff811115620026655762002664620019fe565b5b62002671825462002214565b6200267e828285620025a3565b600060209050601f831160018114620026b65760008415620026a1578287015190505b620026ad858262002620565b8655506200271d565b601f198416620026c6866200246c565b60005b82811015620026f057848901518255600182019150602085019450602081019050620026c9565b868310156200271057848901516200270c601f89168262002600565b8355505b6001600288020188555050505b505050505050565b7f4e487b7100000000000000000000000000000000000000000000000000000000600052603260045260246000fd5b60008190508160005260206000209050919050565b60008154620027788162002214565b62002784818662002411565b94506001821660008114620027a25760018114620027b857620027ef565b60ff1983168652811515820286019350620027ef565b620027c38562002754565b60005b83811015620027e757815481890152600182019150602081019050620027c6565b838801955050505b50505092915050565b600062002806828462002769565b915081905092915050565b7f4e487b7100000000000000000000000000000000000000000000000000000000600052601160045260246000fd5b60006200284d82620018c9565b91507fffffffffffffffffffffffffffffffffffffffffffffffffffffffffffffffff820362002882576200288162002811565b5b600182019050919050565b7f4f6e6c79206f776e65722063616e2072656d6f7665206f666665720000000000600082015250565b6000620028c5601b8362001941565b9150620028d2826200288d565b602082019050919050565b60006020820190508181036000830152620028f881620028b6565b9050919050565b7f4e6f206f6666657220666f756e64000000000000000000000000000000000000600082015250565b600062002937600e8362001941565b91506200294482620028ff565b602082019050919050565b600060208201905081810360008301526200296a8162002928565b9050919050565b7f43616e6e6f74206275792065787069726564206f666665720000000000000000600082015250565b6000620029a960188362001941565b9150620029b68262002971565b602082019050919050565b60006020820190508181036000830152620029dc816200299a565b9050919050565b7f4f776e65722063616e6e6f7420627579206f776e206f66666572000000000000600082015250565b600062002a1b601a8362001941565b915062002a2882620029e3565b602082019050919050565b6000602082019050818103600083015262002a4e8162002a0c565b9050919050565b6000608082019050818103600083015262002a7181876200198f565b9050818103602083015262002a8781866200198f565b905062002a98604083018562002371565b62002aa7606083018462002371565b95945050505050565b600081905092915050565b60008190508160005260206000209050919050565b6000815462002adf8162002214565b62002aeb818662002ab0565b9450600182166000811462002b09576001811462002b1f5762002b56565b60ff198316865281151582028601935062002b56565b62002b2a8562002abb565b60005b8381101562002b4e5781548189015260018201915060208101905062002b2d565b838801955050505b50505092915050565b600062002b6d828462002ad0565b915081905092915050565b600062002b8582620018c9565b915062002b9283620018c9565b925082820390508181111562002bad5762002bac62002811565b5b92915050565b60008154905062002bc48162002214565b9050919050565b81810362002bdb57505062002cca565b62002be68262002bb3565b67ffffffffffffffff81111562002c025762002c01620019fe565b5b62002c0e825462002214565b62002c1b828285620025a3565b6000601f83116001811462002c4f576000841562002c3a578287015490505b62002c46858262002620565b86555062002cc3565b601f19841662002c5f8762002754565b965062002c6c866200246c565b60005b8281101562002c965784890154825560018201915060018501945060208101905062002c6f565b8683101562002cb6578489015462002cb2601f89168262002600565b8355505b6001600288020188555050505b5050505050505b565b7f4e487b7100000000000000000000000000000000000000000000000000000000600052603160045260246000fdfe60806040523480156200001157600080fd5b5060405162000d4738038062000d47833981810160405281019062000037919062000263565b836000908162000048919062000554565b5082600190816200005a919062000554565b508160028190555080600381905550426004819055506000600560006101000a81548160ff021916908315150217905550505050506200063b565b6000604051905090565b600080fd5b600080fd5b600080fd5b600080fd5b6000601f19601f8301169050919050565b7f4e487b7100000000000000000000000000000000000000000000000000000000600052604160045260246000fd5b620000fe82620000b3565b810181811067ffffffffffffffff8211171562000120576200011f620000c4565b5b80604052505050565b60006200013562000095565b9050620001438282620000f3565b919050565b600067ffffffffffffffff821115620001665762000165620000c4565b5b6200017182620000b3565b9050602081019050919050565b60005b838110156200019e57808201518184015260208101905062000181565b60008484015250505050565b6000620001c1620001bb8462000148565b62000129565b905082815260208101848484011115620001e057620001df620000ae565b5b620001ed8482856200017e565b509392505050565b600082601f8301126200020d576200020c620000a9565b5b81516200021f848260208601620001aa565b91505092915050565b6000819050919050565b6200023d8162000228565b81146200024957600080fd5b50565b6000815190506200025d8162000232565b92915050565b6000806000806080858703121562000280576200027f6200009f565b5b600085015167ffffffffffffffff811115620002a157620002a0620000a4565b5b620002af87828801620001f5565b945050602085015167ffffffffffffffff811115620002d357620002d2620000a4565b5b620002e187828801620001f5565b9350506040620002f4878288016200024c565b925050606062000307878288016200024c565b91505092959194509250565b600081519050919050565b7f4e487b7100000000000000000000000000000000000000000000000000000000600052602260045260246000fd5b600060028204905060018216806200036657607f821691505b6020821081036200037c576200037b6200031e565b5b50919050565b60008190508160005260206000209050919050565b60006020601f8301049050919050565b600082821b905092915050565b600060088302620003e67fffffffffffffffffffffffffffffffffffffffffffffffffffffffffffffffff82620003a7565b620003f28683620003a7565b95508019841693508086168417925050509392505050565b6000819050919050565b6000620004356200042f620004298462000228565b6200040a565b62000228565b9050919050565b6000819050919050565b620004518362000414565b6200046962000460826200043c565b848454620003b4565b825550505050565b600090565b6200048062000471565b6200048d81848462000446565b505050565b5b81811015620004b557620004a960008262000476565b60018101905062000493565b5050565b601f8211156200050457620004ce8162000382565b620004d98462000397565b81016020851015620004e9578190505b62000501620004f88562000397565b83018262000492565b50505b505050565b600082821c905092915050565b6000620005296000198460080262000509565b1980831691505092915050565b600062000544838362000516565b9150826002028217905092915050565b6200055f8262000313565b67ffffffffffffffff8111156200057b576200057a620000c4565b5b6200058782546200034d565b62000594828285620004b9565b600060209050601f831160018114620005cc5760008415620005b7578287015190505b620005c3858262000536565b86555062000633565b601f198416620005dc8662000382565b60005b828110156200060657848901518255600182019150602085019450602081019050620005df565b8683101562000626578489015162000622601f89168262000516565b8355505b6001600288020188555050505b505050505050565b6106fc806200064b6000396000f3fe608060405234801561001057600080fd5b50600436106100575760003560e01c80635a9b0b891461005c578063603daf9a1461007a57806398d5fdca14610098578063d321fe29146100b6578063dbd0e1b6146100d4575b600080fd5b6100646100f2565b60405161007191906105ae565b60405180910390f35b610082610279565b60405161008f919061061a565b60405180910390f35b6100a061030b565b6040516100ad919061064b565b60405180910390f35b6100be610315565b6040516100cb919061064b565b60405180910390f35b6100dc61031f565b6040516100e9919061061a565b60405180910390f35b6100fa6103b1565b60006040518060e001604052803073ffffffffffffffffffffffffffffffffffffffff1681526020016000805461013090610695565b80601f016020809104026020016040519081016040528092919081815260200182805461015c90610695565b80156101a95780601f1061017e576101008083540402835291602001916101a9565b820191906000526020600020905b81548152906001019060200180831161018c57829003601f168201915b50505050508152602001600180546101c090610695565b80601f01602080910402602001604051908101604052809291908181526020018280546101ec90610695565b80156102395780601f1061020e57610100808354040283529160200191610239565b820191906000526020600020905b81548152906001019060200180831161021c57829003601f168201915b50505050508152602001600354815260200160025481526020016004548152602001600560009054906101000a900460ff16151581525090508091505090565b60606000805461028890610695565b80601f01602080910402602001604051908101604052809291908181526020018280546102b490610695565b80156103015780601f106102d657610100808354040283529160200191610301565b820191906000526020600020905b8154815290600101906020018083116102e457829003601f168201915b5050505050905090565b6000600354905090565b6000600254905090565b60606001805461032e90610695565b80601f016020809104026020016040519081016040528092919081815260200182805461035a90610695565b80156103a75780601f1061037c576101008083540402835291602001916103a7565b820191906000526020600020905b81548152906001019060200180831161038a57829003601f168201915b5050505050905090565b6040518060e00160405280600073ffffffffffffffffffffffffffffffffffffffff16815260200160608152602001606081526020016000815260200160008152602001600081526020016000151581525090565b600073ffffffffffffffffffffffffffffffffffffffff82169050919050565b600061043182610406565b9050919050565b61044181610426565b82525050565b600081519050919050565b600082825260208201905092915050565b60005b83811015610481578082015181840152602081019050610466565b60008484015250505050565b6000601f19601f8301169050919050565b60006104a982610447565b6104b38185610452565b93506104c3818560208601610463565b6104cc8161048d565b840191505092915050565b6000819050919050565b6104ea816104d7565b82525050565b60008115159050919050565b610505816104f0565b82525050565b600060e0830160008301516105236000860182610438565b506020830151848203602086015261053b828261049e565b91505060408301518482036040860152610555828261049e565b915050606083015161056a60608601826104e1565b50608083015161057d60808601826104e1565b5060a083015161059060a08601826104e1565b5060c08301516105a360c08601826104fc565b508091505092915050565b600060208201905081810360008301526105c8818461050b565b905092915050565b600082825260208201905092915050565b60006105ec82610447565b6105f681856105d0565b9350610606818560208601610463565b61060f8161048d565b840191505092915050565b6000602082019050818103600083015261063481846105e1565b905092915050565b610645816104d7565b82525050565b6000602082019050610660600083018461063c565b92915050565b7f4e487b7100000000000000000000000000000000000000000000000000000000600052602260045260246000fd5b600060028204905060018216806106ad57607f821691505b6020821081036106c0576106bf610666565b5b5091905056fea2646970667358221220bdaa51afdec041fd886dc66aa1c1dda9aef63703f1a6004665e50c28e40571f664736f6c63430008130033a26469706673582212201b22b4955e50ca11290090f9999032be92e6125252be5183e67ec512d8a2962564736f6c63430008130033",
  "immutableReferences": {},
  "source": "// SPDX-License-Identifier: GPL-3.0\n// pragma experimental ABIEncoderV2;\npragma solidity ^0.8.9;\n\ninterface ICableCompany {\n    function registerKey(\n        address smartMeterPubKey,\n        address smartMeterAddress\n    ) external;\n\n    function isRegisteredKey(\n        address smartMeterPubKey,\n        address smartMeterAddress\n    ) external view returns (bool);\n\n    function removeRegisteredKey(address smartMeterPubKey) external;\n}\n\ninterface ISmartMeter {\n    function returnReservedBatteryCharge(uint amount) external returns (bool);\n\n    function subtractBatteryCharge(uint amount) external returns (bool);\n}\n\ncontract Market {\n    address owner;\n    ICableCompany cableCompany;\n    // string groupPublicKey;\n\n    struct Offer {\n        string id;\n        uint256 price;\n        uint256 amount;\n        uint256 expiration;\n        address owner;\n        address smartMeterAddress;\n        bool active;\n        string sellerSignature;\n    }\n\n    mapping(string => Offer) private offers;\n    mapping(string => Offer) private pendingConfirmation;\n    string[] public offerIds;\n    address public lastestSupplyChainAddress;\n\n    constructor(\n        address _cableCompanyAddress // string memory _groupPublicKey\n    ) payable {\n        owner = msg.sender;\n        cableCompany = ICableCompany(_cableCompanyAddress);\n        // groupPublicKey = _groupPublicKey;\n    }\n\n    function addOffer(\n        string memory id,\n        uint256 amount,\n        uint256 price,\n        uint256 expiration,\n        address smartMeterAddress,\n        string memory sellerSignature\n    ) public returns (bool) {\n        require(\n            cableCompany.isRegisteredKey(msg.sender, smartMeterAddress),\n            \"Smart Meter not registered by Cable Company\"\n        );\n\n        ISmartMeter smartMeter = ISmartMeter(smartMeterAddress);\n        require(\n            smartMeter.subtractBatteryCharge(amount),\n            \"Not enough stored energy\"\n        );\n\n        offers[id] = Offer({\n            id: id,\n            amount: amount,\n            price: price,\n            expiration: expiration,\n            owner: msg.sender,\n            smartMeterAddress: smartMeterAddress, // are we using this?\n            active: true,\n            sellerSignature: sellerSignature\n        });\n        offerIds.push(id);\n\n        return true;\n    }\n\n    function removeOffer(\n        string memory id,\n        address smartMeterAddress\n    ) public returns (bool) {\n        Offer memory offer = offers[id];\n        require(msg.sender == offer.owner, \"Only owner can remove offer\");\n        ISmartMeter smartMeter = ISmartMeter(smartMeterAddress);\n        smartMeter.returnReservedBatteryCharge(offer.amount);\n        delete offers[id];\n        return true;\n    }\n\n    function buyOffer(\n        string memory id,\n        string memory buyerSignature\n    ) public returns (address) {\n        Offer memory offer = offers[id];\n        require(\n            keccak256(bytes(offer.id)) == keccak256(bytes(id)),\n            \"No offer found\"\n        );\n        string memory sellerSignature = offer.sellerSignature;\n        address seller = offer.owner;\n        uint amount = offer.amount;\n        uint price = offer.price;\n        uint expiration = offer.expiration;\n\n        require(expiration > block.timestamp, \"Cannot buy expired offer\");\n        require(msg.sender != seller, \"Owner cannot buy own offer\");\n\n        SupplyContract sc = new SupplyContract({\n            _buyerSignature: buyerSignature,\n            _sellerSignature: sellerSignature,\n            _amount: amount,\n            _price: price\n        });\n        lastestSupplyChainAddress = address(sc);\n        delete offers[id];\n\n        for (uint i = 0; i < offerIds.length; i++) {\n            // String comparison\n            if (keccak256(bytes(offerIds[i])) == keccak256(bytes(id))) {\n                offerIds[i] = offerIds[offerIds.length - 1];\n                offerIds.pop();\n            }\n        }\n\n        return address(sc);\n    }\n\n    function getOffer(string memory id) public view returns (Offer memory) {\n        return offers[id];\n    }\n\n    function getOffers() public view returns (Offer[] memory) {\n        Offer[] memory offersReturn = new Offer[](offerIds.length);\n        for (uint i = 0; i < offerIds.length; i++) {\n            string storage offerId = offerIds[i];\n            Offer storage offer = offers[offerId];\n\n            offersReturn[i] = offer;\n        }\n        return offersReturn;\n    }\n\n    function getOfferIDs() public view returns (string[] memory) {\n        return offerIds;\n    }\n\n    function getLatestSupplyContract() public view returns (address) {\n        return lastestSupplyChainAddress;\n    }\n\n    function getPendingOffers() public view returns (address) {\n        return lastestSupplyChainAddress;\n    }\n\n    // function getGroupPublicKey() public view returns (string memory) {\n    //     return groupPublicKey;\n    // }\n\n    // function setGroupPublicKey(string memory _groupPublicKey) public {\n    //     require(\n    //         msg.sender == address(cableCompany),\n    //         \"Only cable compnay can change the group key\"\n    //     );\n    //     groupPublicKey = _groupPublicKey;\n    // }\n}\n\ncontract SupplyContract {\n    string buyerSignature;\n    string sellerSignature;\n    uint256 amount; // Wh\n    uint256 price; // Euro cents\n    uint256 timestamp; // Unix\n    bool confirmed;\n    // address dso;\n\n    struct SupplyContractDTO {\n        address scAddress;\n        string buyerSignature;\n        string sellerSignature;\n        uint256 price;\n        uint256 amount;\n        uint256 timestamp;\n        bool confirmed;\n    }\n\n    constructor(\n        string memory _buyerSignature,\n        string memory _sellerSignature,\n        uint256 _amount,\n        uint256 _price\n    ) {\n        buyerSignature = _buyerSignature;\n        sellerSignature = _sellerSignature;\n        amount = _amount;\n        price = _price;\n        timestamp = block.timestamp;\n        confirmed = false;\n    }\n\n    function getBuyer() public view returns (string memory) {\n        return buyerSignature;\n    }\n\n    function getSeller() public view returns (string memory) {\n        return sellerSignature;\n    }\n\n    function getAmount() public view returns (uint256) {\n        return amount;\n    }\n\n    function getPrice() public view returns (uint256) {\n        return price;\n    }\n\n    function getInfo() public view returns (SupplyContractDTO memory) {\n        SupplyContractDTO memory scDTO = SupplyContractDTO({\n            scAddress: address(this),\n            buyerSignature: buyerSignature,\n            sellerSignature: sellerSignature,\n            price: price,\n            amount: amount,\n            timestamp: timestamp,\n            confirmed: confirmed\n        });\n\n        return scDTO;\n    }\n\n    // function aproveContract() public {\n    //     require(msg.sender == dso, \"only the DSO can approve a contract\");\n    //     confirmed = true;\n    // }\n}\n",
  "sourcePath": "/Users/antonoeschmidt/Projects/Master/SmartGridEmpowered/contracts/Market.sol",
  "compiler": {
    "name": "solc",
    "version": "0.8.19+commit.7dd6d404.Emscripten.clang"
  },
  "schemaVersion": "3.4.3",
  "updatedAt": "2023-12-16T11:33:57.348Z",
  "devdoc": {
    "kind": "dev",
    "methods": {},
    "version": 1
  },
  "userdoc": {
    "kind": "user",
    "methods": {},
    "version": 1
  }
}