{
  "contractName": "Market",
  "abi": [
    {
      "inputs": [
        {
          "internalType": "address",
          "name": "_cableCompanyAddress",
          "type": "address"
        }
      ],
      "stateMutability": "payable",
      "type": "constructor"
    },
    {
      "inputs": [],
      "name": "lastestSupplyChainAddress",
      "outputs": [
        {
          "internalType": "address",
          "name": "",
          "type": "address"
        }
      ],
      "stateMutability": "view",
      "type": "function"
    },
    {
      "inputs": [
        {
          "internalType": "uint256",
          "name": "",
          "type": "uint256"
        }
      ],
      "name": "offerIds",
      "outputs": [
        {
          "internalType": "string",
          "name": "",
          "type": "string"
        }
      ],
      "stateMutability": "view",
      "type": "function"
    },
    {
      "inputs": [
        {
          "internalType": "string",
          "name": "id",
          "type": "string"
        },
        {
          "internalType": "uint256",
          "name": "amount",
          "type": "uint256"
        },
        {
          "internalType": "uint256",
          "name": "price",
          "type": "uint256"
        },
        {
          "internalType": "uint256",
          "name": "expiration",
          "type": "uint256"
        },
        {
          "internalType": "address",
          "name": "smartMeterAddress",
          "type": "address"
        }
      ],
      "name": "addOffer",
      "outputs": [
        {
          "internalType": "bool",
          "name": "",
          "type": "bool"
        }
      ],
      "stateMutability": "nonpayable",
      "type": "function"
    },
    {
      "inputs": [
        {
          "internalType": "string",
          "name": "id",
          "type": "string"
        },
        {
          "internalType": "address",
          "name": "smartMeterAddress",
          "type": "address"
        }
      ],
      "name": "removeOffer",
      "outputs": [
        {
          "internalType": "bool",
          "name": "",
          "type": "bool"
        }
      ],
      "stateMutability": "nonpayable",
      "type": "function"
    },
    {
      "inputs": [
        {
          "internalType": "string",
          "name": "id",
          "type": "string"
        }
      ],
      "name": "buyOffer",
      "outputs": [
        {
          "internalType": "address",
          "name": "",
          "type": "address"
        }
      ],
      "stateMutability": "nonpayable",
      "type": "function"
    },
    {
      "inputs": [
        {
          "internalType": "string",
          "name": "id",
          "type": "string"
        }
      ],
      "name": "getOffer",
      "outputs": [
        {
          "components": [
            {
              "internalType": "string",
              "name": "id",
              "type": "string"
            },
            {
              "internalType": "uint256",
              "name": "price",
              "type": "uint256"
            },
            {
              "internalType": "uint256",
              "name": "amount",
              "type": "uint256"
            },
            {
              "internalType": "uint256",
              "name": "expiration",
              "type": "uint256"
            },
            {
              "internalType": "address",
              "name": "owner",
              "type": "address"
            },
            {
              "internalType": "address",
              "name": "smartMeterAddress",
              "type": "address"
            },
            {
              "internalType": "bool",
              "name": "active",
              "type": "bool"
            }
          ],
          "internalType": "struct Market.Offer",
          "name": "",
          "type": "tuple"
        }
      ],
      "stateMutability": "view",
      "type": "function"
    },
    {
      "inputs": [],
      "name": "getOffers",
      "outputs": [
        {
          "components": [
            {
              "internalType": "string",
              "name": "id",
              "type": "string"
            },
            {
              "internalType": "uint256",
              "name": "price",
              "type": "uint256"
            },
            {
              "internalType": "uint256",
              "name": "amount",
              "type": "uint256"
            },
            {
              "internalType": "uint256",
              "name": "expiration",
              "type": "uint256"
            },
            {
              "internalType": "address",
              "name": "owner",
              "type": "address"
            },
            {
              "internalType": "address",
              "name": "smartMeterAddress",
              "type": "address"
            },
            {
              "internalType": "bool",
              "name": "active",
              "type": "bool"
            }
          ],
          "internalType": "struct Market.Offer[]",
          "name": "",
          "type": "tuple[]"
        }
      ],
      "stateMutability": "view",
      "type": "function"
    },
    {
      "inputs": [],
      "name": "getOfferIDs",
      "outputs": [
        {
          "internalType": "string[]",
          "name": "",
          "type": "string[]"
        }
      ],
      "stateMutability": "view",
      "type": "function"
    },
    {
      "inputs": [],
      "name": "getLatestSupplyContract",
      "outputs": [
        {
          "internalType": "address",
          "name": "",
          "type": "address"
        }
      ],
      "stateMutability": "view",
      "type": "function"
    }
  ],
  "bytecode": "0x6080604052604051620032723803806200327283398181016040528101906200002991906200011b565b336000806101000a81548173ffffffffffffffffffffffffffffffffffffffff021916908373ffffffffffffffffffffffffffffffffffffffff16021790555080600160006101000a81548173ffffffffffffffffffffffffffffffffffffffff021916908373ffffffffffffffffffffffffffffffffffffffff160217905550506200014d565b600080fd5b600073ffffffffffffffffffffffffffffffffffffffff82169050919050565b6000620000e382620000b6565b9050919050565b620000f581620000d6565b81146200010157600080fd5b50565b6000815190506200011581620000ea565b92915050565b600060208284031215620001345762000133620000b1565b5b6000620001448482850162000104565b91505092915050565b613115806200015d6000396000f3fe60806040523480156200001157600080fd5b5060043610620000a05760003560e01c8063a81333c4116200006f578063a81333c41462000169578063a84dcb71146200018b578063af8d952e14620001c1578063d6b85e8f14620001f7578063f6a80192146200021957620000a0565b8063110b9d8914620000a55780633ee992ee14620000db57806354e69aaa14620000fd5780637a5101161462000133575b600080fd5b620000c36004803603810190620000bd919062001536565b6200023b565b604051620000d2919062001602565b60405180910390f35b620000e5620002f0565b604051620000f4919062001865565b60405180910390f35b6200011b600480360381019062000115919062001a0b565b6200057c565b6040516200012a919062001a82565b60405180910390f35b6200015160048036038101906200014b919062001a9f565b620008e6565b60405162000160919062001b9a565b60405180910390f35b6200017362000aa1565b60405162000182919062001bcf565b60405180910390f35b620001a96004803603810190620001a3919062001a9f565b62000acb565b604051620001b8919062001bcf565b60405180910390f35b620001df6004803603810190620001d9919062001bec565b62000fa3565b604051620001ee919062001a82565b60405180910390f35b6200020162001300565b60405162000210919062001bcf565b60405180910390f35b6200022362001326565b60405162000232919062001d63565b60405180910390f35b600381815481106200024c57600080fd5b906000526020600020016000915090508054620002699062001db6565b80601f0160208091040260200160405190810160405280929190818152602001828054620002979062001db6565b8015620002e85780601f10620002bc57610100808354040283529160200191620002e8565b820191906000526020600020905b815481529060010190602001808311620002ca57829003601f168201915b505050505081565b6060600060038054905067ffffffffffffffff81111562000316576200031562001893565b5b6040519080825280602002602001820160405280156200035357816020015b6200033f62001409565b815260200190600190039081620003355790505b50905060005b600380549050811015620005745760006003828154811062000380576200037f62001deb565b5b9060005260206000200190506000600282604051620003a0919062001ec9565b90815260200160405180910390209050806040518060e0016040529081600082018054620003ce9062001db6565b80601f0160208091040260200160405190810160405280929190818152602001828054620003fc9062001db6565b80156200044d5780601f1062000421576101008083540402835291602001916200044d565b820191906000526020600020905b8154815290600101906020018083116200042f57829003601f168201915b505050505081526020016001820154815260200160028201548152602001600382015481526020016004820160009054906101000a900473ffffffffffffffffffffffffffffffffffffffff1673ffffffffffffffffffffffffffffffffffffffff1673ffffffffffffffffffffffffffffffffffffffff1681526020016005820160009054906101000a900473ffffffffffffffffffffffffffffffffffffffff1673ffffffffffffffffffffffffffffffffffffffff1673ffffffffffffffffffffffffffffffffffffffff1681526020016005820160149054906101000a900460ff16151515158152505084848151811062000551576200055062001deb565b5b6020026020010181905250505080806200056b9062001f11565b91505062000359565b508091505090565b60008060028460405162000591919062001f95565b90815260200160405180910390206040518060e0016040529081600082018054620005bc9062001db6565b80601f0160208091040260200160405190810160405280929190818152602001828054620005ea9062001db6565b80156200063b5780601f106200060f576101008083540402835291602001916200063b565b820191906000526020600020905b8154815290600101906020018083116200061d57829003601f168201915b505050505081526020016001820154815260200160028201548152602001600382015481526020016004820160009054906101000a900473ffffffffffffffffffffffffffffffffffffffff1673ffffffffffffffffffffffffffffffffffffffff1673ffffffffffffffffffffffffffffffffffffffff1681526020016005820160009054906101000a900473ffffffffffffffffffffffffffffffffffffffff1673ffffffffffffffffffffffffffffffffffffffff1673ffffffffffffffffffffffffffffffffffffffff1681526020016005820160149054906101000a900460ff1615151515815250509050806080015173ffffffffffffffffffffffffffffffffffffffff163373ffffffffffffffffffffffffffffffffffffffff1614620007a0576040517f08c379a0000000000000000000000000000000000000000000000000000000008152600401620007979062001ffe565b60405180910390fd5b60008390508073ffffffffffffffffffffffffffffffffffffffff1663997d182683604001516040518263ffffffff1660e01b8152600401620007e4919062002031565b6020604051808303816000875af115801562000804573d6000803e3d6000fd5b505050506040513d601f19601f820116820180604052508101906200082a91906200207f565b506002856040516200083d919062001f95565b9081526020016040518091039020600080820160006200085e919062001474565b6001820160009055600282016000905560038201600090556004820160006101000a81549073ffffffffffffffffffffffffffffffffffffffff02191690556005820160006101000a81549073ffffffffffffffffffffffffffffffffffffffff02191690556005820160146101000a81549060ff0219169055505060019250505092915050565b620008f062001409565b60028260405162000902919062001f95565b90815260200160405180910390206040518060e00160405290816000820180546200092d9062001db6565b80601f01602080910402602001604051908101604052809291908181526020018280546200095b9062001db6565b8015620009ac5780601f106200098057610100808354040283529160200191620009ac565b820191906000526020600020905b8154815290600101906020018083116200098e57829003601f168201915b505050505081526020016001820154815260200160028201548152602001600382015481526020016004820160009054906101000a900473ffffffffffffffffffffffffffffffffffffffff1673ffffffffffffffffffffffffffffffffffffffff1673ffffffffffffffffffffffffffffffffffffffff1681526020016005820160009054906101000a900473ffffffffffffffffffffffffffffffffffffffff1673ffffffffffffffffffffffffffffffffffffffff1673ffffffffffffffffffffffffffffffffffffffff1681526020016005820160149054906101000a900460ff1615151515815250509050919050565b6000600460009054906101000a900473ffffffffffffffffffffffffffffffffffffffff16905090565b60008060028360405162000ae0919062001f95565b90815260200160405180910390206040518060e001604052908160008201805462000b0b9062001db6565b80601f016020809104026020016040519081016040528092919081815260200182805462000b399062001db6565b801562000b8a5780601f1062000b5e5761010080835404028352916020019162000b8a565b820191906000526020600020905b81548152906001019060200180831162000b6c57829003601f168201915b505050505081526020016001820154815260200160028201548152602001600382015481526020016004820160009054906101000a900473ffffffffffffffffffffffffffffffffffffffff1673ffffffffffffffffffffffffffffffffffffffff1673ffffffffffffffffffffffffffffffffffffffff1681526020016005820160009054906101000a900473ffffffffffffffffffffffffffffffffffffffff1673ffffffffffffffffffffffffffffffffffffffff1673ffffffffffffffffffffffffffffffffffffffff1681526020016005820160149054906101000a900460ff1615151515815250509050600033905060008260800151905060008360400151905060008460200151905060008560600151905042811162000ce8576040517f08c379a000000000000000000000000000000000000000000000000000000000815260040162000cdf9062002101565b60405180910390fd5b8373ffffffffffffffffffffffffffffffffffffffff163373ffffffffffffffffffffffffffffffffffffffff160362000d59576040517f08c379a000000000000000000000000000000000000000000000000000000000815260040162000d509062002173565b60405180910390fd5b60008585858560405162000d6d90620014ba565b62000d7c949392919062002195565b604051809103906000f08015801562000d99573d6000803e3d6000fd5b50905080600460006101000a81548173ffffffffffffffffffffffffffffffffffffffff021916908373ffffffffffffffffffffffffffffffffffffffff16021790555060028960405162000def919062001f95565b90815260200160405180910390206000808201600062000e10919062001474565b6001820160009055600282016000905560038201600090556004820160006101000a81549073ffffffffffffffffffffffffffffffffffffffff02191690556005820160006101000a81549073ffffffffffffffffffffffffffffffffffffffff02191690556005820160146101000a81549060ff0219169055505060005b60038054905081101562000f935789805190602001206003828154811062000ebc5762000ebb62001deb565b5b9060005260206000200160405162000ed5919062002291565b60405180910390200362000f7d576003600160038054905062000ef99190620022aa565b8154811062000f0d5762000f0c62001deb565b5b906000526020600020016003828154811062000f2e5762000f2d62001deb565b5b90600052602060002001908162000f469190620024cf565b50600380548062000f5c5762000f5b620025d0565b5b60019003818190600052602060002001600062000f7a919062001474565b90555b808062000f8a9062001f11565b91505062000e8f565b5080975050505050505050919050565b6000600160009054906101000a900473ffffffffffffffffffffffffffffffffffffffff1673ffffffffffffffffffffffffffffffffffffffff1663eb4e352d33846040518363ffffffff1660e01b815260040162001004929190620025ff565b602060405180830381865afa15801562001022573d6000803e3d6000fd5b505050506040513d601f19601f820116820180604052508101906200104891906200207f565b6200108a576040517f08c379a00000000000000000000000000000000000000000000000000000000081526004016200108190620026a2565b60405180910390fd5b60008290508073ffffffffffffffffffffffffffffffffffffffff1663f709bda8876040518263ffffffff1660e01b8152600401620010ca919062002031565b6020604051808303816000875af1158015620010ea573d6000803e3d6000fd5b505050506040513d601f19601f820116820180604052508101906200111091906200207f565b62001152576040517f08c379a0000000000000000000000000000000000000000000000000000000008152600401620011499062002714565b60405180910390fd5b6040518060e001604052808881526020018681526020018781526020018581526020013373ffffffffffffffffffffffffffffffffffffffff1681526020018473ffffffffffffffffffffffffffffffffffffffff16815260200160011515815250600288604051620011c6919062001f95565b90815260200160405180910390206000820151816000019081620011eb919062002736565b5060208201518160010155604082015181600201556060820151816003015560808201518160040160006101000a81548173ffffffffffffffffffffffffffffffffffffffff021916908373ffffffffffffffffffffffffffffffffffffffff16021790555060a08201518160050160006101000a81548173ffffffffffffffffffffffffffffffffffffffff021916908373ffffffffffffffffffffffffffffffffffffffff16021790555060c08201518160050160146101000a81548160ff021916908315150217905550905050600387908060018154018082558091505060019003906000526020600020016000909190919091509081620012f1919062002736565b50600191505095945050505050565b600460009054906101000a900473ffffffffffffffffffffffffffffffffffffffff1681565b60606003805480602002602001604051908101604052809291908181526020016000905b82821015620014005783829060005260206000200180546200136c9062001db6565b80601f01602080910402602001604051908101604052809291908181526020018280546200139a9062001db6565b8015620013eb5780601f10620013bf57610100808354040283529160200191620013eb565b820191906000526020600020905b815481529060010190602001808311620013cd57829003601f168201915b5050505050815260200190600101906200134a565b50505050905090565b6040518060e0016040528060608152602001600081526020016000815260200160008152602001600073ffffffffffffffffffffffffffffffffffffffff168152602001600073ffffffffffffffffffffffffffffffffffffffff1681526020016000151581525090565b508054620014829062001db6565b6000825580601f10620014965750620014b7565b601f016020900490600052602060002090810190620014b69190620014c8565b5b50565b6108c2806200281e83390190565b5b80821115620014e3576000816000905550600101620014c9565b5090565b6000604051905090565b600080fd5b600080fd5b6000819050919050565b6200151081620014fb565b81146200151c57600080fd5b50565b600081359050620015308162001505565b92915050565b6000602082840312156200154f576200154e620014f1565b5b60006200155f848285016200151f565b91505092915050565b600081519050919050565b600082825260208201905092915050565b60005b83811015620015a457808201518184015260208101905062001587565b60008484015250505050565b6000601f19601f8301169050919050565b6000620015ce8262001568565b620015da818562001573565b9350620015ec81856020860162001584565b620015f781620015b0565b840191505092915050565b600060208201905081810360008301526200161e8184620015c1565b905092915050565b600081519050919050565b600082825260208201905092915050565b6000819050602082019050919050565b600082825260208201905092915050565b6000620016708262001568565b6200167c818562001652565b93506200168e81856020860162001584565b6200169981620015b0565b840191505092915050565b620016af81620014fb565b82525050565b600073ffffffffffffffffffffffffffffffffffffffff82169050919050565b6000620016e282620016b5565b9050919050565b620016f481620016d5565b82525050565b60008115159050919050565b6200171181620016fa565b82525050565b600060e083016000830151848203600086015262001736828262001663565b91505060208301516200174d6020860182620016a4565b506040830151620017626040860182620016a4565b506060830151620017776060860182620016a4565b5060808301516200178c6080860182620016e9565b5060a0830151620017a160a0860182620016e9565b5060c0830151620017b660c086018262001706565b508091505092915050565b6000620017cf838362001717565b905092915050565b6000602082019050919050565b6000620017f18262001626565b620017fd818562001631565b935083602082028501620018118562001642565b8060005b85811015620018535784840389528151620018318582620017c1565b94506200183e83620017d7565b925060208a0199505060018101905062001815565b50829750879550505050505092915050565b60006020820190508181036000830152620018818184620017e4565b905092915050565b600080fd5b600080fd5b7f4e487b7100000000000000000000000000000000000000000000000000000000600052604160045260246000fd5b620018cd82620015b0565b810181811067ffffffffffffffff82111715620018ef57620018ee62001893565b5b80604052505050565b600062001904620014e7565b9050620019128282620018c2565b919050565b600067ffffffffffffffff82111562001935576200193462001893565b5b6200194082620015b0565b9050602081019050919050565b82818337600083830152505050565b6000620019736200196d8462001917565b620018f8565b9050828152602081018484840111156200199257620019916200188e565b5b6200199f8482856200194d565b509392505050565b600082601f830112620019bf57620019be62001889565b5b8135620019d18482602086016200195c565b91505092915050565b620019e581620016d5565b8114620019f157600080fd5b50565b60008135905062001a0581620019da565b92915050565b6000806040838503121562001a255762001a24620014f1565b5b600083013567ffffffffffffffff81111562001a465762001a45620014f6565b5b62001a5485828601620019a7565b925050602062001a6785828601620019f4565b9150509250929050565b62001a7c81620016fa565b82525050565b600060208201905062001a99600083018462001a71565b92915050565b60006020828403121562001ab85762001ab7620014f1565b5b600082013567ffffffffffffffff81111562001ad95762001ad8620014f6565b5b62001ae784828501620019a7565b91505092915050565b600060e083016000830151848203600086015262001b0f828262001663565b915050602083015162001b266020860182620016a4565b50604083015162001b3b6040860182620016a4565b50606083015162001b506060860182620016a4565b50608083015162001b656080860182620016e9565b5060a083015162001b7a60a0860182620016e9565b5060c083015162001b8f60c086018262001706565b508091505092915050565b6000602082019050818103600083015262001bb6818462001af0565b905092915050565b62001bc981620016d5565b82525050565b600060208201905062001be6600083018462001bbe565b92915050565b600080600080600060a0868803121562001c0b5762001c0a620014f1565b5b600086013567ffffffffffffffff81111562001c2c5762001c2b620014f6565b5b62001c3a88828901620019a7565b955050602062001c4d888289016200151f565b945050604062001c60888289016200151f565b935050606062001c73888289016200151f565b925050608062001c8688828901620019f4565b9150509295509295909350565b600081519050919050565b600082825260208201905092915050565b6000819050602082019050919050565b600062001ccd838362001663565b905092915050565b6000602082019050919050565b600062001cef8262001c93565b62001cfb818562001c9e565b93508360208202850162001d0f8562001caf565b8060005b8581101562001d51578484038952815162001d2f858262001cbf565b945062001d3c8362001cd5565b925060208a0199505060018101905062001d13565b50829750879550505050505092915050565b6000602082019050818103600083015262001d7f818462001ce2565b905092915050565b7f4e487b7100000000000000000000000000000000000000000000000000000000600052602260045260246000fd5b6000600282049050600182168062001dcf57607f821691505b60208210810362001de55762001de462001d87565b5b50919050565b7f4e487b7100000000000000000000000000000000000000000000000000000000600052603260045260246000fd5b600081905092915050565b60008190508160005260206000209050919050565b6000815462001e498162001db6565b62001e55818662001e1a565b9450600182166000811462001e73576001811462001e895762001ec0565b60ff198316865281151582028601935062001ec0565b62001e948562001e25565b60005b8381101562001eb85781548189015260018201915060208101905062001e97565b838801955050505b50505092915050565b600062001ed7828462001e3a565b915081905092915050565b7f4e487b7100000000000000000000000000000000000000000000000000000000600052601160045260246000fd5b600062001f1e82620014fb565b91507fffffffffffffffffffffffffffffffffffffffffffffffffffffffffffffffff820362001f535762001f5262001ee2565b5b600182019050919050565b600062001f6b8262001568565b62001f77818562001e1a565b935062001f8981856020860162001584565b80840191505092915050565b600062001fa3828462001f5e565b915081905092915050565b7f4f6e6c79206f776e65722063616e2072656d6f7665206f666665720000000000600082015250565b600062001fe6601b8362001573565b915062001ff38262001fae565b602082019050919050565b60006020820190508181036000830152620020198162001fd7565b9050919050565b6200202b81620014fb565b82525050565b600060208201905062002048600083018462002020565b92915050565b6200205981620016fa565b81146200206557600080fd5b50565b60008151905062002079816200204e565b92915050565b600060208284031215620020985762002097620014f1565b5b6000620020a88482850162002068565b91505092915050565b7f43616e6e6f74206275792065787069726564206f666665720000000000000000600082015250565b6000620020e960188362001573565b9150620020f682620020b1565b602082019050919050565b600060208201905081810360008301526200211c81620020da565b9050919050565b7f4f776e65722063616e6e6f7420627579206f776e206f66666572000000000000600082015250565b60006200215b601a8362001573565b9150620021688262002123565b602082019050919050565b600060208201905081810360008301526200218e816200214c565b9050919050565b6000608082019050620021ac600083018762001bbe565b620021bb602083018662001bbe565b620021ca604083018562002020565b620021d9606083018462002020565b95945050505050565b600081905092915050565b60008190508160005260206000209050919050565b60008154620022118162001db6565b6200221d8186620021e2565b945060018216600081146200223b5760018114620022515762002288565b60ff198316865281151582028601935062002288565b6200225c85620021ed565b60005b8381101562002280578154818901526001820191506020810190506200225f565b838801955050505b50505092915050565b60006200229f828462002202565b915081905092915050565b6000620022b782620014fb565b9150620022c483620014fb565b9250828203905081811115620022df57620022de62001ee2565b5b92915050565b600081549050620022f68162001db6565b9050919050565b60008190508160005260206000209050919050565b60006020601f8301049050919050565b600082821b905092915050565b600060088302620023617fffffffffffffffffffffffffffffffffffffffffffffffffffffffffffffffff8262002322565b6200236d868362002322565b95508019841693508086168417925050509392505050565b6000819050919050565b6000620023b0620023aa620023a484620014fb565b62002385565b620014fb565b9050919050565b6000819050919050565b620023cc836200238f565b620023e4620023db82620023b7565b8484546200232f565b825550505050565b600090565b620023fb620023ec565b62002408818484620023c1565b505050565b5b81811015620024305762002424600082620023f1565b6001810190506200240e565b5050565b601f8211156200247f576200244981620022fd565b620024548462002312565b8101602085101562002464578190505b6200247c620024738562002312565b8301826200240d565b50505b505050565b600082821c905092915050565b6000620024a46000198460080262002484565b1980831691505092915050565b6000620024bf838362002491565b9150826002028217905092915050565b818103620024df575050620025ce565b620024ea82620022e5565b67ffffffffffffffff81111562002506576200250562001893565b5b62002512825462001db6565b6200251f82828562002434565b6000601f8311600181146200255357600084156200253e578287015490505b6200254a8582620024b1565b865550620025c7565b601f198416620025638762001e25565b96506200257086620022fd565b60005b828110156200259a5784890154825560018201915060018501945060208101905062002573565b86831015620025ba5784890154620025b6601f89168262002491565b8355505b6001600288020188555050505b5050505050505b565b7f4e487b7100000000000000000000000000000000000000000000000000000000600052603160045260246000fd5b600060408201905062002616600083018562001bbe565b62002625602083018462001bbe565b9392505050565b7f536d617274204d65746572206e6f74207265676973746572656420627920436160008201527f626c6520436f6d70616e79000000000000000000000000000000000000000000602082015250565b60006200268a602b8362001573565b915062002697826200262c565b604082019050919050565b60006020820190508181036000830152620026bd816200267b565b9050919050565b7f4e6f7420656e6f7567682073746f72656420656e657267790000000000000000600082015250565b6000620026fc60188362001573565b91506200270982620026c4565b602082019050919050565b600060208201905081810360008301526200272f81620026ed565b9050919050565b620027418262001568565b67ffffffffffffffff8111156200275d576200275c62001893565b5b62002769825462001db6565b6200277682828562002434565b600060209050601f831160018114620027ae576000841562002799578287015190505b620027a58582620024b1565b86555062002815565b601f198416620027be86620022fd565b60005b82811015620027e857848901518255600182019150602085019450602081019050620027c1565b8683101562002808578489015162002804601f89168262002491565b8355505b6001600288020188555050505b50505050505056fe608060405234801561001057600080fd5b506040516108c23803806108c28339818101604052810190610032919061016a565b836000806101000a81548173ffffffffffffffffffffffffffffffffffffffff021916908373ffffffffffffffffffffffffffffffffffffffff16021790555082600160006101000a81548173ffffffffffffffffffffffffffffffffffffffff021916908373ffffffffffffffffffffffffffffffffffffffff160217905550816002819055508060038190555042600481905550505050506101d1565b600080fd5b600073ffffffffffffffffffffffffffffffffffffffff82169050919050565b6000610101826100d6565b9050919050565b610111816100f6565b811461011c57600080fd5b50565b60008151905061012e81610108565b92915050565b6000819050919050565b61014781610134565b811461015257600080fd5b50565b6000815190506101648161013e565b92915050565b60008060008060808587031215610184576101836100d1565b5b60006101928782880161011f565b94505060206101a38782880161011f565b93505060406101b487828801610155565b92505060606101c587828801610155565b91505092959194509250565b6106e2806101e06000396000f3fe608060405234801561001057600080fd5b506004361061007d5760003560e01c80637150d8ae1161005b5780637150d8ae146100dc57806398d5fdca146100fa578063d321fe2914610118578063dbd0e1b6146101365761007d565b806308551a53146100825780635a9b0b89146100a0578063603daf9a146100be575b600080fd5b61008a610154565b60405161009791906105a9565b60405180910390f35b6100a861017a565b6040516100b59190610667565b60405180910390f35b6100c6610303565b6040516100d391906105a9565b60405180910390f35b6100e461032c565b6040516100f191906105a9565b60405180910390f35b610102610350565b60405161010f9190610691565b60405180910390f35b61012061040b565b60405161012d9190610691565b60405180910390f35b61013e6104c6565b60405161014b91906105a9565b60405180910390f35b600160009054906101000a900473ffffffffffffffffffffffffffffffffffffffff1681565b6101826104f0565b60008060008054906101000a900473ffffffffffffffffffffffffffffffffffffffff1673ffffffffffffffffffffffffffffffffffffffff163373ffffffffffffffffffffffffffffffffffffffff16036101e357600354915060025490505b600160009054906101000a900473ffffffffffffffffffffffffffffffffffffffff1673ffffffffffffffffffffffffffffffffffffffff163373ffffffffffffffffffffffffffffffffffffffff160361024357600354915060025490505b60006040518060c001604052803073ffffffffffffffffffffffffffffffffffffffff16815260200160008054906101000a900473ffffffffffffffffffffffffffffffffffffffff1673ffffffffffffffffffffffffffffffffffffffff168152602001600160009054906101000a900473ffffffffffffffffffffffffffffffffffffffff1673ffffffffffffffffffffffffffffffffffffffff168152602001848152602001838152602001600454815250905080935050505090565b60008060009054906101000a900473ffffffffffffffffffffffffffffffffffffffff16905090565b60008054906101000a900473ffffffffffffffffffffffffffffffffffffffff1681565b60008060009054906101000a900473ffffffffffffffffffffffffffffffffffffffff1673ffffffffffffffffffffffffffffffffffffffff163373ffffffffffffffffffffffffffffffffffffffff1614806103fa5750600160009054906101000a900473ffffffffffffffffffffffffffffffffffffffff1673ffffffffffffffffffffffffffffffffffffffff163373ffffffffffffffffffffffffffffffffffffffff16145b61040357600080fd5b600354905090565b60008060009054906101000a900473ffffffffffffffffffffffffffffffffffffffff1673ffffffffffffffffffffffffffffffffffffffff163373ffffffffffffffffffffffffffffffffffffffff1614806104b55750600160009054906101000a900473ffffffffffffffffffffffffffffffffffffffff1673ffffffffffffffffffffffffffffffffffffffff163373ffffffffffffffffffffffffffffffffffffffff16145b6104be57600080fd5b600254905090565b6000600160009054906101000a900473ffffffffffffffffffffffffffffffffffffffff16905090565b6040518060c00160405280600073ffffffffffffffffffffffffffffffffffffffff168152602001600073ffffffffffffffffffffffffffffffffffffffff168152602001600073ffffffffffffffffffffffffffffffffffffffff1681526020016000815260200160008152602001600081525090565b600073ffffffffffffffffffffffffffffffffffffffff82169050919050565b600061059382610568565b9050919050565b6105a381610588565b82525050565b60006020820190506105be600083018461059a565b92915050565b6105cd81610588565b82525050565b6000819050919050565b6105e6816105d3565b82525050565b60c08201600082015161060260008501826105c4565b50602082015161061560208501826105c4565b50604082015161062860408501826105c4565b50606082015161063b60608501826105dd565b50608082015161064e60808501826105dd565b5060a082015161066160a08501826105dd565b50505050565b600060c08201905061067c60008301846105ec565b92915050565b61068b816105d3565b82525050565b60006020820190506106a66000830184610682565b9291505056fea2646970667358221220fe19d2e0082c741a66d669e3c8960bcb5f491fe385aff5c2ff22dcbc501a642464736f6c63430008130033a2646970667358221220c42b6423678e8332aed7194d603d15d2fd7c9bd0c50f5eb50677a41f1e9d548164736f6c63430008130033",
  "immutableReferences": {},
  "source": "// SPDX-License-Identifier: GPL-3.0\n// pragma experimental ABIEncoderV2;\npragma solidity ^0.8.9;\n\ninterface ICableCompany {\n    function registerKey(\n        address smartMeterPubKey,\n        address smartMeterAddress\n    ) external;\n\n    function isRegisteredKey(\n        address smartMeterPubKey,\n        address smartMeterAddress\n    ) external view returns (bool);\n\n    function removeRegisteredKey(address smartMeterPubKey) external;\n}\n\ninterface ISmartMeter {\n    function returnReservedBatteryCharge(uint amount) external returns (bool);\n\n    function subtractBatteryCharge(uint amount) external returns (bool);\n}\n\ncontract Market {\n    address owner;\n    ICableCompany cableCompany;\n\n    struct Offer {\n        string id;\n        uint256 price;\n        uint256 amount;\n        uint256 expiration;\n        address owner;\n        address smartMeterAddress;\n        bool active;\n    }\n\n    mapping(string => Offer) private offers;\n    string[] public offerIds;\n    address public lastestSupplyChainAddress;\n\n    constructor(address _cableCompanyAddress) payable {\n        owner = msg.sender;\n        cableCompany = ICableCompany(_cableCompanyAddress);\n    }\n\n    function addOffer(\n        string memory id,\n        uint256 amount,\n        uint256 price,\n        uint256 expiration,\n        address smartMeterAddress\n    ) public returns (bool) {\n        require(\n            cableCompany.isRegisteredKey(msg.sender, smartMeterAddress),\n            \"Smart Meter not registered by Cable Company\"\n        );\n\n        ISmartMeter smartMeter = ISmartMeter(smartMeterAddress);\n        require(\n            smartMeter.subtractBatteryCharge(amount),\n            \"Not enough stored energy\"\n        );\n\n        offers[id] = Offer({\n            id: id,\n            amount: amount,\n            price: price,\n            expiration: expiration,\n            owner: msg.sender,\n            smartMeterAddress: smartMeterAddress,\n            active: true\n        });\n        offerIds.push(id);\n\n        return true;\n    }\n\n    function removeOffer(\n        string memory id,\n        address smartMeterAddress\n    ) public returns (bool) {\n        Offer memory offer = offers[id];\n        require(msg.sender == offer.owner, \"Only owner can remove offer\");\n        ISmartMeter smartMeter = ISmartMeter(smartMeterAddress);\n        smartMeter.returnReservedBatteryCharge(offer.amount);\n        delete offers[id];\n        return true;\n    }\n\n    function buyOffer(string memory id) public returns (address) {\n        Offer memory offer = offers[id];\n        // require(\n        //     keccak256(bytes(offer.id)) == keccak256(bytes(id)),\n        //     \"No offer found\"\n        // );\n\n        address buyer = msg.sender;\n        address seller = offer.owner;\n        uint amount = offer.amount;\n        uint price = offer.price;\n        uint expiration = offer.expiration;\n\n        require(expiration > block.timestamp, \"Cannot buy expired offer\");\n        require(msg.sender != seller, \"Owner cannot buy own offer\");\n\n        SupplyContract sc = new SupplyContract({\n            _buyer: buyer,\n            _seller: seller,\n            _amount: amount,\n            _price: price\n        });\n        lastestSupplyChainAddress = address(sc);\n        delete offers[id];\n\n        for (uint i = 0; i < offerIds.length; i++) {\n            // String comparison\n            if (keccak256(bytes(offerIds[i])) == keccak256(bytes(id))) {\n                offerIds[i] = offerIds[offerIds.length - 1];\n                offerIds.pop();\n            }\n        }\n\n        return address(sc);\n    }\n\n    function getOffer(string memory id) public view returns (Offer memory) {\n        return offers[id];\n    }\n\n    function getOffers() public view returns (Offer[] memory) {\n        Offer[] memory offersReturn = new Offer[](offerIds.length);\n        for (uint i = 0; i < offerIds.length; i++) {\n            string storage offerId = offerIds[i];\n            Offer storage offer = offers[offerId];\n\n            offersReturn[i] = offer;\n        }\n        return offersReturn;\n    }\n\n    function getOfferIDs() public view returns (string[] memory) {\n        return offerIds;\n    }\n\n    function getLatestSupplyContract() public view returns (address) {\n        return lastestSupplyChainAddress;\n    }\n}\n\ncontract SupplyContract {\n    address public buyer;\n    address public seller;\n    uint256 private amount; // Wh\n    uint256 private price; // Euro cents\n    uint256 timestamp; // Unix\n\n    struct SupplyContractDTO {\n        address scAddress;\n        address buyer;\n        address seller;\n        uint256 price;\n        uint256 amount;\n        uint256 timestamp;\n    }\n\n    constructor(\n        address _buyer,\n        address _seller,\n        uint256 _amount,\n        uint256 _price\n    ) {\n        buyer = _buyer;\n        seller = _seller;\n        amount = _amount;\n        price = _price;\n        timestamp = block.timestamp;\n    }\n\n    function getBuyer() public view returns (address) {\n        return buyer;\n    }\n\n    function getSeller() public view returns (address) {\n        return seller;\n    }\n\n    function getAmount() public view returns (uint256) {\n        require((msg.sender == buyer) || (msg.sender == seller));\n        return amount;\n    }\n\n    function getPrice() public view returns (uint256) {\n        require((msg.sender == buyer) || (msg.sender == seller));\n        return price;\n    }\n\n    function getInfo() public view returns (SupplyContractDTO memory) {\n        uint256 priceDTO = 0;\n        uint256 amountDTO = 0;\n\n        if (msg.sender == buyer) {\n            priceDTO = price;\n            amountDTO = amount;\n        }\n        if (msg.sender == seller) {\n            priceDTO = price;\n            amountDTO = amount;\n        }\n\n        SupplyContractDTO memory scDTO = SupplyContractDTO({\n            scAddress: address(this),\n            buyer: buyer,\n            seller: seller,\n            price: priceDTO,\n            amount: amountDTO,\n            timestamp: timestamp\n        });\n\n        return scDTO;\n    }\n}\n",
  "sourcePath": "/Users/antonoeschmidt/Projects/Master/SmartGridEmpowered/contracts/Market.sol",
  "compiler": {
    "name": "solc",
    "version": "0.8.19+commit.7dd6d404.Emscripten.clang"
  },
  "schemaVersion": "3.4.3",
  "updatedAt": "2023-12-06T14:08:12.101Z",
  "devdoc": {
    "kind": "dev",
    "methods": {},
    "version": 1
  },
  "userdoc": {
    "kind": "user",
    "methods": {},
    "version": 1
  }
}