{
  "contractName": "Market",
  "abi": [
    {
      "inputs": [
        {
          "internalType": "address",
          "name": "_cableCompanyAddress",
          "type": "address"
        }
      ],
      "stateMutability": "payable",
      "type": "constructor"
    },
    {
      "inputs": [],
      "name": "lastestSupplyChainAddress",
      "outputs": [
        {
          "internalType": "address",
          "name": "",
          "type": "address"
        }
      ],
      "stateMutability": "view",
      "type": "function"
    },
    {
      "inputs": [
        {
          "internalType": "uint256",
          "name": "",
          "type": "uint256"
        }
      ],
      "name": "offerIds",
      "outputs": [
        {
          "internalType": "string",
          "name": "",
          "type": "string"
        }
      ],
      "stateMutability": "view",
      "type": "function"
    },
    {
      "inputs": [
        {
          "internalType": "string",
          "name": "id",
          "type": "string"
        },
        {
          "internalType": "uint256",
          "name": "amount",
          "type": "uint256"
        },
        {
          "internalType": "uint256",
          "name": "price",
          "type": "uint256"
        },
        {
          "internalType": "uint256",
          "name": "expiration",
          "type": "uint256"
        },
        {
          "internalType": "address",
          "name": "smartMeterAddress",
          "type": "address"
        }
      ],
      "name": "addOffer",
      "outputs": [
        {
          "internalType": "bool",
          "name": "",
          "type": "bool"
        }
      ],
      "stateMutability": "nonpayable",
      "type": "function"
    },
    {
      "inputs": [
        {
          "internalType": "string",
          "name": "id",
          "type": "string"
        },
        {
          "internalType": "address",
          "name": "smartMeterAddress",
          "type": "address"
        }
      ],
      "name": "removeOffer",
      "outputs": [
        {
          "internalType": "bool",
          "name": "",
          "type": "bool"
        }
      ],
      "stateMutability": "nonpayable",
      "type": "function"
    },
    {
      "inputs": [
        {
          "internalType": "string",
          "name": "id",
          "type": "string"
        }
      ],
      "name": "buyOffer",
      "outputs": [
        {
          "internalType": "address",
          "name": "",
          "type": "address"
        }
      ],
      "stateMutability": "nonpayable",
      "type": "function"
    },
    {
      "inputs": [
        {
          "internalType": "string",
          "name": "id",
          "type": "string"
        }
      ],
      "name": "getOffer",
      "outputs": [
        {
          "components": [
            {
              "internalType": "string",
              "name": "id",
              "type": "string"
            },
            {
              "internalType": "uint256",
              "name": "price",
              "type": "uint256"
            },
            {
              "internalType": "uint256",
              "name": "amount",
              "type": "uint256"
            },
            {
              "internalType": "uint256",
              "name": "expiration",
              "type": "uint256"
            },
            {
              "internalType": "address",
              "name": "owner",
              "type": "address"
            },
            {
              "internalType": "address",
              "name": "smartMeterAddress",
              "type": "address"
            },
            {
              "internalType": "bool",
              "name": "active",
              "type": "bool"
            }
          ],
          "internalType": "struct Market.Offer",
          "name": "",
          "type": "tuple"
        }
      ],
      "stateMutability": "view",
      "type": "function"
    },
    {
      "inputs": [],
      "name": "getOffers",
      "outputs": [
        {
          "components": [
            {
              "internalType": "string",
              "name": "id",
              "type": "string"
            },
            {
              "internalType": "uint256",
              "name": "price",
              "type": "uint256"
            },
            {
              "internalType": "uint256",
              "name": "amount",
              "type": "uint256"
            },
            {
              "internalType": "uint256",
              "name": "expiration",
              "type": "uint256"
            },
            {
              "internalType": "address",
              "name": "owner",
              "type": "address"
            },
            {
              "internalType": "address",
              "name": "smartMeterAddress",
              "type": "address"
            },
            {
              "internalType": "bool",
              "name": "active",
              "type": "bool"
            }
          ],
          "internalType": "struct Market.Offer[]",
          "name": "",
          "type": "tuple[]"
        }
      ],
      "stateMutability": "view",
      "type": "function"
    },
    {
      "inputs": [],
      "name": "getOfferIDs",
      "outputs": [
        {
          "internalType": "string[]",
          "name": "",
          "type": "string[]"
        }
      ],
      "stateMutability": "view",
      "type": "function"
    },
    {
      "inputs": [],
      "name": "getLatestSupplyContract",
      "outputs": [
        {
          "internalType": "address",
          "name": "",
          "type": "address"
        }
      ],
      "stateMutability": "view",
      "type": "function"
    }
  ],
  "bytecode": "0x60806040526040516200333b3803806200333b83398181016040528101906200002991906200011b565b336000806101000a81548173ffffffffffffffffffffffffffffffffffffffff021916908373ffffffffffffffffffffffffffffffffffffffff16021790555080600160006101000a81548173ffffffffffffffffffffffffffffffffffffffff021916908373ffffffffffffffffffffffffffffffffffffffff160217905550506200014d565b600080fd5b600073ffffffffffffffffffffffffffffffffffffffff82169050919050565b6000620000e382620000b6565b9050919050565b620000f581620000d6565b81146200010157600080fd5b50565b6000815190506200011581620000ea565b92915050565b600060208284031215620001345762000133620000b1565b5b6000620001448482850162000104565b91505092915050565b6131de806200015d6000396000f3fe60806040523480156200001157600080fd5b5060043610620000a05760003560e01c8063a81333c4116200006f578063a81333c41462000169578063a84dcb71146200018b578063af8d952e14620001c1578063d6b85e8f14620001f7578063f6a80192146200021957620000a0565b8063110b9d8914620000a55780633ee992ee14620000db57806354e69aaa14620000fd5780637a5101161462000133575b600080fd5b620000c36004803603810190620000bd91906200158d565b6200023b565b604051620000d2919062001659565b60405180910390f35b620000e5620002f0565b604051620000f49190620018bc565b60405180910390f35b6200011b600480360381019062000115919062001a62565b6200057c565b6040516200012a919062001ad9565b60405180910390f35b6200015160048036038101906200014b919062001af6565b620008e6565b60405162000160919062001bf1565b60405180910390f35b6200017362000aa1565b60405162000182919062001c26565b60405180910390f35b620001a96004803603810190620001a3919062001af6565b62000acb565b604051620001b8919062001c26565b60405180910390f35b620001df6004803603810190620001d9919062001c43565b62000ffa565b604051620001ee919062001ad9565b60405180910390f35b6200020162001357565b60405162000210919062001c26565b60405180910390f35b620002236200137d565b60405162000232919062001dba565b60405180910390f35b600381815481106200024c57600080fd5b906000526020600020016000915090508054620002699062001e0d565b80601f0160208091040260200160405190810160405280929190818152602001828054620002979062001e0d565b8015620002e85780601f10620002bc57610100808354040283529160200191620002e8565b820191906000526020600020905b815481529060010190602001808311620002ca57829003601f168201915b505050505081565b6060600060038054905067ffffffffffffffff811115620003165762000315620018ea565b5b6040519080825280602002602001820160405280156200035357816020015b6200033f62001460565b815260200190600190039081620003355790505b50905060005b600380549050811015620005745760006003828154811062000380576200037f62001e42565b5b9060005260206000200190506000600282604051620003a0919062001f20565b90815260200160405180910390209050806040518060e0016040529081600082018054620003ce9062001e0d565b80601f0160208091040260200160405190810160405280929190818152602001828054620003fc9062001e0d565b80156200044d5780601f1062000421576101008083540402835291602001916200044d565b820191906000526020600020905b8154815290600101906020018083116200042f57829003601f168201915b505050505081526020016001820154815260200160028201548152602001600382015481526020016004820160009054906101000a900473ffffffffffffffffffffffffffffffffffffffff1673ffffffffffffffffffffffffffffffffffffffff1673ffffffffffffffffffffffffffffffffffffffff1681526020016005820160009054906101000a900473ffffffffffffffffffffffffffffffffffffffff1673ffffffffffffffffffffffffffffffffffffffff1673ffffffffffffffffffffffffffffffffffffffff1681526020016005820160149054906101000a900460ff16151515158152505084848151811062000551576200055062001e42565b5b6020026020010181905250505080806200056b9062001f68565b91505062000359565b508091505090565b60008060028460405162000591919062001fec565b90815260200160405180910390206040518060e0016040529081600082018054620005bc9062001e0d565b80601f0160208091040260200160405190810160405280929190818152602001828054620005ea9062001e0d565b80156200063b5780601f106200060f576101008083540402835291602001916200063b565b820191906000526020600020905b8154815290600101906020018083116200061d57829003601f168201915b505050505081526020016001820154815260200160028201548152602001600382015481526020016004820160009054906101000a900473ffffffffffffffffffffffffffffffffffffffff1673ffffffffffffffffffffffffffffffffffffffff1673ffffffffffffffffffffffffffffffffffffffff1681526020016005820160009054906101000a900473ffffffffffffffffffffffffffffffffffffffff1673ffffffffffffffffffffffffffffffffffffffff1673ffffffffffffffffffffffffffffffffffffffff1681526020016005820160149054906101000a900460ff1615151515815250509050806080015173ffffffffffffffffffffffffffffffffffffffff163373ffffffffffffffffffffffffffffffffffffffff1614620007a0576040517f08c379a0000000000000000000000000000000000000000000000000000000008152600401620007979062002055565b60405180910390fd5b60008390508073ffffffffffffffffffffffffffffffffffffffff1663997d182683604001516040518263ffffffff1660e01b8152600401620007e4919062002088565b6020604051808303816000875af115801562000804573d6000803e3d6000fd5b505050506040513d601f19601f820116820180604052508101906200082a9190620020d6565b506002856040516200083d919062001fec565b9081526020016040518091039020600080820160006200085e9190620014cb565b6001820160009055600282016000905560038201600090556004820160006101000a81549073ffffffffffffffffffffffffffffffffffffffff02191690556005820160006101000a81549073ffffffffffffffffffffffffffffffffffffffff02191690556005820160146101000a81549060ff0219169055505060019250505092915050565b620008f062001460565b60028260405162000902919062001fec565b90815260200160405180910390206040518060e00160405290816000820180546200092d9062001e0d565b80601f01602080910402602001604051908101604052809291908181526020018280546200095b9062001e0d565b8015620009ac5780601f106200098057610100808354040283529160200191620009ac565b820191906000526020600020905b8154815290600101906020018083116200098e57829003601f168201915b505050505081526020016001820154815260200160028201548152602001600382015481526020016004820160009054906101000a900473ffffffffffffffffffffffffffffffffffffffff1673ffffffffffffffffffffffffffffffffffffffff1673ffffffffffffffffffffffffffffffffffffffff1681526020016005820160009054906101000a900473ffffffffffffffffffffffffffffffffffffffff1673ffffffffffffffffffffffffffffffffffffffff1673ffffffffffffffffffffffffffffffffffffffff1681526020016005820160149054906101000a900460ff1615151515815250509050919050565b6000600460009054906101000a900473ffffffffffffffffffffffffffffffffffffffff16905090565b60008060028360405162000ae0919062001fec565b90815260200160405180910390206040518060e001604052908160008201805462000b0b9062001e0d565b80601f016020809104026020016040519081016040528092919081815260200182805462000b399062001e0d565b801562000b8a5780601f1062000b5e5761010080835404028352916020019162000b8a565b820191906000526020600020905b81548152906001019060200180831162000b6c57829003601f168201915b505050505081526020016001820154815260200160028201548152602001600382015481526020016004820160009054906101000a900473ffffffffffffffffffffffffffffffffffffffff1673ffffffffffffffffffffffffffffffffffffffff1673ffffffffffffffffffffffffffffffffffffffff1681526020016005820160009054906101000a900473ffffffffffffffffffffffffffffffffffffffff1673ffffffffffffffffffffffffffffffffffffffff1673ffffffffffffffffffffffffffffffffffffffff1681526020016005820160149054906101000a900460ff161515151581525050905082805190602001208160000151805190602001201462000cd1576040517f08c379a000000000000000000000000000000000000000000000000000000000815260040162000cc89062002158565b60405180910390fd5b600033905060008260800151905060008360400151905060008460200151905060008560600151905042811162000d3f576040517f08c379a000000000000000000000000000000000000000000000000000000000815260040162000d3690620021ca565b60405180910390fd5b8373ffffffffffffffffffffffffffffffffffffffff163373ffffffffffffffffffffffffffffffffffffffff160362000db0576040517f08c379a000000000000000000000000000000000000000000000000000000000815260040162000da7906200223c565b60405180910390fd5b60008585858560405162000dc49062001511565b62000dd394939291906200225e565b604051809103906000f08015801562000df0573d6000803e3d6000fd5b50905080600460006101000a81548173ffffffffffffffffffffffffffffffffffffffff021916908373ffffffffffffffffffffffffffffffffffffffff16021790555060028960405162000e46919062001fec565b90815260200160405180910390206000808201600062000e679190620014cb565b6001820160009055600282016000905560038201600090556004820160006101000a81549073ffffffffffffffffffffffffffffffffffffffff02191690556005820160006101000a81549073ffffffffffffffffffffffffffffffffffffffff02191690556005820160146101000a81549060ff0219169055505060005b60038054905081101562000fea5789805190602001206003828154811062000f135762000f1262001e42565b5b9060005260206000200160405162000f2c91906200235a565b60405180910390200362000fd4576003600160038054905062000f50919062002373565b8154811062000f645762000f6362001e42565b5b906000526020600020016003828154811062000f855762000f8462001e42565b5b90600052602060002001908162000f9d919062002598565b50600380548062000fb35762000fb262002699565b5b60019003818190600052602060002001600062000fd19190620014cb565b90555b808062000fe19062001f68565b91505062000ee6565b5080975050505050505050919050565b6000600160009054906101000a900473ffffffffffffffffffffffffffffffffffffffff1673ffffffffffffffffffffffffffffffffffffffff1663eb4e352d33846040518363ffffffff1660e01b81526004016200105b929190620026c8565b602060405180830381865afa15801562001079573d6000803e3d6000fd5b505050506040513d601f19601f820116820180604052508101906200109f9190620020d6565b620010e1576040517f08c379a0000000000000000000000000000000000000000000000000000000008152600401620010d8906200276b565b60405180910390fd5b60008290508073ffffffffffffffffffffffffffffffffffffffff1663f709bda8876040518263ffffffff1660e01b815260040162001121919062002088565b6020604051808303816000875af115801562001141573d6000803e3d6000fd5b505050506040513d601f19601f82011682018060405250810190620011679190620020d6565b620011a9576040517f08c379a0000000000000000000000000000000000000000000000000000000008152600401620011a090620027dd565b60405180910390fd5b6040518060e001604052808881526020018681526020018781526020018581526020013373ffffffffffffffffffffffffffffffffffffffff1681526020018473ffffffffffffffffffffffffffffffffffffffff168152602001600115158152506002886040516200121d919062001fec565b90815260200160405180910390206000820151816000019081620012429190620027ff565b5060208201518160010155604082015181600201556060820151816003015560808201518160040160006101000a81548173ffffffffffffffffffffffffffffffffffffffff021916908373ffffffffffffffffffffffffffffffffffffffff16021790555060a08201518160050160006101000a81548173ffffffffffffffffffffffffffffffffffffffff021916908373ffffffffffffffffffffffffffffffffffffffff16021790555060c08201518160050160146101000a81548160ff021916908315150217905550905050600387908060018154018082558091505060019003906000526020600020016000909190919091509081620013489190620027ff565b50600191505095945050505050565b600460009054906101000a900473ffffffffffffffffffffffffffffffffffffffff1681565b60606003805480602002602001604051908101604052809291908181526020016000905b8282101562001457578382906000526020600020018054620013c39062001e0d565b80601f0160208091040260200160405190810160405280929190818152602001828054620013f19062001e0d565b8015620014425780601f10620014165761010080835404028352916020019162001442565b820191906000526020600020905b8154815290600101906020018083116200142457829003601f168201915b505050505081526020019060010190620013a1565b50505050905090565b6040518060e0016040528060608152602001600081526020016000815260200160008152602001600073ffffffffffffffffffffffffffffffffffffffff168152602001600073ffffffffffffffffffffffffffffffffffffffff1681526020016000151581525090565b508054620014d99062001e0d565b6000825580601f10620014ed57506200150e565b601f0160209004906000526020600020908101906200150d91906200151f565b5b50565b6108c280620028e783390190565b5b808211156200153a57600081600090555060010162001520565b5090565b6000604051905090565b600080fd5b600080fd5b6000819050919050565b620015678162001552565b81146200157357600080fd5b50565b60008135905062001587816200155c565b92915050565b600060208284031215620015a657620015a562001548565b5b6000620015b68482850162001576565b91505092915050565b600081519050919050565b600082825260208201905092915050565b60005b83811015620015fb578082015181840152602081019050620015de565b60008484015250505050565b6000601f19601f8301169050919050565b60006200162582620015bf565b620016318185620015ca565b935062001643818560208601620015db565b6200164e8162001607565b840191505092915050565b6000602082019050818103600083015262001675818462001618565b905092915050565b600081519050919050565b600082825260208201905092915050565b6000819050602082019050919050565b600082825260208201905092915050565b6000620016c782620015bf565b620016d38185620016a9565b9350620016e5818560208601620015db565b620016f08162001607565b840191505092915050565b620017068162001552565b82525050565b600073ffffffffffffffffffffffffffffffffffffffff82169050919050565b600062001739826200170c565b9050919050565b6200174b816200172c565b82525050565b60008115159050919050565b620017688162001751565b82525050565b600060e08301600083015184820360008601526200178d8282620016ba565b9150506020830151620017a46020860182620016fb565b506040830151620017b96040860182620016fb565b506060830151620017ce6060860182620016fb565b506080830151620017e3608086018262001740565b5060a0830151620017f860a086018262001740565b5060c08301516200180d60c08601826200175d565b508091505092915050565b60006200182683836200176e565b905092915050565b6000602082019050919050565b600062001848826200167d565b62001854818562001688565b935083602082028501620018688562001699565b8060005b85811015620018aa578484038952815162001888858262001818565b945062001895836200182e565b925060208a019950506001810190506200186c565b50829750879550505050505092915050565b60006020820190508181036000830152620018d881846200183b565b905092915050565b600080fd5b600080fd5b7f4e487b7100000000000000000000000000000000000000000000000000000000600052604160045260246000fd5b620019248262001607565b810181811067ffffffffffffffff82111715620019465762001945620018ea565b5b80604052505050565b60006200195b6200153e565b905062001969828262001919565b919050565b600067ffffffffffffffff8211156200198c576200198b620018ea565b5b620019978262001607565b9050602081019050919050565b82818337600083830152505050565b6000620019ca620019c4846200196e565b6200194f565b905082815260208101848484011115620019e957620019e8620018e5565b5b620019f6848285620019a4565b509392505050565b600082601f83011262001a165762001a15620018e0565b5b813562001a28848260208601620019b3565b91505092915050565b62001a3c816200172c565b811462001a4857600080fd5b50565b60008135905062001a5c8162001a31565b92915050565b6000806040838503121562001a7c5762001a7b62001548565b5b600083013567ffffffffffffffff81111562001a9d5762001a9c6200154d565b5b62001aab85828601620019fe565b925050602062001abe8582860162001a4b565b9150509250929050565b62001ad38162001751565b82525050565b600060208201905062001af0600083018462001ac8565b92915050565b60006020828403121562001b0f5762001b0e62001548565b5b600082013567ffffffffffffffff81111562001b305762001b2f6200154d565b5b62001b3e84828501620019fe565b91505092915050565b600060e083016000830151848203600086015262001b668282620016ba565b915050602083015162001b7d6020860182620016fb565b50604083015162001b926040860182620016fb565b50606083015162001ba76060860182620016fb565b50608083015162001bbc608086018262001740565b5060a083015162001bd160a086018262001740565b5060c083015162001be660c08601826200175d565b508091505092915050565b6000602082019050818103600083015262001c0d818462001b47565b905092915050565b62001c20816200172c565b82525050565b600060208201905062001c3d600083018462001c15565b92915050565b600080600080600060a0868803121562001c625762001c6162001548565b5b600086013567ffffffffffffffff81111562001c835762001c826200154d565b5b62001c9188828901620019fe565b955050602062001ca48882890162001576565b945050604062001cb78882890162001576565b935050606062001cca8882890162001576565b925050608062001cdd8882890162001a4b565b9150509295509295909350565b600081519050919050565b600082825260208201905092915050565b6000819050602082019050919050565b600062001d248383620016ba565b905092915050565b6000602082019050919050565b600062001d468262001cea565b62001d52818562001cf5565b93508360208202850162001d668562001d06565b8060005b8581101562001da8578484038952815162001d86858262001d16565b945062001d938362001d2c565b925060208a0199505060018101905062001d6a565b50829750879550505050505092915050565b6000602082019050818103600083015262001dd6818462001d39565b905092915050565b7f4e487b7100000000000000000000000000000000000000000000000000000000600052602260045260246000fd5b6000600282049050600182168062001e2657607f821691505b60208210810362001e3c5762001e3b62001dde565b5b50919050565b7f4e487b7100000000000000000000000000000000000000000000000000000000600052603260045260246000fd5b600081905092915050565b60008190508160005260206000209050919050565b6000815462001ea08162001e0d565b62001eac818662001e71565b9450600182166000811462001eca576001811462001ee05762001f17565b60ff198316865281151582028601935062001f17565b62001eeb8562001e7c565b60005b8381101562001f0f5781548189015260018201915060208101905062001eee565b838801955050505b50505092915050565b600062001f2e828462001e91565b915081905092915050565b7f4e487b7100000000000000000000000000000000000000000000000000000000600052601160045260246000fd5b600062001f758262001552565b91507fffffffffffffffffffffffffffffffffffffffffffffffffffffffffffffffff820362001faa5762001fa962001f39565b5b600182019050919050565b600062001fc282620015bf565b62001fce818562001e71565b935062001fe0818560208601620015db565b80840191505092915050565b600062001ffa828462001fb5565b915081905092915050565b7f4f6e6c79206f776e65722063616e2072656d6f7665206f666665720000000000600082015250565b60006200203d601b83620015ca565b91506200204a8262002005565b602082019050919050565b6000602082019050818103600083015262002070816200202e565b9050919050565b620020828162001552565b82525050565b60006020820190506200209f600083018462002077565b92915050565b620020b08162001751565b8114620020bc57600080fd5b50565b600081519050620020d081620020a5565b92915050565b600060208284031215620020ef57620020ee62001548565b5b6000620020ff84828501620020bf565b91505092915050565b7f4e6f206f6666657220666f756e64000000000000000000000000000000000000600082015250565b600062002140600e83620015ca565b91506200214d8262002108565b602082019050919050565b60006020820190508181036000830152620021738162002131565b9050919050565b7f43616e6e6f74206275792065787069726564206f666665720000000000000000600082015250565b6000620021b2601883620015ca565b9150620021bf826200217a565b602082019050919050565b60006020820190508181036000830152620021e581620021a3565b9050919050565b7f4f776e65722063616e6e6f7420627579206f776e206f66666572000000000000600082015250565b600062002224601a83620015ca565b91506200223182620021ec565b602082019050919050565b60006020820190508181036000830152620022578162002215565b9050919050565b600060808201905062002275600083018762001c15565b62002284602083018662001c15565b62002293604083018562002077565b620022a2606083018462002077565b95945050505050565b600081905092915050565b60008190508160005260206000209050919050565b60008154620022da8162001e0d565b620022e68186620022ab565b945060018216600081146200230457600181146200231a5762002351565b60ff198316865281151582028601935062002351565b6200232585620022b6565b60005b83811015620023495781548189015260018201915060208101905062002328565b838801955050505b50505092915050565b6000620023688284620022cb565b915081905092915050565b6000620023808262001552565b91506200238d8362001552565b9250828203905081811115620023a857620023a762001f39565b5b92915050565b600081549050620023bf8162001e0d565b9050919050565b60008190508160005260206000209050919050565b60006020601f8301049050919050565b600082821b905092915050565b6000600883026200242a7fffffffffffffffffffffffffffffffffffffffffffffffffffffffffffffffff82620023eb565b620024368683620023eb565b95508019841693508086168417925050509392505050565b6000819050919050565b600062002479620024736200246d8462001552565b6200244e565b62001552565b9050919050565b6000819050919050565b620024958362002458565b620024ad620024a48262002480565b848454620023f8565b825550505050565b600090565b620024c4620024b5565b620024d18184846200248a565b505050565b5b81811015620024f957620024ed600082620024ba565b600181019050620024d7565b5050565b601f82111562002548576200251281620023c6565b6200251d84620023db565b810160208510156200252d578190505b620025456200253c85620023db565b830182620024d6565b50505b505050565b600082821c905092915050565b60006200256d600019846008026200254d565b1980831691505092915050565b60006200258883836200255a565b9150826002028217905092915050565b818103620025a857505062002697565b620025b382620023ae565b67ffffffffffffffff811115620025cf57620025ce620018ea565b5b620025db825462001e0d565b620025e8828285620024fd565b6000601f8311600181146200261c576000841562002607578287015490505b6200261385826200257a565b86555062002690565b601f1984166200262c8762001e7c565b96506200263986620023c6565b60005b8281101562002663578489015482556001820191506001850194506020810190506200263c565b868310156200268357848901546200267f601f8916826200255a565b8355505b6001600288020188555050505b5050505050505b565b7f4e487b7100000000000000000000000000000000000000000000000000000000600052603160045260246000fd5b6000604082019050620026df600083018562001c15565b620026ee602083018462001c15565b9392505050565b7f536d617274204d65746572206e6f74207265676973746572656420627920436160008201527f626c6520436f6d70616e79000000000000000000000000000000000000000000602082015250565b600062002753602b83620015ca565b91506200276082620026f5565b604082019050919050565b60006020820190508181036000830152620027868162002744565b9050919050565b7f4e6f7420656e6f7567682073746f72656420656e657267790000000000000000600082015250565b6000620027c5601883620015ca565b9150620027d2826200278d565b602082019050919050565b60006020820190508181036000830152620027f881620027b6565b9050919050565b6200280a82620015bf565b67ffffffffffffffff811115620028265762002825620018ea565b5b62002832825462001e0d565b6200283f828285620024fd565b600060209050601f83116001811462002877576000841562002862578287015190505b6200286e85826200257a565b865550620028de565b601f1984166200288786620023c6565b60005b82811015620028b1578489015182556001820191506020850194506020810190506200288a565b86831015620028d15784890151620028cd601f8916826200255a565b8355505b6001600288020188555050505b50505050505056fe608060405234801561001057600080fd5b506040516108c23803806108c28339818101604052810190610032919061016a565b836000806101000a81548173ffffffffffffffffffffffffffffffffffffffff021916908373ffffffffffffffffffffffffffffffffffffffff16021790555082600160006101000a81548173ffffffffffffffffffffffffffffffffffffffff021916908373ffffffffffffffffffffffffffffffffffffffff160217905550816002819055508060038190555042600481905550505050506101d1565b600080fd5b600073ffffffffffffffffffffffffffffffffffffffff82169050919050565b6000610101826100d6565b9050919050565b610111816100f6565b811461011c57600080fd5b50565b60008151905061012e81610108565b92915050565b6000819050919050565b61014781610134565b811461015257600080fd5b50565b6000815190506101648161013e565b92915050565b60008060008060808587031215610184576101836100d1565b5b60006101928782880161011f565b94505060206101a38782880161011f565b93505060406101b487828801610155565b92505060606101c587828801610155565b91505092959194509250565b6106e2806101e06000396000f3fe608060405234801561001057600080fd5b506004361061007d5760003560e01c80637150d8ae1161005b5780637150d8ae146100dc57806398d5fdca146100fa578063d321fe2914610118578063dbd0e1b6146101365761007d565b806308551a53146100825780635a9b0b89146100a0578063603daf9a146100be575b600080fd5b61008a610154565b60405161009791906105a9565b60405180910390f35b6100a861017a565b6040516100b59190610667565b60405180910390f35b6100c6610303565b6040516100d391906105a9565b60405180910390f35b6100e461032c565b6040516100f191906105a9565b60405180910390f35b610102610350565b60405161010f9190610691565b60405180910390f35b61012061040b565b60405161012d9190610691565b60405180910390f35b61013e6104c6565b60405161014b91906105a9565b60405180910390f35b600160009054906101000a900473ffffffffffffffffffffffffffffffffffffffff1681565b6101826104f0565b60008060008054906101000a900473ffffffffffffffffffffffffffffffffffffffff1673ffffffffffffffffffffffffffffffffffffffff163373ffffffffffffffffffffffffffffffffffffffff16036101e357600354915060025490505b600160009054906101000a900473ffffffffffffffffffffffffffffffffffffffff1673ffffffffffffffffffffffffffffffffffffffff163373ffffffffffffffffffffffffffffffffffffffff160361024357600354915060025490505b60006040518060c001604052803073ffffffffffffffffffffffffffffffffffffffff16815260200160008054906101000a900473ffffffffffffffffffffffffffffffffffffffff1673ffffffffffffffffffffffffffffffffffffffff168152602001600160009054906101000a900473ffffffffffffffffffffffffffffffffffffffff1673ffffffffffffffffffffffffffffffffffffffff168152602001848152602001838152602001600454815250905080935050505090565b60008060009054906101000a900473ffffffffffffffffffffffffffffffffffffffff16905090565b60008054906101000a900473ffffffffffffffffffffffffffffffffffffffff1681565b60008060009054906101000a900473ffffffffffffffffffffffffffffffffffffffff1673ffffffffffffffffffffffffffffffffffffffff163373ffffffffffffffffffffffffffffffffffffffff1614806103fa5750600160009054906101000a900473ffffffffffffffffffffffffffffffffffffffff1673ffffffffffffffffffffffffffffffffffffffff163373ffffffffffffffffffffffffffffffffffffffff16145b61040357600080fd5b600354905090565b60008060009054906101000a900473ffffffffffffffffffffffffffffffffffffffff1673ffffffffffffffffffffffffffffffffffffffff163373ffffffffffffffffffffffffffffffffffffffff1614806104b55750600160009054906101000a900473ffffffffffffffffffffffffffffffffffffffff1673ffffffffffffffffffffffffffffffffffffffff163373ffffffffffffffffffffffffffffffffffffffff16145b6104be57600080fd5b600254905090565b6000600160009054906101000a900473ffffffffffffffffffffffffffffffffffffffff16905090565b6040518060c00160405280600073ffffffffffffffffffffffffffffffffffffffff168152602001600073ffffffffffffffffffffffffffffffffffffffff168152602001600073ffffffffffffffffffffffffffffffffffffffff1681526020016000815260200160008152602001600081525090565b600073ffffffffffffffffffffffffffffffffffffffff82169050919050565b600061059382610568565b9050919050565b6105a381610588565b82525050565b60006020820190506105be600083018461059a565b92915050565b6105cd81610588565b82525050565b6000819050919050565b6105e6816105d3565b82525050565b60c08201600082015161060260008501826105c4565b50602082015161061560208501826105c4565b50604082015161062860408501826105c4565b50606082015161063b60608501826105dd565b50608082015161064e60808501826105dd565b5060a082015161066160a08501826105dd565b50505050565b600060c08201905061067c60008301846105ec565b92915050565b61068b816105d3565b82525050565b60006020820190506106a66000830184610682565b9291505056fea26469706673582212207b5752585c62ee15f09136a6e4f00c9d0632d6d71d0b2e0d907fa7b0cb73a63364736f6c63430008130033a2646970667358221220108cd1ad007d563ae8fe0636d956b804da02ee6bfec32acb297350f05ac97cf164736f6c63430008130033",
  "immutableReferences": {},
  "source": "// SPDX-License-Identifier: GPL-3.0\n// pragma experimental ABIEncoderV2;\npragma solidity ^0.8.9;\n\ninterface ICableCompany {\n    function registerKey(\n        address smartMeterPubKey,\n        address smartMeterAddress\n    ) external;\n\n    function isRegisteredKey(\n        address smartMeterPubKey,\n        address smartMeterAddress\n    ) external view returns (bool);\n\n    function removeRegisteredKey(address smartMeterPubKey) external;\n}\n\ninterface ISmartMeter {\n    function returnReservedBatteryCharge(uint amount) external returns (bool);\n\n    function subtractBatteryCharge(uint amount) external returns (bool);\n}\n\ncontract Market {\n    address owner;\n    ICableCompany cableCompany;\n\n    struct Offer {\n        string id;\n        uint256 price;\n        uint256 amount;\n        uint256 expiration;\n        address owner;\n        address smartMeterAddress;\n        bool active;\n    }\n\n    mapping(string => Offer) private offers;\n    string[] public offerIds;\n    address public lastestSupplyChainAddress;\n\n    constructor(address _cableCompanyAddress) payable {\n        owner = msg.sender;\n        cableCompany = ICableCompany(_cableCompanyAddress);\n    }\n\n    function addOffer(\n        string memory id,\n        uint256 amount,\n        uint256 price,\n        uint256 expiration,\n        address smartMeterAddress\n    ) public returns (bool) {\n        require(\n            cableCompany.isRegisteredKey(msg.sender, smartMeterAddress),\n            \"Smart Meter not registered by Cable Company\"\n        );\n\n        ISmartMeter smartMeter = ISmartMeter(smartMeterAddress);\n        require(\n            smartMeter.subtractBatteryCharge(amount),\n            \"Not enough stored energy\"\n        );\n\n        offers[id] = Offer({\n            id: id,\n            amount: amount,\n            price: price,\n            expiration: expiration,\n            owner: msg.sender,\n            smartMeterAddress: smartMeterAddress,\n            active: true\n        });\n        offerIds.push(id);\n\n        return true;\n    }\n\n    function removeOffer(\n        string memory id,\n        address smartMeterAddress\n    ) public returns (bool) {\n        Offer memory offer = offers[id];\n        require(msg.sender == offer.owner, \"Only owner can remove offer\");\n        ISmartMeter smartMeter = ISmartMeter(smartMeterAddress);\n        smartMeter.returnReservedBatteryCharge(offer.amount);\n        delete offers[id];\n        return true;\n    }\n\n    function buyOffer(string memory id) public returns (address) {\n        Offer memory offer = offers[id];\n        require(keccak256(bytes(offer.id)) == keccak256(bytes(id)), \"No offer found\");\n        address buyer = msg.sender;\n        address seller = offer.owner;\n        uint amount = offer.amount;\n        uint price = offer.price;\n        uint expiration = offer.expiration;\n\n        require(expiration > block.timestamp, \"Cannot buy expired offer\");\n        require(msg.sender != seller, \"Owner cannot buy own offer\");\n\n        SupplyContract sc = new SupplyContract({\n            _buyer: buyer,\n            _seller: seller,\n            _amount: amount,\n            _price: price\n        });\n        lastestSupplyChainAddress = address(sc);\n        delete offers[id];\n\n        for (uint i = 0; i < offerIds.length; i++) {\n            // String comparison\n            if (keccak256(bytes(offerIds[i])) == keccak256(bytes(id))) {\n                offerIds[i] = offerIds[offerIds.length - 1];\n                offerIds.pop();\n            }\n        }\n\n        return address(sc);\n    }\n\n    function getOffer(string memory id) public view returns (Offer memory) {\n        return offers[id];\n    }\n\n    function getOffers() public view returns (Offer[] memory) {\n        Offer[] memory offersReturn = new Offer[](offerIds.length);\n        for (uint i = 0; i < offerIds.length; i++) {\n            string storage offerId = offerIds[i];\n            Offer storage offer = offers[offerId];\n\n            offersReturn[i] = offer;\n        }\n        return offersReturn;\n    }\n\n    function getOfferIDs() public view returns (string[] memory) {\n        return offerIds;\n    }\n\n    function getLatestSupplyContract() public view returns (address) {\n        return lastestSupplyChainAddress;\n    }\n}\n\ncontract SupplyContract {\n    address public buyer;\n    address public seller;\n    uint256 private amount; // Wh\n    uint256 private price; // Euro cents\n    uint256 timestamp; // Unix\n\n    struct SupplyContractDTO {\n        address scAddress;\n        address buyer;\n        address seller;\n        uint256 price;\n        uint256 amount;\n        uint256 timestamp;\n    }\n\n    constructor(\n        address _buyer,\n        address _seller,\n        uint256 _amount,\n        uint256 _price\n    ) {\n        buyer = _buyer;\n        seller = _seller;\n        amount = _amount;\n        price = _price;\n        timestamp = block.timestamp;\n    }\n\n    function getBuyer() public view returns (address) {\n        return buyer;\n    }\n\n    function getSeller() public view returns (address) {\n        return seller;\n    }\n\n    function getAmount() public view returns (uint256) {\n        require((msg.sender == buyer) || (msg.sender == seller));\n        return amount;\n    }\n\n    function getPrice() public view returns (uint256) {\n        require((msg.sender == buyer) || (msg.sender == seller));\n        return price;\n    }\n\n    function getInfo() public view returns (SupplyContractDTO memory) {\n        uint256 priceDTO = 0;\n        uint256 amountDTO = 0;\n\n        if (msg.sender == buyer) {\n            priceDTO = price;\n            amountDTO = amount;\n        }\n        if (msg.sender == seller) {\n            priceDTO = price;\n            amountDTO = amount;\n        }\n\n        SupplyContractDTO memory scDTO = SupplyContractDTO({\n            scAddress: address(this),\n            buyer: buyer,\n            seller: seller,\n            price: priceDTO,\n            amount: amountDTO,\n            timestamp: timestamp\n        });\n\n        return scDTO;\n    }\n}\n",
  "sourcePath": "/Users/antonoeschmidt/Projects/Master/SmartGridEmpowered/contracts/Market.sol",
  "compiler": {
    "name": "solc",
    "version": "0.8.19+commit.7dd6d404.Emscripten.clang"
  },
  "schemaVersion": "3.4.3",
  "updatedAt": "2023-11-28T10:38:10.348Z",
  "devdoc": {
    "kind": "dev",
    "methods": {},
    "version": 1
  },
  "userdoc": {
    "kind": "user",
    "methods": {},
    "version": 1
  }
}