{
  "contractName": "Market",
  "abi": [
    {
      "inputs": [
        {
          "internalType": "address",
          "name": "_dsoAddress",
          "type": "address"
        },
        {
          "internalType": "address",
          "name": "_smartMeterContractAddress",
          "type": "address"
        }
      ],
      "stateMutability": "payable",
      "type": "constructor",
      "payable": true
    },
    {
      "anonymous": false,
      "inputs": [
        {
          "indexed": false,
          "internalType": "string",
          "name": "buyerSignature",
          "type": "string"
        },
        {
          "indexed": false,
          "internalType": "string",
          "name": "sellerSignature",
          "type": "string"
        },
        {
          "indexed": false,
          "internalType": "uint256",
          "name": "amount",
          "type": "uint256"
        },
        {
          "indexed": false,
          "internalType": "uint256",
          "name": "timestamp",
          "type": "uint256"
        },
        {
          "indexed": false,
          "internalType": "uint256",
          "name": "price",
          "type": "uint256"
        }
      ],
      "name": "SupplyContract",
      "type": "event"
    },
    {
      "inputs": [
        {
          "internalType": "uint256",
          "name": "",
          "type": "uint256"
        }
      ],
      "name": "offerIds",
      "outputs": [
        {
          "internalType": "string",
          "name": "",
          "type": "string"
        }
      ],
      "stateMutability": "view",
      "type": "function",
      "constant": true
    },
    {
      "inputs": [
        {
          "internalType": "string",
          "name": "",
          "type": "string"
        }
      ],
      "name": "offers",
      "outputs": [
        {
          "internalType": "string",
          "name": "id",
          "type": "string"
        },
        {
          "internalType": "uint256",
          "name": "price",
          "type": "uint256"
        },
        {
          "internalType": "uint256",
          "name": "amount",
          "type": "uint256"
        },
        {
          "internalType": "uint256",
          "name": "expiration",
          "type": "uint256"
        },
        {
          "internalType": "address",
          "name": "owner",
          "type": "address"
        },
        {
          "internalType": "address",
          "name": "smartMeterAddress",
          "type": "address"
        },
        {
          "internalType": "bool",
          "name": "active",
          "type": "bool"
        },
        {
          "internalType": "string",
          "name": "sellerSignature",
          "type": "string"
        },
        {
          "internalType": "uint256",
          "name": "nonce",
          "type": "uint256"
        }
      ],
      "stateMutability": "view",
      "type": "function",
      "constant": true
    },
    {
      "inputs": [
        {
          "internalType": "uint256",
          "name": "",
          "type": "uint256"
        }
      ],
      "name": "pendingSupplyContracts",
      "outputs": [
        {
          "internalType": "string",
          "name": "buyerSignature",
          "type": "string"
        },
        {
          "internalType": "string",
          "name": "sellerSignature",
          "type": "string"
        },
        {
          "internalType": "address",
          "name": "smartMeterAddress",
          "type": "address"
        },
        {
          "internalType": "uint256",
          "name": "amount",
          "type": "uint256"
        },
        {
          "internalType": "uint256",
          "name": "price",
          "type": "uint256"
        },
        {
          "internalType": "uint256",
          "name": "timestamp",
          "type": "uint256"
        },
        {
          "internalType": "uint256",
          "name": "nonce",
          "type": "uint256"
        }
      ],
      "stateMutability": "view",
      "type": "function",
      "constant": true
    },
    {
      "inputs": [
        {
          "internalType": "string",
          "name": "id",
          "type": "string"
        },
        {
          "internalType": "uint256",
          "name": "amount",
          "type": "uint256"
        },
        {
          "internalType": "uint256",
          "name": "price",
          "type": "uint256"
        },
        {
          "internalType": "uint256",
          "name": "expiration",
          "type": "uint256"
        },
        {
          "internalType": "address",
          "name": "smartMeterAddress",
          "type": "address"
        },
        {
          "internalType": "string",
          "name": "sellerSignature",
          "type": "string"
        },
        {
          "internalType": "uint256",
          "name": "nonce",
          "type": "uint256"
        },
        {
          "internalType": "address",
          "name": "sellerAddress",
          "type": "address"
        },
        {
          "internalType": "bytes",
          "name": "ots",
          "type": "bytes"
        },
        {
          "internalType": "bytes32",
          "name": "nextOtsHash",
          "type": "bytes32"
        }
      ],
      "name": "addOffer",
      "outputs": [
        {
          "internalType": "bool",
          "name": "",
          "type": "bool"
        }
      ],
      "stateMutability": "nonpayable",
      "type": "function"
    },
    {
      "inputs": [
        {
          "internalType": "string",
          "name": "id",
          "type": "string"
        }
      ],
      "name": "removeOffer",
      "outputs": [
        {
          "internalType": "bool",
          "name": "",
          "type": "bool"
        }
      ],
      "stateMutability": "nonpayable",
      "type": "function"
    },
    {
      "inputs": [
        {
          "internalType": "string",
          "name": "id",
          "type": "string"
        },
        {
          "internalType": "string",
          "name": "buyerSignature",
          "type": "string"
        }
      ],
      "name": "buyOffer",
      "outputs": [],
      "stateMutability": "nonpayable",
      "type": "function"
    },
    {
      "inputs": [
        {
          "internalType": "string",
          "name": "id",
          "type": "string"
        }
      ],
      "name": "getOffer",
      "outputs": [
        {
          "components": [
            {
              "internalType": "string",
              "name": "id",
              "type": "string"
            },
            {
              "internalType": "uint256",
              "name": "price",
              "type": "uint256"
            },
            {
              "internalType": "uint256",
              "name": "amount",
              "type": "uint256"
            },
            {
              "internalType": "uint256",
              "name": "expiration",
              "type": "uint256"
            },
            {
              "internalType": "address",
              "name": "owner",
              "type": "address"
            },
            {
              "internalType": "address",
              "name": "smartMeterAddress",
              "type": "address"
            },
            {
              "internalType": "bool",
              "name": "active",
              "type": "bool"
            },
            {
              "internalType": "string",
              "name": "sellerSignature",
              "type": "string"
            },
            {
              "internalType": "uint256",
              "name": "nonce",
              "type": "uint256"
            }
          ],
          "internalType": "struct Market.Offer",
          "name": "",
          "type": "tuple"
        }
      ],
      "stateMutability": "view",
      "type": "function",
      "constant": true
    },
    {
      "inputs": [],
      "name": "getOffers",
      "outputs": [
        {
          "components": [
            {
              "internalType": "string",
              "name": "id",
              "type": "string"
            },
            {
              "internalType": "uint256",
              "name": "price",
              "type": "uint256"
            },
            {
              "internalType": "uint256",
              "name": "amount",
              "type": "uint256"
            },
            {
              "internalType": "uint256",
              "name": "expiration",
              "type": "uint256"
            },
            {
              "internalType": "address",
              "name": "owner",
              "type": "address"
            },
            {
              "internalType": "address",
              "name": "smartMeterAddress",
              "type": "address"
            },
            {
              "internalType": "bool",
              "name": "active",
              "type": "bool"
            },
            {
              "internalType": "string",
              "name": "sellerSignature",
              "type": "string"
            },
            {
              "internalType": "uint256",
              "name": "nonce",
              "type": "uint256"
            }
          ],
          "internalType": "struct Market.Offer[]",
          "name": "",
          "type": "tuple[]"
        }
      ],
      "stateMutability": "view",
      "type": "function",
      "constant": true
    },
    {
      "inputs": [],
      "name": "getOfferIDs",
      "outputs": [
        {
          "internalType": "string[]",
          "name": "",
          "type": "string[]"
        }
      ],
      "stateMutability": "view",
      "type": "function",
      "constant": true
    },
    {
      "inputs": [],
      "name": "getPendingSupplyContracts",
      "outputs": [
        {
          "components": [
            {
              "internalType": "string",
              "name": "buyerSignature",
              "type": "string"
            },
            {
              "internalType": "string",
              "name": "sellerSignature",
              "type": "string"
            },
            {
              "internalType": "address",
              "name": "smartMeterAddress",
              "type": "address"
            },
            {
              "internalType": "uint256",
              "name": "amount",
              "type": "uint256"
            },
            {
              "internalType": "uint256",
              "name": "price",
              "type": "uint256"
            },
            {
              "internalType": "uint256",
              "name": "timestamp",
              "type": "uint256"
            },
            {
              "internalType": "uint256",
              "name": "nonce",
              "type": "uint256"
            }
          ],
          "internalType": "struct Market.PendingSupplyContract[]",
          "name": "",
          "type": "tuple[]"
        }
      ],
      "stateMutability": "view",
      "type": "function",
      "constant": true
    },
    {
      "inputs": [
        {
          "internalType": "bool[]",
          "name": "offerIndicies",
          "type": "bool[]"
        }
      ],
      "name": "validatePendingSupplyContracts",
      "outputs": [],
      "stateMutability": "nonpayable",
      "type": "function"
    },
    {
      "inputs": [],
      "name": "getGroupKey",
      "outputs": [
        {
          "internalType": "string",
          "name": "",
          "type": "string"
        }
      ],
      "stateMutability": "view",
      "type": "function",
      "constant": true
    },
    {
      "inputs": [
        {
          "internalType": "string",
          "name": "_groupKey",
          "type": "string"
        }
      ],
      "name": "setGroupKey",
      "outputs": [],
      "stateMutability": "nonpayable",
      "type": "function"
    },
    {
      "inputs": [
        {
          "internalType": "uint256",
          "name": "nonce",
          "type": "uint256"
        }
      ],
      "name": "validatePendingSupplyContract",
      "outputs": [
        {
          "internalType": "bool",
          "name": "",
          "type": "bool"
        }
      ],
      "stateMutability": "nonpayable",
      "type": "function"
    }
  ],
  "bytecode": "0x608060405263240c840060025560405162004917380380620049178339818101604052810190620000319190620001a6565b336000806101000a81548173ffffffffffffffffffffffffffffffffffffffff021916908373ffffffffffffffffffffffffffffffffffffffff16021790555081600160006101000a81548173ffffffffffffffffffffffffffffffffffffffff021916908373ffffffffffffffffffffffffffffffffffffffff16021790555081600460006101000a81548173ffffffffffffffffffffffffffffffffffffffff021916908373ffffffffffffffffffffffffffffffffffffffff16021790555080600360006101000a81548173ffffffffffffffffffffffffffffffffffffffff021916908373ffffffffffffffffffffffffffffffffffffffff1602179055505050620001ed565b600080fd5b600073ffffffffffffffffffffffffffffffffffffffff82169050919050565b60006200016e8262000141565b9050919050565b620001808162000161565b81146200018c57600080fd5b50565b600081519050620001a08162000175565b92915050565b60008060408385031215620001c057620001bf6200013c565b5b6000620001d0858286016200018f565b9250506020620001e3858286016200018f565b9150509250929050565b61471a80620001fd6000396000f3fe608060405234801561001057600080fd5b50600436106100ea5760003560e01c80636da048941161008c578063ac37c23111610066578063ac37c2311461028b578063cdc2e6d7146102a7578063d5fd3776146102c3578063f6a80192146102fb576100ea565b80636da048941461020d5780637a5101161461023d5780637b8203b91461026d576100ea565b80633ee992ee116100c85780633ee992ee1461016d57806346b342231461018b57806355341425146101bb578063572bb48b146101d7576100ea565b8063110b9d89146100ef578063197713bd1461011f5780633b67a5531461014f575b600080fd5b61010960048036038101906101049190612a15565b610319565b6040516101169190612ad2565b60405180910390f35b61013960048036038101906101349190612d5e565b6103c5565b6040516101469190612eac565b60405180910390f35b6101576108d3565b6040516101649190613094565b60405180910390f35b610175610ad4565b6040516101829190613253565b60405180910390f35b6101a560048036038101906101a09190613275565b610de2565b6040516101b29190612eac565b60405180910390f35b6101d560048036038101906101d09190613275565b61120c565b005b6101f160048036038101906101ec9190612a15565b6112ad565b60405161020497969594939291906132dc565b60405180910390f35b61022760048036038101906102229190612a15565b61142f565b6040516102349190612eac565b60405180910390f35b61025760048036038101906102529190613275565b6117bd565b6040516102649190613425565b60405180910390f35b610275611a09565b6040516102829190612ad2565b60405180910390f35b6102a560048036038101906102a0919061353b565b611a9b565b005b6102c160048036038101906102bc9190613584565b612030565b005b6102dd60048036038101906102d89190613275565b61265a565b6040516102f2999897969594939291906135fc565b60405180910390f35b61030361281b565b6040516103109190613759565b60405180910390f35b6008818154811061032957600080fd5b906000526020600020016000915090508054610344906137aa565b80601f0160208091040260200160405190810160405280929190818152602001828054610370906137aa565b80156103bd5780601f10610392576101008083540402835291602001916103bd565b820191906000526020600020905b8154815290600101906020018083116103a057829003601f168201915b505050505081565b6000846000600960008381526020019081526020016000205490506103e8426103ee919061380a565b600280546103fc919061380a565b82610407919061384c565b1115610448576040517f08c379a000000000000000000000000000000000000000000000000000000000815260040161043f906138cc565b60405180910390fd5b600160009054906101000a900473ffffffffffffffffffffffffffffffffffffffff1673ffffffffffffffffffffffffffffffffffffffff1663eb4e352d338b6040518363ffffffff1660e01b81526004016104a59291906138ec565b602060405180830381865afa1580156104c2573d6000803e3d6000fd5b505050506040513d601f19601f820116820180604052508101906104e6919061392a565b610525576040517f08c379a000000000000000000000000000000000000000000000000000000000815260040161051c906139c9565b60405180910390fd5b896002546103e842610537919061380a565b610541919061384c565b11610581576040517f08c379a000000000000000000000000000000000000000000000000000000000815260040161057890613a35565b60405180910390fd5b3373ffffffffffffffffffffffffffffffffffffffff168673ffffffffffffffffffffffffffffffffffffffff16146105ef576040517f08c379a00000000000000000000000000000000000000000000000000000000081526004016105e690613aa1565b60405180910390fd5b600360009054906101000a900473ffffffffffffffffffffffffffffffffffffffff1673ffffffffffffffffffffffffffffffffffffffff16635847ebed8d87878d6040518563ffffffff1660e01b81526004016106509493929190613b25565b6020604051808303816000875af115801561066f573d6000803e3d6000fd5b505050506040513d601f19601f82011682018060405250810190610693919061392a565b6106d2576040517f08c379a00000000000000000000000000000000000000000000000000000000081526004016106c990613bbd565b60405180910390fd5b6103e8426106e0919061380a565b60096000898152602001908152602001600020819055506040518061012001604052808e81526020018c81526020018d81526020018b81526020013373ffffffffffffffffffffffffffffffffffffffff1681526020018a73ffffffffffffffffffffffffffffffffffffffff1681526020016001151581526020018981526020018881525060068e6040516107769190613c19565b908152602001604051809103902060008201518160000190816107999190613ddc565b5060208201518160010155604082015181600201556060820151816003015560808201518160040160006101000a81548173ffffffffffffffffffffffffffffffffffffffff021916908373ffffffffffffffffffffffffffffffffffffffff16021790555060a08201518160050160006101000a81548173ffffffffffffffffffffffffffffffffffffffff021916908373ffffffffffffffffffffffffffffffffffffffff16021790555060c08201518160050160146101000a81548160ff02191690831515021790555060e082015181600601908161087b9190613ddc565b50610100820151816007015590505060088d9080600181540180825580915050600190039060005260206000200160009091909190915090816108be9190613ddc565b506001925050509a9950505050505050505050565b60606007805480602002602001604051908101604052809291908181526020016000905b82821015610acb57838290600052602060002090600702016040518060e001604052908160008201805461092a906137aa565b80601f0160208091040260200160405190810160405280929190818152602001828054610956906137aa565b80156109a35780601f10610978576101008083540402835291602001916109a3565b820191906000526020600020905b81548152906001019060200180831161098657829003601f168201915b505050505081526020016001820180546109bc906137aa565b80601f01602080910402602001604051908101604052809291908181526020018280546109e8906137aa565b8015610a355780601f10610a0a57610100808354040283529160200191610a35565b820191906000526020600020905b815481529060010190602001808311610a1857829003601f168201915b505050505081526020016002820160009054906101000a900473ffffffffffffffffffffffffffffffffffffffff1673ffffffffffffffffffffffffffffffffffffffff1673ffffffffffffffffffffffffffffffffffffffff168152602001600382015481526020016004820154815260200160058201548152602001600682015481525050815260200190600101906108f7565b50505050905090565b6060600060088054905067ffffffffffffffff811115610af757610af6612afe565b5b604051908082528060200260200182016040528015610b3057816020015b610b1d6128f4565b815260200190600190039081610b155790505b50905060005b600880549050811015610dda57600060088281548110610b5957610b58613eae565b5b9060005260206000200190506000600682604051610b779190613f75565b908152602001604051809103902090508060405180610120016040529081600082018054610ba4906137aa565b80601f0160208091040260200160405190810160405280929190818152602001828054610bd0906137aa565b8015610c1d5780601f10610bf257610100808354040283529160200191610c1d565b820191906000526020600020905b815481529060010190602001808311610c0057829003601f168201915b505050505081526020016001820154815260200160028201548152602001600382015481526020016004820160009054906101000a900473ffffffffffffffffffffffffffffffffffffffff1673ffffffffffffffffffffffffffffffffffffffff1673ffffffffffffffffffffffffffffffffffffffff1681526020016005820160009054906101000a900473ffffffffffffffffffffffffffffffffffffffff1673ffffffffffffffffffffffffffffffffffffffff1673ffffffffffffffffffffffffffffffffffffffff1681526020016005820160149054906101000a900460ff16151515158152602001600682018054610d1b906137aa565b80601f0160208091040260200160405190810160405280929190818152602001828054610d47906137aa565b8015610d945780601f10610d6957610100808354040283529160200191610d94565b820191906000526020600020905b815481529060010190602001808311610d7757829003601f168201915b50505050508152602001600782015481525050848481518110610dba57610db9613eae565b5b602002602001018190525050508080610dd290613f8c565b915050610b36565b508091505090565b600080600683604051610df59190613c19565b908152602001604051809103902060405180610120016040529081600082018054610e1f906137aa565b80601f0160208091040260200160405190810160405280929190818152602001828054610e4b906137aa565b8015610e985780601f10610e6d57610100808354040283529160200191610e98565b820191906000526020600020905b815481529060010190602001808311610e7b57829003601f168201915b505050505081526020016001820154815260200160028201548152602001600382015481526020016004820160009054906101000a900473ffffffffffffffffffffffffffffffffffffffff1673ffffffffffffffffffffffffffffffffffffffff1673ffffffffffffffffffffffffffffffffffffffff1681526020016005820160009054906101000a900473ffffffffffffffffffffffffffffffffffffffff1673ffffffffffffffffffffffffffffffffffffffff1673ffffffffffffffffffffffffffffffffffffffff1681526020016005820160149054906101000a900460ff16151515158152602001600682018054610f96906137aa565b80601f0160208091040260200160405190810160405280929190818152602001828054610fc2906137aa565b801561100f5780601f10610fe45761010080835404028352916020019161100f565b820191906000526020600020905b815481529060010190602001808311610ff257829003601f168201915b505050505081526020016007820154815250509050806080015173ffffffffffffffffffffffffffffffffffffffff163373ffffffffffffffffffffffffffffffffffffffff1614611096576040517f08c379a000000000000000000000000000000000000000000000000000000000815260040161108d90614020565b60405180910390fd5b600360009054906101000a900473ffffffffffffffffffffffffffffffffffffffff1673ffffffffffffffffffffffffffffffffffffffff166324dee48482604001518360a001516040518363ffffffff1660e01b81526004016110fb929190614040565b6020604051808303816000875af115801561111a573d6000803e3d6000fd5b505050506040513d601f19601f8201168201806040525081019061113e919061392a565b5060068360405161114f9190613c19565b90815260200160405180910390206000808201600061116e919061296e565b6001820160009055600282016000905560038201600090556004820160006101000a81549073ffffffffffffffffffffffffffffffffffffffff02191690556005820160006101000a81549073ffffffffffffffffffffffffffffffffffffffff02191690556005820160146101000a81549060ff02191690556006820160006111f8919061296e565b600782016000905550506001915050919050565b60008054906101000a900473ffffffffffffffffffffffffffffffffffffffff1673ffffffffffffffffffffffffffffffffffffffff163373ffffffffffffffffffffffffffffffffffffffff161461129a576040517f08c379a0000000000000000000000000000000000000000000000000000000008152600401611291906140b5565b60405180910390fd5b80600590816112a99190613ddc565b5050565b600781815481106112bd57600080fd5b90600052602060002090600702016000915090508060000180546112e0906137aa565b80601f016020809104026020016040519081016040528092919081815260200182805461130c906137aa565b80156113595780601f1061132e57610100808354040283529160200191611359565b820191906000526020600020905b81548152906001019060200180831161133c57829003601f168201915b50505050509080600101805461136e906137aa565b80601f016020809104026020016040519081016040528092919081815260200182805461139a906137aa565b80156113e75780601f106113bc576101008083540402835291602001916113e7565b820191906000526020600020905b8154815290600101906020018083116113ca57829003601f168201915b5050505050908060020160009054906101000a900473ffffffffffffffffffffffffffffffffffffffff16908060030154908060040154908060050154908060060154905087565b60008060009054906101000a900473ffffffffffffffffffffffffffffffffffffffff1673ffffffffffffffffffffffffffffffffffffffff163373ffffffffffffffffffffffffffffffffffffffff16146114c0576040517f08c379a00000000000000000000000000000000000000000000000000000000081526004016114b790614121565b60405180910390fd5b60005b6007805490508110156117b25782600782815481106114e5576114e4613eae565b5b9060005260206000209060070201600601540361179f577f3354c8c9e72d4288f9f8b70e7f7279ce3d78fdae7aef6be164a6f8cbba9369b26007828154811061153157611530613eae565b5b90600052602060002090600702016000016007838154811061155657611555613eae565b5b90600052602060002090600702016001016007848154811061157b5761157a613eae565b5b906000526020600020906007020160030154600785815481106115a1576115a0613eae565b5b906000526020600020906007020160050154600786815481106115c7576115c6613eae565b5b9060005260206000209060070201600401546040516115ea9594939291906141c5565b60405180910390a1600760016007805490506116069190614226565b8154811061161757611616613eae565b5b90600052602060002090600702016007828154811061163957611638613eae565b5b90600052602060002090600702016000820181600001908161165b9190614270565b50600182018160010190816116709190614270565b506002820160009054906101000a900473ffffffffffffffffffffffffffffffffffffffff168160020160006101000a81548173ffffffffffffffffffffffffffffffffffffffff021916908373ffffffffffffffffffffffffffffffffffffffff16021790555060038201548160030155600482015481600401556005820154816005015560068201548160060155905050600780548061171557611714614358565b5b60019003818190600052602060002090600702016000808201600061173a919061296e565b60018201600061174a919061296e565b6002820160006101000a81549073ffffffffffffffffffffffffffffffffffffffff021916905560038201600090556004820160009055600582016000905560068201600090555050905560019150506117b8565b80806117aa90613f8c565b9150506114c3565b50600090505b919050565b6117c56128f4565b6006826040516117d59190613c19565b9081526020016040518091039020604051806101200160405290816000820180546117ff906137aa565b80601f016020809104026020016040519081016040528092919081815260200182805461182b906137aa565b80156118785780601f1061184d57610100808354040283529160200191611878565b820191906000526020600020905b81548152906001019060200180831161185b57829003601f168201915b505050505081526020016001820154815260200160028201548152602001600382015481526020016004820160009054906101000a900473ffffffffffffffffffffffffffffffffffffffff1673ffffffffffffffffffffffffffffffffffffffff1673ffffffffffffffffffffffffffffffffffffffff1681526020016005820160009054906101000a900473ffffffffffffffffffffffffffffffffffffffff1673ffffffffffffffffffffffffffffffffffffffff1673ffffffffffffffffffffffffffffffffffffffff1681526020016005820160149054906101000a900460ff16151515158152602001600682018054611976906137aa565b80601f01602080910402602001604051908101604052809291908181526020018280546119a2906137aa565b80156119ef5780601f106119c4576101008083540402835291602001916119ef565b820191906000526020600020905b8154815290600101906020018083116119d257829003601f168201915b505050505081526020016007820154815250509050919050565b606060058054611a18906137aa565b80601f0160208091040260200160405190810160405280929190818152602001828054611a44906137aa565b8015611a915780601f10611a6657610100808354040283529160200191611a91565b820191906000526020600020905b815481529060010190602001808311611a7457829003601f168201915b5050505050905090565b60008054906101000a900473ffffffffffffffffffffffffffffffffffffffff1673ffffffffffffffffffffffffffffffffffffffff163373ffffffffffffffffffffffffffffffffffffffff1614611b29576040517f08c379a0000000000000000000000000000000000000000000000000000000008152600401611b2090614121565b60405180910390fd5b60005b8151811015611e4457600060078281548110611b4b57611b4a613eae565b5b90600052602060002090600702016040518060e0016040529081600082018054611b74906137aa565b80601f0160208091040260200160405190810160405280929190818152602001828054611ba0906137aa565b8015611bed5780601f10611bc257610100808354040283529160200191611bed565b820191906000526020600020905b815481529060010190602001808311611bd057829003601f168201915b50505050508152602001600182018054611c06906137aa565b80601f0160208091040260200160405190810160405280929190818152602001828054611c32906137aa565b8015611c7f5780601f10611c5457610100808354040283529160200191611c7f565b820191906000526020600020905b815481529060010190602001808311611c6257829003601f168201915b505050505081526020016002820160009054906101000a900473ffffffffffffffffffffffffffffffffffffffff1673ffffffffffffffffffffffffffffffffffffffff1673ffffffffffffffffffffffffffffffffffffffff168152602001600382015481526020016004820154815260200160058201548152602001600682015481525050905060011515838381518110611d1f57611d1e613eae565b5b6020026020010151151503611d86577f3354c8c9e72d4288f9f8b70e7f7279ce3d78fdae7aef6be164a6f8cbba9369b28160000151826020015183606001518460a001518560800151604051611d79959493929190614387565b60405180910390a1611e30565b600360009054906101000a900473ffffffffffffffffffffffffffffffffffffffff1673ffffffffffffffffffffffffffffffffffffffff166324dee484826060015183604001516040518363ffffffff1660e01b8152600401611deb929190614040565b6020604051808303816000875af1158015611e0a573d6000803e3d6000fd5b505050506040513d601f19601f82011682018060405250810190611e2e919061392a565b505b508080611e3c90613f8c565b915050611b2c565b5060005b815181101561202c5780600780549050611e629190614226565b82511015611f87576007816001600780549050611e7f9190614226565b611e899190614226565b81548110611e9a57611e99613eae565b5b906000526020600020906007020160078281548110611ebc57611ebb613eae565b5b906000526020600020906007020160008201816000019081611ede9190614270565b5060018201816001019081611ef39190614270565b506002820160009054906101000a900473ffffffffffffffffffffffffffffffffffffffff168160020160006101000a81548173ffffffffffffffffffffffffffffffffffffffff021916908373ffffffffffffffffffffffffffffffffffffffff160217905550600382015481600301556004820154816004015560058201548160050155600682015481600601559050505b6007805480611f9957611f98614358565b5b600190038181906000526020600020906007020160008082016000611fbe919061296e565b600182016000611fce919061296e565b6002820160006101000a81549073ffffffffffffffffffffffffffffffffffffffff0219169055600382016000905560048201600090556005820160009055600682016000905550509055808061202490613f8c565b915050611e48565b5050565b60006006836040516120429190613c19565b90815260200160405180910390206040518061012001604052908160008201805461206c906137aa565b80601f0160208091040260200160405190810160405280929190818152602001828054612098906137aa565b80156120e55780601f106120ba576101008083540402835291602001916120e5565b820191906000526020600020905b8154815290600101906020018083116120c857829003601f168201915b505050505081526020016001820154815260200160028201548152602001600382015481526020016004820160009054906101000a900473ffffffffffffffffffffffffffffffffffffffff1673ffffffffffffffffffffffffffffffffffffffff1673ffffffffffffffffffffffffffffffffffffffff1681526020016005820160009054906101000a900473ffffffffffffffffffffffffffffffffffffffff1673ffffffffffffffffffffffffffffffffffffffff1673ffffffffffffffffffffffffffffffffffffffff1681526020016005820160149054906101000a900460ff161515151581526020016006820180546121e3906137aa565b80601f016020809104026020016040519081016040528092919081815260200182805461220f906137aa565b801561225c5780601f106122315761010080835404028352916020019161225c565b820191906000526020600020905b81548152906001019060200180831161223f57829003601f168201915b5050505050815260200160078201548152505090508280519060200120816000015180519060200120146122c5576040517f08c379a00000000000000000000000000000000000000000000000000000000081526004016122bc90614434565b60405180910390fd5b4281606001511161230b576040517f08c379a0000000000000000000000000000000000000000000000000000000008152600401612302906144a0565b60405180910390fd5b806080015173ffffffffffffffffffffffffffffffffffffffff163373ffffffffffffffffffffffffffffffffffffffff160361237d576040517f08c379a00000000000000000000000000000000000000000000000000000000081526004016123749061450c565b60405180910390fd5b60068360405161238d9190613c19565b9081526020016040518091039020600080820160006123ac919061296e565b6001820160009055600282016000905560038201600090556004820160006101000a81549073ffffffffffffffffffffffffffffffffffffffff02191690556005820160006101000a81549073ffffffffffffffffffffffffffffffffffffffff02191690556005820160146101000a81549060ff0219169055600682016000612436919061296e565b6007820160009055505060076040518060e001604052808481526020018360e0015181526020018360a0015173ffffffffffffffffffffffffffffffffffffffff1681526020018360400151815260200183602001518152602001428152602001836101000151815250908060018154018082558091505060019003906000526020600020906007020160009091909190915060008201518160000190816124de9190613ddc565b5060208201518160010190816124f49190613ddc565b5060408201518160020160006101000a81548173ffffffffffffffffffffffffffffffffffffffff021916908373ffffffffffffffffffffffffffffffffffffffff160217905550606082015181600301556080820151816004015560a0820151816005015560c08201518160060155505060005b6008805490508110156126545783805190602001206008828154811061259257612591613eae565b5b906000526020600020016040516125a991906145cf565b60405180910390200361264157600860016008805490506125ca9190614226565b815481106125db576125da613eae565b5b90600052602060002001600882815481106125f9576125f8613eae565b5b90600052602060002001908161260f91906145fc565b50600880548061262257612621614358565b5b60019003818190600052602060002001600061263e919061296e565b90555b808061264c90613f8c565b915050612569565b50505050565b600681805160208101820180518482526020830160208501208183528095505050505050600091509050806000018054612693906137aa565b80601f01602080910402602001604051908101604052809291908181526020018280546126bf906137aa565b801561270c5780601f106126e15761010080835404028352916020019161270c565b820191906000526020600020905b8154815290600101906020018083116126ef57829003601f168201915b5050505050908060010154908060020154908060030154908060040160009054906101000a900473ffffffffffffffffffffffffffffffffffffffff16908060050160009054906101000a900473ffffffffffffffffffffffffffffffffffffffff16908060050160149054906101000a900460ff1690806006018054612792906137aa565b80601f01602080910402602001604051908101604052809291908181526020018280546127be906137aa565b801561280b5780601f106127e05761010080835404028352916020019161280b565b820191906000526020600020905b8154815290600101906020018083116127ee57829003601f168201915b5050505050908060070154905089565b60606008805480602002602001604051908101604052809291908181526020016000905b828210156128eb57838290600052602060002001805461285e906137aa565b80601f016020809104026020016040519081016040528092919081815260200182805461288a906137aa565b80156128d75780601f106128ac576101008083540402835291602001916128d7565b820191906000526020600020905b8154815290600101906020018083116128ba57829003601f168201915b50505050508152602001906001019061283f565b50505050905090565b60405180610120016040528060608152602001600081526020016000815260200160008152602001600073ffffffffffffffffffffffffffffffffffffffff168152602001600073ffffffffffffffffffffffffffffffffffffffff16815260200160001515815260200160608152602001600081525090565b50805461297a906137aa565b6000825580601f1061298c57506129ab565b601f0160209004906000526020600020908101906129aa91906129ae565b5b50565b5b808211156129c75760008160009055506001016129af565b5090565b6000604051905090565b600080fd5b600080fd5b6000819050919050565b6129f2816129df565b81146129fd57600080fd5b50565b600081359050612a0f816129e9565b92915050565b600060208284031215612a2b57612a2a6129d5565b5b6000612a3984828501612a00565b91505092915050565b600081519050919050565b600082825260208201905092915050565b60005b83811015612a7c578082015181840152602081019050612a61565b60008484015250505050565b6000601f19601f8301169050919050565b6000612aa482612a42565b612aae8185612a4d565b9350612abe818560208601612a5e565b612ac781612a88565b840191505092915050565b60006020820190508181036000830152612aec8184612a99565b905092915050565b600080fd5b600080fd5b7f4e487b7100000000000000000000000000000000000000000000000000000000600052604160045260246000fd5b612b3682612a88565b810181811067ffffffffffffffff82111715612b5557612b54612afe565b5b80604052505050565b6000612b686129cb565b9050612b748282612b2d565b919050565b600067ffffffffffffffff821115612b9457612b93612afe565b5b612b9d82612a88565b9050602081019050919050565b82818337600083830152505050565b6000612bcc612bc784612b79565b612b5e565b905082815260208101848484011115612be857612be7612af9565b5b612bf3848285612baa565b509392505050565b600082601f830112612c1057612c0f612af4565b5b8135612c20848260208601612bb9565b91505092915050565b600073ffffffffffffffffffffffffffffffffffffffff82169050919050565b6000612c5482612c29565b9050919050565b612c6481612c49565b8114612c6f57600080fd5b50565b600081359050612c8181612c5b565b92915050565b600067ffffffffffffffff821115612ca257612ca1612afe565b5b612cab82612a88565b9050602081019050919050565b6000612ccb612cc684612c87565b612b5e565b905082815260208101848484011115612ce757612ce6612af9565b5b612cf2848285612baa565b509392505050565b600082601f830112612d0f57612d0e612af4565b5b8135612d1f848260208601612cb8565b91505092915050565b6000819050919050565b612d3b81612d28565b8114612d4657600080fd5b50565b600081359050612d5881612d32565b92915050565b6000806000806000806000806000806101408b8d031215612d8257612d816129d5565b5b60008b013567ffffffffffffffff811115612da057612d9f6129da565b5b612dac8d828e01612bfb565b9a50506020612dbd8d828e01612a00565b9950506040612dce8d828e01612a00565b9850506060612ddf8d828e01612a00565b9750506080612df08d828e01612c72565b96505060a08b013567ffffffffffffffff811115612e1157612e106129da565b5b612e1d8d828e01612bfb565b95505060c0612e2e8d828e01612a00565b94505060e0612e3f8d828e01612c72565b9350506101008b013567ffffffffffffffff811115612e6157612e606129da565b5b612e6d8d828e01612cfa565b925050610120612e7f8d828e01612d49565b9150509295989b9194979a5092959850565b60008115159050919050565b612ea681612e91565b82525050565b6000602082019050612ec16000830184612e9d565b92915050565b600081519050919050565b600082825260208201905092915050565b6000819050602082019050919050565b600082825260208201905092915050565b6000612f0f82612a42565b612f198185612ef3565b9350612f29818560208601612a5e565b612f3281612a88565b840191505092915050565b612f4681612c49565b82525050565b612f55816129df565b82525050565b600060e0830160008301518482036000860152612f788282612f04565b91505060208301518482036020860152612f928282612f04565b9150506040830151612fa76040860182612f3d565b506060830151612fba6060860182612f4c565b506080830151612fcd6080860182612f4c565b5060a0830151612fe060a0860182612f4c565b5060c0830151612ff360c0860182612f4c565b508091505092915050565b600061300a8383612f5b565b905092915050565b6000602082019050919050565b600061302a82612ec7565b6130348185612ed2565b93508360208202850161304685612ee3565b8060005b8581101561308257848403895281516130638582612ffe565b945061306e83613012565b925060208a0199505060018101905061304a565b50829750879550505050505092915050565b600060208201905081810360008301526130ae818461301f565b905092915050565b600081519050919050565b600082825260208201905092915050565b6000819050602082019050919050565b6130eb81612e91565b82525050565b600061012083016000830151848203600086015261310f8282612f04565b91505060208301516131246020860182612f4c565b5060408301516131376040860182612f4c565b50606083015161314a6060860182612f4c565b50608083015161315d6080860182612f3d565b5060a083015161317060a0860182612f3d565b5060c083015161318360c08601826130e2565b5060e083015184820360e086015261319b8282612f04565b9150506101008301516131b2610100860182612f4c565b508091505092915050565b60006131c983836130f1565b905092915050565b6000602082019050919050565b60006131e9826130b6565b6131f381856130c1565b935083602082028501613205856130d2565b8060005b85811015613241578484038952815161322285826131bd565b945061322d836131d1565b925060208a01995050600181019050613209565b50829750879550505050505092915050565b6000602082019050818103600083015261326d81846131de565b905092915050565b60006020828403121561328b5761328a6129d5565b5b600082013567ffffffffffffffff8111156132a9576132a86129da565b5b6132b584828501612bfb565b91505092915050565b6132c781612c49565b82525050565b6132d6816129df565b82525050565b600060e08201905081810360008301526132f6818a612a99565b9050818103602083015261330a8189612a99565b905061331960408301886132be565b61332660608301876132cd565b61333360808301866132cd565b61334060a08301856132cd565b61334d60c08301846132cd565b98975050505050505050565b60006101208301600083015184820360008601526133778282612f04565b915050602083015161338c6020860182612f4c565b50604083015161339f6040860182612f4c565b5060608301516133b26060860182612f4c565b5060808301516133c56080860182612f3d565b5060a08301516133d860a0860182612f3d565b5060c08301516133eb60c08601826130e2565b5060e083015184820360e08601526134038282612f04565b91505061010083015161341a610100860182612f4c565b508091505092915050565b6000602082019050818103600083015261343f8184613359565b905092915050565b600067ffffffffffffffff82111561346257613461612afe565b5b602082029050602081019050919050565b600080fd5b61348181612e91565b811461348c57600080fd5b50565b60008135905061349e81613478565b92915050565b60006134b76134b284613447565b612b5e565b905080838252602082019050602084028301858111156134da576134d9613473565b5b835b8181101561350357806134ef888261348f565b8452602084019350506020810190506134dc565b5050509392505050565b600082601f83011261352257613521612af4565b5b81356135328482602086016134a4565b91505092915050565b600060208284031215613551576135506129d5565b5b600082013567ffffffffffffffff81111561356f5761356e6129da565b5b61357b8482850161350d565b91505092915050565b6000806040838503121561359b5761359a6129d5565b5b600083013567ffffffffffffffff8111156135b9576135b86129da565b5b6135c585828601612bfb565b925050602083013567ffffffffffffffff8111156135e6576135e56129da565b5b6135f285828601612bfb565b9150509250929050565b6000610120820190508181036000830152613617818c612a99565b9050613626602083018b6132cd565b613633604083018a6132cd565b61364060608301896132cd565b61364d60808301886132be565b61365a60a08301876132be565b61366760c0830186612e9d565b81810360e08301526136798185612a99565b90506136896101008301846132cd565b9a9950505050505050505050565b600081519050919050565b600082825260208201905092915050565b6000819050602082019050919050565b60006136cf8383612f04565b905092915050565b6000602082019050919050565b60006136ef82613697565b6136f981856136a2565b93508360208202850161370b856136b3565b8060005b85811015613747578484038952815161372885826136c3565b9450613733836136d7565b925060208a0199505060018101905061370f565b50829750879550505050505092915050565b6000602082019050818103600083015261377381846136e4565b905092915050565b7f4e487b7100000000000000000000000000000000000000000000000000000000600052602260045260246000fd5b600060028204905060018216806137c257607f821691505b6020821081036137d5576137d461377b565b5b50919050565b7f4e487b7100000000000000000000000000000000000000000000000000000000600052601160045260246000fd5b6000613815826129df565b9150613820836129df565b925082820261382e816129df565b91508282048414831517613845576138446137db565b5b5092915050565b6000613857826129df565b9150613862836129df565b925082820190508082111561387a576138796137db565b5b92915050565b7f4e6f6e636520776173207573656420726563656e746c79000000000000000000600082015250565b60006138b6601783612a4d565b91506138c182613880565b602082019050919050565b600060208201905081810360008301526138e5816138a9565b9050919050565b600060408201905061390160008301856132be565b61390e60208301846132be565b9392505050565b60008151905061392481613478565b92915050565b6000602082840312156139405761393f6129d5565b5b600061394e84828501613915565b91505092915050565b7f536d617274204d65746572206e6f74207265676973746572656420627920445360008201527f4f00000000000000000000000000000000000000000000000000000000000000602082015250565b60006139b3602183612a4d565b91506139be82613957565b604082019050919050565b600060208201905081810360008301526139e2816139a6565b9050919050565b7f4f6666657273206c6966657370616e20697320746f6f206c6f6e670000000000600082015250565b6000613a1f601b83612a4d565b9150613a2a826139e9565b602082019050919050565b60006020820190508181036000830152613a4e81613a12565b9050919050565b7f4f6e6c79206f776e65722063616e20616464206f666665720000000000000000600082015250565b6000613a8b601883612a4d565b9150613a9682613a55565b602082019050919050565b60006020820190508181036000830152613aba81613a7e565b9050919050565b600081519050919050565b600082825260208201905092915050565b6000613ae882613ac1565b613af28185613acc565b9350613b02818560208601612a5e565b613b0b81612a88565b840191505092915050565b613b1f81612d28565b82525050565b6000608082019050613b3a60008301876132cd565b8181036020830152613b4c8186613add565b9050613b5b6040830185613b16565b613b6860608301846132be565b95945050505050565b7f4e6f7420656e6f7567682073746f72656420656e657267790000000000000000600082015250565b6000613ba7601883612a4d565b9150613bb282613b71565b602082019050919050565b60006020820190508181036000830152613bd681613b9a565b9050919050565b600081905092915050565b6000613bf382612a42565b613bfd8185613bdd565b9350613c0d818560208601612a5e565b80840191505092915050565b6000613c258284613be8565b915081905092915050565b60008190508160005260206000209050919050565b60006020601f8301049050919050565b600082821b905092915050565b600060088302613c927fffffffffffffffffffffffffffffffffffffffffffffffffffffffffffffffff82613c55565b613c9c8683613c55565b95508019841693508086168417925050509392505050565b6000819050919050565b6000613cd9613cd4613ccf846129df565b613cb4565b6129df565b9050919050565b6000819050919050565b613cf383613cbe565b613d07613cff82613ce0565b848454613c62565b825550505050565b600090565b613d1c613d0f565b613d27818484613cea565b505050565b5b81811015613d4b57613d40600082613d14565b600181019050613d2d565b5050565b601f821115613d9057613d6181613c30565b613d6a84613c45565b81016020851015613d79578190505b613d8d613d8585613c45565b830182613d2c565b50505b505050565b600082821c905092915050565b6000613db360001984600802613d95565b1980831691505092915050565b6000613dcc8383613da2565b9150826002028217905092915050565b613de582612a42565b67ffffffffffffffff811115613dfe57613dfd612afe565b5b613e0882546137aa565b613e13828285613d4f565b600060209050601f831160018114613e465760008415613e34578287015190505b613e3e8582613dc0565b865550613ea6565b601f198416613e5486613c30565b60005b82811015613e7c57848901518255600182019150602085019450602081019050613e57565b86831015613e995784890151613e95601f891682613da2565b8355505b6001600288020188555050505b505050505050565b7f4e487b7100000000000000000000000000000000000000000000000000000000600052603260045260246000fd5b60008190508160005260206000209050919050565b60008154613eff816137aa565b613f098186613bdd565b94506001821660008114613f245760018114613f3957613f6c565b60ff1983168652811515820286019350613f6c565b613f4285613edd565b60005b83811015613f6457815481890152600182019150602081019050613f45565b838801955050505b50505092915050565b6000613f818284613ef2565b915081905092915050565b6000613f97826129df565b91507fffffffffffffffffffffffffffffffffffffffffffffffffffffffffffffffff8203613fc957613fc86137db565b5b600182019050919050565b7f4f6e6c79206f776e65722063616e2072656d6f7665206f666665720000000000600082015250565b600061400a601b83612a4d565b915061401582613fd4565b602082019050919050565b6000602082019050818103600083015261403981613ffd565b9050919050565b600060408201905061405560008301856132cd565b61406260208301846132be565b9392505050565b7f4f6e6c79206f776e65722063616e207570646174652067726f7570206b657900600082015250565b600061409f601f83612a4d565b91506140aa82614069565b602082019050919050565b600060208201905081810360008301526140ce81614092565b9050919050565b7f73656e646572206973206e6f74206f776e657200000000000000000000000000600082015250565b600061410b601383612a4d565b9150614116826140d5565b602082019050919050565b6000602082019050818103600083015261413a816140fe565b9050919050565b6000815461414e816137aa565b6141588186612a4d565b945060018216600081146141735760018114614189576141bc565b60ff1983168652811515602002860193506141bc565b61419285613c30565b60005b838110156141b457815481890152600182019150602081019050614195565b808801955050505b50505092915050565b600060a08201905081810360008301526141df8188614141565b905081810360208301526141f38187614141565b905061420260408301866132cd565b61420f60608301856132cd565b61421c60808301846132cd565b9695505050505050565b6000614231826129df565b915061423c836129df565b9250828203905081811115614254576142536137db565b5b92915050565b600081549050614269816137aa565b9050919050565b81810361427e575050614356565b6142878261425a565b67ffffffffffffffff8111156142a05761429f612afe565b5b6142aa82546137aa565b6142b5828285613d4f565b6000601f8311600181146142e457600084156142d2578287015490505b6142dc8582613dc0565b86555061434f565b601f1984166142f287613c30565b96506142fd86613c30565b60005b8281101561432557848901548255600182019150600185019450602081019050614300565b86831015614342578489015461433e601f891682613da2565b8355505b6001600288020188555050505b5050505050505b565b7f4e487b7100000000000000000000000000000000000000000000000000000000600052603160045260246000fd5b600060a08201905081810360008301526143a18188612a99565b905081810360208301526143b58187612a99565b90506143c460408301866132cd565b6143d160608301856132cd565b6143de60808301846132cd565b9695505050505050565b7f4e6f206f6666657220666f756e64000000000000000000000000000000000000600082015250565b600061441e600e83612a4d565b9150614429826143e8565b602082019050919050565b6000602082019050818103600083015261444d81614411565b9050919050565b7f43616e6e6f74206275792065787069726564206f666665720000000000000000600082015250565b600061448a601883612a4d565b915061449582614454565b602082019050919050565b600060208201905081810360008301526144b98161447d565b9050919050565b7f4f776e65722063616e6e6f7420627579206f776e206f66666572000000000000600082015250565b60006144f6601a83612a4d565b9150614501826144c0565b602082019050919050565b60006020820190508181036000830152614525816144e9565b9050919050565b600081905092915050565b60008190508160005260206000209050919050565b60008154614559816137aa565b614563818661452c565b9450600182166000811461457e5760018114614593576145c6565b60ff19831686528115158202860193506145c6565b61459c85614537565b60005b838110156145be5781548189015260018201915060208101905061459f565b838801955050505b50505092915050565b60006145db828461454c565b915081905092915050565b6000815490506145f5816137aa565b9050919050565b81810361460a5750506146e2565b614613826145e6565b67ffffffffffffffff81111561462c5761462b612afe565b5b61463682546137aa565b614641828285613d4f565b6000601f831160018114614670576000841561465e578287015490505b6146688582613dc0565b8655506146db565b601f19841661467e87613edd565b965061468986613c30565b60005b828110156146b15784890154825560018201915060018501945060208101905061468c565b868310156146ce57848901546146ca601f891682613da2565b8355505b6001600288020188555050505b5050505050505b56fea264697066735822122063890c9ff61a077a0dc9e5c56cda51cf7e7045657f8eedaf8acacb38e76a4c8f64736f6c63430008130033",
  "immutableReferences": {},
  "source": "// SPDX-License-Identifier: GPL-3.0\n// pragma experimental ABIEncoderV2;\npragma solidity ^0.8.9;\n\ninterface IDSO {\n    function registerKey(\n        address smartMeterPubKey,\n        address smartMeterAddress\n    ) external;\n\n    function isRegisteredKey(\n        address smartMeterPubKey,\n        address smartMeterAddress\n    ) external view returns (bool);\n\n    function removeRegisteredKey(address smartMeterPubKey) external;\n}\n\ninterface ISmartMeter {\n    function returnReservedBatteryCharge(\n        uint amount,\n        address smartMeterInstance\n    ) external returns (bool);\n\n    function subtractBatteryCharge(\n        uint amount,\n        bytes memory ots,\n        bytes32 nextOtsHash,\n        address smartMeterInstance\n    ) external returns (bool);\n\n    function getBatteryCharge() external view returns (uint);\n}\n\ncontract Market {\n    address owner;\n    IDSO dso;\n    uint maxOfferLivespan = 1000 * 60 * 60 * 24 * 7;\n    ISmartMeter smartMeter;\n    address dsoAddress;\n    string groupKey;\n\n    struct Offer {\n        string id;\n        uint price;\n        uint amount;\n        uint expiration;\n        address owner;\n        address smartMeterAddress;\n        bool active;\n        string sellerSignature;\n        uint nonce;\n    }\n\n    struct PendingSupplyContract {\n        string buyerSignature;\n        string sellerSignature;\n        address smartMeterAddress;\n        uint amount; // Wh\n        uint price; // Euro cents\n        uint timestamp; // Unix\n        uint nonce;\n    }\n\n    mapping(string => Offer) public offers;\n    PendingSupplyContract[] public pendingSupplyContracts;\n\n    string[] public offerIds;\n\n    // mapping is nonce to the timestamp it was used at.\n    mapping(uint => uint) private usedNonces;\n\n    modifier nonceGuard(uint nonce) {\n        uint timestamp = usedNonces[nonce];\n        // nonce was used within the last two weeks.\n        if (timestamp + maxOfferLivespan * 2 > block.timestamp * 1000) {\n            revert(\"Nonce was used recently\");\n        }\n        _;\n    }\n\n    constructor(\n        address _dsoAddress,\n        address _smartMeterContractAddress\n    ) payable {\n        owner = msg.sender;\n        dso = IDSO(_dsoAddress);\n        dsoAddress = _dsoAddress;\n        smartMeter = ISmartMeter(_smartMeterContractAddress);\n    }\n\n    function addOffer(\n        string memory id,\n        uint amount,\n        uint price,\n        uint expiration,\n        address smartMeterAddress,\n        string memory sellerSignature,\n        uint nonce,\n        address sellerAddress,\n        bytes memory ots,\n        bytes32 nextOtsHash\n    ) public nonceGuard(nonce) returns (bool) {\n        // Require conditions\n        require(\n            dso.isRegisteredKey(msg.sender, smartMeterAddress),\n            \"Smart Meter not registered by DSO\"\n        );\n        require(\n            block.timestamp * 1000 + maxOfferLivespan > expiration,\n            \"Offers lifespan is too long\"\n        );\n        require(sellerAddress == msg.sender, \"Only owner can add offer\");\n\n        require(\n            smartMeter.subtractBatteryCharge(\n                amount,\n                ots,\n                nextOtsHash,\n                smartMeterAddress\n            ),\n            \"Not enough stored energy\"\n        );\n\n        // Adding offer\n        usedNonces[nonce] = block.timestamp * 1000;\n        offers[id] = Offer({\n            id: id,\n            amount: amount,\n            price: price,\n            expiration: expiration,\n            owner: msg.sender,\n            smartMeterAddress: smartMeterAddress,\n            active: true,\n            sellerSignature: sellerSignature,\n            nonce: nonce\n        });\n        offerIds.push(id);\n\n        return true;\n    }\n\n    function removeOffer(\n        string memory id\n    ) public returns (bool) {\n        // Initialization\n        Offer memory offer = offers[id];\n\n        // Require conditions\n        require(msg.sender == offer.owner, \"Only owner can remove offer\");\n\n        // Removing offer\n        smartMeter.returnReservedBatteryCharge(offer.amount, offer.smartMeterAddress);\n        delete offers[id];\n\n        return true;\n    }\n\n    function buyOffer(string memory id, string memory buyerSignature) public {\n        Offer memory offer = offers[id];\n\n        require(\n            keccak256(bytes(offer.id)) == keccak256(bytes(id)),\n            \"No offer found\"\n        );\n        require(offer.expiration > block.timestamp, \"Cannot buy expired offer\");\n        require(msg.sender != offer.owner, \"Owner cannot buy own offer\");\n\n        delete offers[id];\n        pendingSupplyContracts.push(\n            PendingSupplyContract({\n                buyerSignature: buyerSignature,\n                sellerSignature: offer.sellerSignature,\n                amount: offer.amount,\n                price: offer.price,\n                timestamp: block.timestamp,\n                nonce: offer.nonce,\n                smartMeterAddress: offer.smartMeterAddress\n            })\n        );\n\n        for (uint i = 0; i < offerIds.length; i++) {\n            if (keccak256(bytes(offerIds[i])) == keccak256(bytes(id))) {\n                offerIds[i] = offerIds[offerIds.length - 1];\n                offerIds.pop();\n            }\n        }\n    }\n\n    function getOffer(string memory id) public view returns (Offer memory) {\n        return offers[id];\n    }\n\n    function getOffers() public view returns (Offer[] memory) {\n        Offer[] memory offersReturn = new Offer[](offerIds.length);\n        for (uint i = 0; i < offerIds.length; i++) {\n            string storage offerId = offerIds[i];\n            Offer storage offer = offers[offerId];\n\n            offersReturn[i] = offer;\n        }\n        return offersReturn;\n    }\n\n    function getOfferIDs() public view returns (string[] memory) {\n        return offerIds;\n    }\n\n    function getPendingSupplyContracts()\n        public\n        view\n        returns (PendingSupplyContract[] memory)\n    {\n        return pendingSupplyContracts;\n    }\n\n    event SupplyContract(\n        string buyerSignature,\n        string sellerSignature,\n        uint amount,\n        uint timestamp,\n        uint price\n    );\n    function validatePendingSupplyContracts(\n        bool[] memory offerIndicies\n    ) public {\n        require(msg.sender == owner, \"sender is not owner\");\n        for (uint i = 0; i < offerIndicies.length; i++) {\n            PendingSupplyContract memory offer = pendingSupplyContracts[\n                i\n            ];\n            //if it's an accepted index we emit our event\n            if (offerIndicies[i] == true) {\n                emit SupplyContract(\n                    offer.buyerSignature,\n                    offer.sellerSignature,\n                    offer.amount,\n                    offer.timestamp,\n                    offer.price\n                );\n            } else {\n                // if not the owner gets their battery back.\n                smartMeter.returnReservedBatteryCharge(\n                    offer.amount,\n                    offer.smartMeterAddress\n                );\n            }\n        }\n        // we loop agian to clean up the list\n        for (uint i = 0; i < offerIndicies.length; i++) {\n            // We move the indicies not yet approved down.\n            if (offerIndicies.length < pendingSupplyContracts.length - i) {\n                pendingSupplyContracts[i] = pendingSupplyContracts[\n                    pendingSupplyContracts.length - 1 - i\n                ];\n            }\n            // And lastly we pop everytime.\n            pendingSupplyContracts.pop();\n        } \n    }\n\n    function getGroupKey() public view returns (string memory) {\n        return groupKey;\n    }\n\n    function setGroupKey(string memory _groupKey) public {\n        require(msg.sender == owner, \"Only owner can update group key\");\n        groupKey = _groupKey;\n    }\n\n    // Approves one offer\n    function validatePendingSupplyContract(uint nonce) public returns (bool) {\n        require(msg.sender == owner, \"sender is not owner\");\n        for (uint i = 0; i < pendingSupplyContracts.length; i++) {\n            if (pendingSupplyContracts[i].nonce == nonce) {\n                emit SupplyContract(\n                    pendingSupplyContracts[i].buyerSignature,\n                    pendingSupplyContracts[i].sellerSignature,\n                    pendingSupplyContracts[i].amount,\n                    pendingSupplyContracts[i].timestamp,\n                    pendingSupplyContracts[i].price\n                );\n                pendingSupplyContracts[i] = pendingSupplyContracts[pendingSupplyContracts.length - 1];\n                pendingSupplyContracts.pop();\n                return true;\n            }\n        }\n        return false;\n    }\n}\n",
  "sourcePath": "/home/nobert/speciale/blockchain/contracts/Market.sol",
  "compiler": {
    "name": "solc",
    "version": "0.8.19+commit.7dd6d404.Emscripten.clang"
  },
  "schemaVersion": "3.4.16",
  "updatedAt": "2024-01-31T11:01:47.695Z",
  "networkType": "ethereum",
  "devdoc": {
    "kind": "dev",
    "methods": {},
    "version": 1
  },
  "userdoc": {
    "kind": "user",
    "methods": {},
    "version": 1
  }
}