{
  "contractName": "Market",
  "abi": [
    {
      "inputs": [
        {
          "internalType": "address",
          "name": "_cableCompanyAddress",
          "type": "address"
        }
      ],
      "stateMutability": "payable",
      "type": "constructor"
    },
    {
      "inputs": [],
      "name": "lastestSupplyChainAddress",
      "outputs": [
        {
          "internalType": "address",
          "name": "",
          "type": "address"
        }
      ],
      "stateMutability": "view",
      "type": "function"
    },
    {
      "inputs": [
        {
          "internalType": "uint256",
          "name": "",
          "type": "uint256"
        }
      ],
      "name": "offerIds",
      "outputs": [
        {
          "internalType": "string",
          "name": "",
          "type": "string"
        }
      ],
      "stateMutability": "view",
      "type": "function"
    },
    {
      "inputs": [
        {
          "internalType": "string",
          "name": "id",
          "type": "string"
        },
        {
          "internalType": "uint256",
          "name": "amount",
          "type": "uint256"
        },
        {
          "internalType": "uint256",
          "name": "price",
          "type": "uint256"
        },
        {
          "internalType": "uint256",
          "name": "expiration",
          "type": "uint256"
        },
        {
          "internalType": "address",
          "name": "smartMeterAddress",
          "type": "address"
        },
        {
          "internalType": "string",
          "name": "sellerSignature",
          "type": "string"
        },
        {
          "internalType": "uint256",
          "name": "nonce",
          "type": "uint256"
        },
        {
          "internalType": "address",
          "name": "sellerAddress",
          "type": "address"
        },
        {
          "internalType": "bytes",
          "name": "ots",
          "type": "bytes"
        },
        {
          "internalType": "bytes32",
          "name": "nextOtsHash",
          "type": "bytes32"
        }
      ],
      "name": "addOffer",
      "outputs": [
        {
          "internalType": "bool",
          "name": "",
          "type": "bool"
        }
      ],
      "stateMutability": "nonpayable",
      "type": "function"
    },
    {
      "inputs": [
        {
          "internalType": "string",
          "name": "id",
          "type": "string"
        },
        {
          "internalType": "address",
          "name": "smartMeterAddress",
          "type": "address"
        }
      ],
      "name": "removeOffer",
      "outputs": [
        {
          "internalType": "bool",
          "name": "",
          "type": "bool"
        }
      ],
      "stateMutability": "nonpayable",
      "type": "function"
    },
    {
      "inputs": [
        {
          "internalType": "string",
          "name": "id",
          "type": "string"
        },
        {
          "internalType": "string",
          "name": "buyerSignature",
          "type": "string"
        }
      ],
      "name": "buyOffer",
      "outputs": [
        {
          "internalType": "address",
          "name": "",
          "type": "address"
        }
      ],
      "stateMutability": "nonpayable",
      "type": "function"
    },
    {
      "inputs": [
        {
          "internalType": "string",
          "name": "id",
          "type": "string"
        }
      ],
      "name": "getOffer",
      "outputs": [
        {
          "components": [
            {
              "internalType": "string",
              "name": "id",
              "type": "string"
            },
            {
              "internalType": "uint256",
              "name": "price",
              "type": "uint256"
            },
            {
              "internalType": "uint256",
              "name": "amount",
              "type": "uint256"
            },
            {
              "internalType": "uint256",
              "name": "expiration",
              "type": "uint256"
            },
            {
              "internalType": "address",
              "name": "owner",
              "type": "address"
            },
            {
              "internalType": "address",
              "name": "smartMeterAddress",
              "type": "address"
            },
            {
              "internalType": "bool",
              "name": "active",
              "type": "bool"
            },
            {
              "internalType": "string",
              "name": "sellerSignature",
              "type": "string"
            },
            {
              "internalType": "uint256",
              "name": "nonce",
              "type": "uint256"
            }
          ],
          "internalType": "struct Market.Offer",
          "name": "",
          "type": "tuple"
        }
      ],
      "stateMutability": "view",
      "type": "function"
    },
    {
      "inputs": [],
      "name": "getOffers",
      "outputs": [
        {
          "components": [
            {
              "internalType": "string",
              "name": "id",
              "type": "string"
            },
            {
              "internalType": "uint256",
              "name": "price",
              "type": "uint256"
            },
            {
              "internalType": "uint256",
              "name": "amount",
              "type": "uint256"
            },
            {
              "internalType": "uint256",
              "name": "expiration",
              "type": "uint256"
            },
            {
              "internalType": "address",
              "name": "owner",
              "type": "address"
            },
            {
              "internalType": "address",
              "name": "smartMeterAddress",
              "type": "address"
            },
            {
              "internalType": "bool",
              "name": "active",
              "type": "bool"
            },
            {
              "internalType": "string",
              "name": "sellerSignature",
              "type": "string"
            },
            {
              "internalType": "uint256",
              "name": "nonce",
              "type": "uint256"
            }
          ],
          "internalType": "struct Market.Offer[]",
          "name": "",
          "type": "tuple[]"
        }
      ],
      "stateMutability": "view",
      "type": "function"
    },
    {
      "inputs": [],
      "name": "getOfferIDs",
      "outputs": [
        {
          "internalType": "string[]",
          "name": "",
          "type": "string[]"
        }
      ],
      "stateMutability": "view",
      "type": "function"
    },
    {
      "inputs": [],
      "name": "getLatestSupplyContract",
      "outputs": [
        {
          "internalType": "address",
          "name": "",
          "type": "address"
        }
      ],
      "stateMutability": "view",
      "type": "function"
    }
  ],
  "bytecode": "0x608060405263240c84006002556040516200415a3803806200415a833981810160405281019062000031919062000123565b336000806101000a81548173ffffffffffffffffffffffffffffffffffffffff021916908373ffffffffffffffffffffffffffffffffffffffff16021790555080600160006101000a81548173ffffffffffffffffffffffffffffffffffffffff021916908373ffffffffffffffffffffffffffffffffffffffff1602179055505062000155565b600080fd5b600073ffffffffffffffffffffffffffffffffffffffff82169050919050565b6000620000eb82620000be565b9050919050565b620000fd81620000de565b81146200010957600080fd5b50565b6000815190506200011d81620000f2565b92915050565b6000602082840312156200013c576200013b620000b9565b5b60006200014c848285016200010c565b91505092915050565b613ff580620001656000396000f3fe60806040523480156200001157600080fd5b5060043610620000a05760003560e01c80637a510116116200006f5780637a5101161462000169578063a81333c4146200019f578063cdc2e6d714620001c1578063d6b85e8f14620001f7578063f6a80192146200021957620000a0565b8063110b9d8914620000a5578063197713bd14620000db5780633ee992ee146200011157806354e69aaa1462000133575b600080fd5b620000c36004803603810190620000bd9190620019c5565b6200023b565b604051620000d2919062001a91565b60405180910390f35b620000f96004803603810190620000f3919062001d5a565b620002f0565b60405162000108919062001eca565b60405180910390f35b6200011b62000828565b6040516200012a91906200211a565b60405180910390f35b6200015160048036038101906200014b91906200213e565b62000b59565b60405162000160919062001eca565b60405180910390f35b620001876004803603810190620001819190620021a4565b62000ef6565b604051620001969190620022d3565b60405180910390f35b620001a962001156565b604051620001b8919062002308565b60405180910390f35b620001df6004803603810190620001d9919062002325565b62001180565b604051620001ee919062002308565b60405180910390f35b6200020162001780565b60405162000210919062002308565b60405180910390f35b62000223620017a6565b6040516200023291906200247a565b60405180910390f35b600581815481106200024c57600080fd5b9060005260206000200160009150905080546200026990620024cd565b80601f01602080910402602001604051908101604052809291908181526020018280546200029790620024cd565b8015620002e85780601f10620002bc57610100808354040283529160200191620002e8565b820191906000526020600020905b815481529060010190602001808311620002ca57829003601f168201915b505050505081565b6000846000600760008381526020019081526020016000205490506103e8426200031b919062002531565b600280546200032b919062002531565b826200033891906200257c565b11156200037c576040517f08c379a0000000000000000000000000000000000000000000000000000000008152600401620003739062002607565b60405180910390fd5b600160009054906101000a900473ffffffffffffffffffffffffffffffffffffffff1673ffffffffffffffffffffffffffffffffffffffff1663eb4e352d338b6040518363ffffffff1660e01b8152600401620003db92919062002629565b602060405180830381865afa158015620003f9573d6000803e3d6000fd5b505050506040513d601f19601f820116820180604052508101906200041f919062002687565b62000461576040517f08c379a000000000000000000000000000000000000000000000000000000000815260040162000458906200272f565b60405180910390fd5b896002546103e84262000475919062002531565b6200048191906200257c565b1180156200049d57506103e8426200049a919062002531565b8a115b620004df576040517f08c379a0000000000000000000000000000000000000000000000000000000008152600401620004d690620027a1565b60405180910390fd5b3373ffffffffffffffffffffffffffffffffffffffff168673ffffffffffffffffffffffffffffffffffffffff161462000550576040517f08c379a0000000000000000000000000000000000000000000000000000000008152600401620005479062002813565b60405180910390fd5b60008990508073ffffffffffffffffffffffffffffffffffffffff1663eb2e3b568e88886040518463ffffffff1660e01b81526004016200059493929190620028b4565b6020604051808303816000875af1158015620005b4573d6000803e3d6000fd5b505050506040513d601f19601f82011682018060405250810190620005da919062002687565b6200061c576040517f08c379a0000000000000000000000000000000000000000000000000000000008152600401620006139062002948565b60405180910390fd5b6103e8426200062c919062002531565b600760008a8152602001908152602001600020819055506040518061012001604052808f81526020018d81526020018e81526020018c81526020013373ffffffffffffffffffffffffffffffffffffffff1681526020018b73ffffffffffffffffffffffffffffffffffffffff1681526020016001151581526020018a81526020018981525060038f604051620006c49190620029ac565b90815260200160405180910390206000820151816000019081620006e9919062002b97565b5060208201518160010155604082015181600201556060820151816003015560808201518160040160006101000a81548173ffffffffffffffffffffffffffffffffffffffff021916908373ffffffffffffffffffffffffffffffffffffffff16021790555060a08201518160050160006101000a81548173ffffffffffffffffffffffffffffffffffffffff021916908373ffffffffffffffffffffffffffffffffffffffff16021790555060c08201518160050160146101000a81548160ff02191690831515021790555060e0820151816006019081620007cd919062002b97565b50610100820151816007015590505060058e90806001815401808255809150506001900390600052602060002001600090919091909150908162000812919062002b97565b50600193505050509a9950505050505050505050565b6060600060058054905067ffffffffffffffff8111156200084e576200084d62001abf565b5b6040519080825280602002602001820160405280156200088b57816020015b6200087762001889565b8152602001906001900390816200086d5790505b50905060005b60058054905081101562000b5157600060058281548110620008b857620008b762002c7e565b5b9060005260206000200190506000600382604051620008d8919062002d51565b9081526020016040518091039020905080604051806101200160405290816000820180546200090790620024cd565b80601f01602080910402602001604051908101604052809291908181526020018280546200093590620024cd565b8015620009865780601f106200095a5761010080835404028352916020019162000986565b820191906000526020600020905b8154815290600101906020018083116200096857829003601f168201915b505050505081526020016001820154815260200160028201548152602001600382015481526020016004820160009054906101000a900473ffffffffffffffffffffffffffffffffffffffff1673ffffffffffffffffffffffffffffffffffffffff1673ffffffffffffffffffffffffffffffffffffffff1681526020016005820160009054906101000a900473ffffffffffffffffffffffffffffffffffffffff1673ffffffffffffffffffffffffffffffffffffffff1673ffffffffffffffffffffffffffffffffffffffff1681526020016005820160149054906101000a900460ff1615151515815260200160068201805462000a8690620024cd565b80601f016020809104026020016040519081016040528092919081815260200182805462000ab490620024cd565b801562000b055780601f1062000ad95761010080835404028352916020019162000b05565b820191906000526020600020905b81548152906001019060200180831162000ae757829003601f168201915b5050505050815260200160078201548152505084848151811062000b2e5762000b2d62002c7e565b5b60200260200101819052505050808062000b489062002d6a565b91505062000891565b508091505090565b60008060038460405162000b6e9190620029ac565b90815260200160405180910390206040518061012001604052908160008201805462000b9a90620024cd565b80601f016020809104026020016040519081016040528092919081815260200182805462000bc890620024cd565b801562000c195780601f1062000bed5761010080835404028352916020019162000c19565b820191906000526020600020905b81548152906001019060200180831162000bfb57829003601f168201915b505050505081526020016001820154815260200160028201548152602001600382015481526020016004820160009054906101000a900473ffffffffffffffffffffffffffffffffffffffff1673ffffffffffffffffffffffffffffffffffffffff1673ffffffffffffffffffffffffffffffffffffffff1681526020016005820160009054906101000a900473ffffffffffffffffffffffffffffffffffffffff1673ffffffffffffffffffffffffffffffffffffffff1673ffffffffffffffffffffffffffffffffffffffff1681526020016005820160149054906101000a900460ff1615151515815260200160068201805462000d1990620024cd565b80601f016020809104026020016040519081016040528092919081815260200182805462000d4790620024cd565b801562000d985780601f1062000d6c5761010080835404028352916020019162000d98565b820191906000526020600020905b81548152906001019060200180831162000d7a57829003601f168201915b505050505081526020016007820154815250509050806080015173ffffffffffffffffffffffffffffffffffffffff163373ffffffffffffffffffffffffffffffffffffffff161462000e22576040517f08c379a000000000000000000000000000000000000000000000000000000000815260040162000e199062002e07565b60405180910390fd5b60038460405162000e349190620029ac565b90815260200160405180910390206000808201600062000e55919062001903565b6001820160009055600282016000905560038201600090556004820160006101000a81549073ffffffffffffffffffffffffffffffffffffffff02191690556005820160006101000a81549073ffffffffffffffffffffffffffffffffffffffff02191690556005820160146101000a81549060ff021916905560068201600062000ee1919062001903565b60078201600090555050600191505092915050565b62000f0062001889565b60038260405162000f129190620029ac565b90815260200160405180910390206040518061012001604052908160008201805462000f3e90620024cd565b80601f016020809104026020016040519081016040528092919081815260200182805462000f6c90620024cd565b801562000fbd5780601f1062000f915761010080835404028352916020019162000fbd565b820191906000526020600020905b81548152906001019060200180831162000f9f57829003601f168201915b505050505081526020016001820154815260200160028201548152602001600382015481526020016004820160009054906101000a900473ffffffffffffffffffffffffffffffffffffffff1673ffffffffffffffffffffffffffffffffffffffff1673ffffffffffffffffffffffffffffffffffffffff1681526020016005820160009054906101000a900473ffffffffffffffffffffffffffffffffffffffff1673ffffffffffffffffffffffffffffffffffffffff1673ffffffffffffffffffffffffffffffffffffffff1681526020016005820160149054906101000a900460ff16151515158152602001600682018054620010bd90620024cd565b80601f0160208091040260200160405190810160405280929190818152602001828054620010eb90620024cd565b80156200113c5780601f1062001110576101008083540402835291602001916200113c565b820191906000526020600020905b8154815290600101906020018083116200111e57829003601f168201915b505050505081526020016007820154815250509050919050565b6000600660009054906101000a900473ffffffffffffffffffffffffffffffffffffffff16905090565b600080600384604051620011959190620029ac565b908152602001604051809103902060405180610120016040529081600082018054620011c190620024cd565b80601f0160208091040260200160405190810160405280929190818152602001828054620011ef90620024cd565b8015620012405780601f10620012145761010080835404028352916020019162001240565b820191906000526020600020905b8154815290600101906020018083116200122257829003601f168201915b505050505081526020016001820154815260200160028201548152602001600382015481526020016004820160009054906101000a900473ffffffffffffffffffffffffffffffffffffffff1673ffffffffffffffffffffffffffffffffffffffff1673ffffffffffffffffffffffffffffffffffffffff1681526020016005820160009054906101000a900473ffffffffffffffffffffffffffffffffffffffff1673ffffffffffffffffffffffffffffffffffffffff1673ffffffffffffffffffffffffffffffffffffffff1681526020016005820160149054906101000a900460ff161515151581526020016006820180546200134090620024cd565b80601f01602080910402602001604051908101604052809291908181526020018280546200136e90620024cd565b8015620013bf5780601f106200139357610100808354040283529160200191620013bf565b820191906000526020600020905b815481529060010190602001808311620013a157829003601f168201915b5050505050815260200160078201548152505090508380519060200120816000015180519060200120146200142b576040517f08c379a0000000000000000000000000000000000000000000000000000000008152600401620014229062002e79565b60405180910390fd5b60008160e00151905060008260800151905060008360400151905060008460200151905060008560600151905060008661010001519050428211620014a7576040517f08c379a00000000000000000000000000000000000000000000000000000000081526004016200149e9062002eeb565b60405180910390fd5b8473ffffffffffffffffffffffffffffffffffffffff163373ffffffffffffffffffffffffffffffffffffffff160362001518576040517f08c379a00000000000000000000000000000000000000000000000000000000081526004016200150f9062002f5d565b60405180910390fd5b600089878686856040516200152d9062001949565b6200153d95949392919062002f7f565b604051809103906000f0801580156200155a573d6000803e3d6000fd5b50905080600660006101000a81548173ffffffffffffffffffffffffffffffffffffffff021916908373ffffffffffffffffffffffffffffffffffffffff16021790555060038b604051620015b09190620029ac565b908152602001604051809103902060008082016000620015d1919062001903565b6001820160009055600282016000905560038201600090556004820160006101000a81549073ffffffffffffffffffffffffffffffffffffffff02191690556005820160006101000a81549073ffffffffffffffffffffffffffffffffffffffff02191690556005820160146101000a81549060ff02191690556006820160006200165d919062001903565b6007820160009055505060005b6005805490508110156200176e578b805190602001206005828154811062001697576200169662002c7e565b5b90600052602060002001604051620016b0919062003099565b604051809103902003620017585760056001600580549050620016d49190620030b2565b81548110620016e857620016e762002c7e565b5b906000526020600020016005828154811062001709576200170862002c7e565b5b90600052602060002001908162001721919062003105565b50600580548062001737576200173662003206565b5b60019003818190600052602060002001600062001755919062001903565b90555b8080620017659062002d6a565b9150506200166a565b50809850505050505050505092915050565b600660009054906101000a900473ffffffffffffffffffffffffffffffffffffffff1681565b60606005805480602002602001604051908101604052809291908181526020016000905b8282101562001880578382906000526020600020018054620017ec90620024cd565b80601f01602080910402602001604051908101604052809291908181526020018280546200181a90620024cd565b80156200186b5780601f106200183f576101008083540402835291602001916200186b565b820191906000526020600020905b8154815290600101906020018083116200184d57829003601f168201915b505050505081526020019060010190620017ca565b50505050905090565b60405180610120016040528060608152602001600081526020016000815260200160008152602001600073ffffffffffffffffffffffffffffffffffffffff168152602001600073ffffffffffffffffffffffffffffffffffffffff16815260200160001515815260200160608152602001600081525090565b5080546200191190620024cd565b6000825580601f1062001925575062001946565b601f01602090049060005260206000209081019062001945919062001957565b5b50565b610d8a806200323683390190565b5b808211156200197257600081600090555060010162001958565b5090565b6000604051905090565b600080fd5b600080fd5b6000819050919050565b6200199f816200198a565b8114620019ab57600080fd5b50565b600081359050620019bf8162001994565b92915050565b600060208284031215620019de57620019dd62001980565b5b6000620019ee84828501620019ae565b91505092915050565b600081519050919050565b600082825260208201905092915050565b60005b8381101562001a3357808201518184015260208101905062001a16565b60008484015250505050565b6000601f19601f8301169050919050565b600062001a5d82620019f7565b62001a69818562001a02565b935062001a7b81856020860162001a13565b62001a868162001a3f565b840191505092915050565b6000602082019050818103600083015262001aad818462001a50565b905092915050565b600080fd5b600080fd5b7f4e487b7100000000000000000000000000000000000000000000000000000000600052604160045260246000fd5b62001af98262001a3f565b810181811067ffffffffffffffff8211171562001b1b5762001b1a62001abf565b5b80604052505050565b600062001b3062001976565b905062001b3e828262001aee565b919050565b600067ffffffffffffffff82111562001b615762001b6062001abf565b5b62001b6c8262001a3f565b9050602081019050919050565b82818337600083830152505050565b600062001b9f62001b998462001b43565b62001b24565b90508281526020810184848401111562001bbe5762001bbd62001aba565b5b62001bcb84828562001b79565b509392505050565b600082601f83011262001beb5762001bea62001ab5565b5b813562001bfd84826020860162001b88565b91505092915050565b600073ffffffffffffffffffffffffffffffffffffffff82169050919050565b600062001c338262001c06565b9050919050565b62001c458162001c26565b811462001c5157600080fd5b50565b60008135905062001c658162001c3a565b92915050565b600067ffffffffffffffff82111562001c895762001c8862001abf565b5b62001c948262001a3f565b9050602081019050919050565b600062001cb862001cb28462001c6b565b62001b24565b90508281526020810184848401111562001cd75762001cd662001aba565b5b62001ce484828562001b79565b509392505050565b600082601f83011262001d045762001d0362001ab5565b5b813562001d1684826020860162001ca1565b91505092915050565b6000819050919050565b62001d348162001d1f565b811462001d4057600080fd5b50565b60008135905062001d548162001d29565b92915050565b6000806000806000806000806000806101408b8d03121562001d815762001d8062001980565b5b60008b013567ffffffffffffffff81111562001da25762001da162001985565b5b62001db08d828e0162001bd3565b9a5050602062001dc38d828e01620019ae565b995050604062001dd68d828e01620019ae565b985050606062001de98d828e01620019ae565b975050608062001dfc8d828e0162001c54565b96505060a08b013567ffffffffffffffff81111562001e205762001e1f62001985565b5b62001e2e8d828e0162001bd3565b95505060c062001e418d828e01620019ae565b94505060e062001e548d828e0162001c54565b9350506101008b013567ffffffffffffffff81111562001e795762001e7862001985565b5b62001e878d828e0162001cec565b92505061012062001e9b8d828e0162001d43565b9150509295989b9194979a5092959850565b60008115159050919050565b62001ec48162001ead565b82525050565b600060208201905062001ee1600083018462001eb9565b92915050565b600081519050919050565b600082825260208201905092915050565b6000819050602082019050919050565b600082825260208201905092915050565b600062001f3182620019f7565b62001f3d818562001f13565b935062001f4f81856020860162001a13565b62001f5a8162001a3f565b840191505092915050565b62001f70816200198a565b82525050565b62001f818162001c26565b82525050565b62001f928162001ead565b82525050565b600061012083016000830151848203600086015262001fb8828262001f24565b915050602083015162001fcf602086018262001f65565b50604083015162001fe4604086018262001f65565b50606083015162001ff9606086018262001f65565b5060808301516200200e608086018262001f76565b5060a08301516200202360a086018262001f76565b5060c08301516200203860c086018262001f87565b5060e083015184820360e086015262002052828262001f24565b9150506101008301516200206b61010086018262001f65565b508091505092915050565b600062002084838362001f98565b905092915050565b6000602082019050919050565b6000620020a68262001ee7565b620020b2818562001ef2565b935083602082028501620020c68562001f03565b8060005b85811015620021085784840389528151620020e6858262002076565b9450620020f3836200208c565b925060208a01995050600181019050620020ca565b50829750879550505050505092915050565b6000602082019050818103600083015262002136818462002099565b905092915050565b6000806040838503121562002158576200215762001980565b5b600083013567ffffffffffffffff81111562002179576200217862001985565b5b620021878582860162001bd3565b92505060206200219a8582860162001c54565b9150509250929050565b600060208284031215620021bd57620021bc62001980565b5b600082013567ffffffffffffffff811115620021de57620021dd62001985565b5b620021ec8482850162001bd3565b91505092915050565b600061012083016000830151848203600086015262002215828262001f24565b91505060208301516200222c602086018262001f65565b50604083015162002241604086018262001f65565b50606083015162002256606086018262001f65565b5060808301516200226b608086018262001f76565b5060a08301516200228060a086018262001f76565b5060c08301516200229560c086018262001f87565b5060e083015184820360e0860152620022af828262001f24565b915050610100830151620022c861010086018262001f65565b508091505092915050565b60006020820190508181036000830152620022ef8184620021f5565b905092915050565b620023028162001c26565b82525050565b60006020820190506200231f6000830184620022f7565b92915050565b600080604083850312156200233f576200233e62001980565b5b600083013567ffffffffffffffff81111562002360576200235f62001985565b5b6200236e8582860162001bd3565b925050602083013567ffffffffffffffff81111562002392576200239162001985565b5b620023a08582860162001bd3565b9150509250929050565b600081519050919050565b600082825260208201905092915050565b6000819050602082019050919050565b6000620023e4838362001f24565b905092915050565b6000602082019050919050565b60006200240682620023aa565b620024128185620023b5565b9350836020820285016200242685620023c6565b8060005b85811015620024685784840389528151620024468582620023d6565b94506200245383620023ec565b925060208a019950506001810190506200242a565b50829750879550505050505092915050565b60006020820190508181036000830152620024968184620023f9565b905092915050565b7f4e487b7100000000000000000000000000000000000000000000000000000000600052602260045260246000fd5b60006002820490506001821680620024e657607f821691505b602082108103620024fc57620024fb6200249e565b5b50919050565b7f4e487b7100000000000000000000000000000000000000000000000000000000600052601160045260246000fd5b60006200253e826200198a565b91506200254b836200198a565b92508282026200255b816200198a565b9150828204841483151762002575576200257462002502565b5b5092915050565b600062002589826200198a565b915062002596836200198a565b9250828201905080821115620025b157620025b062002502565b5b92915050565b7f4e6f6e636520776173207573656420726563656e746c79000000000000000000600082015250565b6000620025ef60178362001a02565b9150620025fc82620025b7565b602082019050919050565b600060208201905081810360008301526200262281620025e0565b9050919050565b6000604082019050620026406000830185620022f7565b6200264f6020830184620022f7565b9392505050565b620026618162001ead565b81146200266d57600080fd5b50565b600081519050620026818162002656565b92915050565b600060208284031215620026a0576200269f62001980565b5b6000620026b08482850162002670565b91505092915050565b7f536d617274204d65746572206e6f74207265676973746572656420627920436160008201527f626c6520436f6d70616e79000000000000000000000000000000000000000000602082015250565b600062002717602b8362001a02565b91506200272482620026b9565b604082019050919050565b600060208201905081810360008301526200274a8162002708565b9050919050565b7f4f66666572206c6966657370616e206e6f7420636f7272656374000000000000600082015250565b600062002789601a8362001a02565b9150620027968262002751565b602082019050919050565b60006020820190508181036000830152620027bc816200277a565b9050919050565b7f4f6e6c79206f776e65722063616e20616464206f666665720000000000000000600082015250565b6000620027fb60188362001a02565b91506200280882620027c3565b602082019050919050565b600060208201905081810360008301526200282e81620027ec565b9050919050565b62002840816200198a565b82525050565b600081519050919050565b600082825260208201905092915050565b60006200286f8262002846565b6200287b818562002851565b93506200288d81856020860162001a13565b620028988162001a3f565b840191505092915050565b620028ae8162001d1f565b82525050565b6000606082019050620028cb600083018662002835565b8181036020830152620028df818562002862565b9050620028f06040830184620028a3565b949350505050565b7f4e6f7420656e6f7567682073746f72656420656e657267790000000000000000600082015250565b60006200293060188362001a02565b91506200293d82620028f8565b602082019050919050565b60006020820190508181036000830152620029638162002921565b9050919050565b600081905092915050565b60006200298282620019f7565b6200298e81856200296a565b9350620029a081856020860162001a13565b80840191505092915050565b6000620029ba828462002975565b915081905092915050565b60008190508160005260206000209050919050565b60006020601f8301049050919050565b600082821b905092915050565b60006008830262002a297fffffffffffffffffffffffffffffffffffffffffffffffffffffffffffffffff82620029ea565b62002a358683620029ea565b95508019841693508086168417925050509392505050565b6000819050919050565b600062002a7862002a7262002a6c846200198a565b62002a4d565b6200198a565b9050919050565b6000819050919050565b62002a948362002a57565b62002aac62002aa38262002a7f565b848454620029f7565b825550505050565b600090565b62002ac362002ab4565b62002ad081848462002a89565b505050565b5b8181101562002af85762002aec60008262002ab9565b60018101905062002ad6565b5050565b601f82111562002b475762002b1181620029c5565b62002b1c84620029da565b8101602085101562002b2c578190505b62002b4462002b3b85620029da565b83018262002ad5565b50505b505050565b600082821c905092915050565b600062002b6c6000198460080262002b4c565b1980831691505092915050565b600062002b87838362002b59565b9150826002028217905092915050565b62002ba282620019f7565b67ffffffffffffffff81111562002bbe5762002bbd62001abf565b5b62002bca8254620024cd565b62002bd782828562002afc565b600060209050601f83116001811462002c0f576000841562002bfa578287015190505b62002c06858262002b79565b86555062002c76565b601f19841662002c1f86620029c5565b60005b8281101562002c495784890151825560018201915060208501945060208101905062002c22565b8683101562002c69578489015162002c65601f89168262002b59565b8355505b6001600288020188555050505b505050505050565b7f4e487b7100000000000000000000000000000000000000000000000000000000600052603260045260246000fd5b60008190508160005260206000209050919050565b6000815462002cd181620024cd565b62002cdd81866200296a565b9450600182166000811462002cfb576001811462002d115762002d48565b60ff198316865281151582028601935062002d48565b62002d1c8562002cad565b60005b8381101562002d405781548189015260018201915060208101905062002d1f565b838801955050505b50505092915050565b600062002d5f828462002cc2565b915081905092915050565b600062002d77826200198a565b91507fffffffffffffffffffffffffffffffffffffffffffffffffffffffffffffffff820362002dac5762002dab62002502565b5b600182019050919050565b7f4f6e6c79206f776e65722063616e2072656d6f7665206f666665720000000000600082015250565b600062002def601b8362001a02565b915062002dfc8262002db7565b602082019050919050565b6000602082019050818103600083015262002e228162002de0565b9050919050565b7f4e6f206f6666657220666f756e64000000000000000000000000000000000000600082015250565b600062002e61600e8362001a02565b915062002e6e8262002e29565b602082019050919050565b6000602082019050818103600083015262002e948162002e52565b9050919050565b7f43616e6e6f74206275792065787069726564206f666665720000000000000000600082015250565b600062002ed360188362001a02565b915062002ee08262002e9b565b602082019050919050565b6000602082019050818103600083015262002f068162002ec4565b9050919050565b7f4f776e65722063616e6e6f7420627579206f776e206f66666572000000000000600082015250565b600062002f45601a8362001a02565b915062002f528262002f0d565b602082019050919050565b6000602082019050818103600083015262002f788162002f36565b9050919050565b600060a082019050818103600083015262002f9b818862001a50565b9050818103602083015262002fb1818762001a50565b905062002fc2604083018662002835565b62002fd1606083018562002835565b62002fe0608083018462002835565b9695505050505050565b600081905092915050565b60008190508160005260206000209050919050565b600081546200301981620024cd565b62003025818662002fea565b94506001821660008114620030435760018114620030595762003090565b60ff198316865281151582028601935062003090565b620030648562002ff5565b60005b83811015620030885781548189015260018201915060208101905062003067565b838801955050505b50505092915050565b6000620030a782846200300a565b915081905092915050565b6000620030bf826200198a565b9150620030cc836200198a565b9250828203905081811115620030e757620030e662002502565b5b92915050565b600081549050620030fe81620024cd565b9050919050565b8181036200311557505062003204565b6200312082620030ed565b67ffffffffffffffff8111156200313c576200313b62001abf565b5b620031488254620024cd565b6200315582828562002afc565b6000601f83116001811462003189576000841562003174578287015490505b62003180858262002b79565b865550620031fd565b601f198416620031998762002cad565b9650620031a686620029c5565b60005b82811015620031d057848901548255600182019150600185019450602081019050620031a9565b86831015620031f05784890154620031ec601f89168262002b59565b8355505b6001600288020188555050505b5050505050505b565b7f4e487b7100000000000000000000000000000000000000000000000000000000600052603160045260246000fdfe60806040523480156200001157600080fd5b5060405162000d8a38038062000d8a83398181016040528101906200003791906200026b565b846000908162000048919062000572565b5083600190816200005a919062000572565b508260028190555081600381905550426004819055506000600560006101000a81548160ff02191690831515021790555080600681905550505050505062000659565b6000604051905090565b600080fd5b600080fd5b600080fd5b600080fd5b6000601f19601f8301169050919050565b7f4e487b7100000000000000000000000000000000000000000000000000000000600052604160045260246000fd5b6200010682620000bb565b810181811067ffffffffffffffff82111715620001285762000127620000cc565b5b80604052505050565b60006200013d6200009d565b90506200014b8282620000fb565b919050565b600067ffffffffffffffff8211156200016e576200016d620000cc565b5b6200017982620000bb565b9050602081019050919050565b60005b83811015620001a657808201518184015260208101905062000189565b60008484015250505050565b6000620001c9620001c38462000150565b62000131565b905082815260208101848484011115620001e857620001e7620000b6565b5b620001f584828562000186565b509392505050565b600082601f830112620002155762000214620000b1565b5b815162000227848260208601620001b2565b91505092915050565b6000819050919050565b620002458162000230565b81146200025157600080fd5b50565b60008151905062000265816200023a565b92915050565b600080600080600060a086880312156200028a5762000289620000a7565b5b600086015167ffffffffffffffff811115620002ab57620002aa620000ac565b5b620002b988828901620001fd565b955050602086015167ffffffffffffffff811115620002dd57620002dc620000ac565b5b620002eb88828901620001fd565b9450506040620002fe8882890162000254565b9350506060620003118882890162000254565b9250506080620003248882890162000254565b9150509295509295909350565b600081519050919050565b7f4e487b7100000000000000000000000000000000000000000000000000000000600052602260045260246000fd5b600060028204905060018216806200038457607f821691505b6020821081036200039a57620003996200033c565b5b50919050565b60008190508160005260206000209050919050565b60006020601f8301049050919050565b600082821b905092915050565b600060088302620004047fffffffffffffffffffffffffffffffffffffffffffffffffffffffffffffffff82620003c5565b620004108683620003c5565b95508019841693508086168417925050509392505050565b6000819050919050565b6000620004536200044d620004478462000230565b62000428565b62000230565b9050919050565b6000819050919050565b6200046f8362000432565b620004876200047e826200045a565b848454620003d2565b825550505050565b600090565b6200049e6200048f565b620004ab81848462000464565b505050565b5b81811015620004d357620004c760008262000494565b600181019050620004b1565b5050565b601f8211156200052257620004ec81620003a0565b620004f784620003b5565b8101602085101562000507578190505b6200051f6200051685620003b5565b830182620004b0565b50505b505050565b600082821c905092915050565b6000620005476000198460080262000527565b1980831691505092915050565b600062000562838362000534565b9150826002028217905092915050565b6200057d8262000331565b67ffffffffffffffff811115620005995762000598620000cc565b5b620005a582546200036b565b620005b2828285620004d7565b600060209050601f831160018114620005ea5760008415620005d5578287015190505b620005e1858262000554565b86555062000651565b601f198416620005fa86620003a0565b60005b828110156200062457848901518255600182019150602085019450602081019050620005fd565b8683101562000644578489015162000640601f89168262000534565b8355505b6001600288020188555050505b505050505050565b61072180620006696000396000f3fe608060405234801561001057600080fd5b50600436106100575760003560e01c80635a9b0b891461005c578063603daf9a1461007a57806398d5fdca14610098578063d321fe29146100b6578063dbd0e1b6146100d4575b600080fd5b6100646100f2565b60405161007191906105d3565b60405180910390f35b610082610282565b60405161008f919061063f565b60405180910390f35b6100a0610314565b6040516100ad9190610670565b60405180910390f35b6100be61031e565b6040516100cb9190610670565b60405180910390f35b6100dc610328565b6040516100e9919061063f565b60405180910390f35b6100fa6103ba565b60006040518061010001604052803073ffffffffffffffffffffffffffffffffffffffff16815260200160008054610131906106ba565b80601f016020809104026020016040519081016040528092919081815260200182805461015d906106ba565b80156101aa5780601f1061017f576101008083540402835291602001916101aa565b820191906000526020600020905b81548152906001019060200180831161018d57829003601f168201915b50505050508152602001600180546101c1906106ba565b80601f01602080910402602001604051908101604052809291908181526020018280546101ed906106ba565b801561023a5780601f1061020f5761010080835404028352916020019161023a565b820191906000526020600020905b81548152906001019060200180831161021d57829003601f168201915b50505050508152602001600354815260200160025481526020016004548152602001600560009054906101000a900460ff161515815260200160065481525090508091505090565b606060008054610291906106ba565b80601f01602080910402602001604051908101604052809291908181526020018280546102bd906106ba565b801561030a5780601f106102df5761010080835404028352916020019161030a565b820191906000526020600020905b8154815290600101906020018083116102ed57829003601f168201915b5050505050905090565b6000600354905090565b6000600254905090565b606060018054610337906106ba565b80601f0160208091040260200160405190810160405280929190818152602001828054610363906106ba565b80156103b05780601f10610385576101008083540402835291602001916103b0565b820191906000526020600020905b81548152906001019060200180831161039357829003601f168201915b5050505050905090565b604051806101000160405280600073ffffffffffffffffffffffffffffffffffffffff1681526020016060815260200160608152602001600081526020016000815260200160008152602001600015158152602001600081525090565b600073ffffffffffffffffffffffffffffffffffffffff82169050919050565b600061044282610417565b9050919050565b61045281610437565b82525050565b600081519050919050565b600082825260208201905092915050565b60005b83811015610492578082015181840152602081019050610477565b60008484015250505050565b6000601f19601f8301169050919050565b60006104ba82610458565b6104c48185610463565b93506104d4818560208601610474565b6104dd8161049e565b840191505092915050565b6000819050919050565b6104fb816104e8565b82525050565b60008115159050919050565b61051681610501565b82525050565b6000610100830160008301516105356000860182610449565b506020830151848203602086015261054d82826104af565b9150506040830151848203604086015261056782826104af565b915050606083015161057c60608601826104f2565b50608083015161058f60808601826104f2565b5060a08301516105a260a08601826104f2565b5060c08301516105b560c086018261050d565b5060e08301516105c860e08601826104f2565b508091505092915050565b600060208201905081810360008301526105ed818461051c565b905092915050565b600082825260208201905092915050565b600061061182610458565b61061b81856105f5565b935061062b818560208601610474565b6106348161049e565b840191505092915050565b600060208201905081810360008301526106598184610606565b905092915050565b61066a816104e8565b82525050565b60006020820190506106856000830184610661565b92915050565b7f4e487b7100000000000000000000000000000000000000000000000000000000600052602260045260246000fd5b600060028204905060018216806106d257607f821691505b6020821081036106e5576106e461068b565b5b5091905056fea2646970667358221220e0010aafbdc98b0da08867abd0f79efd6a82b8abbba6968bc8c55884ccf3d93964736f6c63430008130033a264697066735822122033c7d90b1e638e33b847ecc889f155960bad6274a859967611b745c9bdef87af64736f6c63430008130033",
  "immutableReferences": {},
  "source": "// SPDX-License-Identifier: GPL-3.0\n// pragma experimental ABIEncoderV2;\npragma solidity ^0.8.9;\n\ninterface ICableCompany {\n    function registerKey(\n        address smartMeterPubKey,\n        address smartMeterAddress\n    ) external;\n\n    function isRegisteredKey(\n        address smartMeterPubKey,\n        address smartMeterAddress\n    ) external view returns (bool);\n\n    function removeRegisteredKey(address smartMeterPubKey) external;\n}\n\ninterface ISmartMeter {\n    function returnReservedBatteryCharge(uint amount) external returns (bool);\n\n    function subtractBatteryCharge(\n        uint amount,\n        bytes memory ots,\n        bytes32 nextOtsHash\n    ) external returns (bool);\n\n    function getBatteryCharge() external view returns (uint);\n}\n\ncontract Market {\n    address owner;\n    ICableCompany cableCompany; // Maybe change the name of CableCompany to something else, like DSO\n    uint maxOfferLivespan = 1000 * 60 * 60 * 24 * 7;\n\n    struct Offer {\n        string id;\n        uint price;\n        uint amount;\n        uint expiration;\n        address owner;\n        address smartMeterAddress;\n        bool active;\n        string sellerSignature;\n        uint nonce;\n    }\n\n    mapping(string => Offer) private offers;\n    mapping(string => Offer) private pendingConfirmation;\n\n    string[] public offerIds;\n    address public lastestSupplyChainAddress;\n\n    // mapping is nonce to the timestamp it was used at.\n    mapping(uint => uint) private usedNonces;\n\n    modifier nonceGuard(uint nonce) {\n        uint timestamp = usedNonces[nonce];\n        // nonce was used within the last two weeks.\n        if (timestamp + maxOfferLivespan * 2 > block.timestamp * 1000) {\n            revert(\"Nonce was used recently\");\n        }\n        _;\n    }\n\n    constructor(address _cableCompanyAddress) payable {\n        owner = msg.sender;\n        cableCompany = ICableCompany(_cableCompanyAddress);\n    }\n\n    function addOffer(\n        string memory id,\n        uint amount,\n        uint price,\n        uint expiration,\n        address smartMeterAddress,\n        string memory sellerSignature,\n        uint nonce,\n        address sellerAddress,\n        bytes memory ots,\n        bytes32 nextOtsHash\n    ) public nonceGuard(nonce) returns (bool) {\n        // Require conditions\n        require(\n            cableCompany.isRegisteredKey(msg.sender, smartMeterAddress),\n            \"Smart Meter not registered by Cable Company\"\n        );\n        require(\n            block.timestamp * 1000 + maxOfferLivespan > expiration &&\n                expiration > block.timestamp * 1000,\n            \"Offer lifespan not correct\"\n        );\n        require(sellerAddress == msg.sender, \"Only owner can add offer\");\n\n        ISmartMeter smartMeter = ISmartMeter(smartMeterAddress);\n        require(\n            smartMeter.subtractBatteryCharge(amount, ots, nextOtsHash),\n            \"Not enough stored energy\"\n        );\n\n        // Adding offer\n        usedNonces[nonce] = block.timestamp * 1000;\n        offers[id] = Offer({\n            id: id,\n            amount: amount,\n            price: price,\n            expiration: expiration,\n            owner: msg.sender,\n            smartMeterAddress: smartMeterAddress,\n            active: true,\n            sellerSignature: sellerSignature,\n            nonce: nonce\n        });\n        offerIds.push(id);\n\n        return true;\n    }\n\n    function removeOffer(\n        string memory id,\n        address smartMeterAddress\n    ) public returns (bool) {\n        // Initialization\n        Offer memory offer = offers[id];\n        // ISmartMeter smartMeter = ISmartMeter(smartMeterAddress);\n\n        // Require conditions\n        require(msg.sender == offer.owner, \"Only owner can remove offer\");\n\n        // Removing offer\n        // smartMeter.returnReservedBatteryCharge(offer.amount);\n        delete offers[id];\n\n        return true;\n    }\n\n    function buyOffer(\n        string memory id,\n        string memory buyerSignature\n    ) public returns (address) {\n        // Initialization\n        Offer memory offer = offers[id];\n\n        // Require conditions\n        require(\n            keccak256(bytes(offer.id)) == keccak256(bytes(id)),\n            \"No offer found\"\n        );\n        string memory sellerSignature = offer.sellerSignature;\n        address seller = offer.owner;\n        uint amount = offer.amount;\n        uint price = offer.price;\n        uint expiration = offer.expiration;\n        uint offerNonce = offer.nonce;\n        require(expiration > block.timestamp, \"Cannot buy expired offer\");\n        require(msg.sender != seller, \"Owner cannot buy own offer\");\n\n        // Buying offer and creating SupplyContract\n        SupplyContract sc = new SupplyContract({\n            _buyerSignature: buyerSignature,\n            _sellerSignature: sellerSignature,\n            _amount: amount,\n            _price: price,\n            _nonce: offerNonce\n        });\n        lastestSupplyChainAddress = address(sc);\n        delete offers[id];\n\n        for (uint i = 0; i < offerIds.length; i++) {\n            // String comparison to remove purchased offer\n            if (keccak256(bytes(offerIds[i])) == keccak256(bytes(id))) {\n                offerIds[i] = offerIds[offerIds.length - 1];\n                offerIds.pop();\n            }\n        }\n\n        return address(sc);\n    }\n\n    function getOffer(string memory id) public view returns (Offer memory) {\n        return offers[id];\n    }\n\n    function getOffers() public view returns (Offer[] memory) {\n        Offer[] memory offersReturn = new Offer[](offerIds.length);\n        for (uint i = 0; i < offerIds.length; i++) {\n            string storage offerId = offerIds[i];\n            Offer storage offer = offers[offerId];\n\n            offersReturn[i] = offer;\n        }\n        return offersReturn;\n    }\n\n    function getOfferIDs() public view returns (string[] memory) {\n        return offerIds;\n    }\n\n    function getLatestSupplyContract() public view returns (address) {\n        return lastestSupplyChainAddress;\n    }\n}\n\ncontract SupplyContract {\n    string buyerSignature;\n    string sellerSignature;\n    uint amount; // Wh\n    uint price; // Euro cents\n    uint timestamp; // Unix\n    bool confirmed;\n    uint nonce;\n\n    struct SupplyContractDTO {\n        address scAddress;\n        string buyerSignature;\n        string sellerSignature;\n        uint price;\n        uint amount;\n        uint timestamp;\n        bool confirmed;\n        uint nonce;\n    }\n\n    constructor(\n        string memory _buyerSignature,\n        string memory _sellerSignature,\n        uint _amount,\n        uint _price,\n        uint _nonce\n    ) {\n        buyerSignature = _buyerSignature;\n        sellerSignature = _sellerSignature;\n        amount = _amount;\n        price = _price;\n        timestamp = block.timestamp;\n        confirmed = false;\n        nonce = _nonce;\n    }\n\n    function getBuyer() public view returns (string memory) {\n        return buyerSignature;\n    }\n\n    function getSeller() public view returns (string memory) {\n        return sellerSignature;\n    }\n\n    function getAmount() public view returns (uint) {\n        return amount;\n    }\n\n    function getPrice() public view returns (uint) {\n        return price;\n    }\n\n    function getInfo() public view returns (SupplyContractDTO memory) {\n        SupplyContractDTO memory scDTO = SupplyContractDTO({\n            scAddress: address(this),\n            buyerSignature: buyerSignature,\n            sellerSignature: sellerSignature,\n            price: price,\n            amount: amount,\n            timestamp: timestamp,\n            confirmed: confirmed,\n            nonce: nonce\n        });\n\n        return scDTO;\n    }\n}\n",
  "sourcePath": "/Users/antonoeschmidt/Projects/Master/SmartGridEmpowered/contracts/Market.sol",
  "compiler": {
    "name": "solc",
    "version": "0.8.19+commit.7dd6d404.Emscripten.clang"
  },
  "schemaVersion": "3.4.16",
  "updatedAt": "2024-01-23T15:31:19.217Z",
  "devdoc": {
    "kind": "dev",
    "methods": {},
    "version": 1
  },
  "userdoc": {
    "kind": "user",
    "methods": {},
    "version": 1
  }
}