{
  "contractName": "Market",
  "abi": [
    {
      "inputs": [
        {
          "internalType": "address",
          "name": "_cableCompanyAddress",
          "type": "address"
        },
        {
          "internalType": "address",
          "name": "smartMeterContract",
          "type": "address"
        }
      ],
      "stateMutability": "payable",
      "type": "constructor"
    },
    {
      "anonymous": false,
      "inputs": [
        {
          "indexed": false,
          "internalType": "string",
          "name": "buyerSignature",
          "type": "string"
        },
        {
          "indexed": false,
          "internalType": "string",
          "name": "sellerSignature",
          "type": "string"
        },
        {
          "indexed": false,
          "internalType": "uint256",
          "name": "amount",
          "type": "uint256"
        },
        {
          "indexed": false,
          "internalType": "uint256",
          "name": "timestamp",
          "type": "uint256"
        },
        {
          "indexed": false,
          "internalType": "uint256",
          "name": "price",
          "type": "uint256"
        }
      ],
      "name": "ApproveOffer",
      "type": "event"
    },
    {
      "inputs": [],
      "name": "lastestSupplyChainAddress",
      "outputs": [
        {
          "internalType": "address",
          "name": "",
          "type": "address"
        }
      ],
      "stateMutability": "view",
      "type": "function"
    },
    {
      "inputs": [
        {
          "internalType": "uint256",
          "name": "",
          "type": "uint256"
        }
      ],
      "name": "offerIds",
      "outputs": [
        {
          "internalType": "string",
          "name": "",
          "type": "string"
        }
      ],
      "stateMutability": "view",
      "type": "function"
    },
    {
      "inputs": [
        {
          "internalType": "string",
          "name": "",
          "type": "string"
        }
      ],
      "name": "offers",
      "outputs": [
        {
          "internalType": "string",
          "name": "id",
          "type": "string"
        },
        {
          "internalType": "uint256",
          "name": "price",
          "type": "uint256"
        },
        {
          "internalType": "uint256",
          "name": "amount",
          "type": "uint256"
        },
        {
          "internalType": "uint256",
          "name": "expiration",
          "type": "uint256"
        },
        {
          "internalType": "address",
          "name": "owner",
          "type": "address"
        },
        {
          "internalType": "address",
          "name": "smartMeterAddress",
          "type": "address"
        },
        {
          "internalType": "bool",
          "name": "active",
          "type": "bool"
        },
        {
          "internalType": "string",
          "name": "sellerSignature",
          "type": "string"
        },
        {
          "internalType": "uint256",
          "name": "nonce",
          "type": "uint256"
        }
      ],
      "stateMutability": "view",
      "type": "function"
    },
    {
      "inputs": [
        {
          "internalType": "uint256",
          "name": "",
          "type": "uint256"
        }
      ],
      "name": "pendingConfirmationOffers",
      "outputs": [
        {
          "internalType": "string",
          "name": "buyerSignature",
          "type": "string"
        },
        {
          "internalType": "string",
          "name": "sellerSignature",
          "type": "string"
        },
        {
          "internalType": "address",
          "name": "smartMeterAddress",
          "type": "address"
        },
        {
          "internalType": "uint256",
          "name": "amount",
          "type": "uint256"
        },
        {
          "internalType": "uint256",
          "name": "price",
          "type": "uint256"
        },
        {
          "internalType": "uint256",
          "name": "timestamp",
          "type": "uint256"
        },
        {
          "internalType": "uint256",
          "name": "nonce",
          "type": "uint256"
        }
      ],
      "stateMutability": "view",
      "type": "function"
    },
    {
      "inputs": [
        {
          "internalType": "string",
          "name": "id",
          "type": "string"
        },
        {
          "internalType": "uint256",
          "name": "amount",
          "type": "uint256"
        },
        {
          "internalType": "uint256",
          "name": "price",
          "type": "uint256"
        },
        {
          "internalType": "uint256",
          "name": "expiration",
          "type": "uint256"
        },
        {
          "internalType": "address",
          "name": "smartMeterAddress",
          "type": "address"
        },
        {
          "internalType": "string",
          "name": "sellerSignature",
          "type": "string"
        },
        {
          "internalType": "uint256",
          "name": "nonce",
          "type": "uint256"
        },
        {
          "internalType": "address",
          "name": "sellerAddress",
          "type": "address"
        },
        {
          "internalType": "bytes",
          "name": "ots",
          "type": "bytes"
        },
        {
          "internalType": "bytes32",
          "name": "nextOtsHash",
          "type": "bytes32"
        }
      ],
      "name": "addOffer",
      "outputs": [
        {
          "internalType": "bool",
          "name": "",
          "type": "bool"
        }
      ],
      "stateMutability": "nonpayable",
      "type": "function"
    },
    {
      "inputs": [
        {
          "internalType": "string",
          "name": "id",
          "type": "string"
        },
        {
          "internalType": "address",
          "name": "smartMeterAddress",
          "type": "address"
        }
      ],
      "name": "removeOffer",
      "outputs": [
        {
          "internalType": "bool",
          "name": "",
          "type": "bool"
        }
      ],
      "stateMutability": "nonpayable",
      "type": "function"
    },
    {
      "inputs": [
        {
          "internalType": "string",
          "name": "id",
          "type": "string"
        },
        {
          "internalType": "string",
          "name": "buyerSignature",
          "type": "string"
        }
      ],
      "name": "buyOffer",
      "outputs": [],
      "stateMutability": "nonpayable",
      "type": "function"
    },
    {
      "inputs": [
        {
          "internalType": "string",
          "name": "id",
          "type": "string"
        }
      ],
      "name": "getOffer",
      "outputs": [
        {
          "components": [
            {
              "internalType": "string",
              "name": "id",
              "type": "string"
            },
            {
              "internalType": "uint256",
              "name": "price",
              "type": "uint256"
            },
            {
              "internalType": "uint256",
              "name": "amount",
              "type": "uint256"
            },
            {
              "internalType": "uint256",
              "name": "expiration",
              "type": "uint256"
            },
            {
              "internalType": "address",
              "name": "owner",
              "type": "address"
            },
            {
              "internalType": "address",
              "name": "smartMeterAddress",
              "type": "address"
            },
            {
              "internalType": "bool",
              "name": "active",
              "type": "bool"
            },
            {
              "internalType": "string",
              "name": "sellerSignature",
              "type": "string"
            },
            {
              "internalType": "uint256",
              "name": "nonce",
              "type": "uint256"
            }
          ],
          "internalType": "struct Market.Offer",
          "name": "",
          "type": "tuple"
        }
      ],
      "stateMutability": "view",
      "type": "function"
    },
    {
      "inputs": [],
      "name": "getOffers",
      "outputs": [
        {
          "components": [
            {
              "internalType": "string",
              "name": "id",
              "type": "string"
            },
            {
              "internalType": "uint256",
              "name": "price",
              "type": "uint256"
            },
            {
              "internalType": "uint256",
              "name": "amount",
              "type": "uint256"
            },
            {
              "internalType": "uint256",
              "name": "expiration",
              "type": "uint256"
            },
            {
              "internalType": "address",
              "name": "owner",
              "type": "address"
            },
            {
              "internalType": "address",
              "name": "smartMeterAddress",
              "type": "address"
            },
            {
              "internalType": "bool",
              "name": "active",
              "type": "bool"
            },
            {
              "internalType": "string",
              "name": "sellerSignature",
              "type": "string"
            },
            {
              "internalType": "uint256",
              "name": "nonce",
              "type": "uint256"
            }
          ],
          "internalType": "struct Market.Offer[]",
          "name": "",
          "type": "tuple[]"
        }
      ],
      "stateMutability": "view",
      "type": "function"
    },
    {
      "inputs": [],
      "name": "getOfferIDs",
      "outputs": [
        {
          "internalType": "string[]",
          "name": "",
          "type": "string[]"
        }
      ],
      "stateMutability": "view",
      "type": "function"
    },
    {
      "inputs": [],
      "name": "getPendingOffers",
      "outputs": [
        {
          "components": [
            {
              "internalType": "string",
              "name": "buyerSignature",
              "type": "string"
            },
            {
              "internalType": "string",
              "name": "sellerSignature",
              "type": "string"
            },
            {
              "internalType": "address",
              "name": "smartMeterAddress",
              "type": "address"
            },
            {
              "internalType": "uint256",
              "name": "amount",
              "type": "uint256"
            },
            {
              "internalType": "uint256",
              "name": "price",
              "type": "uint256"
            },
            {
              "internalType": "uint256",
              "name": "timestamp",
              "type": "uint256"
            },
            {
              "internalType": "uint256",
              "name": "nonce",
              "type": "uint256"
            }
          ],
          "internalType": "struct Market.PendingConfirmationOffer[]",
          "name": "",
          "type": "tuple[]"
        }
      ],
      "stateMutability": "view",
      "type": "function"
    },
    {
      "inputs": [
        {
          "internalType": "bool[]",
          "name": "offerIndicies",
          "type": "bool[]"
        }
      ],
      "name": "validatePendingOffers",
      "outputs": [],
      "stateMutability": "nonpayable",
      "type": "function"
    }
  ],
  "bytecode": "0x608060405263240c8400600255604051620040e9380380620040e98339818101604052810190620000319190620001a6565b336000806101000a81548173ffffffffffffffffffffffffffffffffffffffff021916908373ffffffffffffffffffffffffffffffffffffffff16021790555081600160006101000a81548173ffffffffffffffffffffffffffffffffffffffff021916908373ffffffffffffffffffffffffffffffffffffffff16021790555081600460006101000a81548173ffffffffffffffffffffffffffffffffffffffff021916908373ffffffffffffffffffffffffffffffffffffffff16021790555080600360006101000a81548173ffffffffffffffffffffffffffffffffffffffff021916908373ffffffffffffffffffffffffffffffffffffffff1602179055505050620001ed565b600080fd5b600073ffffffffffffffffffffffffffffffffffffffff82169050919050565b60006200016e8262000141565b9050919050565b620001808162000161565b81146200018c57600080fd5b50565b600081519050620001a08162000175565b92915050565b60008060408385031215620001c057620001bf6200013c565b5b6000620001d0858286016200018f565b9250506020620001e3858286016200018f565b9150509250929050565b613eec80620001fd6000396000f3fe608060405234801561001057600080fd5b50600436106100b45760003560e01c8063783be19811610071578063783be198146101a15780637a510116146101d7578063cdc2e6d714610207578063d5fd377614610223578063d6b85e8f1461025b578063f6a8019214610279576100b4565b80630753c9e3146100b9578063110b9d89146100d757806312538a3414610107578063197713bd146101235780633ee992ee1461015357806354e69aaa14610171575b600080fd5b6100c1610297565b6040516100ce91906125c4565b60405180910390f35b6100f160048036038101906100ec9190612626565b610498565b6040516100fe919061269d565b60405180910390f35b610121600480360381019061011c919061283f565b610544565b005b61013d60048036038101906101389190612a40565b6109a3565b60405161014a9190612b82565b60405180910390f35b61015b610eb1565b6040516101689190612d3a565b60405180910390f35b61018b60048036038101906101869190612d5c565b6111bf565b6040516101989190612b82565b60405180910390f35b6101bb60048036038101906101b69190612626565b6115e6565b6040516101ce9796959493929190612dd6565b60405180910390f35b6101f160048036038101906101ec9190612e53565b611768565b6040516101fe9190612f68565b60405180910390f35b610221600480360381019061021c9190612f8a565b6119b4565b005b61023d60048036038101906102389190612e53565b611fde565b60405161025299989796959493929190613002565b60405180910390f35b61026361219f565b604051610270919061309d565b60405180910390f35b6102816121c5565b60405161028e919061317a565b60405180910390f35b60606006805480602002602001604051908101604052809291908181526020016000905b8282101561048f57838290600052602060002090600702016040518060e00160405290816000820180546102ee906131cb565b80601f016020809104026020016040519081016040528092919081815260200182805461031a906131cb565b80156103675780601f1061033c57610100808354040283529160200191610367565b820191906000526020600020905b81548152906001019060200180831161034a57829003601f168201915b50505050508152602001600182018054610380906131cb565b80601f01602080910402602001604051908101604052809291908181526020018280546103ac906131cb565b80156103f95780601f106103ce576101008083540402835291602001916103f9565b820191906000526020600020905b8154815290600101906020018083116103dc57829003601f168201915b505050505081526020016002820160009054906101000a900473ffffffffffffffffffffffffffffffffffffffff1673ffffffffffffffffffffffffffffffffffffffff1673ffffffffffffffffffffffffffffffffffffffff168152602001600382015481526020016004820154815260200160058201548152602001600682015481525050815260200190600101906102bb565b50505050905090565b600781815481106104a857600080fd5b9060005260206000200160009150905080546104c3906131cb565b80601f01602080910402602001604051908101604052809291908181526020018280546104ef906131cb565b801561053c5780601f106105115761010080835404028352916020019161053c565b820191906000526020600020905b81548152906001019060200180831161051f57829003601f168201915b505050505081565b60008054906101000a900473ffffffffffffffffffffffffffffffffffffffff1673ffffffffffffffffffffffffffffffffffffffff163373ffffffffffffffffffffffffffffffffffffffff16146105d2576040517f08c379a00000000000000000000000000000000000000000000000000000000081526004016105c990613248565b60405180910390fd5b60005b81518110156108ed576000600682815481106105f4576105f3613268565b5b90600052602060002090600702016040518060e001604052908160008201805461061d906131cb565b80601f0160208091040260200160405190810160405280929190818152602001828054610649906131cb565b80156106965780601f1061066b57610100808354040283529160200191610696565b820191906000526020600020905b81548152906001019060200180831161067957829003601f168201915b505050505081526020016001820180546106af906131cb565b80601f01602080910402602001604051908101604052809291908181526020018280546106db906131cb565b80156107285780601f106106fd57610100808354040283529160200191610728565b820191906000526020600020905b81548152906001019060200180831161070b57829003601f168201915b505050505081526020016002820160009054906101000a900473ffffffffffffffffffffffffffffffffffffffff1673ffffffffffffffffffffffffffffffffffffffff1673ffffffffffffffffffffffffffffffffffffffff1681526020016003820154815260200160048201548152602001600582015481526020016006820154815250509050600115158383815181106107c8576107c7613268565b5b602002602001015115150361082f577fac6b62dd79b7acb29ba31fdbca961811a7a06fb0c878b878a58765ad13f0e2618160000151826020015183606001518460a001518560800151604051610822959493929190613297565b60405180910390a16108d9565b600360009054906101000a900473ffffffffffffffffffffffffffffffffffffffff1673ffffffffffffffffffffffffffffffffffffffff166324dee484826060015183604001516040518363ffffffff1660e01b81526004016108949291906132f8565b6020604051808303816000875af11580156108b3573d6000803e3d6000fd5b505050506040513d601f19601f820116820180604052508101906108d79190613336565b505b5080806108e590613392565b9150506105d5565b5060005b815181101561099f57600680548061090c5761090b6133da565b5b600190038181906000526020600020906007020160008082016000610931919061229e565b600182016000610941919061229e565b6002820160006101000a81549073ffffffffffffffffffffffffffffffffffffffff0219169055600382016000905560048201600090556005820160009055600682016000905550509055808061099790613392565b9150506108f1565b5050565b6000846000600960008381526020019081526020016000205490506103e8426109cc9190613409565b600280546109da9190613409565b826109e5919061344b565b1115610a26576040517f08c379a0000000000000000000000000000000000000000000000000000000008152600401610a1d906134cb565b60405180910390fd5b600160009054906101000a900473ffffffffffffffffffffffffffffffffffffffff1673ffffffffffffffffffffffffffffffffffffffff1663eb4e352d338b6040518363ffffffff1660e01b8152600401610a839291906134eb565b602060405180830381865afa158015610aa0573d6000803e3d6000fd5b505050506040513d601f19601f82011682018060405250810190610ac49190613336565b610b03576040517f08c379a0000000000000000000000000000000000000000000000000000000008152600401610afa90613586565b60405180910390fd5b896002546103e842610b159190613409565b610b1f919061344b565b11610b5f576040517f08c379a0000000000000000000000000000000000000000000000000000000008152600401610b56906135f2565b60405180910390fd5b3373ffffffffffffffffffffffffffffffffffffffff168673ffffffffffffffffffffffffffffffffffffffff1614610bcd576040517f08c379a0000000000000000000000000000000000000000000000000000000008152600401610bc49061365e565b60405180910390fd5b600360009054906101000a900473ffffffffffffffffffffffffffffffffffffffff1673ffffffffffffffffffffffffffffffffffffffff16635847ebed8d87878d6040518563ffffffff1660e01b8152600401610c2e94939291906136e2565b6020604051808303816000875af1158015610c4d573d6000803e3d6000fd5b505050506040513d601f19601f82011682018060405250810190610c719190613336565b610cb0576040517f08c379a0000000000000000000000000000000000000000000000000000000008152600401610ca79061377a565b60405180910390fd5b6103e842610cbe9190613409565b60096000898152602001908152602001600020819055506040518061012001604052808e81526020018c81526020018d81526020018b81526020013373ffffffffffffffffffffffffffffffffffffffff1681526020018a73ffffffffffffffffffffffffffffffffffffffff1681526020016001151581526020018981526020018881525060058e604051610d5491906137d6565b90815260200160405180910390206000820151816000019081610d779190613999565b5060208201518160010155604082015181600201556060820151816003015560808201518160040160006101000a81548173ffffffffffffffffffffffffffffffffffffffff021916908373ffffffffffffffffffffffffffffffffffffffff16021790555060a08201518160050160006101000a81548173ffffffffffffffffffffffffffffffffffffffff021916908373ffffffffffffffffffffffffffffffffffffffff16021790555060c08201518160050160146101000a81548160ff02191690831515021790555060e0820151816006019081610e599190613999565b50610100820151816007015590505060078d908060018154018082558091505060019003906000526020600020016000909190919091509081610e9c9190613999565b506001925050509a9950505050505050505050565b6060600060078054905067ffffffffffffffff811115610ed457610ed36126c4565b5b604051908082528060200260200182016040528015610f0d57816020015b610efa6122de565b815260200190600190039081610ef25790505b50905060005b6007805490508110156111b757600060078281548110610f3657610f35613268565b5b9060005260206000200190506000600582604051610f549190613b03565b908152602001604051809103902090508060405180610120016040529081600082018054610f81906131cb565b80601f0160208091040260200160405190810160405280929190818152602001828054610fad906131cb565b8015610ffa5780601f10610fcf57610100808354040283529160200191610ffa565b820191906000526020600020905b815481529060010190602001808311610fdd57829003601f168201915b505050505081526020016001820154815260200160028201548152602001600382015481526020016004820160009054906101000a900473ffffffffffffffffffffffffffffffffffffffff1673ffffffffffffffffffffffffffffffffffffffff1673ffffffffffffffffffffffffffffffffffffffff1681526020016005820160009054906101000a900473ffffffffffffffffffffffffffffffffffffffff1673ffffffffffffffffffffffffffffffffffffffff1673ffffffffffffffffffffffffffffffffffffffff1681526020016005820160149054906101000a900460ff161515151581526020016006820180546110f8906131cb565b80601f0160208091040260200160405190810160405280929190818152602001828054611124906131cb565b80156111715780601f1061114657610100808354040283529160200191611171565b820191906000526020600020905b81548152906001019060200180831161115457829003601f168201915b5050505050815260200160078201548152505084848151811061119757611196613268565b5b6020026020010181905250505080806111af90613392565b915050610f13565b508091505090565b6000806005846040516111d291906137d6565b9081526020016040518091039020604051806101200160405290816000820180546111fc906131cb565b80601f0160208091040260200160405190810160405280929190818152602001828054611228906131cb565b80156112755780601f1061124a57610100808354040283529160200191611275565b820191906000526020600020905b81548152906001019060200180831161125857829003601f168201915b505050505081526020016001820154815260200160028201548152602001600382015481526020016004820160009054906101000a900473ffffffffffffffffffffffffffffffffffffffff1673ffffffffffffffffffffffffffffffffffffffff1673ffffffffffffffffffffffffffffffffffffffff1681526020016005820160009054906101000a900473ffffffffffffffffffffffffffffffffffffffff1673ffffffffffffffffffffffffffffffffffffffff1673ffffffffffffffffffffffffffffffffffffffff1681526020016005820160149054906101000a900460ff16151515158152602001600682018054611373906131cb565b80601f016020809104026020016040519081016040528092919081815260200182805461139f906131cb565b80156113ec5780601f106113c1576101008083540402835291602001916113ec565b820191906000526020600020905b8154815290600101906020018083116113cf57829003601f168201915b505050505081526020016007820154815250509050806080015173ffffffffffffffffffffffffffffffffffffffff163373ffffffffffffffffffffffffffffffffffffffff1614611473576040517f08c379a000000000000000000000000000000000000000000000000000000000815260040161146a90613b66565b60405180910390fd5b600360009054906101000a900473ffffffffffffffffffffffffffffffffffffffff1673ffffffffffffffffffffffffffffffffffffffff166324dee4848260400151856040518363ffffffff1660e01b81526004016114d49291906132f8565b6020604051808303816000875af11580156114f3573d6000803e3d6000fd5b505050506040513d601f19601f820116820180604052508101906115179190613336565b5060058460405161152891906137d6565b908152602001604051809103902060008082016000611547919061229e565b6001820160009055600282016000905560038201600090556004820160006101000a81549073ffffffffffffffffffffffffffffffffffffffff02191690556005820160006101000a81549073ffffffffffffffffffffffffffffffffffffffff02191690556005820160146101000a81549060ff02191690556006820160006115d1919061229e565b60078201600090555050600191505092915050565b600681815481106115f657600080fd5b9060005260206000209060070201600091509050806000018054611619906131cb565b80601f0160208091040260200160405190810160405280929190818152602001828054611645906131cb565b80156116925780601f1061166757610100808354040283529160200191611692565b820191906000526020600020905b81548152906001019060200180831161167557829003601f168201915b5050505050908060010180546116a7906131cb565b80601f01602080910402602001604051908101604052809291908181526020018280546116d3906131cb565b80156117205780601f106116f557610100808354040283529160200191611720565b820191906000526020600020905b81548152906001019060200180831161170357829003601f168201915b5050505050908060020160009054906101000a900473ffffffffffffffffffffffffffffffffffffffff16908060030154908060040154908060050154908060060154905087565b6117706122de565b60058260405161178091906137d6565b9081526020016040518091039020604051806101200160405290816000820180546117aa906131cb565b80601f01602080910402602001604051908101604052809291908181526020018280546117d6906131cb565b80156118235780601f106117f857610100808354040283529160200191611823565b820191906000526020600020905b81548152906001019060200180831161180657829003601f168201915b505050505081526020016001820154815260200160028201548152602001600382015481526020016004820160009054906101000a900473ffffffffffffffffffffffffffffffffffffffff1673ffffffffffffffffffffffffffffffffffffffff1673ffffffffffffffffffffffffffffffffffffffff1681526020016005820160009054906101000a900473ffffffffffffffffffffffffffffffffffffffff1673ffffffffffffffffffffffffffffffffffffffff1673ffffffffffffffffffffffffffffffffffffffff1681526020016005820160149054906101000a900460ff16151515158152602001600682018054611921906131cb565b80601f016020809104026020016040519081016040528092919081815260200182805461194d906131cb565b801561199a5780601f1061196f5761010080835404028352916020019161199a565b820191906000526020600020905b81548152906001019060200180831161197d57829003601f168201915b505050505081526020016007820154815250509050919050565b60006005836040516119c691906137d6565b9081526020016040518091039020604051806101200160405290816000820180546119f0906131cb565b80601f0160208091040260200160405190810160405280929190818152602001828054611a1c906131cb565b8015611a695780601f10611a3e57610100808354040283529160200191611a69565b820191906000526020600020905b815481529060010190602001808311611a4c57829003601f168201915b505050505081526020016001820154815260200160028201548152602001600382015481526020016004820160009054906101000a900473ffffffffffffffffffffffffffffffffffffffff1673ffffffffffffffffffffffffffffffffffffffff1673ffffffffffffffffffffffffffffffffffffffff1681526020016005820160009054906101000a900473ffffffffffffffffffffffffffffffffffffffff1673ffffffffffffffffffffffffffffffffffffffff1673ffffffffffffffffffffffffffffffffffffffff1681526020016005820160149054906101000a900460ff16151515158152602001600682018054611b67906131cb565b80601f0160208091040260200160405190810160405280929190818152602001828054611b93906131cb565b8015611be05780601f10611bb557610100808354040283529160200191611be0565b820191906000526020600020905b815481529060010190602001808311611bc357829003601f168201915b505050505081526020016007820154815250509050828051906020012081600001518051906020012014611c49576040517f08c379a0000000000000000000000000000000000000000000000000000000008152600401611c4090613bd2565b60405180910390fd5b42816060015111611c8f576040517f08c379a0000000000000000000000000000000000000000000000000000000008152600401611c8690613c3e565b60405180910390fd5b806080015173ffffffffffffffffffffffffffffffffffffffff163373ffffffffffffffffffffffffffffffffffffffff1603611d01576040517f08c379a0000000000000000000000000000000000000000000000000000000008152600401611cf890613caa565b60405180910390fd5b600583604051611d1191906137d6565b908152602001604051809103902060008082016000611d30919061229e565b6001820160009055600282016000905560038201600090556004820160006101000a81549073ffffffffffffffffffffffffffffffffffffffff02191690556005820160006101000a81549073ffffffffffffffffffffffffffffffffffffffff02191690556005820160146101000a81549060ff0219169055600682016000611dba919061229e565b6007820160009055505060066040518060e001604052808481526020018360e0015181526020018360a0015173ffffffffffffffffffffffffffffffffffffffff168152602001836040015181526020018360200151815260200142815260200183610100015181525090806001815401808255809150506001900390600052602060002090600702016000909190919091506000820151816000019081611e629190613999565b506020820151816001019081611e789190613999565b5060408201518160020160006101000a81548173ffffffffffffffffffffffffffffffffffffffff021916908373ffffffffffffffffffffffffffffffffffffffff160217905550606082015181600301556080820151816004015560a0820151816005015560c08201518160060155505060005b600780549050811015611fd857838051906020012060078281548110611f1657611f15613268565b5b90600052602060002001604051611f2d9190613d6d565b604051809103902003611fc55760076001600780549050611f4e9190613d84565b81548110611f5f57611f5e613268565b5b9060005260206000200160078281548110611f7d57611f7c613268565b5b906000526020600020019081611f939190613dce565b506007805480611fa657611fa56133da565b5b600190038181906000526020600020016000611fc2919061229e565b90555b8080611fd090613392565b915050611eed565b50505050565b600581805160208101820180518482526020830160208501208183528095505050505050600091509050806000018054612017906131cb565b80601f0160208091040260200160405190810160405280929190818152602001828054612043906131cb565b80156120905780601f1061206557610100808354040283529160200191612090565b820191906000526020600020905b81548152906001019060200180831161207357829003601f168201915b5050505050908060010154908060020154908060030154908060040160009054906101000a900473ffffffffffffffffffffffffffffffffffffffff16908060050160009054906101000a900473ffffffffffffffffffffffffffffffffffffffff16908060050160149054906101000a900460ff1690806006018054612116906131cb565b80601f0160208091040260200160405190810160405280929190818152602001828054612142906131cb565b801561218f5780601f106121645761010080835404028352916020019161218f565b820191906000526020600020905b81548152906001019060200180831161217257829003601f168201915b5050505050908060070154905089565b600860009054906101000a900473ffffffffffffffffffffffffffffffffffffffff1681565b60606007805480602002602001604051908101604052809291908181526020016000905b82821015612295578382906000526020600020018054612208906131cb565b80601f0160208091040260200160405190810160405280929190818152602001828054612234906131cb565b80156122815780601f1061225657610100808354040283529160200191612281565b820191906000526020600020905b81548152906001019060200180831161226457829003601f168201915b5050505050815260200190600101906121e9565b50505050905090565b5080546122aa906131cb565b6000825580601f106122bc57506122db565b601f0160209004906000526020600020908101906122da9190612358565b5b50565b60405180610120016040528060608152602001600081526020016000815260200160008152602001600073ffffffffffffffffffffffffffffffffffffffff168152602001600073ffffffffffffffffffffffffffffffffffffffff16815260200160001515815260200160608152602001600081525090565b5b80821115612371576000816000905550600101612359565b5090565b600081519050919050565b600082825260208201905092915050565b6000819050602082019050919050565b600081519050919050565b600082825260208201905092915050565b60005b838110156123db5780820151818401526020810190506123c0565b60008484015250505050565b6000601f19601f8301169050919050565b6000612403826123a1565b61240d81856123ac565b935061241d8185602086016123bd565b612426816123e7565b840191505092915050565b600073ffffffffffffffffffffffffffffffffffffffff82169050919050565b600061245c82612431565b9050919050565b61246c81612451565b82525050565b6000819050919050565b61248581612472565b82525050565b600060e08301600083015184820360008601526124a882826123f8565b915050602083015184820360208601526124c282826123f8565b91505060408301516124d76040860182612463565b5060608301516124ea606086018261247c565b5060808301516124fd608086018261247c565b5060a083015161251060a086018261247c565b5060c083015161252360c086018261247c565b508091505092915050565b600061253a838361248b565b905092915050565b6000602082019050919050565b600061255a82612375565b6125648185612380565b93508360208202850161257685612391565b8060005b858110156125b25784840389528151612593858261252e565b945061259e83612542565b925060208a0199505060018101905061257a565b50829750879550505050505092915050565b600060208201905081810360008301526125de818461254f565b905092915050565b6000604051905090565b600080fd5b600080fd5b61260381612472565b811461260e57600080fd5b50565b600081359050612620816125fa565b92915050565b60006020828403121561263c5761263b6125f0565b5b600061264a84828501612611565b91505092915050565b600082825260208201905092915050565b600061266f826123a1565b6126798185612653565b93506126898185602086016123bd565b612692816123e7565b840191505092915050565b600060208201905081810360008301526126b78184612664565b905092915050565b600080fd5b7f4e487b7100000000000000000000000000000000000000000000000000000000600052604160045260246000fd5b6126fc826123e7565b810181811067ffffffffffffffff8211171561271b5761271a6126c4565b5b80604052505050565b600061272e6125e6565b905061273a82826126f3565b919050565b600067ffffffffffffffff82111561275a576127596126c4565b5b602082029050602081019050919050565b600080fd5b60008115159050919050565b61278581612770565b811461279057600080fd5b50565b6000813590506127a28161277c565b92915050565b60006127bb6127b68461273f565b612724565b905080838252602082019050602084028301858111156127de576127dd61276b565b5b835b8181101561280757806127f38882612793565b8452602084019350506020810190506127e0565b5050509392505050565b600082601f830112612826576128256126bf565b5b81356128368482602086016127a8565b91505092915050565b600060208284031215612855576128546125f0565b5b600082013567ffffffffffffffff811115612873576128726125f5565b5b61287f84828501612811565b91505092915050565b600080fd5b600067ffffffffffffffff8211156128a8576128a76126c4565b5b6128b1826123e7565b9050602081019050919050565b82818337600083830152505050565b60006128e06128db8461288d565b612724565b9050828152602081018484840111156128fc576128fb612888565b5b6129078482856128be565b509392505050565b600082601f830112612924576129236126bf565b5b81356129348482602086016128cd565b91505092915050565b61294681612451565b811461295157600080fd5b50565b6000813590506129638161293d565b92915050565b600067ffffffffffffffff821115612984576129836126c4565b5b61298d826123e7565b9050602081019050919050565b60006129ad6129a884612969565b612724565b9050828152602081018484840111156129c9576129c8612888565b5b6129d48482856128be565b509392505050565b600082601f8301126129f1576129f06126bf565b5b8135612a0184826020860161299a565b91505092915050565b6000819050919050565b612a1d81612a0a565b8114612a2857600080fd5b50565b600081359050612a3a81612a14565b92915050565b6000806000806000806000806000806101408b8d031215612a6457612a636125f0565b5b60008b013567ffffffffffffffff811115612a8257612a816125f5565b5b612a8e8d828e0161290f565b9a50506020612a9f8d828e01612611565b9950506040612ab08d828e01612611565b9850506060612ac18d828e01612611565b9750506080612ad28d828e01612954565b96505060a08b013567ffffffffffffffff811115612af357612af26125f5565b5b612aff8d828e0161290f565b95505060c0612b108d828e01612611565b94505060e0612b218d828e01612954565b9350506101008b013567ffffffffffffffff811115612b4357612b426125f5565b5b612b4f8d828e016129dc565b925050610120612b618d828e01612a2b565b9150509295989b9194979a5092959850565b612b7c81612770565b82525050565b6000602082019050612b976000830184612b73565b92915050565b600081519050919050565b600082825260208201905092915050565b6000819050602082019050919050565b612bd281612770565b82525050565b6000610120830160008301518482036000860152612bf682826123f8565b9150506020830151612c0b602086018261247c565b506040830151612c1e604086018261247c565b506060830151612c31606086018261247c565b506080830151612c446080860182612463565b5060a0830151612c5760a0860182612463565b5060c0830151612c6a60c0860182612bc9565b5060e083015184820360e0860152612c8282826123f8565b915050610100830151612c9961010086018261247c565b508091505092915050565b6000612cb08383612bd8565b905092915050565b6000602082019050919050565b6000612cd082612b9d565b612cda8185612ba8565b935083602082028501612cec85612bb9565b8060005b85811015612d285784840389528151612d098582612ca4565b9450612d1483612cb8565b925060208a01995050600181019050612cf0565b50829750879550505050505092915050565b60006020820190508181036000830152612d548184612cc5565b905092915050565b60008060408385031215612d7357612d726125f0565b5b600083013567ffffffffffffffff811115612d9157612d906125f5565b5b612d9d8582860161290f565b9250506020612dae85828601612954565b9150509250929050565b612dc181612451565b82525050565b612dd081612472565b82525050565b600060e0820190508181036000830152612df0818a612664565b90508181036020830152612e048189612664565b9050612e136040830188612db8565b612e206060830187612dc7565b612e2d6080830186612dc7565b612e3a60a0830185612dc7565b612e4760c0830184612dc7565b98975050505050505050565b600060208284031215612e6957612e686125f0565b5b600082013567ffffffffffffffff811115612e8757612e866125f5565b5b612e938482850161290f565b91505092915050565b6000610120830160008301518482036000860152612eba82826123f8565b9150506020830151612ecf602086018261247c565b506040830151612ee2604086018261247c565b506060830151612ef5606086018261247c565b506080830151612f086080860182612463565b5060a0830151612f1b60a0860182612463565b5060c0830151612f2e60c0860182612bc9565b5060e083015184820360e0860152612f4682826123f8565b915050610100830151612f5d61010086018261247c565b508091505092915050565b60006020820190508181036000830152612f828184612e9c565b905092915050565b60008060408385031215612fa157612fa06125f0565b5b600083013567ffffffffffffffff811115612fbf57612fbe6125f5565b5b612fcb8582860161290f565b925050602083013567ffffffffffffffff811115612fec57612feb6125f5565b5b612ff88582860161290f565b9150509250929050565b600061012082019050818103600083015261301d818c612664565b905061302c602083018b612dc7565b613039604083018a612dc7565b6130466060830189612dc7565b6130536080830188612db8565b61306060a0830187612db8565b61306d60c0830186612b73565b81810360e083015261307f8185612664565b905061308f610100830184612dc7565b9a9950505050505050505050565b60006020820190506130b26000830184612db8565b92915050565b600081519050919050565b600082825260208201905092915050565b6000819050602082019050919050565b60006130f083836123f8565b905092915050565b6000602082019050919050565b6000613110826130b8565b61311a81856130c3565b93508360208202850161312c856130d4565b8060005b85811015613168578484038952815161314985826130e4565b9450613154836130f8565b925060208a01995050600181019050613130565b50829750879550505050505092915050565b600060208201905081810360008301526131948184613105565b905092915050565b7f4e487b7100000000000000000000000000000000000000000000000000000000600052602260045260246000fd5b600060028204905060018216806131e357607f821691505b6020821081036131f6576131f561319c565b5b50919050565b7f73656e646572206973206e6f74206f776e657200000000000000000000000000600082015250565b6000613232601383612653565b915061323d826131fc565b602082019050919050565b6000602082019050818103600083015261326181613225565b9050919050565b7f4e487b7100000000000000000000000000000000000000000000000000000000600052603260045260246000fd5b600060a08201905081810360008301526132b18188612664565b905081810360208301526132c58187612664565b90506132d46040830186612dc7565b6132e16060830185612dc7565b6132ee6080830184612dc7565b9695505050505050565b600060408201905061330d6000830185612dc7565b61331a6020830184612db8565b9392505050565b6000815190506133308161277c565b92915050565b60006020828403121561334c5761334b6125f0565b5b600061335a84828501613321565b91505092915050565b7f4e487b7100000000000000000000000000000000000000000000000000000000600052601160045260246000fd5b600061339d82612472565b91507fffffffffffffffffffffffffffffffffffffffffffffffffffffffffffffffff82036133cf576133ce613363565b5b600182019050919050565b7f4e487b7100000000000000000000000000000000000000000000000000000000600052603160045260246000fd5b600061341482612472565b915061341f83612472565b925082820261342d81612472565b9150828204841483151761344457613443613363565b5b5092915050565b600061345682612472565b915061346183612472565b925082820190508082111561347957613478613363565b5b92915050565b7f4e6f6e636520776173207573656420726563656e746c79000000000000000000600082015250565b60006134b5601783612653565b91506134c08261347f565b602082019050919050565b600060208201905081810360008301526134e4816134a8565b9050919050565b60006040820190506135006000830185612db8565b61350d6020830184612db8565b9392505050565b7f536d617274204d65746572206e6f74207265676973746572656420627920436160008201527f626c6520436f6d70616e79000000000000000000000000000000000000000000602082015250565b6000613570602b83612653565b915061357b82613514565b604082019050919050565b6000602082019050818103600083015261359f81613563565b9050919050565b7f4f6666657273206c6966657370616e20697320746f6f206c6f6e670000000000600082015250565b60006135dc601b83612653565b91506135e7826135a6565b602082019050919050565b6000602082019050818103600083015261360b816135cf565b9050919050565b7f4f6e6c79206f776e65722063616e20616464206f666665720000000000000000600082015250565b6000613648601883612653565b915061365382613612565b602082019050919050565b600060208201905081810360008301526136778161363b565b9050919050565b600081519050919050565b600082825260208201905092915050565b60006136a58261367e565b6136af8185613689565b93506136bf8185602086016123bd565b6136c8816123e7565b840191505092915050565b6136dc81612a0a565b82525050565b60006080820190506136f76000830187612dc7565b8181036020830152613709818661369a565b905061371860408301856136d3565b6137256060830184612db8565b95945050505050565b7f4e6f7420656e6f7567682073746f72656420656e657267790000000000000000600082015250565b6000613764601883612653565b915061376f8261372e565b602082019050919050565b6000602082019050818103600083015261379381613757565b9050919050565b600081905092915050565b60006137b0826123a1565b6137ba818561379a565b93506137ca8185602086016123bd565b80840191505092915050565b60006137e282846137a5565b915081905092915050565b60008190508160005260206000209050919050565b60006020601f8301049050919050565b600082821b905092915050565b60006008830261384f7fffffffffffffffffffffffffffffffffffffffffffffffffffffffffffffffff82613812565b6138598683613812565b95508019841693508086168417925050509392505050565b6000819050919050565b600061389661389161388c84612472565b613871565b612472565b9050919050565b6000819050919050565b6138b08361387b565b6138c46138bc8261389d565b84845461381f565b825550505050565b600090565b6138d96138cc565b6138e48184846138a7565b505050565b5b81811015613908576138fd6000826138d1565b6001810190506138ea565b5050565b601f82111561394d5761391e816137ed565b61392784613802565b81016020851015613936578190505b61394a61394285613802565b8301826138e9565b50505b505050565b600082821c905092915050565b600061397060001984600802613952565b1980831691505092915050565b6000613989838361395f565b9150826002028217905092915050565b6139a2826123a1565b67ffffffffffffffff8111156139bb576139ba6126c4565b5b6139c582546131cb565b6139d082828561390c565b600060209050601f831160018114613a0357600084156139f1578287015190505b6139fb858261397d565b865550613a63565b601f198416613a11866137ed565b60005b82811015613a3957848901518255600182019150602085019450602081019050613a14565b86831015613a565784890151613a52601f89168261395f565b8355505b6001600288020188555050505b505050505050565b60008190508160005260206000209050919050565b60008154613a8d816131cb565b613a97818661379a565b94506001821660008114613ab25760018114613ac757613afa565b60ff1983168652811515820286019350613afa565b613ad085613a6b565b60005b83811015613af257815481890152600182019150602081019050613ad3565b838801955050505b50505092915050565b6000613b0f8284613a80565b915081905092915050565b7f4f6e6c79206f776e65722063616e2072656d6f7665206f666665720000000000600082015250565b6000613b50601b83612653565b9150613b5b82613b1a565b602082019050919050565b60006020820190508181036000830152613b7f81613b43565b9050919050565b7f4e6f206f6666657220666f756e64000000000000000000000000000000000000600082015250565b6000613bbc600e83612653565b9150613bc782613b86565b602082019050919050565b60006020820190508181036000830152613beb81613baf565b9050919050565b7f43616e6e6f74206275792065787069726564206f666665720000000000000000600082015250565b6000613c28601883612653565b9150613c3382613bf2565b602082019050919050565b60006020820190508181036000830152613c5781613c1b565b9050919050565b7f4f776e65722063616e6e6f7420627579206f776e206f66666572000000000000600082015250565b6000613c94601a83612653565b9150613c9f82613c5e565b602082019050919050565b60006020820190508181036000830152613cc381613c87565b9050919050565b600081905092915050565b60008190508160005260206000209050919050565b60008154613cf7816131cb565b613d018186613cca565b94506001821660008114613d1c5760018114613d3157613d64565b60ff1983168652811515820286019350613d64565b613d3a85613cd5565b60005b83811015613d5c57815481890152600182019150602081019050613d3d565b838801955050505b50505092915050565b6000613d798284613cea565b915081905092915050565b6000613d8f82612472565b9150613d9a83612472565b9250828203905081811115613db257613db1613363565b5b92915050565b600081549050613dc7816131cb565b9050919050565b818103613ddc575050613eb4565b613de582613db8565b67ffffffffffffffff811115613dfe57613dfd6126c4565b5b613e0882546131cb565b613e1382828561390c565b6000601f831160018114613e425760008415613e30578287015490505b613e3a858261397d565b865550613ead565b601f198416613e5087613a6b565b9650613e5b866137ed565b60005b82811015613e8357848901548255600182019150600185019450602081019050613e5e565b86831015613ea05784890154613e9c601f89168261395f565b8355505b6001600288020188555050505b5050505050505b56fea26469706673582212209125d7333b4e56878cd7d99701af6a86124dcd66e2b8af0e83cbab2149cc435c64736f6c63430008130033",
  "immutableReferences": {},
  "source": "// SPDX-License-Identifier: GPL-3.0\n// pragma experimental ABIEncoderV2;\npragma solidity ^0.8.9;\n\ninterface ICableCompany {\n    function registerKey(\n        address smartMeterPubKey,\n        address smartMeterAddress\n    ) external;\n\n    function isRegisteredKey(\n        address smartMeterPubKey,\n        address smartMeterAddress\n    ) external view returns (bool);\n\n    function removeRegisteredKey(address smartMeterPubKey) external;\n}\n\ninterface ISmartMeter {\n    function returnReservedBatteryCharge(\n        uint amount,\n        address smartMeterInstance\n    ) external returns (bool);\n\n    function subtractBatteryCharge(\n        uint amount,\n        bytes memory ots,\n        bytes32 nextOtsHash,\n        address smartMeterInstance\n    ) external returns (bool);\n}\n\ncontract Market {\n    address owner;\n    ICableCompany cableCompany; // Maybe change the name of CableCompany to something else, like DSO\n    uint maxOfferLivespan = 1000 * 60 * 60 * 24 * 7;\n    ISmartMeter smartMeter;\n    address cableCompanyAddress;\n\n    struct Offer {\n        string id;\n        uint price;\n        uint amount;\n        uint expiration;\n        address owner;\n        address smartMeterAddress;\n        bool active;\n        string sellerSignature;\n        uint nonce;\n    }\n\n    struct PendingConfirmationOffer {\n        string buyerSignature;\n        string sellerSignature;\n        address smartMeterAddress;\n        uint amount; // Wh\n        uint price; // Euro cents\n        uint timestamp; // Unix\n        uint nonce;\n    }\n\n    mapping(string => Offer) public offers;\n    PendingConfirmationOffer[] public pendingConfirmationOffers;\n\n    string[] public offerIds;\n    address public lastestSupplyChainAddress;\n\n    // mapping is nonce to the timestamp it was used at.\n    mapping(uint => uint) private usedNonces;\n\n    modifier nonceGuard(uint nonce) {\n        uint timestamp = usedNonces[nonce];\n        // nonce was used within the last two weeks.\n        if (timestamp + maxOfferLivespan * 2 > block.timestamp * 1000) {\n            revert(\"Nonce was used recently\");\n        }\n        _;\n    }\n\n    constructor(\n        address _cableCompanyAddress,\n        address smartMeterContract\n    ) payable {\n        owner = msg.sender;\n        cableCompany = ICableCompany(_cableCompanyAddress);\n        cableCompanyAddress = _cableCompanyAddress;\n        smartMeter = ISmartMeter(smartMeterContract);\n    }\n\n    function addOffer(\n        string memory id,\n        uint amount,\n        uint price,\n        uint expiration,\n        address smartMeterAddress,\n        string memory sellerSignature,\n        uint nonce,\n        address sellerAddress,\n        bytes memory ots,\n        bytes32 nextOtsHash\n    ) public nonceGuard(nonce) returns (bool) {\n        // Require conditions\n        require(\n            cableCompany.isRegisteredKey(msg.sender, smartMeterAddress),\n            \"Smart Meter not registered by Cable Company\"\n        );\n        require(\n            block.timestamp * 1000 + maxOfferLivespan > expiration,\n            \"Offers lifespan is too long\"\n        );\n        require(sellerAddress == msg.sender, \"Only owner can add offer\");\n\n        require(\n            smartMeter.subtractBatteryCharge(\n                amount,\n                ots,\n                nextOtsHash,\n                smartMeterAddress\n            ),\n            \"Not enough stored energy\"\n        );\n\n        // Adding offer\n        usedNonces[nonce] = block.timestamp * 1000;\n        offers[id] = Offer({\n            id: id,\n            amount: amount,\n            price: price,\n            expiration: expiration,\n            owner: msg.sender,\n            smartMeterAddress: smartMeterAddress,\n            active: true,\n            sellerSignature: sellerSignature,\n            nonce: nonce\n        });\n        offerIds.push(id);\n\n        return true;\n    }\n\n    function removeOffer(\n        string memory id,\n        address smartMeterAddress\n    ) public returns (bool) {\n        // Initialization\n        Offer memory offer = offers[id];\n\n        // Require conditions\n        require(msg.sender == offer.owner, \"Only owner can remove offer\");\n\n        // Removing offer\n        smartMeter.returnReservedBatteryCharge(offer.amount, smartMeterAddress);\n        delete offers[id];\n\n        return true;\n    }\n\n    function buyOffer(string memory id, string memory buyerSignature) public {\n        // Initialization\n        Offer memory offer = offers[id];\n\n        // Require conditions\n        require(\n            keccak256(bytes(offer.id)) == keccak256(bytes(id)),\n            \"No offer found\"\n        );\n        require(offer.expiration > block.timestamp, \"Cannot buy expired offer\");\n        require(msg.sender != offer.owner, \"Owner cannot buy own offer\");\n\n        // Buying offer and creating SupplyContract\n\n        delete offers[id];\n\n        pendingConfirmationOffers.push(\n            PendingConfirmationOffer({\n                buyerSignature: buyerSignature,\n                sellerSignature: offer.sellerSignature,\n                amount: offer.amount,\n                price: offer.price,\n                timestamp: block.timestamp,\n                nonce: offer.nonce,\n                smartMeterAddress: offer.smartMeterAddress\n            })\n        );\n\n        for (uint i = 0; i < offerIds.length; i++) {\n            // String comparison to remove purchased offer\n            if (keccak256(bytes(offerIds[i])) == keccak256(bytes(id))) {\n                offerIds[i] = offerIds[offerIds.length - 1];\n                offerIds.pop();\n            }\n        }\n    }\n\n    function getOffer(string memory id) public view returns (Offer memory) {\n        return offers[id];\n    }\n\n    function getOffers() public view returns (Offer[] memory) {\n        Offer[] memory offersReturn = new Offer[](offerIds.length);\n        for (uint i = 0; i < offerIds.length; i++) {\n            string storage offerId = offerIds[i];\n            Offer storage offer = offers[offerId];\n\n            offersReturn[i] = offer;\n        }\n        return offersReturn;\n    }\n\n    function getOfferIDs() public view returns (string[] memory) {\n        return offerIds;\n    }\n\n    function getPendingOffers()\n        public\n        view\n        returns (PendingConfirmationOffer[] memory)\n    {\n        return pendingConfirmationOffers;\n    }\n\n    event ApproveOffer(\n        string buyerSignature,\n        string sellerSignature,\n        uint amount,\n        uint timestamp,\n        uint price\n    );\n\n\n    function validatePendingOffers(\n        bool[] memory offerIndicies\n    ) public {\n        require(msg.sender == owner, \"sender is not owner\");\n        for (uint i = 0; i < offerIndicies.length; i++) {\n            PendingConfirmationOffer memory offer = pendingConfirmationOffers[\n                i\n            ];\n            //if it's an accepted index we emit our event\n            if (offerIndicies[i] == true) {\n                emit ApproveOffer(\n                    offer.buyerSignature,\n                    offer.sellerSignature,\n                    offer.amount,\n                    offer.timestamp,\n                    offer.price\n                );\n            } else {\n                // if not the owner gets their battery back.\n                smartMeter.returnReservedBatteryCharge(\n                    offer.amount,\n                    offer.smartMeterAddress\n                );\n            }\n        }\n        // we loop agian to clean up the list\n        for (uint i = 0; i < offerIndicies.length; i++) {\n            // We move the indicies not yet approved down.\n            // if (offerIndicies.length < pendingConfirmationOffers.length - i) {\n            //     pendingConfirmationOffers[i] = pendingConfirmationOffers[\n            //         pendingConfirmationOffers.length - 1 - i\n            //     ];\n            // }\n            // And lastly we pop everytime.\n            pendingConfirmationOffers.pop();\n        } \n    }\n}\n",
  "sourcePath": "/home/nobert/speciale/blockchain/contracts/Market.sol",
  "compiler": {
    "name": "solc",
    "version": "0.8.19+commit.7dd6d404.Emscripten.clang"
  },
  "schemaVersion": "3.4.16",
  "updatedAt": "2024-01-16T13:43:26.245Z",
  "networkType": "ethereum",
  "devdoc": {
    "kind": "dev",
    "methods": {},
    "version": 1
  },
  "userdoc": {
    "kind": "user",
    "methods": {},
    "version": 1
  }
}