{
  "contractName": "Market",
  "abi": [
    {
      "inputs": [
        {
          "internalType": "address",
          "name": "_cableCompanyAddress",
          "type": "address"
        }
      ],
      "stateMutability": "payable",
      "type": "constructor"
    },
    {
      "inputs": [],
      "name": "lastestSupplyChainAddress",
      "outputs": [
        {
          "internalType": "address",
          "name": "",
          "type": "address"
        }
      ],
      "stateMutability": "view",
      "type": "function"
    },
    {
      "inputs": [
        {
          "internalType": "uint256",
          "name": "",
          "type": "uint256"
        }
      ],
      "name": "offerIds",
      "outputs": [
        {
          "internalType": "string",
          "name": "",
          "type": "string"
        }
      ],
      "stateMutability": "view",
      "type": "function"
    },
    {
      "inputs": [
        {
          "internalType": "string",
          "name": "id",
          "type": "string"
        },
        {
          "internalType": "uint256",
          "name": "amount",
          "type": "uint256"
        },
        {
          "internalType": "uint256",
          "name": "price",
          "type": "uint256"
        },
        {
          "internalType": "uint256",
          "name": "expiration",
          "type": "uint256"
        },
        {
          "internalType": "address",
          "name": "smartMeterAddress",
          "type": "address"
        },
        {
          "internalType": "string",
          "name": "sellerSignature",
          "type": "string"
        },
        {
          "internalType": "uint256",
          "name": "nonce",
          "type": "uint256"
        },
        {
          "internalType": "address",
          "name": "sellerAddress",
          "type": "address"
        },
        {
          "internalType": "bytes",
          "name": "ots",
          "type": "bytes"
        },
        {
          "internalType": "bytes32",
          "name": "nextOtsHash",
          "type": "bytes32"
        }
      ],
      "name": "addOffer",
      "outputs": [
        {
          "internalType": "bool",
          "name": "",
          "type": "bool"
        }
      ],
      "stateMutability": "nonpayable",
      "type": "function"
    },
    {
      "inputs": [
        {
          "internalType": "string",
          "name": "id",
          "type": "string"
        },
        {
          "internalType": "address",
          "name": "smartMeterAddress",
          "type": "address"
        }
      ],
      "name": "removeOffer",
      "outputs": [
        {
          "internalType": "bool",
          "name": "",
          "type": "bool"
        }
      ],
      "stateMutability": "nonpayable",
      "type": "function"
    },
    {
      "inputs": [
        {
          "internalType": "string",
          "name": "id",
          "type": "string"
        },
        {
          "internalType": "string",
          "name": "buyerSignature",
          "type": "string"
        }
      ],
      "name": "buyOffer",
      "outputs": [
        {
          "internalType": "address",
          "name": "",
          "type": "address"
        }
      ],
      "stateMutability": "nonpayable",
      "type": "function"
    },
    {
      "inputs": [
        {
          "internalType": "string",
          "name": "id",
          "type": "string"
        }
      ],
      "name": "getOffer",
      "outputs": [
        {
          "components": [
            {
              "internalType": "string",
              "name": "id",
              "type": "string"
            },
            {
              "internalType": "uint256",
              "name": "price",
              "type": "uint256"
            },
            {
              "internalType": "uint256",
              "name": "amount",
              "type": "uint256"
            },
            {
              "internalType": "uint256",
              "name": "expiration",
              "type": "uint256"
            },
            {
              "internalType": "address",
              "name": "owner",
              "type": "address"
            },
            {
              "internalType": "address",
              "name": "smartMeterAddress",
              "type": "address"
            },
            {
              "internalType": "bool",
              "name": "active",
              "type": "bool"
            },
            {
              "internalType": "string",
              "name": "sellerSignature",
              "type": "string"
            },
            {
              "internalType": "uint256",
              "name": "nonce",
              "type": "uint256"
            }
          ],
          "internalType": "struct Market.Offer",
          "name": "",
          "type": "tuple"
        }
      ],
      "stateMutability": "view",
      "type": "function"
    },
    {
      "inputs": [],
      "name": "getOffers",
      "outputs": [
        {
          "components": [
            {
              "internalType": "string",
              "name": "id",
              "type": "string"
            },
            {
              "internalType": "uint256",
              "name": "price",
              "type": "uint256"
            },
            {
              "internalType": "uint256",
              "name": "amount",
              "type": "uint256"
            },
            {
              "internalType": "uint256",
              "name": "expiration",
              "type": "uint256"
            },
            {
              "internalType": "address",
              "name": "owner",
              "type": "address"
            },
            {
              "internalType": "address",
              "name": "smartMeterAddress",
              "type": "address"
            },
            {
              "internalType": "bool",
              "name": "active",
              "type": "bool"
            },
            {
              "internalType": "string",
              "name": "sellerSignature",
              "type": "string"
            },
            {
              "internalType": "uint256",
              "name": "nonce",
              "type": "uint256"
            }
          ],
          "internalType": "struct Market.Offer[]",
          "name": "",
          "type": "tuple[]"
        }
      ],
      "stateMutability": "view",
      "type": "function"
    },
    {
      "inputs": [],
      "name": "getOfferIDs",
      "outputs": [
        {
          "internalType": "string[]",
          "name": "",
          "type": "string[]"
        }
      ],
      "stateMutability": "view",
      "type": "function"
    },
    {
      "inputs": [],
      "name": "getLatestSupplyContract",
      "outputs": [
        {
          "internalType": "address",
          "name": "",
          "type": "address"
        }
      ],
      "stateMutability": "view",
      "type": "function"
    },
    {
      "inputs": [],
      "name": "getPendingOffers",
      "outputs": [
        {
          "internalType": "address",
          "name": "",
          "type": "address"
        }
      ],
      "stateMutability": "view",
      "type": "function"
    }
  ],
  "bytecode": "0x608060405263240c84006002556040516200424038038062004240833981810160405281019062000031919062000123565b336000806101000a81548173ffffffffffffffffffffffffffffffffffffffff021916908373ffffffffffffffffffffffffffffffffffffffff16021790555080600160006101000a81548173ffffffffffffffffffffffffffffffffffffffff021916908373ffffffffffffffffffffffffffffffffffffffff1602179055505062000155565b600080fd5b600073ffffffffffffffffffffffffffffffffffffffff82169050919050565b6000620000eb82620000be565b9050919050565b620000fd81620000de565b81146200010957600080fd5b50565b6000815190506200011d81620000f2565b92915050565b6000602082840312156200013c576200013b620000b9565b5b60006200014c848285016200010c565b91505092915050565b6140db80620001656000396000f3fe60806040523480156200001157600080fd5b5060043610620000ac5760003560e01c80637a510116116200006f5780637a5101161462000197578063a81333c414620001cd578063cdc2e6d714620001ef578063d6b85e8f1462000225578063f6a80192146200024757620000ac565b80630753c9e314620000b1578063110b9d8914620000d3578063197713bd14620001095780633ee992ee146200013f57806354e69aaa1462000161575b600080fd5b620000bb62000269565b604051620000ca919062001a84565b60405180910390f35b620000f16004803603810190620000eb919062001af0565b62000293565b60405162000100919062001bbc565b60405180910390f35b62000127600480360381019062000121919062001e51565b62000348565b60405162000136919062001fc1565b60405180910390f35b6200014962000865565b60405162000158919062002211565b60405180910390f35b6200017f600480360381019062000179919062002235565b62000b96565b6040516200018e919062001fc1565b60405180910390f35b620001b56004803603810190620001af91906200229b565b62000fbf565b604051620001c49190620023ca565b60405180910390f35b620001d76200121f565b604051620001e6919062001a84565b60405180910390f35b6200020d6004803603810190620002079190620023ee565b62001249565b6040516200021c919062001a84565b60405180910390f35b6200022f62001849565b6040516200023e919062001a84565b60405180910390f35b620002516200186f565b60405162000260919062002543565b60405180910390f35b6000600660009054906101000a900473ffffffffffffffffffffffffffffffffffffffff16905090565b60058181548110620002a457600080fd5b906000526020600020016000915090508054620002c19062002596565b80601f0160208091040260200160405190810160405280929190818152602001828054620002ef9062002596565b8015620003405780601f10620003145761010080835404028352916020019162000340565b820191906000526020600020905b8154815290600101906020018083116200032257829003601f168201915b505050505081565b6000846000600760008381526020019081526020016000205490506103e842620003739190620025fa565b60028054620003839190620025fa565b8262000390919062002645565b1115620003d4576040517f08c379a0000000000000000000000000000000000000000000000000000000008152600401620003cb90620026d0565b60405180910390fd5b600160009054906101000a900473ffffffffffffffffffffffffffffffffffffffff1673ffffffffffffffffffffffffffffffffffffffff1663eb4e352d338b6040518363ffffffff1660e01b815260040162000433929190620026f2565b602060405180830381865afa15801562000451573d6000803e3d6000fd5b505050506040513d601f19601f8201168201806040525081019062000477919062002750565b620004b9576040517f08c379a0000000000000000000000000000000000000000000000000000000008152600401620004b090620027f8565b60405180910390fd5b896002546103e842620004cd9190620025fa565b620004d9919062002645565b116200051c576040517f08c379a000000000000000000000000000000000000000000000000000000000815260040162000513906200286a565b60405180910390fd5b3373ffffffffffffffffffffffffffffffffffffffff168673ffffffffffffffffffffffffffffffffffffffff16146200058d576040517f08c379a00000000000000000000000000000000000000000000000000000000081526004016200058490620028dc565b60405180910390fd5b60008990508073ffffffffffffffffffffffffffffffffffffffff1663eb2e3b568e88886040518463ffffffff1660e01b8152600401620005d1939291906200297d565b6020604051808303816000875af1158015620005f1573d6000803e3d6000fd5b505050506040513d601f19601f8201168201806040525081019062000617919062002750565b62000659576040517f08c379a0000000000000000000000000000000000000000000000000000000008152600401620006509062002a11565b60405180910390fd5b6103e842620006699190620025fa565b600760008a8152602001908152602001600020819055506040518061012001604052808f81526020018d81526020018e81526020018c81526020013373ffffffffffffffffffffffffffffffffffffffff1681526020018b73ffffffffffffffffffffffffffffffffffffffff1681526020016001151581526020018a81526020018981525060038f60405162000701919062002a75565b9081526020016040518091039020600082015181600001908162000726919062002c60565b5060208201518160010155604082015181600201556060820151816003015560808201518160040160006101000a81548173ffffffffffffffffffffffffffffffffffffffff021916908373ffffffffffffffffffffffffffffffffffffffff16021790555060a08201518160050160006101000a81548173ffffffffffffffffffffffffffffffffffffffff021916908373ffffffffffffffffffffffffffffffffffffffff16021790555060c08201518160050160146101000a81548160ff02191690831515021790555060e08201518160060190816200080a919062002c60565b50610100820151816007015590505060058e9080600181540180825580915050600190039060005260206000200160009091909190915090816200084f919062002c60565b50600193505050509a9950505050505050505050565b6060600060058054905067ffffffffffffffff8111156200088b576200088a62001bea565b5b604051908082528060200260200182016040528015620008c857816020015b620008b462001952565b815260200190600190039081620008aa5790505b50905060005b60058054905081101562000b8e57600060058281548110620008f557620008f462002d47565b5b906000526020600020019050600060038260405162000915919062002e1a565b908152602001604051809103902090508060405180610120016040529081600082018054620009449062002596565b80601f0160208091040260200160405190810160405280929190818152602001828054620009729062002596565b8015620009c35780601f106200099757610100808354040283529160200191620009c3565b820191906000526020600020905b815481529060010190602001808311620009a557829003601f168201915b505050505081526020016001820154815260200160028201548152602001600382015481526020016004820160009054906101000a900473ffffffffffffffffffffffffffffffffffffffff1673ffffffffffffffffffffffffffffffffffffffff1673ffffffffffffffffffffffffffffffffffffffff1681526020016005820160009054906101000a900473ffffffffffffffffffffffffffffffffffffffff1673ffffffffffffffffffffffffffffffffffffffff1673ffffffffffffffffffffffffffffffffffffffff1681526020016005820160149054906101000a900460ff1615151515815260200160068201805462000ac39062002596565b80601f016020809104026020016040519081016040528092919081815260200182805462000af19062002596565b801562000b425780601f1062000b165761010080835404028352916020019162000b42565b820191906000526020600020905b81548152906001019060200180831162000b2457829003601f168201915b5050505050815260200160078201548152505084848151811062000b6b5762000b6a62002d47565b5b60200260200101819052505050808062000b859062002e33565b915050620008ce565b508091505090565b60008060038460405162000bab919062002a75565b90815260200160405180910390206040518061012001604052908160008201805462000bd79062002596565b80601f016020809104026020016040519081016040528092919081815260200182805462000c059062002596565b801562000c565780601f1062000c2a5761010080835404028352916020019162000c56565b820191906000526020600020905b81548152906001019060200180831162000c3857829003601f168201915b505050505081526020016001820154815260200160028201548152602001600382015481526020016004820160009054906101000a900473ffffffffffffffffffffffffffffffffffffffff1673ffffffffffffffffffffffffffffffffffffffff1673ffffffffffffffffffffffffffffffffffffffff1681526020016005820160009054906101000a900473ffffffffffffffffffffffffffffffffffffffff1673ffffffffffffffffffffffffffffffffffffffff1673ffffffffffffffffffffffffffffffffffffffff1681526020016005820160149054906101000a900460ff1615151515815260200160068201805462000d569062002596565b80601f016020809104026020016040519081016040528092919081815260200182805462000d849062002596565b801562000dd55780601f1062000da95761010080835404028352916020019162000dd5565b820191906000526020600020905b81548152906001019060200180831162000db757829003601f168201915b5050505050815260200160078201548152505090506000839050816080015173ffffffffffffffffffffffffffffffffffffffff163373ffffffffffffffffffffffffffffffffffffffff161462000e64576040517f08c379a000000000000000000000000000000000000000000000000000000000815260040162000e5b9062002ed0565b60405180910390fd5b8073ffffffffffffffffffffffffffffffffffffffff1663997d182683604001516040518263ffffffff1660e01b815260040162000ea3919062002ef2565b6020604051808303816000875af115801562000ec3573d6000803e3d6000fd5b505050506040513d601f19601f8201168201806040525081019062000ee9919062002750565b5060038560405162000efc919062002a75565b90815260200160405180910390206000808201600062000f1d9190620019cc565b6001820160009055600282016000905560038201600090556004820160006101000a81549073ffffffffffffffffffffffffffffffffffffffff02191690556005820160006101000a81549073ffffffffffffffffffffffffffffffffffffffff02191690556005820160146101000a81549060ff021916905560068201600062000fa99190620019cc565b6007820160009055505060019250505092915050565b62000fc962001952565b60038260405162000fdb919062002a75565b908152602001604051809103902060405180610120016040529081600082018054620010079062002596565b80601f0160208091040260200160405190810160405280929190818152602001828054620010359062002596565b8015620010865780601f106200105a5761010080835404028352916020019162001086565b820191906000526020600020905b8154815290600101906020018083116200106857829003601f168201915b505050505081526020016001820154815260200160028201548152602001600382015481526020016004820160009054906101000a900473ffffffffffffffffffffffffffffffffffffffff1673ffffffffffffffffffffffffffffffffffffffff1673ffffffffffffffffffffffffffffffffffffffff1681526020016005820160009054906101000a900473ffffffffffffffffffffffffffffffffffffffff1673ffffffffffffffffffffffffffffffffffffffff1673ffffffffffffffffffffffffffffffffffffffff1681526020016005820160149054906101000a900460ff16151515158152602001600682018054620011869062002596565b80601f0160208091040260200160405190810160405280929190818152602001828054620011b49062002596565b8015620012055780601f10620011d95761010080835404028352916020019162001205565b820191906000526020600020905b815481529060010190602001808311620011e757829003601f168201915b505050505081526020016007820154815250509050919050565b6000600660009054906101000a900473ffffffffffffffffffffffffffffffffffffffff16905090565b6000806003846040516200125e919062002a75565b9081526020016040518091039020604051806101200160405290816000820180546200128a9062002596565b80601f0160208091040260200160405190810160405280929190818152602001828054620012b89062002596565b8015620013095780601f10620012dd5761010080835404028352916020019162001309565b820191906000526020600020905b815481529060010190602001808311620012eb57829003601f168201915b505050505081526020016001820154815260200160028201548152602001600382015481526020016004820160009054906101000a900473ffffffffffffffffffffffffffffffffffffffff1673ffffffffffffffffffffffffffffffffffffffff1673ffffffffffffffffffffffffffffffffffffffff1681526020016005820160009054906101000a900473ffffffffffffffffffffffffffffffffffffffff1673ffffffffffffffffffffffffffffffffffffffff1673ffffffffffffffffffffffffffffffffffffffff1681526020016005820160149054906101000a900460ff16151515158152602001600682018054620014099062002596565b80601f0160208091040260200160405190810160405280929190818152602001828054620014379062002596565b8015620014885780601f106200145c5761010080835404028352916020019162001488565b820191906000526020600020905b8154815290600101906020018083116200146a57829003601f168201915b505050505081526020016007820154815250509050838051906020012081600001518051906020012014620014f4576040517f08c379a0000000000000000000000000000000000000000000000000000000008152600401620014eb9062002f5f565b60405180910390fd5b60008160e0015190506000826080015190506000836040015190506000846020015190506000856060015190506000866101000151905042821162001570576040517f08c379a0000000000000000000000000000000000000000000000000000000008152600401620015679062002fd1565b60405180910390fd5b8473ffffffffffffffffffffffffffffffffffffffff163373ffffffffffffffffffffffffffffffffffffffff1603620015e1576040517f08c379a0000000000000000000000000000000000000000000000000000000008152600401620015d89062003043565b60405180910390fd5b60008987868685604051620015f69062001a12565b6200160695949392919062003065565b604051809103906000f08015801562001623573d6000803e3d6000fd5b50905080600660006101000a81548173ffffffffffffffffffffffffffffffffffffffff021916908373ffffffffffffffffffffffffffffffffffffffff16021790555060038b60405162001679919062002a75565b9081526020016040518091039020600080820160006200169a9190620019cc565b6001820160009055600282016000905560038201600090556004820160006101000a81549073ffffffffffffffffffffffffffffffffffffffff02191690556005820160006101000a81549073ffffffffffffffffffffffffffffffffffffffff02191690556005820160146101000a81549060ff0219169055600682016000620017269190620019cc565b6007820160009055505060005b60058054905081101562001837578b805190602001206005828154811062001760576200175f62002d47565b5b906000526020600020016040516200177991906200317f565b6040518091039020036200182157600560016005805490506200179d919062003198565b81548110620017b157620017b062002d47565b5b9060005260206000200160058281548110620017d257620017d162002d47565b5b906000526020600020019081620017ea9190620031eb565b5060058054806200180057620017ff620032ec565b5b6001900381819060005260206000200160006200181e9190620019cc565b90555b80806200182e9062002e33565b91505062001733565b50809850505050505050505092915050565b600660009054906101000a900473ffffffffffffffffffffffffffffffffffffffff1681565b60606005805480602002602001604051908101604052809291908181526020016000905b8282101562001949578382906000526020600020018054620018b59062002596565b80601f0160208091040260200160405190810160405280929190818152602001828054620018e39062002596565b8015620019345780601f10620019085761010080835404028352916020019162001934565b820191906000526020600020905b8154815290600101906020018083116200191657829003601f168201915b50505050508152602001906001019062001893565b50505050905090565b60405180610120016040528060608152602001600081526020016000815260200160008152602001600073ffffffffffffffffffffffffffffffffffffffff168152602001600073ffffffffffffffffffffffffffffffffffffffff16815260200160001515815260200160608152602001600081525090565b508054620019da9062002596565b6000825580601f10620019ee575062001a0f565b601f01602090049060005260206000209081019062001a0e919062001a20565b5b50565b610d8a806200331c83390190565b5b8082111562001a3b57600081600090555060010162001a21565b5090565b600073ffffffffffffffffffffffffffffffffffffffff82169050919050565b600062001a6c8262001a3f565b9050919050565b62001a7e8162001a5f565b82525050565b600060208201905062001a9b600083018462001a73565b92915050565b6000604051905090565b600080fd5b600080fd5b6000819050919050565b62001aca8162001ab5565b811462001ad657600080fd5b50565b60008135905062001aea8162001abf565b92915050565b60006020828403121562001b095762001b0862001aab565b5b600062001b198482850162001ad9565b91505092915050565b600081519050919050565b600082825260208201905092915050565b60005b8381101562001b5e57808201518184015260208101905062001b41565b60008484015250505050565b6000601f19601f8301169050919050565b600062001b888262001b22565b62001b94818562001b2d565b935062001ba681856020860162001b3e565b62001bb18162001b6a565b840191505092915050565b6000602082019050818103600083015262001bd8818462001b7b565b905092915050565b600080fd5b600080fd5b7f4e487b7100000000000000000000000000000000000000000000000000000000600052604160045260246000fd5b62001c248262001b6a565b810181811067ffffffffffffffff8211171562001c465762001c4562001bea565b5b80604052505050565b600062001c5b62001aa1565b905062001c69828262001c19565b919050565b600067ffffffffffffffff82111562001c8c5762001c8b62001bea565b5b62001c978262001b6a565b9050602081019050919050565b82818337600083830152505050565b600062001cca62001cc48462001c6e565b62001c4f565b90508281526020810184848401111562001ce95762001ce862001be5565b5b62001cf684828562001ca4565b509392505050565b600082601f83011262001d165762001d1562001be0565b5b813562001d2884826020860162001cb3565b91505092915050565b62001d3c8162001a5f565b811462001d4857600080fd5b50565b60008135905062001d5c8162001d31565b92915050565b600067ffffffffffffffff82111562001d805762001d7f62001bea565b5b62001d8b8262001b6a565b9050602081019050919050565b600062001daf62001da98462001d62565b62001c4f565b90508281526020810184848401111562001dce5762001dcd62001be5565b5b62001ddb84828562001ca4565b509392505050565b600082601f83011262001dfb5762001dfa62001be0565b5b813562001e0d84826020860162001d98565b91505092915050565b6000819050919050565b62001e2b8162001e16565b811462001e3757600080fd5b50565b60008135905062001e4b8162001e20565b92915050565b6000806000806000806000806000806101408b8d03121562001e785762001e7762001aab565b5b60008b013567ffffffffffffffff81111562001e995762001e9862001ab0565b5b62001ea78d828e0162001cfe565b9a5050602062001eba8d828e0162001ad9565b995050604062001ecd8d828e0162001ad9565b985050606062001ee08d828e0162001ad9565b975050608062001ef38d828e0162001d4b565b96505060a08b013567ffffffffffffffff81111562001f175762001f1662001ab0565b5b62001f258d828e0162001cfe565b95505060c062001f388d828e0162001ad9565b94505060e062001f4b8d828e0162001d4b565b9350506101008b013567ffffffffffffffff81111562001f705762001f6f62001ab0565b5b62001f7e8d828e0162001de3565b92505061012062001f928d828e0162001e3a565b9150509295989b9194979a5092959850565b60008115159050919050565b62001fbb8162001fa4565b82525050565b600060208201905062001fd8600083018462001fb0565b92915050565b600081519050919050565b600082825260208201905092915050565b6000819050602082019050919050565b600082825260208201905092915050565b6000620020288262001b22565b6200203481856200200a565b93506200204681856020860162001b3e565b620020518162001b6a565b840191505092915050565b620020678162001ab5565b82525050565b620020788162001a5f565b82525050565b620020898162001fa4565b82525050565b6000610120830160008301518482036000860152620020af82826200201b565b9150506020830151620020c660208601826200205c565b506040830151620020db60408601826200205c565b506060830151620020f060608601826200205c565b5060808301516200210560808601826200206d565b5060a08301516200211a60a08601826200206d565b5060c08301516200212f60c08601826200207e565b5060e083015184820360e08601526200214982826200201b565b915050610100830151620021626101008601826200205c565b508091505092915050565b60006200217b83836200208f565b905092915050565b6000602082019050919050565b60006200219d8262001fde565b620021a9818562001fe9565b935083602082028501620021bd8562001ffa565b8060005b85811015620021ff5784840389528151620021dd85826200216d565b9450620021ea8362002183565b925060208a01995050600181019050620021c1565b50829750879550505050505092915050565b600060208201905081810360008301526200222d818462002190565b905092915050565b600080604083850312156200224f576200224e62001aab565b5b600083013567ffffffffffffffff81111562002270576200226f62001ab0565b5b6200227e8582860162001cfe565b9250506020620022918582860162001d4b565b9150509250929050565b600060208284031215620022b457620022b362001aab565b5b600082013567ffffffffffffffff811115620022d557620022d462001ab0565b5b620022e38482850162001cfe565b91505092915050565b60006101208301600083015184820360008601526200230c82826200201b565b91505060208301516200232360208601826200205c565b5060408301516200233860408601826200205c565b5060608301516200234d60608601826200205c565b5060808301516200236260808601826200206d565b5060a08301516200237760a08601826200206d565b5060c08301516200238c60c08601826200207e565b5060e083015184820360e0860152620023a682826200201b565b915050610100830151620023bf6101008601826200205c565b508091505092915050565b60006020820190508181036000830152620023e68184620022ec565b905092915050565b6000806040838503121562002408576200240762001aab565b5b600083013567ffffffffffffffff81111562002429576200242862001ab0565b5b620024378582860162001cfe565b925050602083013567ffffffffffffffff8111156200245b576200245a62001ab0565b5b620024698582860162001cfe565b9150509250929050565b600081519050919050565b600082825260208201905092915050565b6000819050602082019050919050565b6000620024ad83836200201b565b905092915050565b6000602082019050919050565b6000620024cf8262002473565b620024db81856200247e565b935083602082028501620024ef856200248f565b8060005b858110156200253157848403895281516200250f85826200249f565b94506200251c83620024b5565b925060208a01995050600181019050620024f3565b50829750879550505050505092915050565b600060208201905081810360008301526200255f8184620024c2565b905092915050565b7f4e487b7100000000000000000000000000000000000000000000000000000000600052602260045260246000fd5b60006002820490506001821680620025af57607f821691505b602082108103620025c557620025c462002567565b5b50919050565b7f4e487b7100000000000000000000000000000000000000000000000000000000600052601160045260246000fd5b6000620026078262001ab5565b9150620026148362001ab5565b9250828202620026248162001ab5565b915082820484148315176200263e576200263d620025cb565b5b5092915050565b6000620026528262001ab5565b91506200265f8362001ab5565b92508282019050808211156200267a5762002679620025cb565b5b92915050565b7f4e6f6e636520776173207573656420726563656e746c79000000000000000000600082015250565b6000620026b860178362001b2d565b9150620026c58262002680565b602082019050919050565b60006020820190508181036000830152620026eb81620026a9565b9050919050565b600060408201905062002709600083018562001a73565b62002718602083018462001a73565b9392505050565b6200272a8162001fa4565b81146200273657600080fd5b50565b6000815190506200274a816200271f565b92915050565b60006020828403121562002769576200276862001aab565b5b6000620027798482850162002739565b91505092915050565b7f536d617274204d65746572206e6f74207265676973746572656420627920436160008201527f626c6520436f6d70616e79000000000000000000000000000000000000000000602082015250565b6000620027e0602b8362001b2d565b9150620027ed8262002782565b604082019050919050565b600060208201905081810360008301526200281381620027d1565b9050919050565b7f4f6666657273206c6966657370616e20697320746f6f206c6f6e670000000000600082015250565b600062002852601b8362001b2d565b91506200285f826200281a565b602082019050919050565b60006020820190508181036000830152620028858162002843565b9050919050565b7f4f6e6c79206f776e65722063616e20616464206f666665720000000000000000600082015250565b6000620028c460188362001b2d565b9150620028d1826200288c565b602082019050919050565b60006020820190508181036000830152620028f781620028b5565b9050919050565b620029098162001ab5565b82525050565b600081519050919050565b600082825260208201905092915050565b600062002938826200290f565b6200294481856200291a565b93506200295681856020860162001b3e565b620029618162001b6a565b840191505092915050565b620029778162001e16565b82525050565b6000606082019050620029946000830186620028fe565b8181036020830152620029a881856200292b565b9050620029b960408301846200296c565b949350505050565b7f4e6f7420656e6f7567682073746f72656420656e657267790000000000000000600082015250565b6000620029f960188362001b2d565b915062002a0682620029c1565b602082019050919050565b6000602082019050818103600083015262002a2c81620029ea565b9050919050565b600081905092915050565b600062002a4b8262001b22565b62002a57818562002a33565b935062002a6981856020860162001b3e565b80840191505092915050565b600062002a83828462002a3e565b915081905092915050565b60008190508160005260206000209050919050565b60006020601f8301049050919050565b600082821b905092915050565b60006008830262002af27fffffffffffffffffffffffffffffffffffffffffffffffffffffffffffffffff8262002ab3565b62002afe868362002ab3565b95508019841693508086168417925050509392505050565b6000819050919050565b600062002b4162002b3b62002b358462001ab5565b62002b16565b62001ab5565b9050919050565b6000819050919050565b62002b5d8362002b20565b62002b7562002b6c8262002b48565b84845462002ac0565b825550505050565b600090565b62002b8c62002b7d565b62002b9981848462002b52565b505050565b5b8181101562002bc15762002bb560008262002b82565b60018101905062002b9f565b5050565b601f82111562002c105762002bda8162002a8e565b62002be58462002aa3565b8101602085101562002bf5578190505b62002c0d62002c048562002aa3565b83018262002b9e565b50505b505050565b600082821c905092915050565b600062002c356000198460080262002c15565b1980831691505092915050565b600062002c50838362002c22565b9150826002028217905092915050565b62002c6b8262001b22565b67ffffffffffffffff81111562002c875762002c8662001bea565b5b62002c93825462002596565b62002ca082828562002bc5565b600060209050601f83116001811462002cd8576000841562002cc3578287015190505b62002ccf858262002c42565b86555062002d3f565b601f19841662002ce88662002a8e565b60005b8281101562002d125784890151825560018201915060208501945060208101905062002ceb565b8683101562002d32578489015162002d2e601f89168262002c22565b8355505b6001600288020188555050505b505050505050565b7f4e487b7100000000000000000000000000000000000000000000000000000000600052603260045260246000fd5b60008190508160005260206000209050919050565b6000815462002d9a8162002596565b62002da6818662002a33565b9450600182166000811462002dc4576001811462002dda5762002e11565b60ff198316865281151582028601935062002e11565b62002de58562002d76565b60005b8381101562002e095781548189015260018201915060208101905062002de8565b838801955050505b50505092915050565b600062002e28828462002d8b565b915081905092915050565b600062002e408262001ab5565b91507fffffffffffffffffffffffffffffffffffffffffffffffffffffffffffffffff820362002e755762002e74620025cb565b5b600182019050919050565b7f4f6e6c79206f776e65722063616e2072656d6f7665206f666665720000000000600082015250565b600062002eb8601b8362001b2d565b915062002ec58262002e80565b602082019050919050565b6000602082019050818103600083015262002eeb8162002ea9565b9050919050565b600060208201905062002f096000830184620028fe565b92915050565b7f4e6f206f6666657220666f756e64000000000000000000000000000000000000600082015250565b600062002f47600e8362001b2d565b915062002f548262002f0f565b602082019050919050565b6000602082019050818103600083015262002f7a8162002f38565b9050919050565b7f43616e6e6f74206275792065787069726564206f666665720000000000000000600082015250565b600062002fb960188362001b2d565b915062002fc68262002f81565b602082019050919050565b6000602082019050818103600083015262002fec8162002faa565b9050919050565b7f4f776e65722063616e6e6f7420627579206f776e206f66666572000000000000600082015250565b60006200302b601a8362001b2d565b9150620030388262002ff3565b602082019050919050565b600060208201905081810360008301526200305e816200301c565b9050919050565b600060a082019050818103600083015262003081818862001b7b565b9050818103602083015262003097818762001b7b565b9050620030a86040830186620028fe565b620030b76060830185620028fe565b620030c66080830184620028fe565b9695505050505050565b600081905092915050565b60008190508160005260206000209050919050565b60008154620030ff8162002596565b6200310b8186620030d0565b945060018216600081146200312957600181146200313f5762003176565b60ff198316865281151582028601935062003176565b6200314a85620030db565b60005b838110156200316e578154818901526001820191506020810190506200314d565b838801955050505b50505092915050565b60006200318d8284620030f0565b915081905092915050565b6000620031a58262001ab5565b9150620031b28362001ab5565b9250828203905081811115620031cd57620031cc620025cb565b5b92915050565b600081549050620031e48162002596565b9050919050565b818103620031fb575050620032ea565b6200320682620031d3565b67ffffffffffffffff81111562003222576200322162001bea565b5b6200322e825462002596565b6200323b82828562002bc5565b6000601f8311600181146200326f57600084156200325a578287015490505b62003266858262002c42565b865550620032e3565b601f1984166200327f8762002d76565b96506200328c8662002a8e565b60005b82811015620032b6578489015482556001820191506001850194506020810190506200328f565b86831015620032d65784890154620032d2601f89168262002c22565b8355505b6001600288020188555050505b5050505050505b565b7f4e487b7100000000000000000000000000000000000000000000000000000000600052603160045260246000fdfe60806040523480156200001157600080fd5b5060405162000d8a38038062000d8a83398181016040528101906200003791906200026b565b846000908162000048919062000572565b5083600190816200005a919062000572565b508260028190555081600381905550426004819055506000600560006101000a81548160ff02191690831515021790555080600681905550505050505062000659565b6000604051905090565b600080fd5b600080fd5b600080fd5b600080fd5b6000601f19601f8301169050919050565b7f4e487b7100000000000000000000000000000000000000000000000000000000600052604160045260246000fd5b6200010682620000bb565b810181811067ffffffffffffffff82111715620001285762000127620000cc565b5b80604052505050565b60006200013d6200009d565b90506200014b8282620000fb565b919050565b600067ffffffffffffffff8211156200016e576200016d620000cc565b5b6200017982620000bb565b9050602081019050919050565b60005b83811015620001a657808201518184015260208101905062000189565b60008484015250505050565b6000620001c9620001c38462000150565b62000131565b905082815260208101848484011115620001e857620001e7620000b6565b5b620001f584828562000186565b509392505050565b600082601f830112620002155762000214620000b1565b5b815162000227848260208601620001b2565b91505092915050565b6000819050919050565b620002458162000230565b81146200025157600080fd5b50565b60008151905062000265816200023a565b92915050565b600080600080600060a086880312156200028a5762000289620000a7565b5b600086015167ffffffffffffffff811115620002ab57620002aa620000ac565b5b620002b988828901620001fd565b955050602086015167ffffffffffffffff811115620002dd57620002dc620000ac565b5b620002eb88828901620001fd565b9450506040620002fe8882890162000254565b9350506060620003118882890162000254565b9250506080620003248882890162000254565b9150509295509295909350565b600081519050919050565b7f4e487b7100000000000000000000000000000000000000000000000000000000600052602260045260246000fd5b600060028204905060018216806200038457607f821691505b6020821081036200039a57620003996200033c565b5b50919050565b60008190508160005260206000209050919050565b60006020601f8301049050919050565b600082821b905092915050565b600060088302620004047fffffffffffffffffffffffffffffffffffffffffffffffffffffffffffffffff82620003c5565b620004108683620003c5565b95508019841693508086168417925050509392505050565b6000819050919050565b6000620004536200044d620004478462000230565b62000428565b62000230565b9050919050565b6000819050919050565b6200046f8362000432565b620004876200047e826200045a565b848454620003d2565b825550505050565b600090565b6200049e6200048f565b620004ab81848462000464565b505050565b5b81811015620004d357620004c760008262000494565b600181019050620004b1565b5050565b601f8211156200052257620004ec81620003a0565b620004f784620003b5565b8101602085101562000507578190505b6200051f6200051685620003b5565b830182620004b0565b50505b505050565b600082821c905092915050565b6000620005476000198460080262000527565b1980831691505092915050565b600062000562838362000534565b9150826002028217905092915050565b6200057d8262000331565b67ffffffffffffffff811115620005995762000598620000cc565b5b620005a582546200036b565b620005b2828285620004d7565b600060209050601f831160018114620005ea5760008415620005d5578287015190505b620005e1858262000554565b86555062000651565b601f198416620005fa86620003a0565b60005b828110156200062457848901518255600182019150602085019450602081019050620005fd565b8683101562000644578489015162000640601f89168262000534565b8355505b6001600288020188555050505b505050505050565b61072180620006696000396000f3fe608060405234801561001057600080fd5b50600436106100575760003560e01c80635a9b0b891461005c578063603daf9a1461007a57806398d5fdca14610098578063d321fe29146100b6578063dbd0e1b6146100d4575b600080fd5b6100646100f2565b60405161007191906105d3565b60405180910390f35b610082610282565b60405161008f919061063f565b60405180910390f35b6100a0610314565b6040516100ad9190610670565b60405180910390f35b6100be61031e565b6040516100cb9190610670565b60405180910390f35b6100dc610328565b6040516100e9919061063f565b60405180910390f35b6100fa6103ba565b60006040518061010001604052803073ffffffffffffffffffffffffffffffffffffffff16815260200160008054610131906106ba565b80601f016020809104026020016040519081016040528092919081815260200182805461015d906106ba565b80156101aa5780601f1061017f576101008083540402835291602001916101aa565b820191906000526020600020905b81548152906001019060200180831161018d57829003601f168201915b50505050508152602001600180546101c1906106ba565b80601f01602080910402602001604051908101604052809291908181526020018280546101ed906106ba565b801561023a5780601f1061020f5761010080835404028352916020019161023a565b820191906000526020600020905b81548152906001019060200180831161021d57829003601f168201915b50505050508152602001600354815260200160025481526020016004548152602001600560009054906101000a900460ff161515815260200160065481525090508091505090565b606060008054610291906106ba565b80601f01602080910402602001604051908101604052809291908181526020018280546102bd906106ba565b801561030a5780601f106102df5761010080835404028352916020019161030a565b820191906000526020600020905b8154815290600101906020018083116102ed57829003601f168201915b5050505050905090565b6000600354905090565b6000600254905090565b606060018054610337906106ba565b80601f0160208091040260200160405190810160405280929190818152602001828054610363906106ba565b80156103b05780601f10610385576101008083540402835291602001916103b0565b820191906000526020600020905b81548152906001019060200180831161039357829003601f168201915b5050505050905090565b604051806101000160405280600073ffffffffffffffffffffffffffffffffffffffff1681526020016060815260200160608152602001600081526020016000815260200160008152602001600015158152602001600081525090565b600073ffffffffffffffffffffffffffffffffffffffff82169050919050565b600061044282610417565b9050919050565b61045281610437565b82525050565b600081519050919050565b600082825260208201905092915050565b60005b83811015610492578082015181840152602081019050610477565b60008484015250505050565b6000601f19601f8301169050919050565b60006104ba82610458565b6104c48185610463565b93506104d4818560208601610474565b6104dd8161049e565b840191505092915050565b6000819050919050565b6104fb816104e8565b82525050565b60008115159050919050565b61051681610501565b82525050565b6000610100830160008301516105356000860182610449565b506020830151848203602086015261054d82826104af565b9150506040830151848203604086015261056782826104af565b915050606083015161057c60608601826104f2565b50608083015161058f60808601826104f2565b5060a08301516105a260a08601826104f2565b5060c08301516105b560c086018261050d565b5060e08301516105c860e08601826104f2565b508091505092915050565b600060208201905081810360008301526105ed818461051c565b905092915050565b600082825260208201905092915050565b600061061182610458565b61061b81856105f5565b935061062b818560208601610474565b6106348161049e565b840191505092915050565b600060208201905081810360008301526106598184610606565b905092915050565b61066a816104e8565b82525050565b60006020820190506106856000830184610661565b92915050565b7f4e487b7100000000000000000000000000000000000000000000000000000000600052602260045260246000fd5b600060028204905060018216806106d257607f821691505b6020821081036106e5576106e461068b565b5b5091905056fea26469706673582212209d42fe4ac90fa5d715570365c19e8c4071724c2ae7ca68aaf71206ccc0514f8964736f6c63430008130033a2646970667358221220efb31039cfd4002e99bdbcfa86592a6e2e3f9f9ee9267a314c43b515ab59860564736f6c63430008130033",
  "immutableReferences": {},
  "source": "// SPDX-License-Identifier: GPL-3.0\n// pragma experimental ABIEncoderV2;\npragma solidity ^0.8.9;\n\ninterface ICableCompany {\n    function registerKey(\n        address smartMeterPubKey,\n        address smartMeterAddress\n    ) external;\n\n    function isRegisteredKey(\n        address smartMeterPubKey,\n        address smartMeterAddress\n    ) external view returns (bool);\n\n    function removeRegisteredKey(address smartMeterPubKey) external;\n}\n\ninterface ISmartMeter {\n    function returnReservedBatteryCharge(uint amount) external returns (bool);\n\n    function subtractBatteryCharge(\n        uint amount,\n        bytes memory ots,\n        bytes32 nextOtsHash\n    ) external returns (bool);\n}\n\ncontract Market {\n    address owner;\n    ICableCompany cableCompany; // Maybe change the name of CableCompany to something else, like DSO\n    uint maxOfferLivespan = 1000 * 60 * 60 * 24 * 7;\n\n    struct Offer {\n        string id;\n        uint price;\n        uint amount;\n        uint expiration;\n        address owner;\n        address smartMeterAddress;\n        bool active;\n        string sellerSignature;\n        uint nonce;\n    }\n\n    mapping(string => Offer) private offers;\n    mapping(string => Offer) private pendingConfirmation;\n\n    string[] public offerIds;\n    address public lastestSupplyChainAddress;\n\n    // mapping is nonce to the timestamp it was used at.\n    mapping(uint => uint) private usedNonces;\n\n    modifier nonceGuard(uint nonce) {\n        uint timestamp = usedNonces[nonce];\n        // nonce was used within the last two weeks.\n        if (timestamp + maxOfferLivespan * 2 > block.timestamp * 1000) {\n            revert(\"Nonce was used recently\");\n        }\n        _;\n    }\n\n    constructor(address _cableCompanyAddress) payable {\n        owner = msg.sender;\n        cableCompany = ICableCompany(_cableCompanyAddress);\n    }\n\n    function addOffer(\n        string memory id,\n        uint amount,\n        uint price,\n        uint expiration,\n        address smartMeterAddress,\n        string memory sellerSignature,\n        uint nonce,\n        address sellerAddress,\n        bytes memory ots,\n        bytes32 nextOtsHash\n    ) public nonceGuard(nonce) returns (bool) {\n        // Require conditions\n        require(\n            cableCompany.isRegisteredKey(msg.sender, smartMeterAddress),\n            \"Smart Meter not registered by Cable Company\"\n        );\n        require(\n            block.timestamp * 1000 + maxOfferLivespan > expiration,\n            \"Offers lifespan is too long\"\n        );\n        require(sellerAddress == msg.sender, \"Only owner can add offer\");\n\n        ISmartMeter smartMeter = ISmartMeter(smartMeterAddress);\n        require(\n            smartMeter.subtractBatteryCharge(amount, ots, nextOtsHash),\n            \"Not enough stored energy\"\n        );\n\n        // Adding offer\n        usedNonces[nonce] = block.timestamp * 1000;\n        offers[id] = Offer({\n            id: id,\n            amount: amount,\n            price: price,\n            expiration: expiration,\n            owner: msg.sender,\n            smartMeterAddress: smartMeterAddress,\n            active: true,\n            sellerSignature: sellerSignature,\n            nonce: nonce\n        });\n        offerIds.push(id);\n\n        return true;\n    }\n\n    function removeOffer(\n        string memory id,\n        address smartMeterAddress\n    ) public returns (bool) {\n        // Initialization\n        Offer memory offer = offers[id];\n        ISmartMeter smartMeter = ISmartMeter(smartMeterAddress);\n\n        // Require conditions\n        require(msg.sender == offer.owner, \"Only owner can remove offer\");\n\n        // Removing offer\n        smartMeter.returnReservedBatteryCharge(offer.amount);\n        delete offers[id];\n\n        return true;\n    }\n\n    function buyOffer(\n        string memory id,\n        string memory buyerSignature\n    ) public returns (address) {\n        // Initialization\n        Offer memory offer = offers[id];\n\n        // Require conditions\n        require(\n            keccak256(bytes(offer.id)) == keccak256(bytes(id)),\n            \"No offer found\"\n        );\n        string memory sellerSignature = offer.sellerSignature;\n        address seller = offer.owner;\n        uint amount = offer.amount;\n        uint price = offer.price;\n        uint expiration = offer.expiration;\n        uint offerNonce = offer.nonce;\n        require(expiration > block.timestamp, \"Cannot buy expired offer\");\n        require(msg.sender != seller, \"Owner cannot buy own offer\");\n\n        // Buying offer and creating SupplyContract\n        SupplyContract sc = new SupplyContract({\n            _buyerSignature: buyerSignature,\n            _sellerSignature: sellerSignature,\n            _amount: amount,\n            _price: price,\n            _nonce: offerNonce\n        });\n        lastestSupplyChainAddress = address(sc);\n        delete offers[id];\n\n        for (uint i = 0; i < offerIds.length; i++) {\n            // String comparison to remove purchased offer\n            if (keccak256(bytes(offerIds[i])) == keccak256(bytes(id))) {\n                offerIds[i] = offerIds[offerIds.length - 1];\n                offerIds.pop();\n            }\n        }\n\n        return address(sc);\n    }\n\n    function getOffer(string memory id) public view returns (Offer memory) {\n        return offers[id];\n    }\n\n    function getOffers() public view returns (Offer[] memory) {\n        Offer[] memory offersReturn = new Offer[](offerIds.length);\n        for (uint i = 0; i < offerIds.length; i++) {\n            string storage offerId = offerIds[i];\n            Offer storage offer = offers[offerId];\n\n            offersReturn[i] = offer;\n        }\n        return offersReturn;\n    }\n\n    function getOfferIDs() public view returns (string[] memory) {\n        return offerIds;\n    }\n\n    function getLatestSupplyContract() public view returns (address) {\n        return lastestSupplyChainAddress;\n    }\n\n    function getPendingOffers() public view returns (address) {\n        return lastestSupplyChainAddress;\n    }\n}\n\ncontract SupplyContract {\n    string buyerSignature;\n    string sellerSignature;\n    uint amount; // Wh\n    uint price; // Euro cents\n    uint timestamp; // Unix\n    bool confirmed;\n    uint nonce;\n\n    struct SupplyContractDTO {\n        address scAddress;\n        string buyerSignature;\n        string sellerSignature;\n        uint price;\n        uint amount;\n        uint timestamp;\n        bool confirmed;\n        uint nonce;\n    }\n\n    constructor(\n        string memory _buyerSignature,\n        string memory _sellerSignature,\n        uint _amount,\n        uint _price,\n        uint _nonce\n    ) {\n        buyerSignature = _buyerSignature;\n        sellerSignature = _sellerSignature;\n        amount = _amount;\n        price = _price;\n        timestamp = block.timestamp;\n        confirmed = false;\n        nonce = _nonce;\n    }\n\n    function getBuyer() public view returns (string memory) {\n        return buyerSignature;\n    }\n\n    function getSeller() public view returns (string memory) {\n        return sellerSignature;\n    }\n\n    function getAmount() public view returns (uint) {\n        return amount;\n    }\n\n    function getPrice() public view returns (uint) {\n        return price;\n    }\n\n    function getInfo() public view returns (SupplyContractDTO memory) {\n        SupplyContractDTO memory scDTO = SupplyContractDTO({\n            scAddress: address(this),\n            buyerSignature: buyerSignature,\n            sellerSignature: sellerSignature,\n            price: price,\n            amount: amount,\n            timestamp: timestamp,\n            confirmed: confirmed,\n            nonce: nonce\n        });\n\n        return scDTO;\n    }\n}\n",
  "sourcePath": "/Users/antonoeschmidt/Projects/Master/SmartGridEmpowered/contracts/Market.sol",
  "compiler": {
    "name": "solc",
    "version": "0.8.19+commit.7dd6d404.Emscripten.clang"
  },
  "schemaVersion": "3.4.16",
  "updatedAt": "2024-01-08T08:05:54.269Z",
  "devdoc": {
    "kind": "dev",
    "methods": {},
    "version": 1
  },
  "userdoc": {
    "kind": "user",
    "methods": {},
    "version": 1
  }
}