{
  "contractName": "Market",
  "abi": [
    {
      "inputs": [
        {
          "internalType": "address",
          "name": "_dsoAddress",
          "type": "address"
        },
        {
          "internalType": "address",
          "name": "_smartMeterContractAddress",
          "type": "address"
        }
      ],
      "stateMutability": "payable",
      "type": "constructor",
      "payable": true
    },
    {
      "anonymous": false,
      "inputs": [
        {
          "indexed": false,
          "internalType": "string",
          "name": "buyerSignature",
          "type": "string"
        },
        {
          "indexed": false,
          "internalType": "string",
          "name": "sellerSignature",
          "type": "string"
        },
        {
          "indexed": false,
          "internalType": "uint256",
          "name": "amount",
          "type": "uint256"
        },
        {
          "indexed": false,
          "internalType": "uint256",
          "name": "timestamp",
          "type": "uint256"
        },
        {
          "indexed": false,
          "internalType": "uint256",
          "name": "price",
          "type": "uint256"
        }
      ],
      "name": "ApproveOffer",
      "type": "event"
    },
    {
      "inputs": [
        {
          "internalType": "uint256",
          "name": "",
          "type": "uint256"
        }
      ],
      "name": "offerIds",
      "outputs": [
        {
          "internalType": "string",
          "name": "",
          "type": "string"
        }
      ],
      "stateMutability": "view",
      "type": "function",
      "constant": true
    },
    {
      "inputs": [
        {
          "internalType": "string",
          "name": "",
          "type": "string"
        }
      ],
      "name": "offers",
      "outputs": [
        {
          "internalType": "string",
          "name": "id",
          "type": "string"
        },
        {
          "internalType": "uint256",
          "name": "price",
          "type": "uint256"
        },
        {
          "internalType": "uint256",
          "name": "amount",
          "type": "uint256"
        },
        {
          "internalType": "uint256",
          "name": "expiration",
          "type": "uint256"
        },
        {
          "internalType": "address",
          "name": "owner",
          "type": "address"
        },
        {
          "internalType": "address",
          "name": "smartMeterAddress",
          "type": "address"
        },
        {
          "internalType": "bool",
          "name": "active",
          "type": "bool"
        },
        {
          "internalType": "string",
          "name": "sellerSignature",
          "type": "string"
        },
        {
          "internalType": "uint256",
          "name": "nonce",
          "type": "uint256"
        }
      ],
      "stateMutability": "view",
      "type": "function",
      "constant": true
    },
    {
      "inputs": [
        {
          "internalType": "uint256",
          "name": "",
          "type": "uint256"
        }
      ],
      "name": "pendingConfirmationOffers",
      "outputs": [
        {
          "internalType": "string",
          "name": "buyerSignature",
          "type": "string"
        },
        {
          "internalType": "string",
          "name": "sellerSignature",
          "type": "string"
        },
        {
          "internalType": "address",
          "name": "smartMeterAddress",
          "type": "address"
        },
        {
          "internalType": "uint256",
          "name": "amount",
          "type": "uint256"
        },
        {
          "internalType": "uint256",
          "name": "price",
          "type": "uint256"
        },
        {
          "internalType": "uint256",
          "name": "timestamp",
          "type": "uint256"
        },
        {
          "internalType": "uint256",
          "name": "nonce",
          "type": "uint256"
        }
      ],
      "stateMutability": "view",
      "type": "function",
      "constant": true
    },
    {
      "inputs": [
        {
          "internalType": "string",
          "name": "id",
          "type": "string"
        },
        {
          "internalType": "uint256",
          "name": "amount",
          "type": "uint256"
        },
        {
          "internalType": "uint256",
          "name": "price",
          "type": "uint256"
        },
        {
          "internalType": "uint256",
          "name": "expiration",
          "type": "uint256"
        },
        {
          "internalType": "address",
          "name": "smartMeterAddress",
          "type": "address"
        },
        {
          "internalType": "string",
          "name": "sellerSignature",
          "type": "string"
        },
        {
          "internalType": "uint256",
          "name": "nonce",
          "type": "uint256"
        },
        {
          "internalType": "address",
          "name": "sellerAddress",
          "type": "address"
        },
        {
          "internalType": "bytes",
          "name": "ots",
          "type": "bytes"
        },
        {
          "internalType": "bytes32",
          "name": "nextOtsHash",
          "type": "bytes32"
        }
      ],
      "name": "addOffer",
      "outputs": [
        {
          "internalType": "bool",
          "name": "",
          "type": "bool"
        }
      ],
      "stateMutability": "nonpayable",
      "type": "function"
    },
    {
      "inputs": [
        {
          "internalType": "string",
          "name": "id",
          "type": "string"
        }
      ],
      "name": "removeOffer",
      "outputs": [
        {
          "internalType": "bool",
          "name": "",
          "type": "bool"
        }
      ],
      "stateMutability": "nonpayable",
      "type": "function"
    },
    {
      "inputs": [
        {
          "internalType": "string",
          "name": "id",
          "type": "string"
        },
        {
          "internalType": "string",
          "name": "buyerSignature",
          "type": "string"
        }
      ],
      "name": "buyOffer",
      "outputs": [],
      "stateMutability": "nonpayable",
      "type": "function"
    },
    {
      "inputs": [
        {
          "internalType": "string",
          "name": "id",
          "type": "string"
        }
      ],
      "name": "getOffer",
      "outputs": [
        {
          "components": [
            {
              "internalType": "string",
              "name": "id",
              "type": "string"
            },
            {
              "internalType": "uint256",
              "name": "price",
              "type": "uint256"
            },
            {
              "internalType": "uint256",
              "name": "amount",
              "type": "uint256"
            },
            {
              "internalType": "uint256",
              "name": "expiration",
              "type": "uint256"
            },
            {
              "internalType": "address",
              "name": "owner",
              "type": "address"
            },
            {
              "internalType": "address",
              "name": "smartMeterAddress",
              "type": "address"
            },
            {
              "internalType": "bool",
              "name": "active",
              "type": "bool"
            },
            {
              "internalType": "string",
              "name": "sellerSignature",
              "type": "string"
            },
            {
              "internalType": "uint256",
              "name": "nonce",
              "type": "uint256"
            }
          ],
          "internalType": "struct Market.Offer",
          "name": "",
          "type": "tuple"
        }
      ],
      "stateMutability": "view",
      "type": "function",
      "constant": true
    },
    {
      "inputs": [],
      "name": "getOffers",
      "outputs": [
        {
          "components": [
            {
              "internalType": "string",
              "name": "id",
              "type": "string"
            },
            {
              "internalType": "uint256",
              "name": "price",
              "type": "uint256"
            },
            {
              "internalType": "uint256",
              "name": "amount",
              "type": "uint256"
            },
            {
              "internalType": "uint256",
              "name": "expiration",
              "type": "uint256"
            },
            {
              "internalType": "address",
              "name": "owner",
              "type": "address"
            },
            {
              "internalType": "address",
              "name": "smartMeterAddress",
              "type": "address"
            },
            {
              "internalType": "bool",
              "name": "active",
              "type": "bool"
            },
            {
              "internalType": "string",
              "name": "sellerSignature",
              "type": "string"
            },
            {
              "internalType": "uint256",
              "name": "nonce",
              "type": "uint256"
            }
          ],
          "internalType": "struct Market.Offer[]",
          "name": "",
          "type": "tuple[]"
        }
      ],
      "stateMutability": "view",
      "type": "function",
      "constant": true
    },
    {
      "inputs": [],
      "name": "getOfferIDs",
      "outputs": [
        {
          "internalType": "string[]",
          "name": "",
          "type": "string[]"
        }
      ],
      "stateMutability": "view",
      "type": "function",
      "constant": true
    },
    {
      "inputs": [],
      "name": "getPendingOffers",
      "outputs": [
        {
          "components": [
            {
              "internalType": "string",
              "name": "buyerSignature",
              "type": "string"
            },
            {
              "internalType": "string",
              "name": "sellerSignature",
              "type": "string"
            },
            {
              "internalType": "address",
              "name": "smartMeterAddress",
              "type": "address"
            },
            {
              "internalType": "uint256",
              "name": "amount",
              "type": "uint256"
            },
            {
              "internalType": "uint256",
              "name": "price",
              "type": "uint256"
            },
            {
              "internalType": "uint256",
              "name": "timestamp",
              "type": "uint256"
            },
            {
              "internalType": "uint256",
              "name": "nonce",
              "type": "uint256"
            }
          ],
          "internalType": "struct Market.PendingConfirmationOffer[]",
          "name": "",
          "type": "tuple[]"
        }
      ],
      "stateMutability": "view",
      "type": "function",
      "constant": true
    },
    {
      "inputs": [
        {
          "internalType": "bool[]",
          "name": "offerIndicies",
          "type": "bool[]"
        }
      ],
      "name": "validatePendingOffers",
      "outputs": [],
      "stateMutability": "nonpayable",
      "type": "function"
    },
    {
      "inputs": [],
      "name": "getGroupKey",
      "outputs": [
        {
          "internalType": "string",
          "name": "",
          "type": "string"
        }
      ],
      "stateMutability": "view",
      "type": "function",
      "constant": true
    },
    {
      "inputs": [
        {
          "internalType": "string",
          "name": "_groupKey",
          "type": "string"
        }
      ],
      "name": "setGroupKey",
      "outputs": [],
      "stateMutability": "nonpayable",
      "type": "function"
    }
  ],
  "bytecode": "0x608060405263240c840060025560405162004459380380620044598339818101604052810190620000319190620001a6565b336000806101000a81548173ffffffffffffffffffffffffffffffffffffffff021916908373ffffffffffffffffffffffffffffffffffffffff16021790555081600160006101000a81548173ffffffffffffffffffffffffffffffffffffffff021916908373ffffffffffffffffffffffffffffffffffffffff16021790555081600460006101000a81548173ffffffffffffffffffffffffffffffffffffffff021916908373ffffffffffffffffffffffffffffffffffffffff16021790555080600360006101000a81548173ffffffffffffffffffffffffffffffffffffffff021916908373ffffffffffffffffffffffffffffffffffffffff1602179055505050620001ed565b600080fd5b600073ffffffffffffffffffffffffffffffffffffffff82169050919050565b60006200016e8262000141565b9050919050565b620001808162000161565b81146200018c57600080fd5b50565b600081519050620001a08162000175565b92915050565b60008060408385031215620001c057620001bf6200013c565b5b6000620001d0858286016200018f565b9250506020620001e3858286016200018f565b9150509250929050565b61425c80620001fd6000396000f3fe608060405234801561001057600080fd5b50600436106100cf5760003560e01c8063553414251161008c5780637b8203b9116100665780637b8203b91461023e578063cdc2e6d71461025c578063d5fd377614610278578063f6a80192146102b0576100cf565b806355341425146101bc578063783be198146101d85780637a5101161461020e576100cf565b80630753c9e3146100d4578063110b9d89146100f257806312538a3414610122578063197713bd1461013e5780633ee992ee1461016e57806346b342231461018c575b600080fd5b6100dc6102ce565b6040516100e99190612841565b60405180910390f35b61010c600480360381019061010791906128a3565b6104cf565b604051610119919061291a565b60405180910390f35b61013c60048036038101906101379190612abc565b61057b565b005b61015860048036038101906101539190612cbd565b610b10565b6040516101659190612dff565b60405180910390f35b61017661101e565b6040516101839190612fb7565b60405180910390f35b6101a660048036038101906101a19190612fd9565b61132c565b6040516101b39190612dff565b60405180910390f35b6101d660048036038101906101d19190612fd9565b611756565b005b6101f260048036038101906101ed91906128a3565b6117f7565b6040516102059796959493929190613040565b60405180910390f35b61022860048036038101906102239190612fd9565b611979565b6040516102359190613189565b60405180910390f35b610246611bc5565b604051610253919061291a565b60405180910390f35b610276600480360381019061027191906131ab565b611c57565b005b610292600480360381019061028d9190612fd9565b612281565b6040516102a799989796959493929190613223565b60405180910390f35b6102b8612442565b6040516102c59190613380565b60405180910390f35b60606007805480602002602001604051908101604052809291908181526020016000905b828210156104c657838290600052602060002090600702016040518060e0016040529081600082018054610325906133d1565b80601f0160208091040260200160405190810160405280929190818152602001828054610351906133d1565b801561039e5780601f106103735761010080835404028352916020019161039e565b820191906000526020600020905b81548152906001019060200180831161038157829003601f168201915b505050505081526020016001820180546103b7906133d1565b80601f01602080910402602001604051908101604052809291908181526020018280546103e3906133d1565b80156104305780601f1061040557610100808354040283529160200191610430565b820191906000526020600020905b81548152906001019060200180831161041357829003601f168201915b505050505081526020016002820160009054906101000a900473ffffffffffffffffffffffffffffffffffffffff1673ffffffffffffffffffffffffffffffffffffffff1673ffffffffffffffffffffffffffffffffffffffff168152602001600382015481526020016004820154815260200160058201548152602001600682015481525050815260200190600101906102f2565b50505050905090565b600881815481106104df57600080fd5b9060005260206000200160009150905080546104fa906133d1565b80601f0160208091040260200160405190810160405280929190818152602001828054610526906133d1565b80156105735780601f1061054857610100808354040283529160200191610573565b820191906000526020600020905b81548152906001019060200180831161055657829003601f168201915b505050505081565b60008054906101000a900473ffffffffffffffffffffffffffffffffffffffff1673ffffffffffffffffffffffffffffffffffffffff163373ffffffffffffffffffffffffffffffffffffffff1614610609576040517f08c379a00000000000000000000000000000000000000000000000000000000081526004016106009061344e565b60405180910390fd5b60005b81518110156109245760006007828154811061062b5761062a61346e565b5b90600052602060002090600702016040518060e0016040529081600082018054610654906133d1565b80601f0160208091040260200160405190810160405280929190818152602001828054610680906133d1565b80156106cd5780601f106106a2576101008083540402835291602001916106cd565b820191906000526020600020905b8154815290600101906020018083116106b057829003601f168201915b505050505081526020016001820180546106e6906133d1565b80601f0160208091040260200160405190810160405280929190818152602001828054610712906133d1565b801561075f5780601f106107345761010080835404028352916020019161075f565b820191906000526020600020905b81548152906001019060200180831161074257829003601f168201915b505050505081526020016002820160009054906101000a900473ffffffffffffffffffffffffffffffffffffffff1673ffffffffffffffffffffffffffffffffffffffff1673ffffffffffffffffffffffffffffffffffffffff1681526020016003820154815260200160048201548152602001600582015481526020016006820154815250509050600115158383815181106107ff576107fe61346e565b5b6020026020010151151503610866577fac6b62dd79b7acb29ba31fdbca961811a7a06fb0c878b878a58765ad13f0e2618160000151826020015183606001518460a00151856080015160405161085995949392919061349d565b60405180910390a1610910565b600360009054906101000a900473ffffffffffffffffffffffffffffffffffffffff1673ffffffffffffffffffffffffffffffffffffffff166324dee484826060015183604001516040518363ffffffff1660e01b81526004016108cb9291906134fe565b6020604051808303816000875af11580156108ea573d6000803e3d6000fd5b505050506040513d601f19601f8201168201806040525081019061090e919061353c565b505b50808061091c90613598565b91505061060c565b5060005b8151811015610b0c578060078054905061094291906135e0565b82511015610a6757600781600160078054905061095f91906135e0565b61096991906135e0565b8154811061097a5761097961346e565b5b90600052602060002090600702016007828154811061099c5761099b61346e565b5b9060005260206000209060070201600082018160000190816109be91906137d6565b50600182018160010190816109d391906137d6565b506002820160009054906101000a900473ffffffffffffffffffffffffffffffffffffffff168160020160006101000a81548173ffffffffffffffffffffffffffffffffffffffff021916908373ffffffffffffffffffffffffffffffffffffffff160217905550600382015481600301556004820154816004015560058201548160050155600682015481600601559050505b6007805480610a7957610a786138be565b5b600190038181906000526020600020906007020160008082016000610a9e919061251b565b600182016000610aae919061251b565b6002820160006101000a81549073ffffffffffffffffffffffffffffffffffffffff02191690556003820160009055600482016000905560058201600090556006820160009055505090558080610b0490613598565b915050610928565b5050565b6000846000600960008381526020019081526020016000205490506103e842610b3991906138ed565b60028054610b4791906138ed565b82610b52919061392f565b1115610b93576040517f08c379a0000000000000000000000000000000000000000000000000000000008152600401610b8a906139af565b60405180910390fd5b600160009054906101000a900473ffffffffffffffffffffffffffffffffffffffff1673ffffffffffffffffffffffffffffffffffffffff1663eb4e352d338b6040518363ffffffff1660e01b8152600401610bf09291906139cf565b602060405180830381865afa158015610c0d573d6000803e3d6000fd5b505050506040513d601f19601f82011682018060405250810190610c31919061353c565b610c70576040517f08c379a0000000000000000000000000000000000000000000000000000000008152600401610c6790613a6a565b60405180910390fd5b896002546103e842610c8291906138ed565b610c8c919061392f565b11610ccc576040517f08c379a0000000000000000000000000000000000000000000000000000000008152600401610cc390613ad6565b60405180910390fd5b3373ffffffffffffffffffffffffffffffffffffffff168673ffffffffffffffffffffffffffffffffffffffff1614610d3a576040517f08c379a0000000000000000000000000000000000000000000000000000000008152600401610d3190613b42565b60405180910390fd5b600360009054906101000a900473ffffffffffffffffffffffffffffffffffffffff1673ffffffffffffffffffffffffffffffffffffffff16635847ebed8d87878d6040518563ffffffff1660e01b8152600401610d9b9493929190613bc6565b6020604051808303816000875af1158015610dba573d6000803e3d6000fd5b505050506040513d601f19601f82011682018060405250810190610dde919061353c565b610e1d576040517f08c379a0000000000000000000000000000000000000000000000000000000008152600401610e1490613c5e565b60405180910390fd5b6103e842610e2b91906138ed565b60096000898152602001908152602001600020819055506040518061012001604052808e81526020018c81526020018d81526020018b81526020013373ffffffffffffffffffffffffffffffffffffffff1681526020018a73ffffffffffffffffffffffffffffffffffffffff1681526020016001151581526020018981526020018881525060068e604051610ec19190613cba565b90815260200160405180910390206000820151816000019081610ee49190613cd1565b5060208201518160010155604082015181600201556060820151816003015560808201518160040160006101000a81548173ffffffffffffffffffffffffffffffffffffffff021916908373ffffffffffffffffffffffffffffffffffffffff16021790555060a08201518160050160006101000a81548173ffffffffffffffffffffffffffffffffffffffff021916908373ffffffffffffffffffffffffffffffffffffffff16021790555060c08201518160050160146101000a81548160ff02191690831515021790555060e0820151816006019081610fc69190613cd1565b50610100820151816007015590505060088d9080600181540180825580915050600190039060005260206000200160009091909190915090816110099190613cd1565b506001925050509a9950505050505050505050565b6060600060088054905067ffffffffffffffff81111561104157611040612941565b5b60405190808252806020026020018201604052801561107a57816020015b61106761255b565b81526020019060019003908161105f5790505b50905060005b600880549050811015611324576000600882815481106110a3576110a261346e565b5b90600052602060002001905060006006826040516110c19190613e3b565b9081526020016040518091039020905080604051806101200160405290816000820180546110ee906133d1565b80601f016020809104026020016040519081016040528092919081815260200182805461111a906133d1565b80156111675780601f1061113c57610100808354040283529160200191611167565b820191906000526020600020905b81548152906001019060200180831161114a57829003601f168201915b505050505081526020016001820154815260200160028201548152602001600382015481526020016004820160009054906101000a900473ffffffffffffffffffffffffffffffffffffffff1673ffffffffffffffffffffffffffffffffffffffff1673ffffffffffffffffffffffffffffffffffffffff1681526020016005820160009054906101000a900473ffffffffffffffffffffffffffffffffffffffff1673ffffffffffffffffffffffffffffffffffffffff1673ffffffffffffffffffffffffffffffffffffffff1681526020016005820160149054906101000a900460ff16151515158152602001600682018054611265906133d1565b80601f0160208091040260200160405190810160405280929190818152602001828054611291906133d1565b80156112de5780601f106112b3576101008083540402835291602001916112de565b820191906000526020600020905b8154815290600101906020018083116112c157829003601f168201915b505050505081526020016007820154815250508484815181106113045761130361346e565b5b60200260200101819052505050808061131c90613598565b915050611080565b508091505090565b60008060068360405161133f9190613cba565b908152602001604051809103902060405180610120016040529081600082018054611369906133d1565b80601f0160208091040260200160405190810160405280929190818152602001828054611395906133d1565b80156113e25780601f106113b7576101008083540402835291602001916113e2565b820191906000526020600020905b8154815290600101906020018083116113c557829003601f168201915b505050505081526020016001820154815260200160028201548152602001600382015481526020016004820160009054906101000a900473ffffffffffffffffffffffffffffffffffffffff1673ffffffffffffffffffffffffffffffffffffffff1673ffffffffffffffffffffffffffffffffffffffff1681526020016005820160009054906101000a900473ffffffffffffffffffffffffffffffffffffffff1673ffffffffffffffffffffffffffffffffffffffff1673ffffffffffffffffffffffffffffffffffffffff1681526020016005820160149054906101000a900460ff161515151581526020016006820180546114e0906133d1565b80601f016020809104026020016040519081016040528092919081815260200182805461150c906133d1565b80156115595780601f1061152e57610100808354040283529160200191611559565b820191906000526020600020905b81548152906001019060200180831161153c57829003601f168201915b505050505081526020016007820154815250509050806080015173ffffffffffffffffffffffffffffffffffffffff163373ffffffffffffffffffffffffffffffffffffffff16146115e0576040517f08c379a00000000000000000000000000000000000000000000000000000000081526004016115d790613e9e565b60405180910390fd5b600360009054906101000a900473ffffffffffffffffffffffffffffffffffffffff1673ffffffffffffffffffffffffffffffffffffffff166324dee48482604001518360a001516040518363ffffffff1660e01b81526004016116459291906134fe565b6020604051808303816000875af1158015611664573d6000803e3d6000fd5b505050506040513d601f19601f82011682018060405250810190611688919061353c565b506006836040516116999190613cba565b9081526020016040518091039020600080820160006116b8919061251b565b6001820160009055600282016000905560038201600090556004820160006101000a81549073ffffffffffffffffffffffffffffffffffffffff02191690556005820160006101000a81549073ffffffffffffffffffffffffffffffffffffffff02191690556005820160146101000a81549060ff0219169055600682016000611742919061251b565b600782016000905550506001915050919050565b60008054906101000a900473ffffffffffffffffffffffffffffffffffffffff1673ffffffffffffffffffffffffffffffffffffffff163373ffffffffffffffffffffffffffffffffffffffff16146117e4576040517f08c379a00000000000000000000000000000000000000000000000000000000081526004016117db90613f0a565b60405180910390fd5b80600590816117f39190613cd1565b5050565b6007818154811061180757600080fd5b906000526020600020906007020160009150905080600001805461182a906133d1565b80601f0160208091040260200160405190810160405280929190818152602001828054611856906133d1565b80156118a35780601f10611878576101008083540402835291602001916118a3565b820191906000526020600020905b81548152906001019060200180831161188657829003601f168201915b5050505050908060010180546118b8906133d1565b80601f01602080910402602001604051908101604052809291908181526020018280546118e4906133d1565b80156119315780601f1061190657610100808354040283529160200191611931565b820191906000526020600020905b81548152906001019060200180831161191457829003601f168201915b5050505050908060020160009054906101000a900473ffffffffffffffffffffffffffffffffffffffff16908060030154908060040154908060050154908060060154905087565b61198161255b565b6006826040516119919190613cba565b9081526020016040518091039020604051806101200160405290816000820180546119bb906133d1565b80601f01602080910402602001604051908101604052809291908181526020018280546119e7906133d1565b8015611a345780601f10611a0957610100808354040283529160200191611a34565b820191906000526020600020905b815481529060010190602001808311611a1757829003601f168201915b505050505081526020016001820154815260200160028201548152602001600382015481526020016004820160009054906101000a900473ffffffffffffffffffffffffffffffffffffffff1673ffffffffffffffffffffffffffffffffffffffff1673ffffffffffffffffffffffffffffffffffffffff1681526020016005820160009054906101000a900473ffffffffffffffffffffffffffffffffffffffff1673ffffffffffffffffffffffffffffffffffffffff1673ffffffffffffffffffffffffffffffffffffffff1681526020016005820160149054906101000a900460ff16151515158152602001600682018054611b32906133d1565b80601f0160208091040260200160405190810160405280929190818152602001828054611b5e906133d1565b8015611bab5780601f10611b8057610100808354040283529160200191611bab565b820191906000526020600020905b815481529060010190602001808311611b8e57829003601f168201915b505050505081526020016007820154815250509050919050565b606060058054611bd4906133d1565b80601f0160208091040260200160405190810160405280929190818152602001828054611c00906133d1565b8015611c4d5780601f10611c2257610100808354040283529160200191611c4d565b820191906000526020600020905b815481529060010190602001808311611c3057829003601f168201915b5050505050905090565b6000600683604051611c699190613cba565b908152602001604051809103902060405180610120016040529081600082018054611c93906133d1565b80601f0160208091040260200160405190810160405280929190818152602001828054611cbf906133d1565b8015611d0c5780601f10611ce157610100808354040283529160200191611d0c565b820191906000526020600020905b815481529060010190602001808311611cef57829003601f168201915b505050505081526020016001820154815260200160028201548152602001600382015481526020016004820160009054906101000a900473ffffffffffffffffffffffffffffffffffffffff1673ffffffffffffffffffffffffffffffffffffffff1673ffffffffffffffffffffffffffffffffffffffff1681526020016005820160009054906101000a900473ffffffffffffffffffffffffffffffffffffffff1673ffffffffffffffffffffffffffffffffffffffff1673ffffffffffffffffffffffffffffffffffffffff1681526020016005820160149054906101000a900460ff16151515158152602001600682018054611e0a906133d1565b80601f0160208091040260200160405190810160405280929190818152602001828054611e36906133d1565b8015611e835780601f10611e5857610100808354040283529160200191611e83565b820191906000526020600020905b815481529060010190602001808311611e6657829003601f168201915b505050505081526020016007820154815250509050828051906020012081600001518051906020012014611eec576040517f08c379a0000000000000000000000000000000000000000000000000000000008152600401611ee390613f76565b60405180910390fd5b42816060015111611f32576040517f08c379a0000000000000000000000000000000000000000000000000000000008152600401611f2990613fe2565b60405180910390fd5b806080015173ffffffffffffffffffffffffffffffffffffffff163373ffffffffffffffffffffffffffffffffffffffff1603611fa4576040517f08c379a0000000000000000000000000000000000000000000000000000000008152600401611f9b9061404e565b60405180910390fd5b600683604051611fb49190613cba565b908152602001604051809103902060008082016000611fd3919061251b565b6001820160009055600282016000905560038201600090556004820160006101000a81549073ffffffffffffffffffffffffffffffffffffffff02191690556005820160006101000a81549073ffffffffffffffffffffffffffffffffffffffff02191690556005820160146101000a81549060ff021916905560068201600061205d919061251b565b6007820160009055505060076040518060e001604052808481526020018360e0015181526020018360a0015173ffffffffffffffffffffffffffffffffffffffff1681526020018360400151815260200183602001518152602001428152602001836101000151815250908060018154018082558091505060019003906000526020600020906007020160009091909190915060008201518160000190816121059190613cd1565b50602082015181600101908161211b9190613cd1565b5060408201518160020160006101000a81548173ffffffffffffffffffffffffffffffffffffffff021916908373ffffffffffffffffffffffffffffffffffffffff160217905550606082015181600301556080820151816004015560a0820151816005015560c08201518160060155505060005b60088054905081101561227b578380519060200120600882815481106121b9576121b861346e565b5b906000526020600020016040516121d09190614111565b60405180910390200361226857600860016008805490506121f191906135e0565b815481106122025761220161346e565b5b90600052602060002001600882815481106122205761221f61346e565b5b906000526020600020019081612236919061413e565b506008805480612249576122486138be565b5b600190038181906000526020600020016000612265919061251b565b90555b808061227390613598565b915050612190565b50505050565b6006818051602081018201805184825260208301602085012081835280955050505050506000915090508060000180546122ba906133d1565b80601f01602080910402602001604051908101604052809291908181526020018280546122e6906133d1565b80156123335780601f1061230857610100808354040283529160200191612333565b820191906000526020600020905b81548152906001019060200180831161231657829003601f168201915b5050505050908060010154908060020154908060030154908060040160009054906101000a900473ffffffffffffffffffffffffffffffffffffffff16908060050160009054906101000a900473ffffffffffffffffffffffffffffffffffffffff16908060050160149054906101000a900460ff16908060060180546123b9906133d1565b80601f01602080910402602001604051908101604052809291908181526020018280546123e5906133d1565b80156124325780601f1061240757610100808354040283529160200191612432565b820191906000526020600020905b81548152906001019060200180831161241557829003601f168201915b5050505050908060070154905089565b60606008805480602002602001604051908101604052809291908181526020016000905b82821015612512578382906000526020600020018054612485906133d1565b80601f01602080910402602001604051908101604052809291908181526020018280546124b1906133d1565b80156124fe5780601f106124d3576101008083540402835291602001916124fe565b820191906000526020600020905b8154815290600101906020018083116124e157829003601f168201915b505050505081526020019060010190612466565b50505050905090565b508054612527906133d1565b6000825580601f106125395750612558565b601f01602090049060005260206000209081019061255791906125d5565b5b50565b60405180610120016040528060608152602001600081526020016000815260200160008152602001600073ffffffffffffffffffffffffffffffffffffffff168152602001600073ffffffffffffffffffffffffffffffffffffffff16815260200160001515815260200160608152602001600081525090565b5b808211156125ee5760008160009055506001016125d6565b5090565b600081519050919050565b600082825260208201905092915050565b6000819050602082019050919050565b600081519050919050565b600082825260208201905092915050565b60005b8381101561265857808201518184015260208101905061263d565b60008484015250505050565b6000601f19601f8301169050919050565b60006126808261261e565b61268a8185612629565b935061269a81856020860161263a565b6126a381612664565b840191505092915050565b600073ffffffffffffffffffffffffffffffffffffffff82169050919050565b60006126d9826126ae565b9050919050565b6126e9816126ce565b82525050565b6000819050919050565b612702816126ef565b82525050565b600060e08301600083015184820360008601526127258282612675565b9150506020830151848203602086015261273f8282612675565b915050604083015161275460408601826126e0565b50606083015161276760608601826126f9565b50608083015161277a60808601826126f9565b5060a083015161278d60a08601826126f9565b5060c08301516127a060c08601826126f9565b508091505092915050565b60006127b78383612708565b905092915050565b6000602082019050919050565b60006127d7826125f2565b6127e181856125fd565b9350836020820285016127f38561260e565b8060005b8581101561282f578484038952815161281085826127ab565b945061281b836127bf565b925060208a019950506001810190506127f7565b50829750879550505050505092915050565b6000602082019050818103600083015261285b81846127cc565b905092915050565b6000604051905090565b600080fd5b600080fd5b612880816126ef565b811461288b57600080fd5b50565b60008135905061289d81612877565b92915050565b6000602082840312156128b9576128b861286d565b5b60006128c78482850161288e565b91505092915050565b600082825260208201905092915050565b60006128ec8261261e565b6128f681856128d0565b935061290681856020860161263a565b61290f81612664565b840191505092915050565b6000602082019050818103600083015261293481846128e1565b905092915050565b600080fd5b7f4e487b7100000000000000000000000000000000000000000000000000000000600052604160045260246000fd5b61297982612664565b810181811067ffffffffffffffff8211171561299857612997612941565b5b80604052505050565b60006129ab612863565b90506129b78282612970565b919050565b600067ffffffffffffffff8211156129d7576129d6612941565b5b602082029050602081019050919050565b600080fd5b60008115159050919050565b612a02816129ed565b8114612a0d57600080fd5b50565b600081359050612a1f816129f9565b92915050565b6000612a38612a33846129bc565b6129a1565b90508083825260208201905060208402830185811115612a5b57612a5a6129e8565b5b835b81811015612a845780612a708882612a10565b845260208401935050602081019050612a5d565b5050509392505050565b600082601f830112612aa357612aa261293c565b5b8135612ab3848260208601612a25565b91505092915050565b600060208284031215612ad257612ad161286d565b5b600082013567ffffffffffffffff811115612af057612aef612872565b5b612afc84828501612a8e565b91505092915050565b600080fd5b600067ffffffffffffffff821115612b2557612b24612941565b5b612b2e82612664565b9050602081019050919050565b82818337600083830152505050565b6000612b5d612b5884612b0a565b6129a1565b905082815260208101848484011115612b7957612b78612b05565b5b612b84848285612b3b565b509392505050565b600082601f830112612ba157612ba061293c565b5b8135612bb1848260208601612b4a565b91505092915050565b612bc3816126ce565b8114612bce57600080fd5b50565b600081359050612be081612bba565b92915050565b600067ffffffffffffffff821115612c0157612c00612941565b5b612c0a82612664565b9050602081019050919050565b6000612c2a612c2584612be6565b6129a1565b905082815260208101848484011115612c4657612c45612b05565b5b612c51848285612b3b565b509392505050565b600082601f830112612c6e57612c6d61293c565b5b8135612c7e848260208601612c17565b91505092915050565b6000819050919050565b612c9a81612c87565b8114612ca557600080fd5b50565b600081359050612cb781612c91565b92915050565b6000806000806000806000806000806101408b8d031215612ce157612ce061286d565b5b60008b013567ffffffffffffffff811115612cff57612cfe612872565b5b612d0b8d828e01612b8c565b9a50506020612d1c8d828e0161288e565b9950506040612d2d8d828e0161288e565b9850506060612d3e8d828e0161288e565b9750506080612d4f8d828e01612bd1565b96505060a08b013567ffffffffffffffff811115612d7057612d6f612872565b5b612d7c8d828e01612b8c565b95505060c0612d8d8d828e0161288e565b94505060e0612d9e8d828e01612bd1565b9350506101008b013567ffffffffffffffff811115612dc057612dbf612872565b5b612dcc8d828e01612c59565b925050610120612dde8d828e01612ca8565b9150509295989b9194979a5092959850565b612df9816129ed565b82525050565b6000602082019050612e146000830184612df0565b92915050565b600081519050919050565b600082825260208201905092915050565b6000819050602082019050919050565b612e4f816129ed565b82525050565b6000610120830160008301518482036000860152612e738282612675565b9150506020830151612e8860208601826126f9565b506040830151612e9b60408601826126f9565b506060830151612eae60608601826126f9565b506080830151612ec160808601826126e0565b5060a0830151612ed460a08601826126e0565b5060c0830151612ee760c0860182612e46565b5060e083015184820360e0860152612eff8282612675565b915050610100830151612f166101008601826126f9565b508091505092915050565b6000612f2d8383612e55565b905092915050565b6000602082019050919050565b6000612f4d82612e1a565b612f578185612e25565b935083602082028501612f6985612e36565b8060005b85811015612fa55784840389528151612f868582612f21565b9450612f9183612f35565b925060208a01995050600181019050612f6d565b50829750879550505050505092915050565b60006020820190508181036000830152612fd18184612f42565b905092915050565b600060208284031215612fef57612fee61286d565b5b600082013567ffffffffffffffff81111561300d5761300c612872565b5b61301984828501612b8c565b91505092915050565b61302b816126ce565b82525050565b61303a816126ef565b82525050565b600060e082019050818103600083015261305a818a6128e1565b9050818103602083015261306e81896128e1565b905061307d6040830188613022565b61308a6060830187613031565b6130976080830186613031565b6130a460a0830185613031565b6130b160c0830184613031565b98975050505050505050565b60006101208301600083015184820360008601526130db8282612675565b91505060208301516130f060208601826126f9565b50604083015161310360408601826126f9565b50606083015161311660608601826126f9565b50608083015161312960808601826126e0565b5060a083015161313c60a08601826126e0565b5060c083015161314f60c0860182612e46565b5060e083015184820360e08601526131678282612675565b91505061010083015161317e6101008601826126f9565b508091505092915050565b600060208201905081810360008301526131a381846130bd565b905092915050565b600080604083850312156131c2576131c161286d565b5b600083013567ffffffffffffffff8111156131e0576131df612872565b5b6131ec85828601612b8c565b925050602083013567ffffffffffffffff81111561320d5761320c612872565b5b61321985828601612b8c565b9150509250929050565b600061012082019050818103600083015261323e818c6128e1565b905061324d602083018b613031565b61325a604083018a613031565b6132676060830189613031565b6132746080830188613022565b61328160a0830187613022565b61328e60c0830186612df0565b81810360e08301526132a081856128e1565b90506132b0610100830184613031565b9a9950505050505050505050565b600081519050919050565b600082825260208201905092915050565b6000819050602082019050919050565b60006132f68383612675565b905092915050565b6000602082019050919050565b6000613316826132be565b61332081856132c9565b935083602082028501613332856132da565b8060005b8581101561336e578484038952815161334f85826132ea565b945061335a836132fe565b925060208a01995050600181019050613336565b50829750879550505050505092915050565b6000602082019050818103600083015261339a818461330b565b905092915050565b7f4e487b7100000000000000000000000000000000000000000000000000000000600052602260045260246000fd5b600060028204905060018216806133e957607f821691505b6020821081036133fc576133fb6133a2565b5b50919050565b7f73656e646572206973206e6f74206f776e657200000000000000000000000000600082015250565b60006134386013836128d0565b915061344382613402565b602082019050919050565b600060208201905081810360008301526134678161342b565b9050919050565b7f4e487b7100000000000000000000000000000000000000000000000000000000600052603260045260246000fd5b600060a08201905081810360008301526134b781886128e1565b905081810360208301526134cb81876128e1565b90506134da6040830186613031565b6134e76060830185613031565b6134f46080830184613031565b9695505050505050565b60006040820190506135136000830185613031565b6135206020830184613022565b9392505050565b600081519050613536816129f9565b92915050565b6000602082840312156135525761355161286d565b5b600061356084828501613527565b91505092915050565b7f4e487b7100000000000000000000000000000000000000000000000000000000600052601160045260246000fd5b60006135a3826126ef565b91507fffffffffffffffffffffffffffffffffffffffffffffffffffffffffffffffff82036135d5576135d4613569565b5b600182019050919050565b60006135eb826126ef565b91506135f6836126ef565b925082820390508181111561360e5761360d613569565b5b92915050565b600081549050613623816133d1565b9050919050565b60008190508160005260206000209050919050565b60006020601f8301049050919050565b600082821b905092915050565b60006008830261368c7fffffffffffffffffffffffffffffffffffffffffffffffffffffffffffffffff8261364f565b613696868361364f565b95508019841693508086168417925050509392505050565b6000819050919050565b60006136d36136ce6136c9846126ef565b6136ae565b6126ef565b9050919050565b6000819050919050565b6136ed836136b8565b6137016136f9826136da565b84845461365c565b825550505050565b600090565b613716613709565b6137218184846136e4565b505050565b5b818110156137455761373a60008261370e565b600181019050613727565b5050565b601f82111561378a5761375b8161362a565b6137648461363f565b81016020851015613773578190505b61378761377f8561363f565b830182613726565b50505b505050565b600082821c905092915050565b60006137ad6000198460080261378f565b1980831691505092915050565b60006137c6838361379c565b9150826002028217905092915050565b8181036137e45750506138bc565b6137ed82613614565b67ffffffffffffffff81111561380657613805612941565b5b61381082546133d1565b61381b828285613749565b6000601f83116001811461384a5760008415613838578287015490505b61384285826137ba565b8655506138b5565b601f1984166138588761362a565b96506138638661362a565b60005b8281101561388b57848901548255600182019150600185019450602081019050613866565b868310156138a857848901546138a4601f89168261379c565b8355505b6001600288020188555050505b5050505050505b565b7f4e487b7100000000000000000000000000000000000000000000000000000000600052603160045260246000fd5b60006138f8826126ef565b9150613903836126ef565b9250828202613911816126ef565b9150828204841483151761392857613927613569565b5b5092915050565b600061393a826126ef565b9150613945836126ef565b925082820190508082111561395d5761395c613569565b5b92915050565b7f4e6f6e636520776173207573656420726563656e746c79000000000000000000600082015250565b60006139996017836128d0565b91506139a482613963565b602082019050919050565b600060208201905081810360008301526139c88161398c565b9050919050565b60006040820190506139e46000830185613022565b6139f16020830184613022565b9392505050565b7f536d617274204d65746572206e6f74207265676973746572656420627920445360008201527f4f00000000000000000000000000000000000000000000000000000000000000602082015250565b6000613a546021836128d0565b9150613a5f826139f8565b604082019050919050565b60006020820190508181036000830152613a8381613a47565b9050919050565b7f4f6666657273206c6966657370616e20697320746f6f206c6f6e670000000000600082015250565b6000613ac0601b836128d0565b9150613acb82613a8a565b602082019050919050565b60006020820190508181036000830152613aef81613ab3565b9050919050565b7f4f6e6c79206f776e65722063616e20616464206f666665720000000000000000600082015250565b6000613b2c6018836128d0565b9150613b3782613af6565b602082019050919050565b60006020820190508181036000830152613b5b81613b1f565b9050919050565b600081519050919050565b600082825260208201905092915050565b6000613b8982613b62565b613b938185613b6d565b9350613ba381856020860161263a565b613bac81612664565b840191505092915050565b613bc081612c87565b82525050565b6000608082019050613bdb6000830187613031565b8181036020830152613bed8186613b7e565b9050613bfc6040830185613bb7565b613c096060830184613022565b95945050505050565b7f4e6f7420656e6f7567682073746f72656420656e657267790000000000000000600082015250565b6000613c486018836128d0565b9150613c5382613c12565b602082019050919050565b60006020820190508181036000830152613c7781613c3b565b9050919050565b600081905092915050565b6000613c948261261e565b613c9e8185613c7e565b9350613cae81856020860161263a565b80840191505092915050565b6000613cc68284613c89565b915081905092915050565b613cda8261261e565b67ffffffffffffffff811115613cf357613cf2612941565b5b613cfd82546133d1565b613d08828285613749565b600060209050601f831160018114613d3b5760008415613d29578287015190505b613d3385826137ba565b865550613d9b565b601f198416613d498661362a565b60005b82811015613d7157848901518255600182019150602085019450602081019050613d4c565b86831015613d8e5784890151613d8a601f89168261379c565b8355505b6001600288020188555050505b505050505050565b60008190508160005260206000209050919050565b60008154613dc5816133d1565b613dcf8186613c7e565b94506001821660008114613dea5760018114613dff57613e32565b60ff1983168652811515820286019350613e32565b613e0885613da3565b60005b83811015613e2a57815481890152600182019150602081019050613e0b565b838801955050505b50505092915050565b6000613e478284613db8565b915081905092915050565b7f4f6e6c79206f776e65722063616e2072656d6f7665206f666665720000000000600082015250565b6000613e88601b836128d0565b9150613e9382613e52565b602082019050919050565b60006020820190508181036000830152613eb781613e7b565b9050919050565b7f4f6e6c79206f776e65722063616e207570646174652067726f7570206b657900600082015250565b6000613ef4601f836128d0565b9150613eff82613ebe565b602082019050919050565b60006020820190508181036000830152613f2381613ee7565b9050919050565b7f4e6f206f6666657220666f756e64000000000000000000000000000000000000600082015250565b6000613f60600e836128d0565b9150613f6b82613f2a565b602082019050919050565b60006020820190508181036000830152613f8f81613f53565b9050919050565b7f43616e6e6f74206275792065787069726564206f666665720000000000000000600082015250565b6000613fcc6018836128d0565b9150613fd782613f96565b602082019050919050565b60006020820190508181036000830152613ffb81613fbf565b9050919050565b7f4f776e65722063616e6e6f7420627579206f776e206f66666572000000000000600082015250565b6000614038601a836128d0565b915061404382614002565b602082019050919050565b600060208201905081810360008301526140678161402b565b9050919050565b600081905092915050565b60008190508160005260206000209050919050565b6000815461409b816133d1565b6140a5818661406e565b945060018216600081146140c057600181146140d557614108565b60ff1983168652811515820286019350614108565b6140de85614079565b60005b83811015614100578154818901526001820191506020810190506140e1565b838801955050505b50505092915050565b600061411d828461408e565b915081905092915050565b600081549050614137816133d1565b9050919050565b81810361414c575050614224565b61415582614128565b67ffffffffffffffff81111561416e5761416d612941565b5b61417882546133d1565b614183828285613749565b6000601f8311600181146141b257600084156141a0578287015490505b6141aa85826137ba565b86555061421d565b601f1984166141c087613da3565b96506141cb8661362a565b60005b828110156141f3578489015482556001820191506001850194506020810190506141ce565b86831015614210578489015461420c601f89168261379c565b8355505b6001600288020188555050505b5050505050505b56fea26469706673582212200f078777d4ad79e38437f2d5848d73a382c7c5467c2d26b99c190dc16c47220564736f6c63430008130033",
  "immutableReferences": {},
  "source": "// SPDX-License-Identifier: GPL-3.0\n// pragma experimental ABIEncoderV2;\npragma solidity ^0.8.9;\n\ninterface IDSO {\n    function registerKey(\n        address smartMeterPubKey,\n        address smartMeterAddress\n    ) external;\n\n    function isRegisteredKey(\n        address smartMeterPubKey,\n        address smartMeterAddress\n    ) external view returns (bool);\n\n    function removeRegisteredKey(address smartMeterPubKey) external;\n}\n\ninterface ISmartMeter {\n    function returnReservedBatteryCharge(\n        uint amount,\n        address smartMeterInstance\n    ) external returns (bool);\n\n    function subtractBatteryCharge(\n        uint amount,\n        bytes memory ots,\n        bytes32 nextOtsHash,\n        address smartMeterInstance\n    ) external returns (bool);\n\n    function getBatteryCharge() external view returns (uint);\n}\n\ncontract Market {\n    address owner;\n    IDSO dso;\n    uint maxOfferLivespan = 1000 * 60 * 60 * 24 * 7;\n    ISmartMeter smartMeter;\n    address dsoAddress;\n    string groupKey;\n\n    struct Offer {\n        string id;\n        uint price;\n        uint amount;\n        uint expiration;\n        address owner;\n        address smartMeterAddress;\n        bool active;\n        string sellerSignature;\n        uint nonce;\n    }\n\n    struct PendingConfirmationOffer {\n        string buyerSignature;\n        string sellerSignature;\n        address smartMeterAddress;\n        uint amount; // Wh\n        uint price; // Euro cents\n        uint timestamp; // Unix\n        uint nonce;\n    }\n\n    mapping(string => Offer) public offers;\n    PendingConfirmationOffer[] public pendingConfirmationOffers;\n\n    string[] public offerIds;\n\n    // mapping is nonce to the timestamp it was used at.\n    mapping(uint => uint) private usedNonces;\n\n    modifier nonceGuard(uint nonce) {\n        uint timestamp = usedNonces[nonce];\n        // nonce was used within the last two weeks.\n        if (timestamp + maxOfferLivespan * 2 > block.timestamp * 1000) {\n            revert(\"Nonce was used recently\");\n        }\n        _;\n    }\n\n    constructor(\n        address _dsoAddress,\n        address _smartMeterContractAddress\n    ) payable {\n        owner = msg.sender;\n        dso = IDSO(_dsoAddress);\n        dsoAddress = _dsoAddress;\n        smartMeter = ISmartMeter(_smartMeterContractAddress);\n    }\n\n    function addOffer(\n        string memory id,\n        uint amount,\n        uint price,\n        uint expiration,\n        address smartMeterAddress,\n        string memory sellerSignature,\n        uint nonce,\n        address sellerAddress,\n        bytes memory ots,\n        bytes32 nextOtsHash\n    ) public nonceGuard(nonce) returns (bool) {\n        // Require conditions\n        require(\n            dso.isRegisteredKey(msg.sender, smartMeterAddress),\n            \"Smart Meter not registered by DSO\"\n        );\n        require(\n            block.timestamp * 1000 + maxOfferLivespan > expiration,\n            \"Offers lifespan is too long\"\n        );\n        require(sellerAddress == msg.sender, \"Only owner can add offer\");\n\n        require(\n            smartMeter.subtractBatteryCharge(\n                amount,\n                ots,\n                nextOtsHash,\n                smartMeterAddress\n            ),\n            \"Not enough stored energy\"\n        );\n\n        // Adding offer\n        usedNonces[nonce] = block.timestamp * 1000;\n        offers[id] = Offer({\n            id: id,\n            amount: amount,\n            price: price,\n            expiration: expiration,\n            owner: msg.sender,\n            smartMeterAddress: smartMeterAddress,\n            active: true,\n            sellerSignature: sellerSignature,\n            nonce: nonce\n        });\n        offerIds.push(id);\n\n        return true;\n    }\n\n    function removeOffer(\n        string memory id\n    ) public returns (bool) {\n        // Initialization\n        Offer memory offer = offers[id];\n\n        // Require conditions\n        require(msg.sender == offer.owner, \"Only owner can remove offer\");\n\n        // Removing offer\n        smartMeter.returnReservedBatteryCharge(offer.amount, offer.smartMeterAddress);\n        delete offers[id];\n\n        return true;\n    }\n\n    function buyOffer(string memory id, string memory buyerSignature) public {\n        // Initialization\n        Offer memory offer = offers[id];\n\n        // Require conditions\n        require(\n            keccak256(bytes(offer.id)) == keccak256(bytes(id)),\n            \"No offer found\"\n        );\n        require(offer.expiration > block.timestamp, \"Cannot buy expired offer\");\n        require(msg.sender != offer.owner, \"Owner cannot buy own offer\");\n\n        // Buying offer\n\n        delete offers[id];\n\n        pendingConfirmationOffers.push(\n            PendingConfirmationOffer({\n                buyerSignature: buyerSignature,\n                sellerSignature: offer.sellerSignature,\n                amount: offer.amount,\n                price: offer.price,\n                timestamp: block.timestamp,\n                nonce: offer.nonce,\n                smartMeterAddress: offer.smartMeterAddress\n            })\n        );\n\n        for (uint i = 0; i < offerIds.length; i++) {\n            // String comparison to remove purchased offer\n            if (keccak256(bytes(offerIds[i])) == keccak256(bytes(id))) {\n                offerIds[i] = offerIds[offerIds.length - 1];\n                offerIds.pop();\n            }\n        }\n    }\n\n    function getOffer(string memory id) public view returns (Offer memory) {\n        return offers[id];\n    }\n\n    function getOffers() public view returns (Offer[] memory) {\n        Offer[] memory offersReturn = new Offer[](offerIds.length);\n        for (uint i = 0; i < offerIds.length; i++) {\n            string storage offerId = offerIds[i];\n            Offer storage offer = offers[offerId];\n\n            offersReturn[i] = offer;\n        }\n        return offersReturn;\n    }\n\n    function getOfferIDs() public view returns (string[] memory) {\n        return offerIds;\n    }\n\n    function getPendingOffers()\n        public\n        view\n        returns (PendingConfirmationOffer[] memory)\n    {\n        return pendingConfirmationOffers;\n    }\n\n    event ApproveOffer(\n        string buyerSignature,\n        string sellerSignature,\n        uint amount,\n        uint timestamp,\n        uint price\n    );\n\n\n    function validatePendingOffers(\n        bool[] memory offerIndicies\n    ) public {\n        require(msg.sender == owner, \"sender is not owner\");\n        for (uint i = 0; i < offerIndicies.length; i++) {\n            PendingConfirmationOffer memory offer = pendingConfirmationOffers[\n                i\n            ];\n            //if it's an accepted index we emit our event\n            if (offerIndicies[i] == true) {\n                emit ApproveOffer(\n                    offer.buyerSignature,\n                    offer.sellerSignature,\n                    offer.amount,\n                    offer.timestamp,\n                    offer.price\n                );\n            } else {\n                // if not the owner gets their battery back.\n                smartMeter.returnReservedBatteryCharge(\n                    offer.amount,\n                    offer.smartMeterAddress\n                );\n            }\n        }\n        // we loop agian to clean up the list\n        for (uint i = 0; i < offerIndicies.length; i++) {\n            // We move the indicies not yet approved down.\n            if (offerIndicies.length < pendingConfirmationOffers.length - i) {\n                pendingConfirmationOffers[i] = pendingConfirmationOffers[\n                    pendingConfirmationOffers.length - 1 - i\n                ];\n            }\n            // And lastly we pop everytime.\n            pendingConfirmationOffers.pop();\n        } \n    }\n\n    function getGroupKey() public view returns (string memory) {\n        return groupKey;\n    }\n\n    function setGroupKey(string memory _groupKey) public {\n        require(msg.sender == owner, \"Only owner can update group key\");\n        groupKey = _groupKey;\n    }\n\n    //Approves one offer\n    // function validateOneOffer(uint nonce) public returns (bool) {\n    //     require(msg.sender == owner, \"sender is not owner\");\n    //     for (uint i = 0; i < pendingConfirmationOffers.length; i++) {\n    //         if (pendingConfirmationOffers[i].nonce == nonce) {\n    //             emit ApproveOffer(\n    //                 pendingConfirmationOffers[i].buyerSignature,\n    //                 pendingConfirmationOffers[i].sellerSignature,\n    //                 pendingConfirmationOffers[i].amount,\n    //                 pendingConfirmationOffers[i].timestamp,\n    //                 pendingConfirmationOffers[i].price\n    //             );\n    //             pendingConfirmationOffers[i] = pendingConfirmationOffers[pendingConfirmationOffers.length - 1];\n    //             pendingConfirmationOffers.pop();\n    //             return true;\n    //         }\n    //     }\n    //     return false;\n    // }\n}\n",
  "sourcePath": "/home/nobert/speciale/blockchain/contracts/Market.sol",
  "compiler": {
    "name": "solc",
    "version": "0.8.19+commit.7dd6d404.Emscripten.clang"
  },
  "schemaVersion": "3.4.16",
  "updatedAt": "2024-01-21T09:35:10.090Z",
  "networkType": "ethereum",
  "devdoc": {
    "kind": "dev",
    "methods": {},
    "version": 1
  },
  "userdoc": {
    "kind": "user",
    "methods": {},
    "version": 1
  }
}