{
  "contractName": "Market",
  "abi": [
    {
      "inputs": [
        {
          "internalType": "address",
          "name": "_dsoAddress",
          "type": "address"
        },
        {
          "internalType": "address",
          "name": "_smartMeterContractAddress",
          "type": "address"
        }
      ],
      "stateMutability": "payable",
      "type": "constructor"
    },
    {
      "anonymous": false,
      "inputs": [
        {
          "indexed": false,
          "internalType": "string",
          "name": "buyerSignature",
          "type": "string"
        },
        {
          "indexed": false,
          "internalType": "string",
          "name": "sellerSignature",
          "type": "string"
        },
        {
          "indexed": false,
          "internalType": "uint256",
          "name": "amount",
          "type": "uint256"
        },
        {
          "indexed": false,
          "internalType": "uint256",
          "name": "timestamp",
          "type": "uint256"
        },
        {
          "indexed": false,
          "internalType": "uint256",
          "name": "price",
          "type": "uint256"
        }
      ],
      "name": "SupplyContract",
      "type": "event"
    },
    {
      "inputs": [
        {
          "internalType": "uint256",
          "name": "",
          "type": "uint256"
        }
      ],
      "name": "offerIds",
      "outputs": [
        {
          "internalType": "string",
          "name": "",
          "type": "string"
        }
      ],
      "stateMutability": "view",
      "type": "function"
    },
    {
      "inputs": [
        {
          "internalType": "string",
          "name": "",
          "type": "string"
        }
      ],
      "name": "offers",
      "outputs": [
        {
          "internalType": "string",
          "name": "id",
          "type": "string"
        },
        {
          "internalType": "uint256",
          "name": "price",
          "type": "uint256"
        },
        {
          "internalType": "uint256",
          "name": "amount",
          "type": "uint256"
        },
        {
          "internalType": "uint256",
          "name": "expiration",
          "type": "uint256"
        },
        {
          "internalType": "address",
          "name": "owner",
          "type": "address"
        },
        {
          "internalType": "address",
          "name": "smartMeterAddress",
          "type": "address"
        },
        {
          "internalType": "bool",
          "name": "active",
          "type": "bool"
        },
        {
          "internalType": "string",
          "name": "sellerSignature",
          "type": "string"
        },
        {
          "internalType": "uint256",
          "name": "nonce",
          "type": "uint256"
        }
      ],
      "stateMutability": "view",
      "type": "function"
    },
    {
      "inputs": [
        {
          "internalType": "uint256",
          "name": "",
          "type": "uint256"
        }
      ],
      "name": "pendingSupplyContracts",
      "outputs": [
        {
          "internalType": "string",
          "name": "buyerSignature",
          "type": "string"
        },
        {
          "internalType": "string",
          "name": "sellerSignature",
          "type": "string"
        },
        {
          "internalType": "address",
          "name": "smartMeterAddress",
          "type": "address"
        },
        {
          "internalType": "uint256",
          "name": "amount",
          "type": "uint256"
        },
        {
          "internalType": "uint256",
          "name": "price",
          "type": "uint256"
        },
        {
          "internalType": "uint256",
          "name": "timestamp",
          "type": "uint256"
        },
        {
          "internalType": "uint256",
          "name": "nonce",
          "type": "uint256"
        }
      ],
      "stateMutability": "view",
      "type": "function"
    },
    {
      "inputs": [
        {
          "internalType": "string",
          "name": "id",
          "type": "string"
        },
        {
          "internalType": "uint256",
          "name": "amount",
          "type": "uint256"
        },
        {
          "internalType": "uint256",
          "name": "price",
          "type": "uint256"
        },
        {
          "internalType": "uint256",
          "name": "expiration",
          "type": "uint256"
        },
        {
          "internalType": "address",
          "name": "smartMeterAddress",
          "type": "address"
        },
        {
          "internalType": "string",
          "name": "sellerSignature",
          "type": "string"
        },
        {
          "internalType": "uint256",
          "name": "nonce",
          "type": "uint256"
        },
        {
          "internalType": "address",
          "name": "sellerAddress",
          "type": "address"
        },
        {
          "internalType": "bytes",
          "name": "ots",
          "type": "bytes"
        },
        {
          "internalType": "bytes32",
          "name": "nextOtsHash",
          "type": "bytes32"
        }
      ],
      "name": "addOffer",
      "outputs": [
        {
          "internalType": "bool",
          "name": "",
          "type": "bool"
        }
      ],
      "stateMutability": "nonpayable",
      "type": "function"
    },
    {
      "inputs": [
        {
          "internalType": "string",
          "name": "id",
          "type": "string"
        }
      ],
      "name": "removeOffer",
      "outputs": [
        {
          "internalType": "bool",
          "name": "",
          "type": "bool"
        }
      ],
      "stateMutability": "nonpayable",
      "type": "function"
    },
    {
      "inputs": [
        {
          "internalType": "string",
          "name": "id",
          "type": "string"
        },
        {
          "internalType": "string",
          "name": "buyerSignature",
          "type": "string"
        }
      ],
      "name": "buyOffer",
      "outputs": [],
      "stateMutability": "nonpayable",
      "type": "function"
    },
    {
      "inputs": [
        {
          "internalType": "string",
          "name": "id",
          "type": "string"
        }
      ],
      "name": "getOffer",
      "outputs": [
        {
          "components": [
            {
              "internalType": "string",
              "name": "id",
              "type": "string"
            },
            {
              "internalType": "uint256",
              "name": "price",
              "type": "uint256"
            },
            {
              "internalType": "uint256",
              "name": "amount",
              "type": "uint256"
            },
            {
              "internalType": "uint256",
              "name": "expiration",
              "type": "uint256"
            },
            {
              "internalType": "address",
              "name": "owner",
              "type": "address"
            },
            {
              "internalType": "address",
              "name": "smartMeterAddress",
              "type": "address"
            },
            {
              "internalType": "bool",
              "name": "active",
              "type": "bool"
            },
            {
              "internalType": "string",
              "name": "sellerSignature",
              "type": "string"
            },
            {
              "internalType": "uint256",
              "name": "nonce",
              "type": "uint256"
            }
          ],
          "internalType": "struct Market.Offer",
          "name": "",
          "type": "tuple"
        }
      ],
      "stateMutability": "view",
      "type": "function"
    },
    {
      "inputs": [],
      "name": "getOffers",
      "outputs": [
        {
          "components": [
            {
              "internalType": "string",
              "name": "id",
              "type": "string"
            },
            {
              "internalType": "uint256",
              "name": "price",
              "type": "uint256"
            },
            {
              "internalType": "uint256",
              "name": "amount",
              "type": "uint256"
            },
            {
              "internalType": "uint256",
              "name": "expiration",
              "type": "uint256"
            },
            {
              "internalType": "address",
              "name": "owner",
              "type": "address"
            },
            {
              "internalType": "address",
              "name": "smartMeterAddress",
              "type": "address"
            },
            {
              "internalType": "bool",
              "name": "active",
              "type": "bool"
            },
            {
              "internalType": "string",
              "name": "sellerSignature",
              "type": "string"
            },
            {
              "internalType": "uint256",
              "name": "nonce",
              "type": "uint256"
            }
          ],
          "internalType": "struct Market.Offer[]",
          "name": "",
          "type": "tuple[]"
        }
      ],
      "stateMutability": "view",
      "type": "function"
    },
    {
      "inputs": [],
      "name": "getOfferIDs",
      "outputs": [
        {
          "internalType": "string[]",
          "name": "",
          "type": "string[]"
        }
      ],
      "stateMutability": "view",
      "type": "function"
    },
    {
      "inputs": [],
      "name": "getPendingSupplyContracts",
      "outputs": [
        {
          "components": [
            {
              "internalType": "string",
              "name": "buyerSignature",
              "type": "string"
            },
            {
              "internalType": "string",
              "name": "sellerSignature",
              "type": "string"
            },
            {
              "internalType": "address",
              "name": "smartMeterAddress",
              "type": "address"
            },
            {
              "internalType": "uint256",
              "name": "amount",
              "type": "uint256"
            },
            {
              "internalType": "uint256",
              "name": "price",
              "type": "uint256"
            },
            {
              "internalType": "uint256",
              "name": "timestamp",
              "type": "uint256"
            },
            {
              "internalType": "uint256",
              "name": "nonce",
              "type": "uint256"
            }
          ],
          "internalType": "struct Market.PendingSupplyContract[]",
          "name": "",
          "type": "tuple[]"
        }
      ],
      "stateMutability": "view",
      "type": "function"
    },
    {
      "inputs": [
        {
          "internalType": "bool[]",
          "name": "offerIndicies",
          "type": "bool[]"
        }
      ],
      "name": "validatePendingSupplyContracts",
      "outputs": [],
      "stateMutability": "nonpayable",
      "type": "function"
    },
    {
      "inputs": [],
      "name": "getGroupKey",
      "outputs": [
        {
          "internalType": "string",
          "name": "",
          "type": "string"
        }
      ],
      "stateMutability": "view",
      "type": "function"
    },
    {
      "inputs": [
        {
          "internalType": "string",
          "name": "_groupKey",
          "type": "string"
        }
      ],
      "name": "setGroupKey",
      "outputs": [],
      "stateMutability": "nonpayable",
      "type": "function"
    }
  ],
  "bytecode": "0x608060405263240c840060025560405162004459380380620044598339818101604052810190620000319190620001a6565b336000806101000a81548173ffffffffffffffffffffffffffffffffffffffff021916908373ffffffffffffffffffffffffffffffffffffffff16021790555081600160006101000a81548173ffffffffffffffffffffffffffffffffffffffff021916908373ffffffffffffffffffffffffffffffffffffffff16021790555081600460006101000a81548173ffffffffffffffffffffffffffffffffffffffff021916908373ffffffffffffffffffffffffffffffffffffffff16021790555080600360006101000a81548173ffffffffffffffffffffffffffffffffffffffff021916908373ffffffffffffffffffffffffffffffffffffffff1602179055505050620001ed565b600080fd5b600073ffffffffffffffffffffffffffffffffffffffff82169050919050565b60006200016e8262000141565b9050919050565b620001808162000161565b81146200018c57600080fd5b50565b600081519050620001a08162000175565b92915050565b60008060408385031215620001c057620001bf6200013c565b5b6000620001d0858286016200018f565b9250506020620001e3858286016200018f565b9150509250929050565b61425c80620001fd6000396000f3fe608060405234801561001057600080fd5b50600436106100cf5760003560e01c8063572bb48b1161008c578063ac37c23111610066578063ac37c23114610240578063cdc2e6d71461025c578063d5fd377614610278578063f6a80192146102b0576100cf565b8063572bb48b146101bc5780637a510116146101f25780637b8203b914610222576100cf565b8063110b9d89146100d4578063197713bd146101045780633b67a553146101345780633ee992ee1461015257806346b342231461017057806355341425146101a0575b600080fd5b6100ee60048036038101906100e9919061263c565b6102ce565b6040516100fb91906126f9565b60405180910390f35b61011e60048036038101906101199190612985565b61037a565b60405161012b9190612ad3565b60405180910390f35b61013c610888565b6040516101499190612cbb565b60405180910390f35b61015a610a89565b6040516101679190612e7a565b60405180910390f35b61018a60048036038101906101859190612e9c565b610d97565b6040516101979190612ad3565b60405180910390f35b6101ba60048036038101906101b59190612e9c565b6111c1565b005b6101d660048036038101906101d1919061263c565b611262565b6040516101e99796959493929190612f03565b60405180910390f35b61020c60048036038101906102079190612e9c565b6113e4565b604051610219919061304c565b60405180910390f35b61022a611630565b60405161023791906126f9565b60405180910390f35b61025a60048036038101906102559190613162565b6116c2565b005b610276600480360381019061027191906131ab565b611c57565b005b610292600480360381019061028d9190612e9c565b612281565b6040516102a799989796959493929190613223565b60405180910390f35b6102b8612442565b6040516102c59190613380565b60405180910390f35b600881815481106102de57600080fd5b9060005260206000200160009150905080546102f9906133d1565b80601f0160208091040260200160405190810160405280929190818152602001828054610325906133d1565b80156103725780601f1061034757610100808354040283529160200191610372565b820191906000526020600020905b81548152906001019060200180831161035557829003601f168201915b505050505081565b6000846000600960008381526020019081526020016000205490506103e8426103a39190613431565b600280546103b19190613431565b826103bc9190613473565b11156103fd576040517f08c379a00000000000000000000000000000000000000000000000000000000081526004016103f4906134f3565b60405180910390fd5b600160009054906101000a900473ffffffffffffffffffffffffffffffffffffffff1673ffffffffffffffffffffffffffffffffffffffff1663eb4e352d338b6040518363ffffffff1660e01b815260040161045a929190613513565b602060405180830381865afa158015610477573d6000803e3d6000fd5b505050506040513d601f19601f8201168201806040525081019061049b9190613551565b6104da576040517f08c379a00000000000000000000000000000000000000000000000000000000081526004016104d1906135f0565b60405180910390fd5b896002546103e8426104ec9190613431565b6104f69190613473565b11610536576040517f08c379a000000000000000000000000000000000000000000000000000000000815260040161052d9061365c565b60405180910390fd5b3373ffffffffffffffffffffffffffffffffffffffff168673ffffffffffffffffffffffffffffffffffffffff16146105a4576040517f08c379a000000000000000000000000000000000000000000000000000000000815260040161059b906136c8565b60405180910390fd5b600360009054906101000a900473ffffffffffffffffffffffffffffffffffffffff1673ffffffffffffffffffffffffffffffffffffffff16635847ebed8d87878d6040518563ffffffff1660e01b8152600401610605949392919061374c565b6020604051808303816000875af1158015610624573d6000803e3d6000fd5b505050506040513d601f19601f820116820180604052508101906106489190613551565b610687576040517f08c379a000000000000000000000000000000000000000000000000000000000815260040161067e906137e4565b60405180910390fd5b6103e8426106959190613431565b60096000898152602001908152602001600020819055506040518061012001604052808e81526020018c81526020018d81526020018b81526020013373ffffffffffffffffffffffffffffffffffffffff1681526020018a73ffffffffffffffffffffffffffffffffffffffff1681526020016001151581526020018981526020018881525060068e60405161072b9190613840565b9081526020016040518091039020600082015181600001908161074e9190613a03565b5060208201518160010155604082015181600201556060820151816003015560808201518160040160006101000a81548173ffffffffffffffffffffffffffffffffffffffff021916908373ffffffffffffffffffffffffffffffffffffffff16021790555060a08201518160050160006101000a81548173ffffffffffffffffffffffffffffffffffffffff021916908373ffffffffffffffffffffffffffffffffffffffff16021790555060c08201518160050160146101000a81548160ff02191690831515021790555060e08201518160060190816108309190613a03565b50610100820151816007015590505060088d9080600181540180825580915050600190039060005260206000200160009091909190915090816108739190613a03565b506001925050509a9950505050505050505050565b60606007805480602002602001604051908101604052809291908181526020016000905b82821015610a8057838290600052602060002090600702016040518060e00160405290816000820180546108df906133d1565b80601f016020809104026020016040519081016040528092919081815260200182805461090b906133d1565b80156109585780601f1061092d57610100808354040283529160200191610958565b820191906000526020600020905b81548152906001019060200180831161093b57829003601f168201915b50505050508152602001600182018054610971906133d1565b80601f016020809104026020016040519081016040528092919081815260200182805461099d906133d1565b80156109ea5780601f106109bf576101008083540402835291602001916109ea565b820191906000526020600020905b8154815290600101906020018083116109cd57829003601f168201915b505050505081526020016002820160009054906101000a900473ffffffffffffffffffffffffffffffffffffffff1673ffffffffffffffffffffffffffffffffffffffff1673ffffffffffffffffffffffffffffffffffffffff168152602001600382015481526020016004820154815260200160058201548152602001600682015481525050815260200190600101906108ac565b50505050905090565b6060600060088054905067ffffffffffffffff811115610aac57610aab612725565b5b604051908082528060200260200182016040528015610ae557816020015b610ad261251b565b815260200190600190039081610aca5790505b50905060005b600880549050811015610d8f57600060088281548110610b0e57610b0d613ad5565b5b9060005260206000200190506000600682604051610b2c9190613b9c565b908152602001604051809103902090508060405180610120016040529081600082018054610b59906133d1565b80601f0160208091040260200160405190810160405280929190818152602001828054610b85906133d1565b8015610bd25780601f10610ba757610100808354040283529160200191610bd2565b820191906000526020600020905b815481529060010190602001808311610bb557829003601f168201915b505050505081526020016001820154815260200160028201548152602001600382015481526020016004820160009054906101000a900473ffffffffffffffffffffffffffffffffffffffff1673ffffffffffffffffffffffffffffffffffffffff1673ffffffffffffffffffffffffffffffffffffffff1681526020016005820160009054906101000a900473ffffffffffffffffffffffffffffffffffffffff1673ffffffffffffffffffffffffffffffffffffffff1673ffffffffffffffffffffffffffffffffffffffff1681526020016005820160149054906101000a900460ff16151515158152602001600682018054610cd0906133d1565b80601f0160208091040260200160405190810160405280929190818152602001828054610cfc906133d1565b8015610d495780601f10610d1e57610100808354040283529160200191610d49565b820191906000526020600020905b815481529060010190602001808311610d2c57829003601f168201915b50505050508152602001600782015481525050848481518110610d6f57610d6e613ad5565b5b602002602001018190525050508080610d8790613bb3565b915050610aeb565b508091505090565b600080600683604051610daa9190613840565b908152602001604051809103902060405180610120016040529081600082018054610dd4906133d1565b80601f0160208091040260200160405190810160405280929190818152602001828054610e00906133d1565b8015610e4d5780601f10610e2257610100808354040283529160200191610e4d565b820191906000526020600020905b815481529060010190602001808311610e3057829003601f168201915b505050505081526020016001820154815260200160028201548152602001600382015481526020016004820160009054906101000a900473ffffffffffffffffffffffffffffffffffffffff1673ffffffffffffffffffffffffffffffffffffffff1673ffffffffffffffffffffffffffffffffffffffff1681526020016005820160009054906101000a900473ffffffffffffffffffffffffffffffffffffffff1673ffffffffffffffffffffffffffffffffffffffff1673ffffffffffffffffffffffffffffffffffffffff1681526020016005820160149054906101000a900460ff16151515158152602001600682018054610f4b906133d1565b80601f0160208091040260200160405190810160405280929190818152602001828054610f77906133d1565b8015610fc45780601f10610f9957610100808354040283529160200191610fc4565b820191906000526020600020905b815481529060010190602001808311610fa757829003601f168201915b505050505081526020016007820154815250509050806080015173ffffffffffffffffffffffffffffffffffffffff163373ffffffffffffffffffffffffffffffffffffffff161461104b576040517f08c379a000000000000000000000000000000000000000000000000000000000815260040161104290613c47565b60405180910390fd5b600360009054906101000a900473ffffffffffffffffffffffffffffffffffffffff1673ffffffffffffffffffffffffffffffffffffffff166324dee48482604001518360a001516040518363ffffffff1660e01b81526004016110b0929190613c67565b6020604051808303816000875af11580156110cf573d6000803e3d6000fd5b505050506040513d601f19601f820116820180604052508101906110f39190613551565b506006836040516111049190613840565b9081526020016040518091039020600080820160006111239190612595565b6001820160009055600282016000905560038201600090556004820160006101000a81549073ffffffffffffffffffffffffffffffffffffffff02191690556005820160006101000a81549073ffffffffffffffffffffffffffffffffffffffff02191690556005820160146101000a81549060ff02191690556006820160006111ad9190612595565b600782016000905550506001915050919050565b60008054906101000a900473ffffffffffffffffffffffffffffffffffffffff1673ffffffffffffffffffffffffffffffffffffffff163373ffffffffffffffffffffffffffffffffffffffff161461124f576040517f08c379a000000000000000000000000000000000000000000000000000000000815260040161124690613cdc565b60405180910390fd5b806005908161125e9190613a03565b5050565b6007818154811061127257600080fd5b9060005260206000209060070201600091509050806000018054611295906133d1565b80601f01602080910402602001604051908101604052809291908181526020018280546112c1906133d1565b801561130e5780601f106112e35761010080835404028352916020019161130e565b820191906000526020600020905b8154815290600101906020018083116112f157829003601f168201915b505050505090806001018054611323906133d1565b80601f016020809104026020016040519081016040528092919081815260200182805461134f906133d1565b801561139c5780601f106113715761010080835404028352916020019161139c565b820191906000526020600020905b81548152906001019060200180831161137f57829003601f168201915b5050505050908060020160009054906101000a900473ffffffffffffffffffffffffffffffffffffffff16908060030154908060040154908060050154908060060154905087565b6113ec61251b565b6006826040516113fc9190613840565b908152602001604051809103902060405180610120016040529081600082018054611426906133d1565b80601f0160208091040260200160405190810160405280929190818152602001828054611452906133d1565b801561149f5780601f106114745761010080835404028352916020019161149f565b820191906000526020600020905b81548152906001019060200180831161148257829003601f168201915b505050505081526020016001820154815260200160028201548152602001600382015481526020016004820160009054906101000a900473ffffffffffffffffffffffffffffffffffffffff1673ffffffffffffffffffffffffffffffffffffffff1673ffffffffffffffffffffffffffffffffffffffff1681526020016005820160009054906101000a900473ffffffffffffffffffffffffffffffffffffffff1673ffffffffffffffffffffffffffffffffffffffff1673ffffffffffffffffffffffffffffffffffffffff1681526020016005820160149054906101000a900460ff1615151515815260200160068201805461159d906133d1565b80601f01602080910402602001604051908101604052809291908181526020018280546115c9906133d1565b80156116165780601f106115eb57610100808354040283529160200191611616565b820191906000526020600020905b8154815290600101906020018083116115f957829003601f168201915b505050505081526020016007820154815250509050919050565b60606005805461163f906133d1565b80601f016020809104026020016040519081016040528092919081815260200182805461166b906133d1565b80156116b85780601f1061168d576101008083540402835291602001916116b8565b820191906000526020600020905b81548152906001019060200180831161169b57829003601f168201915b5050505050905090565b60008054906101000a900473ffffffffffffffffffffffffffffffffffffffff1673ffffffffffffffffffffffffffffffffffffffff163373ffffffffffffffffffffffffffffffffffffffff1614611750576040517f08c379a000000000000000000000000000000000000000000000000000000000815260040161174790613d48565b60405180910390fd5b60005b8151811015611a6b5760006007828154811061177257611771613ad5565b5b90600052602060002090600702016040518060e001604052908160008201805461179b906133d1565b80601f01602080910402602001604051908101604052809291908181526020018280546117c7906133d1565b80156118145780601f106117e957610100808354040283529160200191611814565b820191906000526020600020905b8154815290600101906020018083116117f757829003601f168201915b5050505050815260200160018201805461182d906133d1565b80601f0160208091040260200160405190810160405280929190818152602001828054611859906133d1565b80156118a65780601f1061187b576101008083540402835291602001916118a6565b820191906000526020600020905b81548152906001019060200180831161188957829003601f168201915b505050505081526020016002820160009054906101000a900473ffffffffffffffffffffffffffffffffffffffff1673ffffffffffffffffffffffffffffffffffffffff1673ffffffffffffffffffffffffffffffffffffffff16815260200160038201548152602001600482015481526020016005820154815260200160068201548152505090506001151583838151811061194657611945613ad5565b5b60200260200101511515036119ad577f3354c8c9e72d4288f9f8b70e7f7279ce3d78fdae7aef6be164a6f8cbba9369b28160000151826020015183606001518460a0015185608001516040516119a0959493929190613d68565b60405180910390a1611a57565b600360009054906101000a900473ffffffffffffffffffffffffffffffffffffffff1673ffffffffffffffffffffffffffffffffffffffff166324dee484826060015183604001516040518363ffffffff1660e01b8152600401611a12929190613c67565b6020604051808303816000875af1158015611a31573d6000803e3d6000fd5b505050506040513d601f19601f82011682018060405250810190611a559190613551565b505b508080611a6390613bb3565b915050611753565b5060005b8151811015611c535780600780549050611a899190613dc9565b82511015611bae576007816001600780549050611aa69190613dc9565b611ab09190613dc9565b81548110611ac157611ac0613ad5565b5b906000526020600020906007020160078281548110611ae357611ae2613ad5565b5b906000526020600020906007020160008201816000019081611b059190613e13565b5060018201816001019081611b1a9190613e13565b506002820160009054906101000a900473ffffffffffffffffffffffffffffffffffffffff168160020160006101000a81548173ffffffffffffffffffffffffffffffffffffffff021916908373ffffffffffffffffffffffffffffffffffffffff160217905550600382015481600301556004820154816004015560058201548160050155600682015481600601559050505b6007805480611bc057611bbf613efb565b5b600190038181906000526020600020906007020160008082016000611be59190612595565b600182016000611bf59190612595565b6002820160006101000a81549073ffffffffffffffffffffffffffffffffffffffff02191690556003820160009055600482016000905560058201600090556006820160009055505090558080611c4b90613bb3565b915050611a6f565b5050565b6000600683604051611c699190613840565b908152602001604051809103902060405180610120016040529081600082018054611c93906133d1565b80601f0160208091040260200160405190810160405280929190818152602001828054611cbf906133d1565b8015611d0c5780601f10611ce157610100808354040283529160200191611d0c565b820191906000526020600020905b815481529060010190602001808311611cef57829003601f168201915b505050505081526020016001820154815260200160028201548152602001600382015481526020016004820160009054906101000a900473ffffffffffffffffffffffffffffffffffffffff1673ffffffffffffffffffffffffffffffffffffffff1673ffffffffffffffffffffffffffffffffffffffff1681526020016005820160009054906101000a900473ffffffffffffffffffffffffffffffffffffffff1673ffffffffffffffffffffffffffffffffffffffff1673ffffffffffffffffffffffffffffffffffffffff1681526020016005820160149054906101000a900460ff16151515158152602001600682018054611e0a906133d1565b80601f0160208091040260200160405190810160405280929190818152602001828054611e36906133d1565b8015611e835780601f10611e5857610100808354040283529160200191611e83565b820191906000526020600020905b815481529060010190602001808311611e6657829003601f168201915b505050505081526020016007820154815250509050828051906020012081600001518051906020012014611eec576040517f08c379a0000000000000000000000000000000000000000000000000000000008152600401611ee390613f76565b60405180910390fd5b42816060015111611f32576040517f08c379a0000000000000000000000000000000000000000000000000000000008152600401611f2990613fe2565b60405180910390fd5b806080015173ffffffffffffffffffffffffffffffffffffffff163373ffffffffffffffffffffffffffffffffffffffff1603611fa4576040517f08c379a0000000000000000000000000000000000000000000000000000000008152600401611f9b9061404e565b60405180910390fd5b600683604051611fb49190613840565b908152602001604051809103902060008082016000611fd39190612595565b6001820160009055600282016000905560038201600090556004820160006101000a81549073ffffffffffffffffffffffffffffffffffffffff02191690556005820160006101000a81549073ffffffffffffffffffffffffffffffffffffffff02191690556005820160146101000a81549060ff021916905560068201600061205d9190612595565b6007820160009055505060076040518060e001604052808481526020018360e0015181526020018360a0015173ffffffffffffffffffffffffffffffffffffffff1681526020018360400151815260200183602001518152602001428152602001836101000151815250908060018154018082558091505060019003906000526020600020906007020160009091909190915060008201518160000190816121059190613a03565b50602082015181600101908161211b9190613a03565b5060408201518160020160006101000a81548173ffffffffffffffffffffffffffffffffffffffff021916908373ffffffffffffffffffffffffffffffffffffffff160217905550606082015181600301556080820151816004015560a0820151816005015560c08201518160060155505060005b60088054905081101561227b578380519060200120600882815481106121b9576121b8613ad5565b5b906000526020600020016040516121d09190614111565b60405180910390200361226857600860016008805490506121f19190613dc9565b8154811061220257612201613ad5565b5b90600052602060002001600882815481106122205761221f613ad5565b5b906000526020600020019081612236919061413e565b50600880548061224957612248613efb565b5b6001900381819060005260206000200160006122659190612595565b90555b808061227390613bb3565b915050612190565b50505050565b6006818051602081018201805184825260208301602085012081835280955050505050506000915090508060000180546122ba906133d1565b80601f01602080910402602001604051908101604052809291908181526020018280546122e6906133d1565b80156123335780601f1061230857610100808354040283529160200191612333565b820191906000526020600020905b81548152906001019060200180831161231657829003601f168201915b5050505050908060010154908060020154908060030154908060040160009054906101000a900473ffffffffffffffffffffffffffffffffffffffff16908060050160009054906101000a900473ffffffffffffffffffffffffffffffffffffffff16908060050160149054906101000a900460ff16908060060180546123b9906133d1565b80601f01602080910402602001604051908101604052809291908181526020018280546123e5906133d1565b80156124325780601f1061240757610100808354040283529160200191612432565b820191906000526020600020905b81548152906001019060200180831161241557829003601f168201915b5050505050908060070154905089565b60606008805480602002602001604051908101604052809291908181526020016000905b82821015612512578382906000526020600020018054612485906133d1565b80601f01602080910402602001604051908101604052809291908181526020018280546124b1906133d1565b80156124fe5780601f106124d3576101008083540402835291602001916124fe565b820191906000526020600020905b8154815290600101906020018083116124e157829003601f168201915b505050505081526020019060010190612466565b50505050905090565b60405180610120016040528060608152602001600081526020016000815260200160008152602001600073ffffffffffffffffffffffffffffffffffffffff168152602001600073ffffffffffffffffffffffffffffffffffffffff16815260200160001515815260200160608152602001600081525090565b5080546125a1906133d1565b6000825580601f106125b357506125d2565b601f0160209004906000526020600020908101906125d191906125d5565b5b50565b5b808211156125ee5760008160009055506001016125d6565b5090565b6000604051905090565b600080fd5b600080fd5b6000819050919050565b61261981612606565b811461262457600080fd5b50565b60008135905061263681612610565b92915050565b600060208284031215612652576126516125fc565b5b600061266084828501612627565b91505092915050565b600081519050919050565b600082825260208201905092915050565b60005b838110156126a3578082015181840152602081019050612688565b60008484015250505050565b6000601f19601f8301169050919050565b60006126cb82612669565b6126d58185612674565b93506126e5818560208601612685565b6126ee816126af565b840191505092915050565b6000602082019050818103600083015261271381846126c0565b905092915050565b600080fd5b600080fd5b7f4e487b7100000000000000000000000000000000000000000000000000000000600052604160045260246000fd5b61275d826126af565b810181811067ffffffffffffffff8211171561277c5761277b612725565b5b80604052505050565b600061278f6125f2565b905061279b8282612754565b919050565b600067ffffffffffffffff8211156127bb576127ba612725565b5b6127c4826126af565b9050602081019050919050565b82818337600083830152505050565b60006127f36127ee846127a0565b612785565b90508281526020810184848401111561280f5761280e612720565b5b61281a8482856127d1565b509392505050565b600082601f8301126128375761283661271b565b5b81356128478482602086016127e0565b91505092915050565b600073ffffffffffffffffffffffffffffffffffffffff82169050919050565b600061287b82612850565b9050919050565b61288b81612870565b811461289657600080fd5b50565b6000813590506128a881612882565b92915050565b600067ffffffffffffffff8211156128c9576128c8612725565b5b6128d2826126af565b9050602081019050919050565b60006128f26128ed846128ae565b612785565b90508281526020810184848401111561290e5761290d612720565b5b6129198482856127d1565b509392505050565b600082601f8301126129365761293561271b565b5b81356129468482602086016128df565b91505092915050565b6000819050919050565b6129628161294f565b811461296d57600080fd5b50565b60008135905061297f81612959565b92915050565b6000806000806000806000806000806101408b8d0312156129a9576129a86125fc565b5b60008b013567ffffffffffffffff8111156129c7576129c6612601565b5b6129d38d828e01612822565b9a505060206129e48d828e01612627565b99505060406129f58d828e01612627565b9850506060612a068d828e01612627565b9750506080612a178d828e01612899565b96505060a08b013567ffffffffffffffff811115612a3857612a37612601565b5b612a448d828e01612822565b95505060c0612a558d828e01612627565b94505060e0612a668d828e01612899565b9350506101008b013567ffffffffffffffff811115612a8857612a87612601565b5b612a948d828e01612921565b925050610120612aa68d828e01612970565b9150509295989b9194979a5092959850565b60008115159050919050565b612acd81612ab8565b82525050565b6000602082019050612ae86000830184612ac4565b92915050565b600081519050919050565b600082825260208201905092915050565b6000819050602082019050919050565b600082825260208201905092915050565b6000612b3682612669565b612b408185612b1a565b9350612b50818560208601612685565b612b59816126af565b840191505092915050565b612b6d81612870565b82525050565b612b7c81612606565b82525050565b600060e0830160008301518482036000860152612b9f8282612b2b565b91505060208301518482036020860152612bb98282612b2b565b9150506040830151612bce6040860182612b64565b506060830151612be16060860182612b73565b506080830151612bf46080860182612b73565b5060a0830151612c0760a0860182612b73565b5060c0830151612c1a60c0860182612b73565b508091505092915050565b6000612c318383612b82565b905092915050565b6000602082019050919050565b6000612c5182612aee565b612c5b8185612af9565b935083602082028501612c6d85612b0a565b8060005b85811015612ca95784840389528151612c8a8582612c25565b9450612c9583612c39565b925060208a01995050600181019050612c71565b50829750879550505050505092915050565b60006020820190508181036000830152612cd58184612c46565b905092915050565b600081519050919050565b600082825260208201905092915050565b6000819050602082019050919050565b612d1281612ab8565b82525050565b6000610120830160008301518482036000860152612d368282612b2b565b9150506020830151612d4b6020860182612b73565b506040830151612d5e6040860182612b73565b506060830151612d716060860182612b73565b506080830151612d846080860182612b64565b5060a0830151612d9760a0860182612b64565b5060c0830151612daa60c0860182612d09565b5060e083015184820360e0860152612dc28282612b2b565b915050610100830151612dd9610100860182612b73565b508091505092915050565b6000612df08383612d18565b905092915050565b6000602082019050919050565b6000612e1082612cdd565b612e1a8185612ce8565b935083602082028501612e2c85612cf9565b8060005b85811015612e685784840389528151612e498582612de4565b9450612e5483612df8565b925060208a01995050600181019050612e30565b50829750879550505050505092915050565b60006020820190508181036000830152612e948184612e05565b905092915050565b600060208284031215612eb257612eb16125fc565b5b600082013567ffffffffffffffff811115612ed057612ecf612601565b5b612edc84828501612822565b91505092915050565b612eee81612870565b82525050565b612efd81612606565b82525050565b600060e0820190508181036000830152612f1d818a6126c0565b90508181036020830152612f3181896126c0565b9050612f406040830188612ee5565b612f4d6060830187612ef4565b612f5a6080830186612ef4565b612f6760a0830185612ef4565b612f7460c0830184612ef4565b98975050505050505050565b6000610120830160008301518482036000860152612f9e8282612b2b565b9150506020830151612fb36020860182612b73565b506040830151612fc66040860182612b73565b506060830151612fd96060860182612b73565b506080830151612fec6080860182612b64565b5060a0830151612fff60a0860182612b64565b5060c083015161301260c0860182612d09565b5060e083015184820360e086015261302a8282612b2b565b915050610100830151613041610100860182612b73565b508091505092915050565b600060208201905081810360008301526130668184612f80565b905092915050565b600067ffffffffffffffff82111561308957613088612725565b5b602082029050602081019050919050565b600080fd5b6130a881612ab8565b81146130b357600080fd5b50565b6000813590506130c58161309f565b92915050565b60006130de6130d98461306e565b612785565b905080838252602082019050602084028301858111156131015761310061309a565b5b835b8181101561312a578061311688826130b6565b845260208401935050602081019050613103565b5050509392505050565b600082601f8301126131495761314861271b565b5b81356131598482602086016130cb565b91505092915050565b600060208284031215613178576131776125fc565b5b600082013567ffffffffffffffff81111561319657613195612601565b5b6131a284828501613134565b91505092915050565b600080604083850312156131c2576131c16125fc565b5b600083013567ffffffffffffffff8111156131e0576131df612601565b5b6131ec85828601612822565b925050602083013567ffffffffffffffff81111561320d5761320c612601565b5b61321985828601612822565b9150509250929050565b600061012082019050818103600083015261323e818c6126c0565b905061324d602083018b612ef4565b61325a604083018a612ef4565b6132676060830189612ef4565b6132746080830188612ee5565b61328160a0830187612ee5565b61328e60c0830186612ac4565b81810360e08301526132a081856126c0565b90506132b0610100830184612ef4565b9a9950505050505050505050565b600081519050919050565b600082825260208201905092915050565b6000819050602082019050919050565b60006132f68383612b2b565b905092915050565b6000602082019050919050565b6000613316826132be565b61332081856132c9565b935083602082028501613332856132da565b8060005b8581101561336e578484038952815161334f85826132ea565b945061335a836132fe565b925060208a01995050600181019050613336565b50829750879550505050505092915050565b6000602082019050818103600083015261339a818461330b565b905092915050565b7f4e487b7100000000000000000000000000000000000000000000000000000000600052602260045260246000fd5b600060028204905060018216806133e957607f821691505b6020821081036133fc576133fb6133a2565b5b50919050565b7f4e487b7100000000000000000000000000000000000000000000000000000000600052601160045260246000fd5b600061343c82612606565b915061344783612606565b925082820261345581612606565b9150828204841483151761346c5761346b613402565b5b5092915050565b600061347e82612606565b915061348983612606565b92508282019050808211156134a1576134a0613402565b5b92915050565b7f4e6f6e636520776173207573656420726563656e746c79000000000000000000600082015250565b60006134dd601783612674565b91506134e8826134a7565b602082019050919050565b6000602082019050818103600083015261350c816134d0565b9050919050565b60006040820190506135286000830185612ee5565b6135356020830184612ee5565b9392505050565b60008151905061354b8161309f565b92915050565b600060208284031215613567576135666125fc565b5b60006135758482850161353c565b91505092915050565b7f536d617274204d65746572206e6f74207265676973746572656420627920445360008201527f4f00000000000000000000000000000000000000000000000000000000000000602082015250565b60006135da602183612674565b91506135e58261357e565b604082019050919050565b60006020820190508181036000830152613609816135cd565b9050919050565b7f4f6666657273206c6966657370616e20697320746f6f206c6f6e670000000000600082015250565b6000613646601b83612674565b915061365182613610565b602082019050919050565b6000602082019050818103600083015261367581613639565b9050919050565b7f4f6e6c79206f776e65722063616e20616464206f666665720000000000000000600082015250565b60006136b2601883612674565b91506136bd8261367c565b602082019050919050565b600060208201905081810360008301526136e1816136a5565b9050919050565b600081519050919050565b600082825260208201905092915050565b600061370f826136e8565b61371981856136f3565b9350613729818560208601612685565b613732816126af565b840191505092915050565b6137468161294f565b82525050565b60006080820190506137616000830187612ef4565b81810360208301526137738186613704565b9050613782604083018561373d565b61378f6060830184612ee5565b95945050505050565b7f4e6f7420656e6f7567682073746f72656420656e657267790000000000000000600082015250565b60006137ce601883612674565b91506137d982613798565b602082019050919050565b600060208201905081810360008301526137fd816137c1565b9050919050565b600081905092915050565b600061381a82612669565b6138248185613804565b9350613834818560208601612685565b80840191505092915050565b600061384c828461380f565b915081905092915050565b60008190508160005260206000209050919050565b60006020601f8301049050919050565b600082821b905092915050565b6000600883026138b97fffffffffffffffffffffffffffffffffffffffffffffffffffffffffffffffff8261387c565b6138c3868361387c565b95508019841693508086168417925050509392505050565b6000819050919050565b60006139006138fb6138f684612606565b6138db565b612606565b9050919050565b6000819050919050565b61391a836138e5565b61392e61392682613907565b848454613889565b825550505050565b600090565b613943613936565b61394e818484613911565b505050565b5b818110156139725761396760008261393b565b600181019050613954565b5050565b601f8211156139b75761398881613857565b6139918461386c565b810160208510156139a0578190505b6139b46139ac8561386c565b830182613953565b50505b505050565b600082821c905092915050565b60006139da600019846008026139bc565b1980831691505092915050565b60006139f383836139c9565b9150826002028217905092915050565b613a0c82612669565b67ffffffffffffffff811115613a2557613a24612725565b5b613a2f82546133d1565b613a3a828285613976565b600060209050601f831160018114613a6d5760008415613a5b578287015190505b613a6585826139e7565b865550613acd565b601f198416613a7b86613857565b60005b82811015613aa357848901518255600182019150602085019450602081019050613a7e565b86831015613ac05784890151613abc601f8916826139c9565b8355505b6001600288020188555050505b505050505050565b7f4e487b7100000000000000000000000000000000000000000000000000000000600052603260045260246000fd5b60008190508160005260206000209050919050565b60008154613b26816133d1565b613b308186613804565b94506001821660008114613b4b5760018114613b6057613b93565b60ff1983168652811515820286019350613b93565b613b6985613b04565b60005b83811015613b8b57815481890152600182019150602081019050613b6c565b838801955050505b50505092915050565b6000613ba88284613b19565b915081905092915050565b6000613bbe82612606565b91507fffffffffffffffffffffffffffffffffffffffffffffffffffffffffffffffff8203613bf057613bef613402565b5b600182019050919050565b7f4f6e6c79206f776e65722063616e2072656d6f7665206f666665720000000000600082015250565b6000613c31601b83612674565b9150613c3c82613bfb565b602082019050919050565b60006020820190508181036000830152613c6081613c24565b9050919050565b6000604082019050613c7c6000830185612ef4565b613c896020830184612ee5565b9392505050565b7f4f6e6c79206f776e65722063616e207570646174652067726f7570206b657900600082015250565b6000613cc6601f83612674565b9150613cd182613c90565b602082019050919050565b60006020820190508181036000830152613cf581613cb9565b9050919050565b7f73656e646572206973206e6f74206f776e657200000000000000000000000000600082015250565b6000613d32601383612674565b9150613d3d82613cfc565b602082019050919050565b60006020820190508181036000830152613d6181613d25565b9050919050565b600060a0820190508181036000830152613d8281886126c0565b90508181036020830152613d9681876126c0565b9050613da56040830186612ef4565b613db26060830185612ef4565b613dbf6080830184612ef4565b9695505050505050565b6000613dd482612606565b9150613ddf83612606565b9250828203905081811115613df757613df6613402565b5b92915050565b600081549050613e0c816133d1565b9050919050565b818103613e21575050613ef9565b613e2a82613dfd565b67ffffffffffffffff811115613e4357613e42612725565b5b613e4d82546133d1565b613e58828285613976565b6000601f831160018114613e875760008415613e75578287015490505b613e7f85826139e7565b865550613ef2565b601f198416613e9587613857565b9650613ea086613857565b60005b82811015613ec857848901548255600182019150600185019450602081019050613ea3565b86831015613ee55784890154613ee1601f8916826139c9565b8355505b6001600288020188555050505b5050505050505b565b7f4e487b7100000000000000000000000000000000000000000000000000000000600052603160045260246000fd5b7f4e6f206f6666657220666f756e64000000000000000000000000000000000000600082015250565b6000613f60600e83612674565b9150613f6b82613f2a565b602082019050919050565b60006020820190508181036000830152613f8f81613f53565b9050919050565b7f43616e6e6f74206275792065787069726564206f666665720000000000000000600082015250565b6000613fcc601883612674565b9150613fd782613f96565b602082019050919050565b60006020820190508181036000830152613ffb81613fbf565b9050919050565b7f4f776e65722063616e6e6f7420627579206f776e206f66666572000000000000600082015250565b6000614038601a83612674565b915061404382614002565b602082019050919050565b600060208201905081810360008301526140678161402b565b9050919050565b600081905092915050565b60008190508160005260206000209050919050565b6000815461409b816133d1565b6140a5818661406e565b945060018216600081146140c057600181146140d557614108565b60ff1983168652811515820286019350614108565b6140de85614079565b60005b83811015614100578154818901526001820191506020810190506140e1565b838801955050505b50505092915050565b600061411d828461408e565b915081905092915050565b600081549050614137816133d1565b9050919050565b81810361414c575050614224565b61415582614128565b67ffffffffffffffff81111561416e5761416d612725565b5b61417882546133d1565b614183828285613976565b6000601f8311600181146141b257600084156141a0578287015490505b6141aa85826139e7565b86555061421d565b601f1984166141c087613b04565b96506141cb86613857565b60005b828110156141f3578489015482556001820191506001850194506020810190506141ce565b86831015614210578489015461420c601f8916826139c9565b8355505b6001600288020188555050505b5050505050505b56fea2646970667358221220b471043c6350b7f409a61828fdc73d1341b41faf600ba002a6214e7289ab63f364736f6c63430008130033",
  "immutableReferences": {},
  "source": "// SPDX-License-Identifier: GPL-3.0\n// pragma experimental ABIEncoderV2;\npragma solidity ^0.8.9;\n// import \"truffle/console.sol\";\n\ninterface IDSO {\n    function registerKey(\n        address smartMeterPubKey,\n        address smartMeterAddress\n    ) external;\n\n    function isRegisteredKey(\n        address smartMeterPubKey,\n        address smartMeterAddress\n    ) external view returns (bool);\n\n    function removeRegisteredKey(address smartMeterPubKey) external;\n}\n\ninterface ISmartMeter {\n    function returnReservedBatteryCharge(\n        uint amount,\n        address smartMeterInstance\n    ) external returns (bool);\n\n    function subtractBatteryCharge(\n        uint amount,\n        bytes memory ots,\n        bytes32 nextOtsHash,\n        address smartMeterInstance\n    ) external returns (bool);\n\n    function getBatteryCharge() external view returns (uint);\n}\n\ncontract Market {\n    address owner;\n    IDSO dso;\n    uint maxOfferLivespan = 1000 * 60 * 60 * 24 * 7;\n    ISmartMeter smartMeter;\n    address dsoAddress;\n    string groupKey;\n\n    struct Offer {\n        string id;\n        uint price;\n        uint amount;\n        uint expiration;\n        address owner;\n        address smartMeterAddress;\n        bool active;\n        string sellerSignature;\n        uint nonce;\n    }\n\n    struct PendingSupplyContract {\n        string buyerSignature;\n        string sellerSignature;\n        address smartMeterAddress;\n        uint amount; // Wh\n        uint price; // Euro cents\n        uint timestamp; // Unix\n        uint nonce;\n    }\n\n    mapping(string => Offer) public offers;\n    PendingSupplyContract[] public pendingSupplyContracts;\n\n    string[] public offerIds;\n\n    // mapping is nonce to the timestamp it was used at.\n    mapping(uint => uint) private usedNonces;\n\n    modifier nonceGuard(uint nonce) {\n        uint timestamp = usedNonces[nonce];\n        // nonce was used within the last two weeks.\n        if (timestamp + maxOfferLivespan * 2 > block.timestamp * 1000) {\n            revert(\"Nonce was used recently\");\n        }\n        _;\n    }\n\n    constructor(\n        address _dsoAddress,\n        address _smartMeterContractAddress\n    ) payable {\n        owner = msg.sender;\n        dso = IDSO(_dsoAddress);\n        dsoAddress = _dsoAddress;\n        smartMeter = ISmartMeter(_smartMeterContractAddress);\n    }\n\n    function addOffer(\n        string memory id,\n        uint amount,\n        uint price,\n        uint expiration,\n        address smartMeterAddress,\n        string memory sellerSignature,\n        uint nonce,\n        address sellerAddress,\n        bytes memory ots,\n        bytes32 nextOtsHash\n    ) public nonceGuard(nonce) returns (bool) {\n        // Require conditions\n        require(\n            dso.isRegisteredKey(msg.sender, smartMeterAddress),\n            \"Smart Meter not registered by DSO\"\n        );\n        require(\n            block.timestamp * 1000 + maxOfferLivespan > expiration,\n            \"Offers lifespan is too long\"\n        );\n        require(sellerAddress == msg.sender, \"Only owner can add offer\");\n\n        require(\n            smartMeter.subtractBatteryCharge(\n                amount,\n                ots,\n                nextOtsHash,\n                smartMeterAddress\n            ),\n            \"Not enough stored energy\"\n        );\n\n        // Adding offer\n        usedNonces[nonce] = block.timestamp * 1000;\n        offers[id] = Offer({\n            id: id,\n            amount: amount,\n            price: price,\n            expiration: expiration,\n            owner: msg.sender,\n            smartMeterAddress: smartMeterAddress,\n            active: true,\n            sellerSignature: sellerSignature,\n            nonce: nonce\n        });\n        offerIds.push(id);\n\n        return true;\n    }\n\n    function removeOffer(\n        string memory id\n    ) public returns (bool) {\n        // Initialization\n        Offer memory offer = offers[id];\n\n        // Require conditions\n        require(msg.sender == offer.owner, \"Only owner can remove offer\");\n\n        // Removing offer\n        smartMeter.returnReservedBatteryCharge(offer.amount, offer.smartMeterAddress);\n        delete offers[id];\n\n        return true;\n    }\n\n    function buyOffer(string memory id, string memory buyerSignature) public {\n        Offer memory offer = offers[id];\n\n        require(\n            keccak256(bytes(offer.id)) == keccak256(bytes(id)),\n            \"No offer found\"\n        );\n        require(offer.expiration > block.timestamp, \"Cannot buy expired offer\");\n        require(msg.sender != offer.owner, \"Owner cannot buy own offer\");\n\n        delete offers[id];\n        pendingSupplyContracts.push(\n            PendingSupplyContract({\n                buyerSignature: buyerSignature,\n                sellerSignature: offer.sellerSignature,\n                amount: offer.amount,\n                price: offer.price,\n                timestamp: block.timestamp,\n                nonce: offer.nonce,\n                smartMeterAddress: offer.smartMeterAddress\n            })\n        );\n\n        for (uint i = 0; i < offerIds.length; i++) {\n            if (keccak256(bytes(offerIds[i])) == keccak256(bytes(id))) {\n                offerIds[i] = offerIds[offerIds.length - 1];\n                offerIds.pop();\n            }\n        }\n    }\n\n    function getOffer(string memory id) public view returns (Offer memory) {\n        return offers[id];\n    }\n\n    function getOffers() public view returns (Offer[] memory) {\n        Offer[] memory offersReturn = new Offer[](offerIds.length);\n        for (uint i = 0; i < offerIds.length; i++) {\n            string storage offerId = offerIds[i];\n            Offer storage offer = offers[offerId];\n\n            offersReturn[i] = offer;\n        }\n        return offersReturn;\n    }\n\n    function getOfferIDs() public view returns (string[] memory) {\n        return offerIds;\n    }\n\n    function getPendingSupplyContracts()\n        public\n        view\n        returns (PendingSupplyContract[] memory)\n    {\n        return pendingSupplyContracts;\n    }\n\n    event SupplyContract(\n        string buyerSignature,\n        string sellerSignature,\n        uint amount,\n        uint timestamp,\n        uint price\n    );\n    function validatePendingSupplyContracts(\n        bool[] memory offerIndicies\n    ) public {\n        require(msg.sender == owner, \"sender is not owner\");\n\n        // console.log(\"Called\");\n\n        for (uint i = 0; i < offerIndicies.length; i++) {\n            PendingSupplyContract memory offer = pendingSupplyContracts[i];\n            //if it's an accepted index we emit our event\n            if (offerIndicies[i] == true) {\n                emit SupplyContract(\n                    offer.buyerSignature,\n                    offer.sellerSignature,\n                    offer.amount,\n                    offer.timestamp,\n                    offer.price\n                );\n            } else {\n                // if not the owner gets their battery back.\n                smartMeter.returnReservedBatteryCharge(\n                    offer.amount,\n                    offer.smartMeterAddress\n                );\n            }\n        }\n        // we loop agian to clean up the list\n        for (uint i = 0; i < offerIndicies.length; i++) {\n            // We move the indicies not yet approved down.\n            if (offerIndicies.length < pendingSupplyContracts.length - i) {\n                pendingSupplyContracts[i] = pendingSupplyContracts[\n                    pendingSupplyContracts.length - 1 - i\n                ];\n            }\n            // And lastly we pop everytime.\n            pendingSupplyContracts.pop();\n        } \n    }\n\n    function getGroupKey() public view returns (string memory) {\n        return groupKey;\n    }\n\n    function setGroupKey(string memory _groupKey) public {\n        require(msg.sender == owner, \"Only owner can update group key\");\n        groupKey = _groupKey;\n    }\n}\n",
  "sourcePath": "/Users/antonoeschmidt/Projects/Master/SmartGridEmpowered/contracts/Market.sol",
  "compiler": {
    "name": "solc",
    "version": "0.8.19+commit.7dd6d404.Emscripten.clang"
  },
  "schemaVersion": "3.4.16",
  "updatedAt": "2024-02-24T16:33:02.482Z",
  "devdoc": {
    "kind": "dev",
    "methods": {},
    "version": 1
  },
  "userdoc": {
    "kind": "user",
    "methods": {},
    "version": 1
  }
}