{
  "contractName": "Market",
  "abi": [
    {
      "inputs": [
        {
          "internalType": "address",
          "name": "_cableCompanyAddress",
          "type": "address"
        }
      ],
      "stateMutability": "payable",
      "type": "constructor"
    },
    {
      "inputs": [],
      "name": "lastestSupplyChainAddress",
      "outputs": [
        {
          "internalType": "address",
          "name": "",
          "type": "address"
        }
      ],
      "stateMutability": "view",
      "type": "function"
    },
    {
      "inputs": [
        {
          "internalType": "uint256",
          "name": "",
          "type": "uint256"
        }
      ],
      "name": "offerIds",
      "outputs": [
        {
          "internalType": "string",
          "name": "",
          "type": "string"
        }
      ],
      "stateMutability": "view",
      "type": "function"
    },
    {
      "inputs": [
        {
          "internalType": "string",
          "name": "id",
          "type": "string"
        },
        {
          "internalType": "uint256",
          "name": "amount",
          "type": "uint256"
        },
        {
          "internalType": "uint256",
          "name": "price",
          "type": "uint256"
        },
        {
          "internalType": "uint256",
          "name": "expiration",
          "type": "uint256"
        },
        {
          "internalType": "address",
          "name": "smartMeterAddress",
          "type": "address"
        },
        {
          "internalType": "string",
          "name": "sellerSignature",
          "type": "string"
        }
      ],
      "name": "addOffer",
      "outputs": [
        {
          "internalType": "bool",
          "name": "",
          "type": "bool"
        }
      ],
      "stateMutability": "nonpayable",
      "type": "function"
    },
    {
      "inputs": [
        {
          "internalType": "string",
          "name": "id",
          "type": "string"
        },
        {
          "internalType": "address",
          "name": "smartMeterAddress",
          "type": "address"
        }
      ],
      "name": "removeOffer",
      "outputs": [
        {
          "internalType": "bool",
          "name": "",
          "type": "bool"
        }
      ],
      "stateMutability": "nonpayable",
      "type": "function"
    },
    {
      "inputs": [
        {
          "internalType": "string",
          "name": "id",
          "type": "string"
        },
        {
          "internalType": "string",
          "name": "buyerSignature",
          "type": "string"
        }
      ],
      "name": "buyOffer",
      "outputs": [
        {
          "internalType": "address",
          "name": "",
          "type": "address"
        }
      ],
      "stateMutability": "nonpayable",
      "type": "function"
    },
    {
      "inputs": [
        {
          "internalType": "string",
          "name": "id",
          "type": "string"
        }
      ],
      "name": "getOffer",
      "outputs": [
        {
          "components": [
            {
              "internalType": "string",
              "name": "id",
              "type": "string"
            },
            {
              "internalType": "uint256",
              "name": "price",
              "type": "uint256"
            },
            {
              "internalType": "uint256",
              "name": "amount",
              "type": "uint256"
            },
            {
              "internalType": "uint256",
              "name": "expiration",
              "type": "uint256"
            },
            {
              "internalType": "address",
              "name": "owner",
              "type": "address"
            },
            {
              "internalType": "address",
              "name": "smartMeterAddress",
              "type": "address"
            },
            {
              "internalType": "bool",
              "name": "active",
              "type": "bool"
            },
            {
              "internalType": "string",
              "name": "sellerSignature",
              "type": "string"
            },
            {
              "internalType": "uint256",
              "name": "nonce",
              "type": "uint256"
            }
          ],
          "internalType": "struct Market.Offer",
          "name": "",
          "type": "tuple"
        }
      ],
      "stateMutability": "view",
      "type": "function"
    },
    {
      "inputs": [],
      "name": "getOffers",
      "outputs": [
        {
          "components": [
            {
              "internalType": "string",
              "name": "id",
              "type": "string"
            },
            {
              "internalType": "uint256",
              "name": "price",
              "type": "uint256"
            },
            {
              "internalType": "uint256",
              "name": "amount",
              "type": "uint256"
            },
            {
              "internalType": "uint256",
              "name": "expiration",
              "type": "uint256"
            },
            {
              "internalType": "address",
              "name": "owner",
              "type": "address"
            },
            {
              "internalType": "address",
              "name": "smartMeterAddress",
              "type": "address"
            },
            {
              "internalType": "bool",
              "name": "active",
              "type": "bool"
            },
            {
              "internalType": "string",
              "name": "sellerSignature",
              "type": "string"
            },
            {
              "internalType": "uint256",
              "name": "nonce",
              "type": "uint256"
            }
          ],
          "internalType": "struct Market.Offer[]",
          "name": "",
          "type": "tuple[]"
        }
      ],
      "stateMutability": "view",
      "type": "function"
    },
    {
      "inputs": [],
      "name": "getOfferIDs",
      "outputs": [
        {
          "internalType": "string[]",
          "name": "",
          "type": "string[]"
        }
      ],
      "stateMutability": "view",
      "type": "function"
    },
    {
      "inputs": [],
      "name": "getLatestSupplyContract",
      "outputs": [
        {
          "internalType": "address",
          "name": "",
          "type": "address"
        }
      ],
      "stateMutability": "view",
      "type": "function"
    },
    {
      "inputs": [],
      "name": "getPendingOffers",
      "outputs": [
        {
          "internalType": "address",
          "name": "",
          "type": "address"
        }
      ],
      "stateMutability": "view",
      "type": "function"
    },
    {
      "inputs": [],
      "name": "getNonce",
      "outputs": [
        {
          "internalType": "uint256",
          "name": "",
          "type": "uint256"
        }
      ],
      "stateMutability": "view",
      "type": "function"
    }
  ],
  "bytecode": "0x608060405260405162003d4c38038062003d4c833981810160405281019062000029919062000123565b336000806101000a81548173ffffffffffffffffffffffffffffffffffffffff021916908373ffffffffffffffffffffffffffffffffffffffff16021790555080600160006101000a81548173ffffffffffffffffffffffffffffffffffffffff021916908373ffffffffffffffffffffffffffffffffffffffff16021790555060016002819055505062000155565b600080fd5b600073ffffffffffffffffffffffffffffffffffffffff82169050919050565b6000620000eb82620000be565b9050919050565b620000fd81620000de565b81146200010957600080fd5b50565b6000815190506200011d81620000f2565b92915050565b6000602082840312156200013c576200013b620000b9565b5b60006200014c848285016200010c565b91505092915050565b613be780620001656000396000f3fe60806040523480156200001157600080fd5b5060043610620000b85760003560e01c80637a510116116200007b5780637a51011614620001a3578063a81333c414620001d9578063cdc2e6d714620001fb578063d087d2881462000231578063d6b85e8f1462000253578063f6a80192146200027557620000b8565b80630753c9e314620000bd578063110b9d8914620000df5780632976eede14620001155780633ee992ee146200014b57806354e69aaa146200016d575b600080fd5b620000c762000297565b604051620000d691906200194b565b60405180910390f35b620000fd6004803603810190620000f79190620019b7565b620002c1565b6040516200010c919062001a83565b60405180910390f35b6200013360048036038101906200012d919062001c29565b62000376565b60405162000142919062001d20565b60405180910390f35b6200015562000722565b60405162000164919062001f70565b60405180910390f35b6200018b600480360381019062000185919062001f94565b62000a53565b6040516200019a919062001d20565b60405180910390f35b620001c16004803603810190620001bb919062001ffa565b62000e7c565b604051620001d0919062002129565b60405180910390f35b620001e3620010dc565b604051620001f291906200194b565b60405180910390f35b6200021960048036038101906200021391906200214d565b62001106565b6040516200022891906200194b565b60405180910390f35b6200023b62001706565b6040516200024a9190620021e3565b60405180910390f35b6200025d62001710565b6040516200026c91906200194b565b60405180910390f35b6200027f62001736565b6040516200028e9190620022d0565b60405180910390f35b6000600660009054906101000a900473ffffffffffffffffffffffffffffffffffffffff16905090565b60058181548110620002d257600080fd5b906000526020600020016000915090508054620002ef9062002323565b80601f01602080910402602001604051908101604052809291908181526020018280546200031d9062002323565b80156200036e5780601f1062000342576101008083540402835291602001916200036e565b820191906000526020600020905b8154815290600101906020018083116200035057829003601f168201915b505050505081565b6000600160009054906101000a900473ffffffffffffffffffffffffffffffffffffffff1673ffffffffffffffffffffffffffffffffffffffff1663eb4e352d33856040518363ffffffff1660e01b8152600401620003d792919062002358565b602060405180830381865afa158015620003f5573d6000803e3d6000fd5b505050506040513d601f19601f820116820180604052508101906200041b9190620023b6565b6200045d576040517f08c379a000000000000000000000000000000000000000000000000000000000815260040162000454906200245e565b60405180910390fd5b60008390508073ffffffffffffffffffffffffffffffffffffffff1663f709bda8886040518263ffffffff1660e01b81526004016200049d9190620021e3565b6020604051808303816000875af1158015620004bd573d6000803e3d6000fd5b505050506040513d601f19601f82011682018060405250810190620004e39190620023b6565b62000525576040517f08c379a00000000000000000000000000000000000000000000000000000000081526004016200051c90620024d0565b60405180910390fd5b6040518061012001604052808981526020018781526020018881526020018681526020013373ffffffffffffffffffffffffffffffffffffffff1681526020018573ffffffffffffffffffffffffffffffffffffffff168152602001600115158152602001848152602001600254815250600389604051620005a8919062002534565b90815260200160405180910390206000820151816000019081620005cd91906200271f565b5060208201518160010155604082015181600201556060820151816003015560808201518160040160006101000a81548173ffffffffffffffffffffffffffffffffffffffff021916908373ffffffffffffffffffffffffffffffffffffffff16021790555060a08201518160050160006101000a81548173ffffffffffffffffffffffffffffffffffffffff021916908373ffffffffffffffffffffffffffffffffffffffff16021790555060c08201518160050160146101000a81548160ff02191690831515021790555060e0820151816006019081620006b191906200271f565b506101008201518160070155905050600588908060018154018082558091505060019003906000526020600020016000909190919091509081620006f691906200271f565b506001600260008282546200070c919062002835565b9250508190555060019150509695505050505050565b6060600060058054905067ffffffffffffffff81111562000748576200074762001ab1565b5b6040519080825280602002602001820160405280156200078557816020015b6200077162001819565b815260200190600190039081620007675790505b50905060005b60058054905081101562000a4b57600060058281548110620007b257620007b162002870565b5b9060005260206000200190506000600382604051620007d2919062002943565b908152602001604051809103902090508060405180610120016040529081600082018054620008019062002323565b80601f01602080910402602001604051908101604052809291908181526020018280546200082f9062002323565b8015620008805780601f10620008545761010080835404028352916020019162000880565b820191906000526020600020905b8154815290600101906020018083116200086257829003601f168201915b505050505081526020016001820154815260200160028201548152602001600382015481526020016004820160009054906101000a900473ffffffffffffffffffffffffffffffffffffffff1673ffffffffffffffffffffffffffffffffffffffff1673ffffffffffffffffffffffffffffffffffffffff1681526020016005820160009054906101000a900473ffffffffffffffffffffffffffffffffffffffff1673ffffffffffffffffffffffffffffffffffffffff1673ffffffffffffffffffffffffffffffffffffffff1681526020016005820160149054906101000a900460ff16151515158152602001600682018054620009809062002323565b80601f0160208091040260200160405190810160405280929190818152602001828054620009ae9062002323565b8015620009ff5780601f10620009d357610100808354040283529160200191620009ff565b820191906000526020600020905b815481529060010190602001808311620009e157829003601f168201915b5050505050815260200160078201548152505084848151811062000a285762000a2762002870565b5b60200260200101819052505050808062000a42906200295c565b9150506200078b565b508091505090565b60008060038460405162000a68919062002534565b90815260200160405180910390206040518061012001604052908160008201805462000a949062002323565b80601f016020809104026020016040519081016040528092919081815260200182805462000ac29062002323565b801562000b135780601f1062000ae75761010080835404028352916020019162000b13565b820191906000526020600020905b81548152906001019060200180831162000af557829003601f168201915b505050505081526020016001820154815260200160028201548152602001600382015481526020016004820160009054906101000a900473ffffffffffffffffffffffffffffffffffffffff1673ffffffffffffffffffffffffffffffffffffffff1673ffffffffffffffffffffffffffffffffffffffff1681526020016005820160009054906101000a900473ffffffffffffffffffffffffffffffffffffffff1673ffffffffffffffffffffffffffffffffffffffff1673ffffffffffffffffffffffffffffffffffffffff1681526020016005820160149054906101000a900460ff1615151515815260200160068201805462000c139062002323565b80601f016020809104026020016040519081016040528092919081815260200182805462000c419062002323565b801562000c925780601f1062000c665761010080835404028352916020019162000c92565b820191906000526020600020905b81548152906001019060200180831162000c7457829003601f168201915b505050505081526020016007820154815250509050806080015173ffffffffffffffffffffffffffffffffffffffff163373ffffffffffffffffffffffffffffffffffffffff161462000d1c576040517f08c379a000000000000000000000000000000000000000000000000000000000815260040162000d1390620029f9565b60405180910390fd5b60008390508073ffffffffffffffffffffffffffffffffffffffff1663997d182683604001516040518263ffffffff1660e01b815260040162000d609190620021e3565b6020604051808303816000875af115801562000d80573d6000803e3d6000fd5b505050506040513d601f19601f8201168201806040525081019062000da69190620023b6565b5060038560405162000db9919062002534565b90815260200160405180910390206000808201600062000dda919062001893565b6001820160009055600282016000905560038201600090556004820160006101000a81549073ffffffffffffffffffffffffffffffffffffffff02191690556005820160006101000a81549073ffffffffffffffffffffffffffffffffffffffff02191690556005820160146101000a81549060ff021916905560068201600062000e66919062001893565b6007820160009055505060019250505092915050565b62000e8662001819565b60038260405162000e98919062002534565b90815260200160405180910390206040518061012001604052908160008201805462000ec49062002323565b80601f016020809104026020016040519081016040528092919081815260200182805462000ef29062002323565b801562000f435780601f1062000f175761010080835404028352916020019162000f43565b820191906000526020600020905b81548152906001019060200180831162000f2557829003601f168201915b505050505081526020016001820154815260200160028201548152602001600382015481526020016004820160009054906101000a900473ffffffffffffffffffffffffffffffffffffffff1673ffffffffffffffffffffffffffffffffffffffff1673ffffffffffffffffffffffffffffffffffffffff1681526020016005820160009054906101000a900473ffffffffffffffffffffffffffffffffffffffff1673ffffffffffffffffffffffffffffffffffffffff1673ffffffffffffffffffffffffffffffffffffffff1681526020016005820160149054906101000a900460ff16151515158152602001600682018054620010439062002323565b80601f0160208091040260200160405190810160405280929190818152602001828054620010719062002323565b8015620010c25780601f106200109657610100808354040283529160200191620010c2565b820191906000526020600020905b815481529060010190602001808311620010a457829003601f168201915b505050505081526020016007820154815250509050919050565b6000600660009054906101000a900473ffffffffffffffffffffffffffffffffffffffff16905090565b6000806003846040516200111b919062002534565b908152602001604051809103902060405180610120016040529081600082018054620011479062002323565b80601f0160208091040260200160405190810160405280929190818152602001828054620011759062002323565b8015620011c65780601f106200119a57610100808354040283529160200191620011c6565b820191906000526020600020905b815481529060010190602001808311620011a857829003601f168201915b505050505081526020016001820154815260200160028201548152602001600382015481526020016004820160009054906101000a900473ffffffffffffffffffffffffffffffffffffffff1673ffffffffffffffffffffffffffffffffffffffff1673ffffffffffffffffffffffffffffffffffffffff1681526020016005820160009054906101000a900473ffffffffffffffffffffffffffffffffffffffff1673ffffffffffffffffffffffffffffffffffffffff1673ffffffffffffffffffffffffffffffffffffffff1681526020016005820160149054906101000a900460ff16151515158152602001600682018054620012c69062002323565b80601f0160208091040260200160405190810160405280929190818152602001828054620012f49062002323565b8015620013455780601f10620013195761010080835404028352916020019162001345565b820191906000526020600020905b8154815290600101906020018083116200132757829003601f168201915b505050505081526020016007820154815250509050838051906020012081600001518051906020012014620013b1576040517f08c379a0000000000000000000000000000000000000000000000000000000008152600401620013a89062002a6b565b60405180910390fd5b60008160e001519050600082608001519050600083604001519050600084602001519050600085606001519050600086610100015190504282116200142d576040517f08c379a0000000000000000000000000000000000000000000000000000000008152600401620014249062002add565b60405180910390fd5b8473ffffffffffffffffffffffffffffffffffffffff163373ffffffffffffffffffffffffffffffffffffffff16036200149e576040517f08c379a0000000000000000000000000000000000000000000000000000000008152600401620014959062002b4f565b60405180910390fd5b60008987868685604051620014b390620018d9565b620014c395949392919062002b71565b604051809103906000f080158015620014e0573d6000803e3d6000fd5b50905080600660006101000a81548173ffffffffffffffffffffffffffffffffffffffff021916908373ffffffffffffffffffffffffffffffffffffffff16021790555060038b60405162001536919062002534565b90815260200160405180910390206000808201600062001557919062001893565b6001820160009055600282016000905560038201600090556004820160006101000a81549073ffffffffffffffffffffffffffffffffffffffff02191690556005820160006101000a81549073ffffffffffffffffffffffffffffffffffffffff02191690556005820160146101000a81549060ff0219169055600682016000620015e3919062001893565b6007820160009055505060005b600580549050811015620016f4578b80519060200120600582815481106200161d576200161c62002870565b5b9060005260206000200160405162001636919062002c8b565b604051809103902003620016de57600560016005805490506200165a919062002ca4565b815481106200166e576200166d62002870565b5b90600052602060002001600582815481106200168f576200168e62002870565b5b906000526020600020019081620016a7919062002cf7565b506005805480620016bd57620016bc62002df8565b5b600190038181906000526020600020016000620016db919062001893565b90555b8080620016eb906200295c565b915050620015f0565b50809850505050505050505092915050565b6000600254905090565b600660009054906101000a900473ffffffffffffffffffffffffffffffffffffffff1681565b60606005805480602002602001604051908101604052809291908181526020016000905b82821015620018105783829060005260206000200180546200177c9062002323565b80601f0160208091040260200160405190810160405280929190818152602001828054620017aa9062002323565b8015620017fb5780601f10620017cf57610100808354040283529160200191620017fb565b820191906000526020600020905b815481529060010190602001808311620017dd57829003601f168201915b5050505050815260200190600101906200175a565b50505050905090565b60405180610120016040528060608152602001600081526020016000815260200160008152602001600073ffffffffffffffffffffffffffffffffffffffff168152602001600073ffffffffffffffffffffffffffffffffffffffff16815260200160001515815260200160608152602001600081525090565b508054620018a19062002323565b6000825580601f10620018b55750620018d6565b601f016020900490600052602060002090810190620018d59190620018e7565b5b50565b610d8a8062002e2883390190565b5b8082111562001902576000816000905550600101620018e8565b5090565b600073ffffffffffffffffffffffffffffffffffffffff82169050919050565b6000620019338262001906565b9050919050565b620019458162001926565b82525050565b60006020820190506200196260008301846200193a565b92915050565b6000604051905090565b600080fd5b600080fd5b6000819050919050565b62001991816200197c565b81146200199d57600080fd5b50565b600081359050620019b18162001986565b92915050565b600060208284031215620019d057620019cf62001972565b5b6000620019e084828501620019a0565b91505092915050565b600081519050919050565b600082825260208201905092915050565b60005b8381101562001a2557808201518184015260208101905062001a08565b60008484015250505050565b6000601f19601f8301169050919050565b600062001a4f82620019e9565b62001a5b8185620019f4565b935062001a6d81856020860162001a05565b62001a788162001a31565b840191505092915050565b6000602082019050818103600083015262001a9f818462001a42565b905092915050565b600080fd5b600080fd5b7f4e487b7100000000000000000000000000000000000000000000000000000000600052604160045260246000fd5b62001aeb8262001a31565b810181811067ffffffffffffffff8211171562001b0d5762001b0c62001ab1565b5b80604052505050565b600062001b2262001968565b905062001b30828262001ae0565b919050565b600067ffffffffffffffff82111562001b535762001b5262001ab1565b5b62001b5e8262001a31565b9050602081019050919050565b82818337600083830152505050565b600062001b9162001b8b8462001b35565b62001b16565b90508281526020810184848401111562001bb05762001baf62001aac565b5b62001bbd84828562001b6b565b509392505050565b600082601f83011262001bdd5762001bdc62001aa7565b5b813562001bef84826020860162001b7a565b91505092915050565b62001c038162001926565b811462001c0f57600080fd5b50565b60008135905062001c238162001bf8565b92915050565b60008060008060008060c0878903121562001c495762001c4862001972565b5b600087013567ffffffffffffffff81111562001c6a5762001c6962001977565b5b62001c7889828a0162001bc5565b965050602062001c8b89828a01620019a0565b955050604062001c9e89828a01620019a0565b945050606062001cb189828a01620019a0565b935050608062001cc489828a0162001c12565b92505060a087013567ffffffffffffffff81111562001ce85762001ce762001977565b5b62001cf689828a0162001bc5565b9150509295509295509295565b60008115159050919050565b62001d1a8162001d03565b82525050565b600060208201905062001d37600083018462001d0f565b92915050565b600081519050919050565b600082825260208201905092915050565b6000819050602082019050919050565b600082825260208201905092915050565b600062001d8782620019e9565b62001d93818562001d69565b935062001da581856020860162001a05565b62001db08162001a31565b840191505092915050565b62001dc6816200197c565b82525050565b62001dd78162001926565b82525050565b62001de88162001d03565b82525050565b600061012083016000830151848203600086015262001e0e828262001d7a565b915050602083015162001e25602086018262001dbb565b50604083015162001e3a604086018262001dbb565b50606083015162001e4f606086018262001dbb565b50608083015162001e64608086018262001dcc565b5060a083015162001e7960a086018262001dcc565b5060c083015162001e8e60c086018262001ddd565b5060e083015184820360e086015262001ea8828262001d7a565b91505061010083015162001ec161010086018262001dbb565b508091505092915050565b600062001eda838362001dee565b905092915050565b6000602082019050919050565b600062001efc8262001d3d565b62001f08818562001d48565b93508360208202850162001f1c8562001d59565b8060005b8581101562001f5e578484038952815162001f3c858262001ecc565b945062001f498362001ee2565b925060208a0199505060018101905062001f20565b50829750879550505050505092915050565b6000602082019050818103600083015262001f8c818462001eef565b905092915050565b6000806040838503121562001fae5762001fad62001972565b5b600083013567ffffffffffffffff81111562001fcf5762001fce62001977565b5b62001fdd8582860162001bc5565b925050602062001ff08582860162001c12565b9150509250929050565b60006020828403121562002013576200201262001972565b5b600082013567ffffffffffffffff81111562002034576200203362001977565b5b620020428482850162001bc5565b91505092915050565b60006101208301600083015184820360008601526200206b828262001d7a565b915050602083015162002082602086018262001dbb565b50604083015162002097604086018262001dbb565b506060830151620020ac606086018262001dbb565b506080830151620020c1608086018262001dcc565b5060a0830151620020d660a086018262001dcc565b5060c0830151620020eb60c086018262001ddd565b5060e083015184820360e086015262002105828262001d7a565b9150506101008301516200211e61010086018262001dbb565b508091505092915050565b600060208201905081810360008301526200214581846200204b565b905092915050565b6000806040838503121562002167576200216662001972565b5b600083013567ffffffffffffffff81111562002188576200218762001977565b5b620021968582860162001bc5565b925050602083013567ffffffffffffffff811115620021ba57620021b962001977565b5b620021c88582860162001bc5565b9150509250929050565b620021dd816200197c565b82525050565b6000602082019050620021fa6000830184620021d2565b92915050565b600081519050919050565b600082825260208201905092915050565b6000819050602082019050919050565b60006200223a838362001d7a565b905092915050565b6000602082019050919050565b60006200225c8262002200565b6200226881856200220b565b9350836020820285016200227c856200221c565b8060005b85811015620022be57848403895281516200229c85826200222c565b9450620022a98362002242565b925060208a0199505060018101905062002280565b50829750879550505050505092915050565b60006020820190508181036000830152620022ec81846200224f565b905092915050565b7f4e487b7100000000000000000000000000000000000000000000000000000000600052602260045260246000fd5b600060028204905060018216806200233c57607f821691505b602082108103620023525762002351620022f4565b5b50919050565b60006040820190506200236f60008301856200193a565b6200237e60208301846200193a565b9392505050565b620023908162001d03565b81146200239c57600080fd5b50565b600081519050620023b08162002385565b92915050565b600060208284031215620023cf57620023ce62001972565b5b6000620023df848285016200239f565b91505092915050565b7f536d617274204d65746572206e6f74207265676973746572656420627920436160008201527f626c6520436f6d70616e79000000000000000000000000000000000000000000602082015250565b600062002446602b83620019f4565b91506200245382620023e8565b604082019050919050565b60006020820190508181036000830152620024798162002437565b9050919050565b7f4e6f7420656e6f7567682073746f72656420656e657267790000000000000000600082015250565b6000620024b8601883620019f4565b9150620024c58262002480565b602082019050919050565b60006020820190508181036000830152620024eb81620024a9565b9050919050565b600081905092915050565b60006200250a82620019e9565b620025168185620024f2565b93506200252881856020860162001a05565b80840191505092915050565b6000620025428284620024fd565b915081905092915050565b60008190508160005260206000209050919050565b60006020601f8301049050919050565b600082821b905092915050565b600060088302620025b17fffffffffffffffffffffffffffffffffffffffffffffffffffffffffffffffff8262002572565b620025bd868362002572565b95508019841693508086168417925050509392505050565b6000819050919050565b600062002600620025fa620025f4846200197c565b620025d5565b6200197c565b9050919050565b6000819050919050565b6200261c83620025df565b620026346200262b8262002607565b8484546200257f565b825550505050565b600090565b6200264b6200263c565b6200265881848462002611565b505050565b5b8181101562002680576200267460008262002641565b6001810190506200265e565b5050565b601f821115620026cf5762002699816200254d565b620026a48462002562565b81016020851015620026b4578190505b620026cc620026c38562002562565b8301826200265d565b50505b505050565b600082821c905092915050565b6000620026f460001984600802620026d4565b1980831691505092915050565b60006200270f8383620026e1565b9150826002028217905092915050565b6200272a82620019e9565b67ffffffffffffffff81111562002746576200274562001ab1565b5b62002752825462002323565b6200275f82828562002684565b600060209050601f83116001811462002797576000841562002782578287015190505b6200278e858262002701565b865550620027fe565b601f198416620027a7866200254d565b60005b82811015620027d157848901518255600182019150602085019450602081019050620027aa565b86831015620027f15784890151620027ed601f891682620026e1565b8355505b6001600288020188555050505b505050505050565b7f4e487b7100000000000000000000000000000000000000000000000000000000600052601160045260246000fd5b600062002842826200197c565b91506200284f836200197c565b92508282019050808211156200286a576200286962002806565b5b92915050565b7f4e487b7100000000000000000000000000000000000000000000000000000000600052603260045260246000fd5b60008190508160005260206000209050919050565b60008154620028c38162002323565b620028cf8186620024f2565b94506001821660008114620028ed576001811462002903576200293a565b60ff19831686528115158202860193506200293a565b6200290e856200289f565b60005b83811015620029325781548189015260018201915060208101905062002911565b838801955050505b50505092915050565b6000620029518284620028b4565b915081905092915050565b600062002969826200197c565b91507fffffffffffffffffffffffffffffffffffffffffffffffffffffffffffffffff82036200299e576200299d62002806565b5b600182019050919050565b7f4f6e6c79206f776e65722063616e2072656d6f7665206f666665720000000000600082015250565b6000620029e1601b83620019f4565b9150620029ee82620029a9565b602082019050919050565b6000602082019050818103600083015262002a1481620029d2565b9050919050565b7f4e6f206f6666657220666f756e64000000000000000000000000000000000000600082015250565b600062002a53600e83620019f4565b915062002a608262002a1b565b602082019050919050565b6000602082019050818103600083015262002a868162002a44565b9050919050565b7f43616e6e6f74206275792065787069726564206f666665720000000000000000600082015250565b600062002ac5601883620019f4565b915062002ad28262002a8d565b602082019050919050565b6000602082019050818103600083015262002af88162002ab6565b9050919050565b7f4f776e65722063616e6e6f7420627579206f776e206f66666572000000000000600082015250565b600062002b37601a83620019f4565b915062002b448262002aff565b602082019050919050565b6000602082019050818103600083015262002b6a8162002b28565b9050919050565b600060a082019050818103600083015262002b8d818862001a42565b9050818103602083015262002ba3818762001a42565b905062002bb46040830186620021d2565b62002bc36060830185620021d2565b62002bd26080830184620021d2565b9695505050505050565b600081905092915050565b60008190508160005260206000209050919050565b6000815462002c0b8162002323565b62002c17818662002bdc565b9450600182166000811462002c35576001811462002c4b5762002c82565b60ff198316865281151582028601935062002c82565b62002c568562002be7565b60005b8381101562002c7a5781548189015260018201915060208101905062002c59565b838801955050505b50505092915050565b600062002c99828462002bfc565b915081905092915050565b600062002cb1826200197c565b915062002cbe836200197c565b925082820390508181111562002cd95762002cd862002806565b5b92915050565b60008154905062002cf08162002323565b9050919050565b81810362002d0757505062002df6565b62002d128262002cdf565b67ffffffffffffffff81111562002d2e5762002d2d62001ab1565b5b62002d3a825462002323565b62002d4782828562002684565b6000601f83116001811462002d7b576000841562002d66578287015490505b62002d72858262002701565b86555062002def565b601f19841662002d8b876200289f565b965062002d98866200254d565b60005b8281101562002dc25784890154825560018201915060018501945060208101905062002d9b565b8683101562002de2578489015462002dde601f891682620026e1565b8355505b6001600288020188555050505b5050505050505b565b7f4e487b7100000000000000000000000000000000000000000000000000000000600052603160045260246000fdfe60806040523480156200001157600080fd5b5060405162000d8a38038062000d8a83398181016040528101906200003791906200026b565b846000908162000048919062000572565b5083600190816200005a919062000572565b508260028190555081600381905550426004819055506000600560006101000a81548160ff02191690831515021790555080600681905550505050505062000659565b6000604051905090565b600080fd5b600080fd5b600080fd5b600080fd5b6000601f19601f8301169050919050565b7f4e487b7100000000000000000000000000000000000000000000000000000000600052604160045260246000fd5b6200010682620000bb565b810181811067ffffffffffffffff82111715620001285762000127620000cc565b5b80604052505050565b60006200013d6200009d565b90506200014b8282620000fb565b919050565b600067ffffffffffffffff8211156200016e576200016d620000cc565b5b6200017982620000bb565b9050602081019050919050565b60005b83811015620001a657808201518184015260208101905062000189565b60008484015250505050565b6000620001c9620001c38462000150565b62000131565b905082815260208101848484011115620001e857620001e7620000b6565b5b620001f584828562000186565b509392505050565b600082601f830112620002155762000214620000b1565b5b815162000227848260208601620001b2565b91505092915050565b6000819050919050565b620002458162000230565b81146200025157600080fd5b50565b60008151905062000265816200023a565b92915050565b600080600080600060a086880312156200028a5762000289620000a7565b5b600086015167ffffffffffffffff811115620002ab57620002aa620000ac565b5b620002b988828901620001fd565b955050602086015167ffffffffffffffff811115620002dd57620002dc620000ac565b5b620002eb88828901620001fd565b9450506040620002fe8882890162000254565b9350506060620003118882890162000254565b9250506080620003248882890162000254565b9150509295509295909350565b600081519050919050565b7f4e487b7100000000000000000000000000000000000000000000000000000000600052602260045260246000fd5b600060028204905060018216806200038457607f821691505b6020821081036200039a57620003996200033c565b5b50919050565b60008190508160005260206000209050919050565b60006020601f8301049050919050565b600082821b905092915050565b600060088302620004047fffffffffffffffffffffffffffffffffffffffffffffffffffffffffffffffff82620003c5565b620004108683620003c5565b95508019841693508086168417925050509392505050565b6000819050919050565b6000620004536200044d620004478462000230565b62000428565b62000230565b9050919050565b6000819050919050565b6200046f8362000432565b620004876200047e826200045a565b848454620003d2565b825550505050565b600090565b6200049e6200048f565b620004ab81848462000464565b505050565b5b81811015620004d357620004c760008262000494565b600181019050620004b1565b5050565b601f8211156200052257620004ec81620003a0565b620004f784620003b5565b8101602085101562000507578190505b6200051f6200051685620003b5565b830182620004b0565b50505b505050565b600082821c905092915050565b6000620005476000198460080262000527565b1980831691505092915050565b600062000562838362000534565b9150826002028217905092915050565b6200057d8262000331565b67ffffffffffffffff811115620005995762000598620000cc565b5b620005a582546200036b565b620005b2828285620004d7565b600060209050601f831160018114620005ea5760008415620005d5578287015190505b620005e1858262000554565b86555062000651565b601f198416620005fa86620003a0565b60005b828110156200062457848901518255600182019150602085019450602081019050620005fd565b8683101562000644578489015162000640601f89168262000534565b8355505b6001600288020188555050505b505050505050565b61072180620006696000396000f3fe608060405234801561001057600080fd5b50600436106100575760003560e01c80635a9b0b891461005c578063603daf9a1461007a57806398d5fdca14610098578063d321fe29146100b6578063dbd0e1b6146100d4575b600080fd5b6100646100f2565b60405161007191906105d3565b60405180910390f35b610082610282565b60405161008f919061063f565b60405180910390f35b6100a0610314565b6040516100ad9190610670565b60405180910390f35b6100be61031e565b6040516100cb9190610670565b60405180910390f35b6100dc610328565b6040516100e9919061063f565b60405180910390f35b6100fa6103ba565b60006040518061010001604052803073ffffffffffffffffffffffffffffffffffffffff16815260200160008054610131906106ba565b80601f016020809104026020016040519081016040528092919081815260200182805461015d906106ba565b80156101aa5780601f1061017f576101008083540402835291602001916101aa565b820191906000526020600020905b81548152906001019060200180831161018d57829003601f168201915b50505050508152602001600180546101c1906106ba565b80601f01602080910402602001604051908101604052809291908181526020018280546101ed906106ba565b801561023a5780601f1061020f5761010080835404028352916020019161023a565b820191906000526020600020905b81548152906001019060200180831161021d57829003601f168201915b50505050508152602001600354815260200160025481526020016004548152602001600560009054906101000a900460ff161515815260200160065481525090508091505090565b606060008054610291906106ba565b80601f01602080910402602001604051908101604052809291908181526020018280546102bd906106ba565b801561030a5780601f106102df5761010080835404028352916020019161030a565b820191906000526020600020905b8154815290600101906020018083116102ed57829003601f168201915b5050505050905090565b6000600354905090565b6000600254905090565b606060018054610337906106ba565b80601f0160208091040260200160405190810160405280929190818152602001828054610363906106ba565b80156103b05780601f10610385576101008083540402835291602001916103b0565b820191906000526020600020905b81548152906001019060200180831161039357829003601f168201915b5050505050905090565b604051806101000160405280600073ffffffffffffffffffffffffffffffffffffffff1681526020016060815260200160608152602001600081526020016000815260200160008152602001600015158152602001600081525090565b600073ffffffffffffffffffffffffffffffffffffffff82169050919050565b600061044282610417565b9050919050565b61045281610437565b82525050565b600081519050919050565b600082825260208201905092915050565b60005b83811015610492578082015181840152602081019050610477565b60008484015250505050565b6000601f19601f8301169050919050565b60006104ba82610458565b6104c48185610463565b93506104d4818560208601610474565b6104dd8161049e565b840191505092915050565b6000819050919050565b6104fb816104e8565b82525050565b60008115159050919050565b61051681610501565b82525050565b6000610100830160008301516105356000860182610449565b506020830151848203602086015261054d82826104af565b9150506040830151848203604086015261056782826104af565b915050606083015161057c60608601826104f2565b50608083015161058f60808601826104f2565b5060a08301516105a260a08601826104f2565b5060c08301516105b560c086018261050d565b5060e08301516105c860e08601826104f2565b508091505092915050565b600060208201905081810360008301526105ed818461051c565b905092915050565b600082825260208201905092915050565b600061061182610458565b61061b81856105f5565b935061062b818560208601610474565b6106348161049e565b840191505092915050565b600060208201905081810360008301526106598184610606565b905092915050565b61066a816104e8565b82525050565b60006020820190506106856000830184610661565b92915050565b7f4e487b7100000000000000000000000000000000000000000000000000000000600052602260045260246000fd5b600060028204905060018216806106d257607f821691505b6020821081036106e5576106e461068b565b5b5091905056fea26469706673582212208b2147d79e48290e00ac892ec96c57bd07df8b4466f04a34280525c2249ff90464736f6c63430008130033a2646970667358221220ccb43bfe1b185a5cb277e0904d7305eb54835cccb66ead01e6019ff596dd42b364736f6c63430008130033",
  "immutableReferences": {},
  "source": "// SPDX-License-Identifier: GPL-3.0\n// pragma experimental ABIEncoderV2;\npragma solidity ^0.8.9;\n\ninterface ICableCompany {\n    function registerKey(\n        address smartMeterPubKey,\n        address smartMeterAddress\n    ) external;\n\n    function isRegisteredKey(\n        address smartMeterPubKey,\n        address smartMeterAddress\n    ) external view returns (bool);\n\n    function removeRegisteredKey(address smartMeterPubKey) external;\n}\n\ninterface ISmartMeter {\n    function returnReservedBatteryCharge(uint amount) external returns (bool);\n\n    function subtractBatteryCharge(uint amount) external returns (bool);\n}\n\ncontract Market {\n    address owner;\n    ICableCompany cableCompany;\n    uint nonce;\n    // string groupPublicKey;\n\n    struct Offer {\n        string id;\n        uint price;\n        uint amount;\n        uint expiration;\n        address owner;\n        address smartMeterAddress;\n        bool active;\n        string sellerSignature;\n        uint nonce;\n    }\n\n    mapping(string => Offer) private offers;\n    mapping(string => Offer) private pendingConfirmation;\n    string[] public offerIds;\n    address public lastestSupplyChainAddress;\n\n    constructor(\n        address _cableCompanyAddress // string memory _groupPublicKey\n    ) payable {\n        owner = msg.sender;\n        cableCompany = ICableCompany(_cableCompanyAddress);\n        nonce = 1;\n        // groupPublicKey = _groupPublicKey;\n    }\n\n    function addOffer(\n        string memory id,\n        uint amount,\n        uint price,\n        uint expiration,\n        address smartMeterAddress,\n        string memory sellerSignature\n    ) public returns (bool) {\n        require(\n            cableCompany.isRegisteredKey(msg.sender, smartMeterAddress),\n            \"Smart Meter not registered by Cable Company\"\n        );\n\n        ISmartMeter smartMeter = ISmartMeter(smartMeterAddress);\n        require(\n            smartMeter.subtractBatteryCharge(amount),\n            \"Not enough stored energy\"\n        );\n\n        offers[id] = Offer({\n            id: id,\n            amount: amount,\n            price: price,\n            expiration: expiration,\n            owner: msg.sender,\n            smartMeterAddress: smartMeterAddress, // are we using this?\n            active: true,\n            sellerSignature: sellerSignature,\n            nonce: nonce\n        });\n        offerIds.push(id);\n\n        // Increment nonce\n        nonce += 1;\n\n        return true;\n    }\n\n    function removeOffer(\n        string memory id,\n        address smartMeterAddress\n    ) public returns (bool) {\n        Offer memory offer = offers[id];\n        require(msg.sender == offer.owner, \"Only owner can remove offer\");\n        ISmartMeter smartMeter = ISmartMeter(smartMeterAddress);\n        smartMeter.returnReservedBatteryCharge(offer.amount);\n        delete offers[id];\n        return true;\n    }\n\n    function buyOffer(\n        string memory id,\n        string memory buyerSignature\n    ) public returns (address) {\n        Offer memory offer = offers[id];\n        require(\n            keccak256(bytes(offer.id)) == keccak256(bytes(id)),\n            \"No offer found\"\n        );\n        string memory sellerSignature = offer.sellerSignature;\n        address seller = offer.owner;\n        uint amount = offer.amount;\n        uint price = offer.price;\n        uint expiration = offer.expiration;\n        uint offerNonce = offer.nonce;\n\n        require(expiration > block.timestamp, \"Cannot buy expired offer\");\n        require(msg.sender != seller, \"Owner cannot buy own offer\");\n\n        SupplyContract sc = new SupplyContract({\n            _buyerSignature: buyerSignature,\n            _sellerSignature: sellerSignature,\n            _amount: amount,\n            _price: price,\n            _nonce: offerNonce\n        });\n        lastestSupplyChainAddress = address(sc);\n        delete offers[id];\n\n        for (uint i = 0; i < offerIds.length; i++) {\n            // String comparison\n            if (keccak256(bytes(offerIds[i])) == keccak256(bytes(id))) {\n                offerIds[i] = offerIds[offerIds.length - 1];\n                offerIds.pop();\n            }\n        }\n\n        return address(sc);\n    }\n\n    function getOffer(string memory id) public view returns (Offer memory) {\n        return offers[id];\n    }\n\n    function getOffers() public view returns (Offer[] memory) {\n        Offer[] memory offersReturn = new Offer[](offerIds.length);\n        for (uint i = 0; i < offerIds.length; i++) {\n            string storage offerId = offerIds[i];\n            Offer storage offer = offers[offerId];\n\n            offersReturn[i] = offer;\n        }\n        return offersReturn;\n    }\n\n    function getOfferIDs() public view returns (string[] memory) {\n        return offerIds;\n    }\n\n    function getLatestSupplyContract() public view returns (address) {\n        return lastestSupplyChainAddress;\n    }\n\n    function getPendingOffers() public view returns (address) {\n        return lastestSupplyChainAddress;\n    }\n\n    function getNonce() public view returns (uint) {\n        return nonce;\n    }\n\n    // function getGroupPublicKey() public view returns (string memory) {\n    //     return groupPublicKey;\n    // }\n\n    // function setGroupPublicKey(string memory _groupPublicKey) public {\n    //     require(\n    //         msg.sender == address(cableCompany),\n    //         \"Only cable compnay can change the group key\"\n    //     );\n    //     groupPublicKey = _groupPublicKey;\n    // }\n}\n\ncontract SupplyContract {\n    string buyerSignature;\n    string sellerSignature;\n    uint amount; // Wh\n    uint price; // Euro cents\n    uint timestamp; // Unix\n    bool confirmed;\n    uint nonce;\n    // address dso;\n\n    struct SupplyContractDTO {\n        address scAddress;\n        string buyerSignature;\n        string sellerSignature;\n        uint price;\n        uint amount;\n        uint timestamp;\n        bool confirmed;\n        uint nonce;\n    }\n\n    constructor(\n        string memory _buyerSignature,\n        string memory _sellerSignature,\n        uint _amount,\n        uint _price,\n        uint _nonce\n    ) {\n        buyerSignature = _buyerSignature;\n        sellerSignature = _sellerSignature;\n        amount = _amount;\n        price = _price;\n        timestamp = block.timestamp;\n        confirmed = false;\n        nonce = _nonce;\n    }\n\n    function getBuyer() public view returns (string memory) {\n        return buyerSignature;\n    }\n\n    function getSeller() public view returns (string memory) {\n        return sellerSignature;\n    }\n\n    function getAmount() public view returns (uint) {\n        return amount;\n    }\n\n    function getPrice() public view returns (uint) {\n        return price;\n    }\n\n    function getInfo() public view returns (SupplyContractDTO memory) {\n        SupplyContractDTO memory scDTO = SupplyContractDTO({\n            scAddress: address(this),\n            buyerSignature: buyerSignature,\n            sellerSignature: sellerSignature,\n            price: price,\n            amount: amount,\n            timestamp: timestamp,\n            confirmed: confirmed,\n            nonce: nonce\n        });\n\n        return scDTO;\n    }\n\n    // function aproveContract() public {\n    //     require(msg.sender == dso, \"only the DSO can approve a contract\");\n    //     confirmed = true;\n    // }\n}\n",
  "sourcePath": "/Users/antonoeschmidt/Projects/Master/SmartGridEmpowered/contracts/Market.sol",
  "compiler": {
    "name": "solc",
    "version": "0.8.19+commit.7dd6d404.Emscripten.clang"
  },
  "schemaVersion": "3.4.3",
  "updatedAt": "2023-12-18T06:04:58.620Z",
  "networkType": "ethereum",
  "devdoc": {
    "kind": "dev",
    "methods": {},
    "version": 1
  },
  "userdoc": {
    "kind": "user",
    "methods": {},
    "version": 1
  }
}