{
  "contractName": "Market",
  "abi": [
    {
      "inputs": [
        {
          "internalType": "address",
          "name": "_cableCompanyAddress",
          "type": "address"
        }
      ],
      "stateMutability": "payable",
      "type": "constructor"
    },
    {
      "inputs": [],
      "name": "lastestSupplyChainAddress",
      "outputs": [
        {
          "internalType": "address",
          "name": "",
          "type": "address"
        }
      ],
      "stateMutability": "view",
      "type": "function"
    },
    {
      "inputs": [
        {
          "internalType": "uint256",
          "name": "",
          "type": "uint256"
        }
      ],
      "name": "offerIds",
      "outputs": [
        {
          "internalType": "string",
          "name": "",
          "type": "string"
        }
      ],
      "stateMutability": "view",
      "type": "function"
    },
    {
      "inputs": [
        {
          "internalType": "string",
          "name": "id",
          "type": "string"
        },
        {
          "internalType": "uint256",
          "name": "amount",
          "type": "uint256"
        },
        {
          "internalType": "uint256",
          "name": "price",
          "type": "uint256"
        },
        {
          "internalType": "uint256",
          "name": "expiration",
          "type": "uint256"
        },
        {
          "internalType": "address",
          "name": "smartMeterAddress",
          "type": "address"
        },
        {
          "internalType": "string",
          "name": "sellerSignature",
          "type": "string"
        },
        {
          "internalType": "uint256",
          "name": "nonce",
          "type": "uint256"
        },
        {
          "internalType": "address",
          "name": "sellerAddress",
          "type": "address"
        }
      ],
      "name": "addOffer",
      "outputs": [
        {
          "internalType": "bool",
          "name": "",
          "type": "bool"
        }
      ],
      "stateMutability": "nonpayable",
      "type": "function"
    },
    {
      "inputs": [
        {
          "internalType": "string",
          "name": "id",
          "type": "string"
        },
        {
          "internalType": "address",
          "name": "smartMeterAddress",
          "type": "address"
        }
      ],
      "name": "removeOffer",
      "outputs": [
        {
          "internalType": "bool",
          "name": "",
          "type": "bool"
        }
      ],
      "stateMutability": "nonpayable",
      "type": "function"
    },
    {
      "inputs": [
        {
          "internalType": "string",
          "name": "id",
          "type": "string"
        },
        {
          "internalType": "string",
          "name": "buyerSignature",
          "type": "string"
        }
      ],
      "name": "buyOffer",
      "outputs": [
        {
          "internalType": "address",
          "name": "",
          "type": "address"
        }
      ],
      "stateMutability": "nonpayable",
      "type": "function"
    },
    {
      "inputs": [
        {
          "internalType": "string",
          "name": "id",
          "type": "string"
        }
      ],
      "name": "getOffer",
      "outputs": [
        {
          "components": [
            {
              "internalType": "string",
              "name": "id",
              "type": "string"
            },
            {
              "internalType": "uint256",
              "name": "price",
              "type": "uint256"
            },
            {
              "internalType": "uint256",
              "name": "amount",
              "type": "uint256"
            },
            {
              "internalType": "uint256",
              "name": "expiration",
              "type": "uint256"
            },
            {
              "internalType": "address",
              "name": "owner",
              "type": "address"
            },
            {
              "internalType": "address",
              "name": "smartMeterAddress",
              "type": "address"
            },
            {
              "internalType": "bool",
              "name": "active",
              "type": "bool"
            },
            {
              "internalType": "string",
              "name": "sellerSignature",
              "type": "string"
            },
            {
              "internalType": "uint256",
              "name": "nonce",
              "type": "uint256"
            }
          ],
          "internalType": "struct Market.Offer",
          "name": "",
          "type": "tuple"
        }
      ],
      "stateMutability": "view",
      "type": "function"
    },
    {
      "inputs": [],
      "name": "getOffers",
      "outputs": [
        {
          "components": [
            {
              "internalType": "string",
              "name": "id",
              "type": "string"
            },
            {
              "internalType": "uint256",
              "name": "price",
              "type": "uint256"
            },
            {
              "internalType": "uint256",
              "name": "amount",
              "type": "uint256"
            },
            {
              "internalType": "uint256",
              "name": "expiration",
              "type": "uint256"
            },
            {
              "internalType": "address",
              "name": "owner",
              "type": "address"
            },
            {
              "internalType": "address",
              "name": "smartMeterAddress",
              "type": "address"
            },
            {
              "internalType": "bool",
              "name": "active",
              "type": "bool"
            },
            {
              "internalType": "string",
              "name": "sellerSignature",
              "type": "string"
            },
            {
              "internalType": "uint256",
              "name": "nonce",
              "type": "uint256"
            }
          ],
          "internalType": "struct Market.Offer[]",
          "name": "",
          "type": "tuple[]"
        }
      ],
      "stateMutability": "view",
      "type": "function"
    },
    {
      "inputs": [],
      "name": "getOfferIDs",
      "outputs": [
        {
          "internalType": "string[]",
          "name": "",
          "type": "string[]"
        }
      ],
      "stateMutability": "view",
      "type": "function"
    },
    {
      "inputs": [],
      "name": "getLatestSupplyContract",
      "outputs": [
        {
          "internalType": "address",
          "name": "",
          "type": "address"
        }
      ],
      "stateMutability": "view",
      "type": "function"
    },
    {
      "inputs": [],
      "name": "getPendingOffers",
      "outputs": [
        {
          "internalType": "address",
          "name": "",
          "type": "address"
        }
      ],
      "stateMutability": "view",
      "type": "function"
    }
  ],
  "bytecode": "0x608060405260405162003e1138038062003e1183398181016040528101906200002991906200011b565b336000806101000a81548173ffffffffffffffffffffffffffffffffffffffff021916908373ffffffffffffffffffffffffffffffffffffffff16021790555080600160006101000a81548173ffffffffffffffffffffffffffffffffffffffff021916908373ffffffffffffffffffffffffffffffffffffffff160217905550506200014d565b600080fd5b600073ffffffffffffffffffffffffffffffffffffffff82169050919050565b6000620000e382620000b6565b9050919050565b620000f581620000d6565b81146200010157600080fd5b50565b6000815190506200011581620000ea565b92915050565b600060208284031215620001345762000133620000b1565b5b6000620001448482850162000104565b91505092915050565b613cb4806200015d6000396000f3fe60806040523480156200001157600080fd5b5060043610620000ac5760003560e01c80637a510116116200006f5780637a5101161462000197578063a81333c414620001cd578063cdc2e6d714620001ef578063d6b85e8f1462000225578063f6a80192146200024757620000ac565b80630753c9e314620000b1578063110b9d8914620000d35780633ee992ee146200010957806354e69aaa146200012b57806373f89db11462000161575b600080fd5b620000bb62000269565b604051620000ca919062001979565b60405180910390f35b620000f16004803603810190620000eb9190620019e5565b62000293565b60405162000100919062001ab1565b60405180910390f35b6200011362000348565b60405162000122919062001d14565b60405180910390f35b62000149600480360381019062000143919062001eba565b62000679565b60405162000158919062001f31565b60405180910390f35b6200017f600480360381019062000179919062001f4e565b62000aa2565b6040516200018e919062001f31565b60405180910390f35b620001b56004803603810190620001af919062002055565b62000eb4565b604051620001c4919062002184565b60405180910390f35b620001d762001114565b604051620001e6919062001979565b60405180910390f35b6200020d6004803603810190620002079190620021a8565b6200113e565b6040516200021c919062001979565b60405180910390f35b6200022f6200173e565b6040516200023e919062001979565b60405180910390f35b6200025162001764565b604051620002609190620022fd565b60405180910390f35b6000600560009054906101000a900473ffffffffffffffffffffffffffffffffffffffff16905090565b60048181548110620002a457600080fd5b906000526020600020016000915090508054620002c19062002350565b80601f0160208091040260200160405190810160405280929190818152602001828054620002ef9062002350565b8015620003405780601f10620003145761010080835404028352916020019162000340565b820191906000526020600020905b8154815290600101906020018083116200032257829003601f168201915b505050505081565b6060600060048054905067ffffffffffffffff8111156200036e576200036d62001d42565b5b604051908082528060200260200182016040528015620003ab57816020015b6200039762001847565b8152602001906001900390816200038d5790505b50905060005b6004805490508110156200067157600060048281548110620003d857620003d762002385565b5b9060005260206000200190506000600282604051620003f8919062002463565b908152602001604051809103902090508060405180610120016040529081600082018054620004279062002350565b80601f0160208091040260200160405190810160405280929190818152602001828054620004559062002350565b8015620004a65780601f106200047a57610100808354040283529160200191620004a6565b820191906000526020600020905b8154815290600101906020018083116200048857829003601f168201915b505050505081526020016001820154815260200160028201548152602001600382015481526020016004820160009054906101000a900473ffffffffffffffffffffffffffffffffffffffff1673ffffffffffffffffffffffffffffffffffffffff1673ffffffffffffffffffffffffffffffffffffffff1681526020016005820160009054906101000a900473ffffffffffffffffffffffffffffffffffffffff1673ffffffffffffffffffffffffffffffffffffffff1673ffffffffffffffffffffffffffffffffffffffff1681526020016005820160149054906101000a900460ff16151515158152602001600682018054620005a69062002350565b80601f0160208091040260200160405190810160405280929190818152602001828054620005d49062002350565b8015620006255780601f10620005f95761010080835404028352916020019162000625565b820191906000526020600020905b8154815290600101906020018083116200060757829003601f168201915b505050505081526020016007820154815250508484815181106200064e576200064d62002385565b5b6020026020010181905250505080806200066890620024ab565b915050620003b1565b508091505090565b6000806002846040516200068e91906200252f565b908152602001604051809103902060405180610120016040529081600082018054620006ba9062002350565b80601f0160208091040260200160405190810160405280929190818152602001828054620006e89062002350565b8015620007395780601f106200070d5761010080835404028352916020019162000739565b820191906000526020600020905b8154815290600101906020018083116200071b57829003601f168201915b505050505081526020016001820154815260200160028201548152602001600382015481526020016004820160009054906101000a900473ffffffffffffffffffffffffffffffffffffffff1673ffffffffffffffffffffffffffffffffffffffff1673ffffffffffffffffffffffffffffffffffffffff1681526020016005820160009054906101000a900473ffffffffffffffffffffffffffffffffffffffff1673ffffffffffffffffffffffffffffffffffffffff1673ffffffffffffffffffffffffffffffffffffffff1681526020016005820160149054906101000a900460ff16151515158152602001600682018054620008399062002350565b80601f0160208091040260200160405190810160405280929190818152602001828054620008679062002350565b8015620008b85780601f106200088c57610100808354040283529160200191620008b8565b820191906000526020600020905b8154815290600101906020018083116200089a57829003601f168201915b505050505081526020016007820154815250509050806080015173ffffffffffffffffffffffffffffffffffffffff163373ffffffffffffffffffffffffffffffffffffffff161462000942576040517f08c379a0000000000000000000000000000000000000000000000000000000008152600401620009399062002598565b60405180910390fd5b60008390508073ffffffffffffffffffffffffffffffffffffffff1663997d182683604001516040518263ffffffff1660e01b8152600401620009869190620025cb565b6020604051808303816000875af1158015620009a6573d6000803e3d6000fd5b505050506040513d601f19601f82011682018060405250810190620009cc919062002619565b50600285604051620009df91906200252f565b90815260200160405180910390206000808201600062000a009190620018c1565b6001820160009055600282016000905560038201600090556004820160006101000a81549073ffffffffffffffffffffffffffffffffffffffff02191690556005820160006101000a81549073ffffffffffffffffffffffffffffffffffffffff02191690556005820160146101000a81549060ff021916905560068201600062000a8c9190620018c1565b6007820160009055505060019250505092915050565b6000600160009054906101000a900473ffffffffffffffffffffffffffffffffffffffff1673ffffffffffffffffffffffffffffffffffffffff1663eb4e352d33876040518363ffffffff1660e01b815260040162000b039291906200264b565b602060405180830381865afa15801562000b21573d6000803e3d6000fd5b505050506040513d601f19601f8201168201806040525081019062000b47919062002619565b62000b89576040517f08c379a000000000000000000000000000000000000000000000000000000000815260040162000b8090620026ee565b60405180910390fd5b60008590508073ffffffffffffffffffffffffffffffffffffffff1663f709bda88a6040518263ffffffff1660e01b815260040162000bc99190620025cb565b6020604051808303816000875af115801562000be9573d6000803e3d6000fd5b505050506040513d601f19601f8201168201806040525081019062000c0f919062002619565b62000c51576040517f08c379a000000000000000000000000000000000000000000000000000000000815260040162000c489062002760565b60405180910390fd5b3373ffffffffffffffffffffffffffffffffffffffff168373ffffffffffffffffffffffffffffffffffffffff161462000cc2576040517f08c379a000000000000000000000000000000000000000000000000000000000815260040162000cb990620027d2565b60405180910390fd5b6040518061012001604052808b81526020018981526020018a81526020018881526020013373ffffffffffffffffffffffffffffffffffffffff1681526020018773ffffffffffffffffffffffffffffffffffffffff1681526020016001151581526020018681526020018581525060028b60405162000d4391906200252f565b9081526020016040518091039020600082015181600001908162000d689190620029c6565b5060208201518160010155604082015181600201556060820151816003015560808201518160040160006101000a81548173ffffffffffffffffffffffffffffffffffffffff021916908373ffffffffffffffffffffffffffffffffffffffff16021790555060a08201518160050160006101000a81548173ffffffffffffffffffffffffffffffffffffffff021916908373ffffffffffffffffffffffffffffffffffffffff16021790555060c08201518160050160146101000a81548160ff02191690831515021790555060e082015181600601908162000e4c9190620029c6565b50610100820151816007015590505060048a90806001815401808255809150506001900390600052602060002001600090919091909150908162000e919190620029c6565b5060018462000ea1919062002aad565b9350600191505098975050505050505050565b62000ebe62001847565b60028260405162000ed091906200252f565b90815260200160405180910390206040518061012001604052908160008201805462000efc9062002350565b80601f016020809104026020016040519081016040528092919081815260200182805462000f2a9062002350565b801562000f7b5780601f1062000f4f5761010080835404028352916020019162000f7b565b820191906000526020600020905b81548152906001019060200180831162000f5d57829003601f168201915b505050505081526020016001820154815260200160028201548152602001600382015481526020016004820160009054906101000a900473ffffffffffffffffffffffffffffffffffffffff1673ffffffffffffffffffffffffffffffffffffffff1673ffffffffffffffffffffffffffffffffffffffff1681526020016005820160009054906101000a900473ffffffffffffffffffffffffffffffffffffffff1673ffffffffffffffffffffffffffffffffffffffff1673ffffffffffffffffffffffffffffffffffffffff1681526020016005820160149054906101000a900460ff161515151581526020016006820180546200107b9062002350565b80601f0160208091040260200160405190810160405280929190818152602001828054620010a99062002350565b8015620010fa5780601f10620010ce57610100808354040283529160200191620010fa565b820191906000526020600020905b815481529060010190602001808311620010dc57829003601f168201915b505050505081526020016007820154815250509050919050565b6000600560009054906101000a900473ffffffffffffffffffffffffffffffffffffffff16905090565b6000806002846040516200115391906200252f565b9081526020016040518091039020604051806101200160405290816000820180546200117f9062002350565b80601f0160208091040260200160405190810160405280929190818152602001828054620011ad9062002350565b8015620011fe5780601f10620011d257610100808354040283529160200191620011fe565b820191906000526020600020905b815481529060010190602001808311620011e057829003601f168201915b505050505081526020016001820154815260200160028201548152602001600382015481526020016004820160009054906101000a900473ffffffffffffffffffffffffffffffffffffffff1673ffffffffffffffffffffffffffffffffffffffff1673ffffffffffffffffffffffffffffffffffffffff1681526020016005820160009054906101000a900473ffffffffffffffffffffffffffffffffffffffff1673ffffffffffffffffffffffffffffffffffffffff1673ffffffffffffffffffffffffffffffffffffffff1681526020016005820160149054906101000a900460ff16151515158152602001600682018054620012fe9062002350565b80601f01602080910402602001604051908101604052809291908181526020018280546200132c9062002350565b80156200137d5780601f1062001351576101008083540402835291602001916200137d565b820191906000526020600020905b8154815290600101906020018083116200135f57829003601f168201915b505050505081526020016007820154815250509050838051906020012081600001518051906020012014620013e9576040517f08c379a0000000000000000000000000000000000000000000000000000000008152600401620013e09062002b38565b60405180910390fd5b60008160e0015190506000826080015190506000836040015190506000846020015190506000856060015190506000866101000151905042821162001465576040517f08c379a00000000000000000000000000000000000000000000000000000000081526004016200145c9062002baa565b60405180910390fd5b8473ffffffffffffffffffffffffffffffffffffffff163373ffffffffffffffffffffffffffffffffffffffff1603620014d6576040517f08c379a0000000000000000000000000000000000000000000000000000000008152600401620014cd9062002c1c565b60405180910390fd5b60008987868685604051620014eb9062001907565b620014fb95949392919062002c3e565b604051809103906000f08015801562001518573d6000803e3d6000fd5b50905080600560006101000a81548173ffffffffffffffffffffffffffffffffffffffff021916908373ffffffffffffffffffffffffffffffffffffffff16021790555060028b6040516200156e91906200252f565b9081526020016040518091039020600080820160006200158f9190620018c1565b6001820160009055600282016000905560038201600090556004820160006101000a81549073ffffffffffffffffffffffffffffffffffffffff02191690556005820160006101000a81549073ffffffffffffffffffffffffffffffffffffffff02191690556005820160146101000a81549060ff02191690556006820160006200161b9190620018c1565b6007820160009055505060005b6004805490508110156200172c578b805190602001206004828154811062001655576200165462002385565b5b906000526020600020016040516200166e919062002d58565b60405180910390200362001716576004600160048054905062001692919062002d71565b81548110620016a657620016a562002385565b5b9060005260206000200160048281548110620016c757620016c662002385565b5b906000526020600020019081620016df919062002dc4565b506004805480620016f557620016f462002ec5565b5b600190038181906000526020600020016000620017139190620018c1565b90555b80806200172390620024ab565b91505062001628565b50809850505050505050505092915050565b600560009054906101000a900473ffffffffffffffffffffffffffffffffffffffff1681565b60606004805480602002602001604051908101604052809291908181526020016000905b828210156200183e578382906000526020600020018054620017aa9062002350565b80601f0160208091040260200160405190810160405280929190818152602001828054620017d89062002350565b8015620018295780601f10620017fd5761010080835404028352916020019162001829565b820191906000526020600020905b8154815290600101906020018083116200180b57829003601f168201915b50505050508152602001906001019062001788565b50505050905090565b60405180610120016040528060608152602001600081526020016000815260200160008152602001600073ffffffffffffffffffffffffffffffffffffffff168152602001600073ffffffffffffffffffffffffffffffffffffffff16815260200160001515815260200160608152602001600081525090565b508054620018cf9062002350565b6000825580601f10620018e3575062001904565b601f01602090049060005260206000209081019062001903919062001915565b5b50565b610d8a8062002ef583390190565b5b808211156200193057600081600090555060010162001916565b5090565b600073ffffffffffffffffffffffffffffffffffffffff82169050919050565b6000620019618262001934565b9050919050565b620019738162001954565b82525050565b600060208201905062001990600083018462001968565b92915050565b6000604051905090565b600080fd5b600080fd5b6000819050919050565b620019bf81620019aa565b8114620019cb57600080fd5b50565b600081359050620019df81620019b4565b92915050565b600060208284031215620019fe57620019fd620019a0565b5b600062001a0e84828501620019ce565b91505092915050565b600081519050919050565b600082825260208201905092915050565b60005b8381101562001a5357808201518184015260208101905062001a36565b60008484015250505050565b6000601f19601f8301169050919050565b600062001a7d8262001a17565b62001a89818562001a22565b935062001a9b81856020860162001a33565b62001aa68162001a5f565b840191505092915050565b6000602082019050818103600083015262001acd818462001a70565b905092915050565b600081519050919050565b600082825260208201905092915050565b6000819050602082019050919050565b600082825260208201905092915050565b600062001b1f8262001a17565b62001b2b818562001b01565b935062001b3d81856020860162001a33565b62001b488162001a5f565b840191505092915050565b62001b5e81620019aa565b82525050565b62001b6f8162001954565b82525050565b60008115159050919050565b62001b8c8162001b75565b82525050565b600061012083016000830151848203600086015262001bb2828262001b12565b915050602083015162001bc9602086018262001b53565b50604083015162001bde604086018262001b53565b50606083015162001bf3606086018262001b53565b50608083015162001c08608086018262001b64565b5060a083015162001c1d60a086018262001b64565b5060c083015162001c3260c086018262001b81565b5060e083015184820360e086015262001c4c828262001b12565b91505061010083015162001c6561010086018262001b53565b508091505092915050565b600062001c7e838362001b92565b905092915050565b6000602082019050919050565b600062001ca08262001ad5565b62001cac818562001ae0565b93508360208202850162001cc08562001af1565b8060005b8581101562001d02578484038952815162001ce0858262001c70565b945062001ced8362001c86565b925060208a0199505060018101905062001cc4565b50829750879550505050505092915050565b6000602082019050818103600083015262001d30818462001c93565b905092915050565b600080fd5b600080fd5b7f4e487b7100000000000000000000000000000000000000000000000000000000600052604160045260246000fd5b62001d7c8262001a5f565b810181811067ffffffffffffffff8211171562001d9e5762001d9d62001d42565b5b80604052505050565b600062001db362001996565b905062001dc1828262001d71565b919050565b600067ffffffffffffffff82111562001de45762001de362001d42565b5b62001def8262001a5f565b9050602081019050919050565b82818337600083830152505050565b600062001e2262001e1c8462001dc6565b62001da7565b90508281526020810184848401111562001e415762001e4062001d3d565b5b62001e4e84828562001dfc565b509392505050565b600082601f83011262001e6e5762001e6d62001d38565b5b813562001e8084826020860162001e0b565b91505092915050565b62001e948162001954565b811462001ea057600080fd5b50565b60008135905062001eb48162001e89565b92915050565b6000806040838503121562001ed45762001ed3620019a0565b5b600083013567ffffffffffffffff81111562001ef55762001ef4620019a5565b5b62001f038582860162001e56565b925050602062001f168582860162001ea3565b9150509250929050565b62001f2b8162001b75565b82525050565b600060208201905062001f48600083018462001f20565b92915050565b600080600080600080600080610100898b03121562001f725762001f71620019a0565b5b600089013567ffffffffffffffff81111562001f935762001f92620019a5565b5b62001fa18b828c0162001e56565b985050602062001fb48b828c01620019ce565b975050604062001fc78b828c01620019ce565b965050606062001fda8b828c01620019ce565b955050608062001fed8b828c0162001ea3565b94505060a089013567ffffffffffffffff811115620020115762002010620019a5565b5b6200201f8b828c0162001e56565b93505060c0620020328b828c01620019ce565b92505060e0620020458b828c0162001ea3565b9150509295985092959890939650565b6000602082840312156200206e576200206d620019a0565b5b600082013567ffffffffffffffff8111156200208f576200208e620019a5565b5b6200209d8482850162001e56565b91505092915050565b6000610120830160008301518482036000860152620020c6828262001b12565b9150506020830151620020dd602086018262001b53565b506040830151620020f2604086018262001b53565b50606083015162002107606086018262001b53565b5060808301516200211c608086018262001b64565b5060a08301516200213160a086018262001b64565b5060c08301516200214660c086018262001b81565b5060e083015184820360e086015262002160828262001b12565b9150506101008301516200217961010086018262001b53565b508091505092915050565b60006020820190508181036000830152620021a08184620020a6565b905092915050565b60008060408385031215620021c257620021c1620019a0565b5b600083013567ffffffffffffffff811115620021e357620021e2620019a5565b5b620021f18582860162001e56565b925050602083013567ffffffffffffffff811115620022155762002214620019a5565b5b620022238582860162001e56565b9150509250929050565b600081519050919050565b600082825260208201905092915050565b6000819050602082019050919050565b600062002267838362001b12565b905092915050565b6000602082019050919050565b600062002289826200222d565b62002295818562002238565b935083602082028501620022a98562002249565b8060005b85811015620022eb5784840389528151620022c9858262002259565b9450620022d6836200226f565b925060208a01995050600181019050620022ad565b50829750879550505050505092915050565b600060208201905081810360008301526200231981846200227c565b905092915050565b7f4e487b7100000000000000000000000000000000000000000000000000000000600052602260045260246000fd5b600060028204905060018216806200236957607f821691505b6020821081036200237f576200237e62002321565b5b50919050565b7f4e487b7100000000000000000000000000000000000000000000000000000000600052603260045260246000fd5b600081905092915050565b60008190508160005260206000209050919050565b60008154620023e38162002350565b620023ef8186620023b4565b945060018216600081146200240d576001811462002423576200245a565b60ff19831686528115158202860193506200245a565b6200242e85620023bf565b60005b83811015620024525781548189015260018201915060208101905062002431565b838801955050505b50505092915050565b6000620024718284620023d4565b915081905092915050565b7f4e487b7100000000000000000000000000000000000000000000000000000000600052601160045260246000fd5b6000620024b882620019aa565b91507fffffffffffffffffffffffffffffffffffffffffffffffffffffffffffffffff8203620024ed57620024ec6200247c565b5b600182019050919050565b6000620025058262001a17565b620025118185620023b4565b93506200252381856020860162001a33565b80840191505092915050565b60006200253d8284620024f8565b915081905092915050565b7f4f6e6c79206f776e65722063616e2072656d6f7665206f666665720000000000600082015250565b600062002580601b8362001a22565b91506200258d8262002548565b602082019050919050565b60006020820190508181036000830152620025b38162002571565b9050919050565b620025c581620019aa565b82525050565b6000602082019050620025e26000830184620025ba565b92915050565b620025f38162001b75565b8114620025ff57600080fd5b50565b6000815190506200261381620025e8565b92915050565b600060208284031215620026325762002631620019a0565b5b6000620026428482850162002602565b91505092915050565b600060408201905062002662600083018562001968565b62002671602083018462001968565b9392505050565b7f536d617274204d65746572206e6f74207265676973746572656420627920436160008201527f626c6520436f6d70616e79000000000000000000000000000000000000000000602082015250565b6000620026d6602b8362001a22565b9150620026e38262002678565b604082019050919050565b600060208201905081810360008301526200270981620026c7565b9050919050565b7f4e6f7420656e6f7567682073746f72656420656e657267790000000000000000600082015250565b60006200274860188362001a22565b9150620027558262002710565b602082019050919050565b600060208201905081810360008301526200277b8162002739565b9050919050565b7f4f6e6c79206f776e65722063616e20616464206f666665720000000000000000600082015250565b6000620027ba60188362001a22565b9150620027c78262002782565b602082019050919050565b60006020820190508181036000830152620027ed81620027ab565b9050919050565b60008190508160005260206000209050919050565b60006020601f8301049050919050565b600082821b905092915050565b600060088302620028587fffffffffffffffffffffffffffffffffffffffffffffffffffffffffffffffff8262002819565b62002864868362002819565b95508019841693508086168417925050509392505050565b6000819050919050565b6000620028a7620028a16200289b84620019aa565b6200287c565b620019aa565b9050919050565b6000819050919050565b620028c38362002886565b620028db620028d282620028ae565b84845462002826565b825550505050565b600090565b620028f2620028e3565b620028ff818484620028b8565b505050565b5b8181101562002927576200291b600082620028e8565b60018101905062002905565b5050565b601f82111562002976576200294081620027f4565b6200294b8462002809565b810160208510156200295b578190505b620029736200296a8562002809565b83018262002904565b50505b505050565b600082821c905092915050565b60006200299b600019846008026200297b565b1980831691505092915050565b6000620029b6838362002988565b9150826002028217905092915050565b620029d18262001a17565b67ffffffffffffffff811115620029ed57620029ec62001d42565b5b620029f9825462002350565b62002a068282856200292b565b600060209050601f83116001811462002a3e576000841562002a29578287015190505b62002a358582620029a8565b86555062002aa5565b601f19841662002a4e86620027f4565b60005b8281101562002a785784890151825560018201915060208501945060208101905062002a51565b8683101562002a98578489015162002a94601f89168262002988565b8355505b6001600288020188555050505b505050505050565b600062002aba82620019aa565b915062002ac783620019aa565b925082820190508082111562002ae25762002ae16200247c565b5b92915050565b7f4e6f206f6666657220666f756e64000000000000000000000000000000000000600082015250565b600062002b20600e8362001a22565b915062002b2d8262002ae8565b602082019050919050565b6000602082019050818103600083015262002b538162002b11565b9050919050565b7f43616e6e6f74206275792065787069726564206f666665720000000000000000600082015250565b600062002b9260188362001a22565b915062002b9f8262002b5a565b602082019050919050565b6000602082019050818103600083015262002bc58162002b83565b9050919050565b7f4f776e65722063616e6e6f7420627579206f776e206f66666572000000000000600082015250565b600062002c04601a8362001a22565b915062002c118262002bcc565b602082019050919050565b6000602082019050818103600083015262002c378162002bf5565b9050919050565b600060a082019050818103600083015262002c5a818862001a70565b9050818103602083015262002c70818762001a70565b905062002c816040830186620025ba565b62002c906060830185620025ba565b62002c9f6080830184620025ba565b9695505050505050565b600081905092915050565b60008190508160005260206000209050919050565b6000815462002cd88162002350565b62002ce4818662002ca9565b9450600182166000811462002d02576001811462002d185762002d4f565b60ff198316865281151582028601935062002d4f565b62002d238562002cb4565b60005b8381101562002d475781548189015260018201915060208101905062002d26565b838801955050505b50505092915050565b600062002d66828462002cc9565b915081905092915050565b600062002d7e82620019aa565b915062002d8b83620019aa565b925082820390508181111562002da65762002da56200247c565b5b92915050565b60008154905062002dbd8162002350565b9050919050565b81810362002dd457505062002ec3565b62002ddf8262002dac565b67ffffffffffffffff81111562002dfb5762002dfa62001d42565b5b62002e07825462002350565b62002e148282856200292b565b6000601f83116001811462002e48576000841562002e33578287015490505b62002e3f8582620029a8565b86555062002ebc565b601f19841662002e5887620023bf565b965062002e6586620027f4565b60005b8281101562002e8f5784890154825560018201915060018501945060208101905062002e68565b8683101562002eaf578489015462002eab601f89168262002988565b8355505b6001600288020188555050505b5050505050505b565b7f4e487b7100000000000000000000000000000000000000000000000000000000600052603160045260246000fdfe60806040523480156200001157600080fd5b5060405162000d8a38038062000d8a83398181016040528101906200003791906200026b565b846000908162000048919062000572565b5083600190816200005a919062000572565b508260028190555081600381905550426004819055506000600560006101000a81548160ff02191690831515021790555080600681905550505050505062000659565b6000604051905090565b600080fd5b600080fd5b600080fd5b600080fd5b6000601f19601f8301169050919050565b7f4e487b7100000000000000000000000000000000000000000000000000000000600052604160045260246000fd5b6200010682620000bb565b810181811067ffffffffffffffff82111715620001285762000127620000cc565b5b80604052505050565b60006200013d6200009d565b90506200014b8282620000fb565b919050565b600067ffffffffffffffff8211156200016e576200016d620000cc565b5b6200017982620000bb565b9050602081019050919050565b60005b83811015620001a657808201518184015260208101905062000189565b60008484015250505050565b6000620001c9620001c38462000150565b62000131565b905082815260208101848484011115620001e857620001e7620000b6565b5b620001f584828562000186565b509392505050565b600082601f830112620002155762000214620000b1565b5b815162000227848260208601620001b2565b91505092915050565b6000819050919050565b620002458162000230565b81146200025157600080fd5b50565b60008151905062000265816200023a565b92915050565b600080600080600060a086880312156200028a5762000289620000a7565b5b600086015167ffffffffffffffff811115620002ab57620002aa620000ac565b5b620002b988828901620001fd565b955050602086015167ffffffffffffffff811115620002dd57620002dc620000ac565b5b620002eb88828901620001fd565b9450506040620002fe8882890162000254565b9350506060620003118882890162000254565b9250506080620003248882890162000254565b9150509295509295909350565b600081519050919050565b7f4e487b7100000000000000000000000000000000000000000000000000000000600052602260045260246000fd5b600060028204905060018216806200038457607f821691505b6020821081036200039a57620003996200033c565b5b50919050565b60008190508160005260206000209050919050565b60006020601f8301049050919050565b600082821b905092915050565b600060088302620004047fffffffffffffffffffffffffffffffffffffffffffffffffffffffffffffffff82620003c5565b620004108683620003c5565b95508019841693508086168417925050509392505050565b6000819050919050565b6000620004536200044d620004478462000230565b62000428565b62000230565b9050919050565b6000819050919050565b6200046f8362000432565b620004876200047e826200045a565b848454620003d2565b825550505050565b600090565b6200049e6200048f565b620004ab81848462000464565b505050565b5b81811015620004d357620004c760008262000494565b600181019050620004b1565b5050565b601f8211156200052257620004ec81620003a0565b620004f784620003b5565b8101602085101562000507578190505b6200051f6200051685620003b5565b830182620004b0565b50505b505050565b600082821c905092915050565b6000620005476000198460080262000527565b1980831691505092915050565b600062000562838362000534565b9150826002028217905092915050565b6200057d8262000331565b67ffffffffffffffff811115620005995762000598620000cc565b5b620005a582546200036b565b620005b2828285620004d7565b600060209050601f831160018114620005ea5760008415620005d5578287015190505b620005e1858262000554565b86555062000651565b601f198416620005fa86620003a0565b60005b828110156200062457848901518255600182019150602085019450602081019050620005fd565b8683101562000644578489015162000640601f89168262000534565b8355505b6001600288020188555050505b505050505050565b61072180620006696000396000f3fe608060405234801561001057600080fd5b50600436106100575760003560e01c80635a9b0b891461005c578063603daf9a1461007a57806398d5fdca14610098578063d321fe29146100b6578063dbd0e1b6146100d4575b600080fd5b6100646100f2565b60405161007191906105d3565b60405180910390f35b610082610282565b60405161008f919061063f565b60405180910390f35b6100a0610314565b6040516100ad9190610670565b60405180910390f35b6100be61031e565b6040516100cb9190610670565b60405180910390f35b6100dc610328565b6040516100e9919061063f565b60405180910390f35b6100fa6103ba565b60006040518061010001604052803073ffffffffffffffffffffffffffffffffffffffff16815260200160008054610131906106ba565b80601f016020809104026020016040519081016040528092919081815260200182805461015d906106ba565b80156101aa5780601f1061017f576101008083540402835291602001916101aa565b820191906000526020600020905b81548152906001019060200180831161018d57829003601f168201915b50505050508152602001600180546101c1906106ba565b80601f01602080910402602001604051908101604052809291908181526020018280546101ed906106ba565b801561023a5780601f1061020f5761010080835404028352916020019161023a565b820191906000526020600020905b81548152906001019060200180831161021d57829003601f168201915b50505050508152602001600354815260200160025481526020016004548152602001600560009054906101000a900460ff161515815260200160065481525090508091505090565b606060008054610291906106ba565b80601f01602080910402602001604051908101604052809291908181526020018280546102bd906106ba565b801561030a5780601f106102df5761010080835404028352916020019161030a565b820191906000526020600020905b8154815290600101906020018083116102ed57829003601f168201915b5050505050905090565b6000600354905090565b6000600254905090565b606060018054610337906106ba565b80601f0160208091040260200160405190810160405280929190818152602001828054610363906106ba565b80156103b05780601f10610385576101008083540402835291602001916103b0565b820191906000526020600020905b81548152906001019060200180831161039357829003601f168201915b5050505050905090565b604051806101000160405280600073ffffffffffffffffffffffffffffffffffffffff1681526020016060815260200160608152602001600081526020016000815260200160008152602001600015158152602001600081525090565b600073ffffffffffffffffffffffffffffffffffffffff82169050919050565b600061044282610417565b9050919050565b61045281610437565b82525050565b600081519050919050565b600082825260208201905092915050565b60005b83811015610492578082015181840152602081019050610477565b60008484015250505050565b6000601f19601f8301169050919050565b60006104ba82610458565b6104c48185610463565b93506104d4818560208601610474565b6104dd8161049e565b840191505092915050565b6000819050919050565b6104fb816104e8565b82525050565b60008115159050919050565b61051681610501565b82525050565b6000610100830160008301516105356000860182610449565b506020830151848203602086015261054d82826104af565b9150506040830151848203604086015261056782826104af565b915050606083015161057c60608601826104f2565b50608083015161058f60808601826104f2565b5060a08301516105a260a08601826104f2565b5060c08301516105b560c086018261050d565b5060e08301516105c860e08601826104f2565b508091505092915050565b600060208201905081810360008301526105ed818461051c565b905092915050565b600082825260208201905092915050565b600061061182610458565b61061b81856105f5565b935061062b818560208601610474565b6106348161049e565b840191505092915050565b600060208201905081810360008301526106598184610606565b905092915050565b61066a816104e8565b82525050565b60006020820190506106856000830184610661565b92915050565b7f4e487b7100000000000000000000000000000000000000000000000000000000600052602260045260246000fd5b600060028204905060018216806106d257607f821691505b6020821081036106e5576106e461068b565b5b5091905056fea26469706673582212200cd44addc115ae3c71d5742a3e1e0579852326be376df4a378cca0598e0134d664736f6c63430008130033a2646970667358221220e51bd3eb9f4202fc4a24281ba9b06c02d828b1a129049360dc2c98f3ec2b80e164736f6c63430008130033",
  "immutableReferences": {},
  "source": "// SPDX-License-Identifier: GPL-3.0\n// pragma experimental ABIEncoderV2;\npragma solidity ^0.8.9;\n\ninterface ICableCompany {\n    function registerKey(\n        address smartMeterPubKey,\n        address smartMeterAddress\n    ) external;\n\n    function isRegisteredKey(\n        address smartMeterPubKey,\n        address smartMeterAddress\n    ) external view returns (bool);\n\n    function removeRegisteredKey(address smartMeterPubKey) external;\n}\n\ninterface ISmartMeter {\n    function returnReservedBatteryCharge(uint amount) external returns (bool);\n\n    function subtractBatteryCharge(uint amount) external returns (bool);\n}\n\ncontract Market {\n    address owner;\n    ICableCompany cableCompany;\n    // uint nonce;\n    // string groupPublicKey;\n\n    struct Offer {\n        string id;\n        uint price;\n        uint amount;\n        uint expiration;\n        address owner;\n        address smartMeterAddress;\n        bool active;\n        string sellerSignature;\n        uint nonce;\n    }\n\n    mapping(string => Offer) private offers;\n    mapping(string => Offer) private pendingConfirmation;\n    string[] public offerIds;\n    address public lastestSupplyChainAddress;\n\n    constructor(\n        address _cableCompanyAddress // string memory _groupPublicKey\n    ) payable {\n        owner = msg.sender;\n        cableCompany = ICableCompany(_cableCompanyAddress);\n        // nonce = 1;\n        // groupPublicKey = _groupPublicKey;\n    }\n\n    function addOffer(\n        string memory id,\n        uint amount,\n        uint price,\n        uint expiration,\n        address smartMeterAddress,\n        string memory sellerSignature,\n        uint nonce,\n        address sellerAddress\n    ) public returns (bool) {\n        require(\n            cableCompany.isRegisteredKey(msg.sender, smartMeterAddress),\n            \"Smart Meter not registered by Cable Company\"\n        );\n\n        ISmartMeter smartMeter = ISmartMeter(smartMeterAddress);\n        require(\n            smartMeter.subtractBatteryCharge(amount),\n            \"Not enough stored energy\"\n        );\n\n        require(sellerAddress == msg.sender, \"Only owner can add offer\");\n\n        offers[id] = Offer({\n            id: id,\n            amount: amount,\n            price: price,\n            expiration: expiration,\n            owner: msg.sender,\n            smartMeterAddress: smartMeterAddress, // are we using this?\n            active: true,\n            sellerSignature: sellerSignature,\n            nonce: nonce\n        });\n        offerIds.push(id);\n\n        // Increment nonce\n        nonce += 1;\n\n        return true;\n    }\n\n    function removeOffer(\n        string memory id,\n        address smartMeterAddress\n    ) public returns (bool) {\n        Offer memory offer = offers[id];\n        require(msg.sender == offer.owner, \"Only owner can remove offer\");\n        ISmartMeter smartMeter = ISmartMeter(smartMeterAddress);\n        smartMeter.returnReservedBatteryCharge(offer.amount);\n        delete offers[id];\n        return true;\n    }\n\n    function buyOffer(\n        string memory id,\n        string memory buyerSignature\n    ) public returns (address) {\n        Offer memory offer = offers[id];\n        require(\n            keccak256(bytes(offer.id)) == keccak256(bytes(id)),\n            \"No offer found\"\n        );\n        string memory sellerSignature = offer.sellerSignature;\n        address seller = offer.owner;\n        uint amount = offer.amount;\n        uint price = offer.price;\n        uint expiration = offer.expiration;\n        uint offerNonce = offer.nonce;\n\n        require(expiration > block.timestamp, \"Cannot buy expired offer\");\n        require(msg.sender != seller, \"Owner cannot buy own offer\");\n\n        SupplyContract sc = new SupplyContract({\n            _buyerSignature: buyerSignature,\n            _sellerSignature: sellerSignature,\n            _amount: amount,\n            _price: price,\n            _nonce: offerNonce\n        });\n        lastestSupplyChainAddress = address(sc);\n        delete offers[id];\n\n        for (uint i = 0; i < offerIds.length; i++) {\n            // String comparison\n            if (keccak256(bytes(offerIds[i])) == keccak256(bytes(id))) {\n                offerIds[i] = offerIds[offerIds.length - 1];\n                offerIds.pop();\n            }\n        }\n\n        return address(sc);\n    }\n\n    function getOffer(string memory id) public view returns (Offer memory) {\n        return offers[id];\n    }\n\n    function getOffers() public view returns (Offer[] memory) {\n        Offer[] memory offersReturn = new Offer[](offerIds.length);\n        for (uint i = 0; i < offerIds.length; i++) {\n            string storage offerId = offerIds[i];\n            Offer storage offer = offers[offerId];\n\n            offersReturn[i] = offer;\n        }\n        return offersReturn;\n    }\n\n    function getOfferIDs() public view returns (string[] memory) {\n        return offerIds;\n    }\n\n    function getLatestSupplyContract() public view returns (address) {\n        return lastestSupplyChainAddress;\n    }\n\n    function getPendingOffers() public view returns (address) {\n        return lastestSupplyChainAddress;\n    }\n\n    // function getNonce() public view returns (uint) {\n    //     return nonce;\n    // }\n\n    // function getGroupPublicKey() public view returns (string memory) {\n    //     return groupPublicKey;\n    // }\n\n    // function setGroupPublicKey(string memory _groupPublicKey) public {\n    //     require(\n    //         msg.sender == address(cableCompany),\n    //         \"Only cable compnay can change the group key\"\n    //     );\n    //     groupPublicKey = _groupPublicKey;\n    // }\n}\n\ncontract SupplyContract {\n    string buyerSignature;\n    string sellerSignature;\n    uint amount; // Wh\n    uint price; // Euro cents\n    uint timestamp; // Unix\n    bool confirmed;\n    uint nonce;\n    // address dso;\n\n    struct SupplyContractDTO {\n        address scAddress;\n        string buyerSignature;\n        string sellerSignature;\n        uint price;\n        uint amount;\n        uint timestamp;\n        bool confirmed;\n        uint nonce;\n    }\n\n    constructor(\n        string memory _buyerSignature,\n        string memory _sellerSignature,\n        uint _amount,\n        uint _price,\n        uint _nonce\n    ) {\n        buyerSignature = _buyerSignature;\n        sellerSignature = _sellerSignature;\n        amount = _amount;\n        price = _price;\n        timestamp = block.timestamp;\n        confirmed = false;\n        nonce = _nonce;\n    }\n\n    function getBuyer() public view returns (string memory) {\n        return buyerSignature;\n    }\n\n    function getSeller() public view returns (string memory) {\n        return sellerSignature;\n    }\n\n    function getAmount() public view returns (uint) {\n        return amount;\n    }\n\n    function getPrice() public view returns (uint) {\n        return price;\n    }\n\n    function getInfo() public view returns (SupplyContractDTO memory) {\n        SupplyContractDTO memory scDTO = SupplyContractDTO({\n            scAddress: address(this),\n            buyerSignature: buyerSignature,\n            sellerSignature: sellerSignature,\n            price: price,\n            amount: amount,\n            timestamp: timestamp,\n            confirmed: confirmed,\n            nonce: nonce\n        });\n\n        return scDTO;\n    }\n\n    // function aproveContract() public {\n    //     require(msg.sender == dso, \"only the DSO can approve a contract\");\n    //     confirmed = true;\n    // }\n}\n",
  "sourcePath": "/Users/antonoeschmidt/Projects/Master/SmartGridEmpowered/contracts/Market.sol",
  "compiler": {
    "name": "solc",
    "version": "0.8.19+commit.7dd6d404.Emscripten.clang"
  },
  "schemaVersion": "3.4.3",
  "updatedAt": "2023-12-18T10:32:22.173Z",
  "devdoc": {
    "kind": "dev",
    "methods": {},
    "version": 1
  },
  "userdoc": {
    "kind": "user",
    "methods": {},
    "version": 1
  }
}