{
  "contractName": "Market",
  "abi": [
    {
      "inputs": [
        {
          "internalType": "address",
          "name": "_cableCompanyAddress",
          "type": "address"
        }
      ],
      "stateMutability": "payable",
      "type": "constructor"
    },
    {
      "inputs": [],
      "name": "lastestSupplyChainAddress",
      "outputs": [
        {
          "internalType": "address",
          "name": "",
          "type": "address"
        }
      ],
      "stateMutability": "view",
      "type": "function"
    },
    {
      "inputs": [
        {
          "internalType": "uint256",
          "name": "",
          "type": "uint256"
        }
      ],
      "name": "offerIds",
      "outputs": [
        {
          "internalType": "string",
          "name": "",
          "type": "string"
        }
      ],
      "stateMutability": "view",
      "type": "function"
    },
    {
      "inputs": [
        {
          "internalType": "string",
          "name": "id",
          "type": "string"
        },
        {
          "internalType": "uint256",
          "name": "amount",
          "type": "uint256"
        },
        {
          "internalType": "uint256",
          "name": "price",
          "type": "uint256"
        },
        {
          "internalType": "uint256",
          "name": "expiration",
          "type": "uint256"
        },
        {
          "internalType": "address",
          "name": "smartMeterAddress",
          "type": "address"
        },
        {
          "internalType": "string",
          "name": "sellerSignature",
          "type": "string"
        },
        {
          "internalType": "uint256",
          "name": "nonce",
          "type": "uint256"
        },
        {
          "internalType": "address",
          "name": "sellerAddress",
          "type": "address"
        },
        {
          "internalType": "string",
          "name": "blindingFactor",
          "type": "string"
        },
        {
          "internalType": "string",
          "name": "_nextHash",
          "type": "string"
        }
      ],
      "name": "addOffer",
      "outputs": [
        {
          "internalType": "bool",
          "name": "",
          "type": "bool"
        }
      ],
      "stateMutability": "nonpayable",
      "type": "function"
    },
    {
      "inputs": [
        {
          "internalType": "string",
          "name": "id",
          "type": "string"
        },
        {
          "internalType": "address",
          "name": "smartMeterAddress",
          "type": "address"
        }
      ],
      "name": "removeOffer",
      "outputs": [
        {
          "internalType": "bool",
          "name": "",
          "type": "bool"
        }
      ],
      "stateMutability": "nonpayable",
      "type": "function"
    },
    {
      "inputs": [
        {
          "internalType": "string",
          "name": "id",
          "type": "string"
        },
        {
          "internalType": "string",
          "name": "buyerSignature",
          "type": "string"
        }
      ],
      "name": "buyOffer",
      "outputs": [
        {
          "internalType": "address",
          "name": "",
          "type": "address"
        }
      ],
      "stateMutability": "nonpayable",
      "type": "function"
    },
    {
      "inputs": [
        {
          "internalType": "string",
          "name": "id",
          "type": "string"
        }
      ],
      "name": "getOffer",
      "outputs": [
        {
          "components": [
            {
              "internalType": "string",
              "name": "id",
              "type": "string"
            },
            {
              "internalType": "uint256",
              "name": "price",
              "type": "uint256"
            },
            {
              "internalType": "uint256",
              "name": "amount",
              "type": "uint256"
            },
            {
              "internalType": "uint256",
              "name": "expiration",
              "type": "uint256"
            },
            {
              "internalType": "address",
              "name": "owner",
              "type": "address"
            },
            {
              "internalType": "address",
              "name": "smartMeterAddress",
              "type": "address"
            },
            {
              "internalType": "bool",
              "name": "active",
              "type": "bool"
            },
            {
              "internalType": "string",
              "name": "sellerSignature",
              "type": "string"
            },
            {
              "internalType": "uint256",
              "name": "nonce",
              "type": "uint256"
            }
          ],
          "internalType": "struct Market.Offer",
          "name": "",
          "type": "tuple"
        }
      ],
      "stateMutability": "view",
      "type": "function"
    },
    {
      "inputs": [],
      "name": "getOffers",
      "outputs": [
        {
          "components": [
            {
              "internalType": "string",
              "name": "id",
              "type": "string"
            },
            {
              "internalType": "uint256",
              "name": "price",
              "type": "uint256"
            },
            {
              "internalType": "uint256",
              "name": "amount",
              "type": "uint256"
            },
            {
              "internalType": "uint256",
              "name": "expiration",
              "type": "uint256"
            },
            {
              "internalType": "address",
              "name": "owner",
              "type": "address"
            },
            {
              "internalType": "address",
              "name": "smartMeterAddress",
              "type": "address"
            },
            {
              "internalType": "bool",
              "name": "active",
              "type": "bool"
            },
            {
              "internalType": "string",
              "name": "sellerSignature",
              "type": "string"
            },
            {
              "internalType": "uint256",
              "name": "nonce",
              "type": "uint256"
            }
          ],
          "internalType": "struct Market.Offer[]",
          "name": "",
          "type": "tuple[]"
        }
      ],
      "stateMutability": "view",
      "type": "function"
    },
    {
      "inputs": [],
      "name": "getOfferIDs",
      "outputs": [
        {
          "internalType": "string[]",
          "name": "",
          "type": "string[]"
        }
      ],
      "stateMutability": "view",
      "type": "function"
    },
    {
      "inputs": [],
      "name": "getLatestSupplyContract",
      "outputs": [
        {
          "internalType": "address",
          "name": "",
          "type": "address"
        }
      ],
      "stateMutability": "view",
      "type": "function"
    },
    {
      "inputs": [],
      "name": "getPendingOffers",
      "outputs": [
        {
          "internalType": "address",
          "name": "",
          "type": "address"
        }
      ],
      "stateMutability": "view",
      "type": "function"
    }
  ],
  "bytecode": "0x608060405263240c84006002556040516200410938038062004109833981810160405281019062000031919062000123565b336000806101000a81548173ffffffffffffffffffffffffffffffffffffffff021916908373ffffffffffffffffffffffffffffffffffffffff16021790555080600160006101000a81548173ffffffffffffffffffffffffffffffffffffffff021916908373ffffffffffffffffffffffffffffffffffffffff1602179055505062000155565b600080fd5b600073ffffffffffffffffffffffffffffffffffffffff82169050919050565b6000620000eb82620000be565b9050919050565b620000fd81620000de565b81146200010957600080fd5b50565b6000815190506200011d81620000f2565b92915050565b6000602082840312156200013c576200013b620000b9565b5b60006200014c848285016200010c565b91505092915050565b613fa480620001656000396000f3fe60806040523480156200001157600080fd5b5060043610620000ac5760003560e01c80637a510116116200006f5780637a5101161462000197578063a81333c414620001cd578063cdc2e6d714620001ef578063d6b85e8f1462000225578063f6a80192146200024757620000ac565b80630753c9e314620000b1578063110b9d8914620000d35780633ee992ee146200010957806354e69aaa146200012b57806376fd22881462000161575b600080fd5b620000bb62000269565b604051620000ca919062001a84565b60405180910390f35b620000f16004803603810190620000eb919062001af0565b62000293565b60405162000100919062001bbc565b60405180910390f35b6200011362000348565b60405162000122919062001e1f565b60405180910390f35b62000149600480360381019062000143919062001fc5565b62000679565b6040516200015891906200203c565b60405180910390f35b6200017f600480360381019062000179919062002059565b62000aa2565b6040516200018e91906200203c565b60405180910390f35b620001b56004803603810190620001af9190620021cb565b62000fbf565b604051620001c49190620022fa565b60405180910390f35b620001d76200121f565b604051620001e6919062001a84565b60405180910390f35b6200020d60048036038101906200020791906200231e565b62001249565b6040516200021c919062001a84565b60405180910390f35b6200022f62001849565b6040516200023e919062001a84565b60405180910390f35b620002516200186f565b60405162000260919062002473565b60405180910390f35b6000600660009054906101000a900473ffffffffffffffffffffffffffffffffffffffff16905090565b60058181548110620002a457600080fd5b906000526020600020016000915090508054620002c190620024c6565b80601f0160208091040260200160405190810160405280929190818152602001828054620002ef90620024c6565b8015620003405780601f10620003145761010080835404028352916020019162000340565b820191906000526020600020905b8154815290600101906020018083116200032257829003601f168201915b505050505081565b6060600060058054905067ffffffffffffffff8111156200036e576200036d62001e4d565b5b604051908082528060200260200182016040528015620003ab57816020015b6200039762001952565b8152602001906001900390816200038d5790505b50905060005b6005805490508110156200067157600060058281548110620003d857620003d7620024fb565b5b9060005260206000200190506000600382604051620003f89190620025d9565b9081526020016040518091039020905080604051806101200160405290816000820180546200042790620024c6565b80601f01602080910402602001604051908101604052809291908181526020018280546200045590620024c6565b8015620004a65780601f106200047a57610100808354040283529160200191620004a6565b820191906000526020600020905b8154815290600101906020018083116200048857829003601f168201915b505050505081526020016001820154815260200160028201548152602001600382015481526020016004820160009054906101000a900473ffffffffffffffffffffffffffffffffffffffff1673ffffffffffffffffffffffffffffffffffffffff1673ffffffffffffffffffffffffffffffffffffffff1681526020016005820160009054906101000a900473ffffffffffffffffffffffffffffffffffffffff1673ffffffffffffffffffffffffffffffffffffffff1673ffffffffffffffffffffffffffffffffffffffff1681526020016005820160149054906101000a900460ff16151515158152602001600682018054620005a690620024c6565b80601f0160208091040260200160405190810160405280929190818152602001828054620005d490620024c6565b8015620006255780601f10620005f95761010080835404028352916020019162000625565b820191906000526020600020905b8154815290600101906020018083116200060757829003601f168201915b505050505081526020016007820154815250508484815181106200064e576200064d620024fb565b5b602002602001018190525050508080620006689062002621565b915050620003b1565b508091505090565b6000806003846040516200068e9190620026a5565b908152602001604051809103902060405180610120016040529081600082018054620006ba90620024c6565b80601f0160208091040260200160405190810160405280929190818152602001828054620006e890620024c6565b8015620007395780601f106200070d5761010080835404028352916020019162000739565b820191906000526020600020905b8154815290600101906020018083116200071b57829003601f168201915b505050505081526020016001820154815260200160028201548152602001600382015481526020016004820160009054906101000a900473ffffffffffffffffffffffffffffffffffffffff1673ffffffffffffffffffffffffffffffffffffffff1673ffffffffffffffffffffffffffffffffffffffff1681526020016005820160009054906101000a900473ffffffffffffffffffffffffffffffffffffffff1673ffffffffffffffffffffffffffffffffffffffff1673ffffffffffffffffffffffffffffffffffffffff1681526020016005820160149054906101000a900460ff161515151581526020016006820180546200083990620024c6565b80601f01602080910402602001604051908101604052809291908181526020018280546200086790620024c6565b8015620008b85780601f106200088c57610100808354040283529160200191620008b8565b820191906000526020600020905b8154815290600101906020018083116200089a57829003601f168201915b5050505050815260200160078201548152505090506000839050816080015173ffffffffffffffffffffffffffffffffffffffff163373ffffffffffffffffffffffffffffffffffffffff161462000947576040517f08c379a00000000000000000000000000000000000000000000000000000000081526004016200093e906200270e565b60405180910390fd5b8073ffffffffffffffffffffffffffffffffffffffff1663997d182683604001516040518263ffffffff1660e01b815260040162000986919062002741565b6020604051808303816000875af1158015620009a6573d6000803e3d6000fd5b505050506040513d601f19601f82011682018060405250810190620009cc91906200278f565b50600385604051620009df9190620026a5565b90815260200160405180910390206000808201600062000a009190620019cc565b6001820160009055600282016000905560038201600090556004820160006101000a81549073ffffffffffffffffffffffffffffffffffffffff02191690556005820160006101000a81549073ffffffffffffffffffffffffffffffffffffffff02191690556005820160146101000a81549060ff021916905560068201600062000a8c9190620019cc565b6007820160009055505060019250505092915050565b6000846000600760008381526020019081526020016000205490506103e84262000acd9190620027c1565b6002805462000add9190620027c1565b8262000aea91906200280c565b111562000b2e576040517f08c379a000000000000000000000000000000000000000000000000000000000815260040162000b259062002897565b60405180910390fd5b600160009054906101000a900473ffffffffffffffffffffffffffffffffffffffff1673ffffffffffffffffffffffffffffffffffffffff1663eb4e352d338b6040518363ffffffff1660e01b815260040162000b8d929190620028b9565b602060405180830381865afa15801562000bab573d6000803e3d6000fd5b505050506040513d601f19601f8201168201806040525081019062000bd191906200278f565b62000c13576040517f08c379a000000000000000000000000000000000000000000000000000000000815260040162000c0a906200295c565b60405180910390fd5b896002546103e84262000c279190620027c1565b62000c3391906200280c565b1162000c76576040517f08c379a000000000000000000000000000000000000000000000000000000000815260040162000c6d90620029ce565b60405180910390fd5b3373ffffffffffffffffffffffffffffffffffffffff168673ffffffffffffffffffffffffffffffffffffffff161462000ce7576040517f08c379a000000000000000000000000000000000000000000000000000000000815260040162000cde9062002a40565b60405180910390fd5b60008990508073ffffffffffffffffffffffffffffffffffffffff166316e444248e88886040518463ffffffff1660e01b815260040162000d2b9392919062002a62565b6020604051808303816000875af115801562000d4b573d6000803e3d6000fd5b505050506040513d601f19601f8201168201806040525081019062000d7191906200278f565b62000db3576040517f08c379a000000000000000000000000000000000000000000000000000000000815260040162000daa9062002afd565b60405180910390fd5b6103e84262000dc39190620027c1565b600760008a8152602001908152602001600020819055506040518061012001604052808f81526020018d81526020018e81526020018c81526020013373ffffffffffffffffffffffffffffffffffffffff1681526020018b73ffffffffffffffffffffffffffffffffffffffff1681526020016001151581526020018a81526020018981525060038f60405162000e5b9190620026a5565b9081526020016040518091039020600082015181600001908162000e80919062002cf1565b5060208201518160010155604082015181600201556060820151816003015560808201518160040160006101000a81548173ffffffffffffffffffffffffffffffffffffffff021916908373ffffffffffffffffffffffffffffffffffffffff16021790555060a08201518160050160006101000a81548173ffffffffffffffffffffffffffffffffffffffff021916908373ffffffffffffffffffffffffffffffffffffffff16021790555060c08201518160050160146101000a81548160ff02191690831515021790555060e082015181600601908162000f64919062002cf1565b50610100820151816007015590505060058e90806001815401808255809150506001900390600052602060002001600090919091909150908162000fa9919062002cf1565b50600193505050509a9950505050505050505050565b62000fc962001952565b60038260405162000fdb9190620026a5565b9081526020016040518091039020604051806101200160405290816000820180546200100790620024c6565b80601f01602080910402602001604051908101604052809291908181526020018280546200103590620024c6565b8015620010865780601f106200105a5761010080835404028352916020019162001086565b820191906000526020600020905b8154815290600101906020018083116200106857829003601f168201915b505050505081526020016001820154815260200160028201548152602001600382015481526020016004820160009054906101000a900473ffffffffffffffffffffffffffffffffffffffff1673ffffffffffffffffffffffffffffffffffffffff1673ffffffffffffffffffffffffffffffffffffffff1681526020016005820160009054906101000a900473ffffffffffffffffffffffffffffffffffffffff1673ffffffffffffffffffffffffffffffffffffffff1673ffffffffffffffffffffffffffffffffffffffff1681526020016005820160149054906101000a900460ff161515151581526020016006820180546200118690620024c6565b80601f0160208091040260200160405190810160405280929190818152602001828054620011b490620024c6565b8015620012055780601f10620011d95761010080835404028352916020019162001205565b820191906000526020600020905b815481529060010190602001808311620011e757829003601f168201915b505050505081526020016007820154815250509050919050565b6000600660009054906101000a900473ffffffffffffffffffffffffffffffffffffffff16905090565b6000806003846040516200125e9190620026a5565b9081526020016040518091039020604051806101200160405290816000820180546200128a90620024c6565b80601f0160208091040260200160405190810160405280929190818152602001828054620012b890620024c6565b8015620013095780601f10620012dd5761010080835404028352916020019162001309565b820191906000526020600020905b815481529060010190602001808311620012eb57829003601f168201915b505050505081526020016001820154815260200160028201548152602001600382015481526020016004820160009054906101000a900473ffffffffffffffffffffffffffffffffffffffff1673ffffffffffffffffffffffffffffffffffffffff1673ffffffffffffffffffffffffffffffffffffffff1681526020016005820160009054906101000a900473ffffffffffffffffffffffffffffffffffffffff1673ffffffffffffffffffffffffffffffffffffffff1673ffffffffffffffffffffffffffffffffffffffff1681526020016005820160149054906101000a900460ff161515151581526020016006820180546200140990620024c6565b80601f01602080910402602001604051908101604052809291908181526020018280546200143790620024c6565b8015620014885780601f106200145c5761010080835404028352916020019162001488565b820191906000526020600020905b8154815290600101906020018083116200146a57829003601f168201915b505050505081526020016007820154815250509050838051906020012081600001518051906020012014620014f4576040517f08c379a0000000000000000000000000000000000000000000000000000000008152600401620014eb9062002e28565b60405180910390fd5b60008160e0015190506000826080015190506000836040015190506000846020015190506000856060015190506000866101000151905042821162001570576040517f08c379a0000000000000000000000000000000000000000000000000000000008152600401620015679062002e9a565b60405180910390fd5b8473ffffffffffffffffffffffffffffffffffffffff163373ffffffffffffffffffffffffffffffffffffffff1603620015e1576040517f08c379a0000000000000000000000000000000000000000000000000000000008152600401620015d89062002f0c565b60405180910390fd5b60008987868685604051620015f69062001a12565b6200160695949392919062002f2e565b604051809103906000f08015801562001623573d6000803e3d6000fd5b50905080600660006101000a81548173ffffffffffffffffffffffffffffffffffffffff021916908373ffffffffffffffffffffffffffffffffffffffff16021790555060038b604051620016799190620026a5565b9081526020016040518091039020600080820160006200169a9190620019cc565b6001820160009055600282016000905560038201600090556004820160006101000a81549073ffffffffffffffffffffffffffffffffffffffff02191690556005820160006101000a81549073ffffffffffffffffffffffffffffffffffffffff02191690556005820160146101000a81549060ff0219169055600682016000620017269190620019cc565b6007820160009055505060005b60058054905081101562001837578b805190602001206005828154811062001760576200175f620024fb565b5b9060005260206000200160405162001779919062003048565b6040518091039020036200182157600560016005805490506200179d919062003061565b81548110620017b157620017b0620024fb565b5b9060005260206000200160058281548110620017d257620017d1620024fb565b5b906000526020600020019081620017ea9190620030b4565b5060058054806200180057620017ff620031b5565b5b6001900381819060005260206000200160006200181e9190620019cc565b90555b80806200182e9062002621565b91505062001733565b50809850505050505050505092915050565b600660009054906101000a900473ffffffffffffffffffffffffffffffffffffffff1681565b60606005805480602002602001604051908101604052809291908181526020016000905b8282101562001949578382906000526020600020018054620018b590620024c6565b80601f0160208091040260200160405190810160405280929190818152602001828054620018e390620024c6565b8015620019345780601f10620019085761010080835404028352916020019162001934565b820191906000526020600020905b8154815290600101906020018083116200191657829003601f168201915b50505050508152602001906001019062001893565b50505050905090565b60405180610120016040528060608152602001600081526020016000815260200160008152602001600073ffffffffffffffffffffffffffffffffffffffff168152602001600073ffffffffffffffffffffffffffffffffffffffff16815260200160001515815260200160608152602001600081525090565b508054620019da90620024c6565b6000825580601f10620019ee575062001a0f565b601f01602090049060005260206000209081019062001a0e919062001a20565b5b50565b610d8a80620031e583390190565b5b8082111562001a3b57600081600090555060010162001a21565b5090565b600073ffffffffffffffffffffffffffffffffffffffff82169050919050565b600062001a6c8262001a3f565b9050919050565b62001a7e8162001a5f565b82525050565b600060208201905062001a9b600083018462001a73565b92915050565b6000604051905090565b600080fd5b600080fd5b6000819050919050565b62001aca8162001ab5565b811462001ad657600080fd5b50565b60008135905062001aea8162001abf565b92915050565b60006020828403121562001b095762001b0862001aab565b5b600062001b198482850162001ad9565b91505092915050565b600081519050919050565b600082825260208201905092915050565b60005b8381101562001b5e57808201518184015260208101905062001b41565b60008484015250505050565b6000601f19601f8301169050919050565b600062001b888262001b22565b62001b94818562001b2d565b935062001ba681856020860162001b3e565b62001bb18162001b6a565b840191505092915050565b6000602082019050818103600083015262001bd8818462001b7b565b905092915050565b600081519050919050565b600082825260208201905092915050565b6000819050602082019050919050565b600082825260208201905092915050565b600062001c2a8262001b22565b62001c36818562001c0c565b935062001c4881856020860162001b3e565b62001c538162001b6a565b840191505092915050565b62001c698162001ab5565b82525050565b62001c7a8162001a5f565b82525050565b60008115159050919050565b62001c978162001c80565b82525050565b600061012083016000830151848203600086015262001cbd828262001c1d565b915050602083015162001cd4602086018262001c5e565b50604083015162001ce9604086018262001c5e565b50606083015162001cfe606086018262001c5e565b50608083015162001d13608086018262001c6f565b5060a083015162001d2860a086018262001c6f565b5060c083015162001d3d60c086018262001c8c565b5060e083015184820360e086015262001d57828262001c1d565b91505061010083015162001d7061010086018262001c5e565b508091505092915050565b600062001d89838362001c9d565b905092915050565b6000602082019050919050565b600062001dab8262001be0565b62001db7818562001beb565b93508360208202850162001dcb8562001bfc565b8060005b8581101562001e0d578484038952815162001deb858262001d7b565b945062001df88362001d91565b925060208a0199505060018101905062001dcf565b50829750879550505050505092915050565b6000602082019050818103600083015262001e3b818462001d9e565b905092915050565b600080fd5b600080fd5b7f4e487b7100000000000000000000000000000000000000000000000000000000600052604160045260246000fd5b62001e878262001b6a565b810181811067ffffffffffffffff8211171562001ea95762001ea862001e4d565b5b80604052505050565b600062001ebe62001aa1565b905062001ecc828262001e7c565b919050565b600067ffffffffffffffff82111562001eef5762001eee62001e4d565b5b62001efa8262001b6a565b9050602081019050919050565b82818337600083830152505050565b600062001f2d62001f278462001ed1565b62001eb2565b90508281526020810184848401111562001f4c5762001f4b62001e48565b5b62001f5984828562001f07565b509392505050565b600082601f83011262001f795762001f7862001e43565b5b813562001f8b84826020860162001f16565b91505092915050565b62001f9f8162001a5f565b811462001fab57600080fd5b50565b60008135905062001fbf8162001f94565b92915050565b6000806040838503121562001fdf5762001fde62001aab565b5b600083013567ffffffffffffffff811115620020005762001fff62001ab0565b5b6200200e8582860162001f61565b9250506020620020218582860162001fae565b9150509250929050565b620020368162001c80565b82525050565b60006020820190506200205360008301846200202b565b92915050565b6000806000806000806000806000806101408b8d03121562002080576200207f62001aab565b5b60008b013567ffffffffffffffff811115620020a157620020a062001ab0565b5b620020af8d828e0162001f61565b9a50506020620020c28d828e0162001ad9565b9950506040620020d58d828e0162001ad9565b9850506060620020e88d828e0162001ad9565b9750506080620020fb8d828e0162001fae565b96505060a08b013567ffffffffffffffff8111156200211f576200211e62001ab0565b5b6200212d8d828e0162001f61565b95505060c0620021408d828e0162001ad9565b94505060e0620021538d828e0162001fae565b9350506101008b013567ffffffffffffffff81111562002178576200217762001ab0565b5b620021868d828e0162001f61565b9250506101208b013567ffffffffffffffff811115620021ab57620021aa62001ab0565b5b620021b98d828e0162001f61565b9150509295989b9194979a5092959850565b600060208284031215620021e457620021e362001aab565b5b600082013567ffffffffffffffff81111562002205576200220462001ab0565b5b620022138482850162001f61565b91505092915050565b60006101208301600083015184820360008601526200223c828262001c1d565b915050602083015162002253602086018262001c5e565b50604083015162002268604086018262001c5e565b5060608301516200227d606086018262001c5e565b50608083015162002292608086018262001c6f565b5060a0830151620022a760a086018262001c6f565b5060c0830151620022bc60c086018262001c8c565b5060e083015184820360e0860152620022d6828262001c1d565b915050610100830151620022ef61010086018262001c5e565b508091505092915050565b600060208201905081810360008301526200231681846200221c565b905092915050565b6000806040838503121562002338576200233762001aab565b5b600083013567ffffffffffffffff81111562002359576200235862001ab0565b5b620023678582860162001f61565b925050602083013567ffffffffffffffff8111156200238b576200238a62001ab0565b5b620023998582860162001f61565b9150509250929050565b600081519050919050565b600082825260208201905092915050565b6000819050602082019050919050565b6000620023dd838362001c1d565b905092915050565b6000602082019050919050565b6000620023ff82620023a3565b6200240b8185620023ae565b9350836020820285016200241f85620023bf565b8060005b858110156200246157848403895281516200243f8582620023cf565b94506200244c83620023e5565b925060208a0199505060018101905062002423565b50829750879550505050505092915050565b600060208201905081810360008301526200248f8184620023f2565b905092915050565b7f4e487b7100000000000000000000000000000000000000000000000000000000600052602260045260246000fd5b60006002820490506001821680620024df57607f821691505b602082108103620024f557620024f462002497565b5b50919050565b7f4e487b7100000000000000000000000000000000000000000000000000000000600052603260045260246000fd5b600081905092915050565b60008190508160005260206000209050919050565b600081546200255981620024c6565b6200256581866200252a565b945060018216600081146200258357600181146200259957620025d0565b60ff1983168652811515820286019350620025d0565b620025a48562002535565b60005b83811015620025c857815481890152600182019150602081019050620025a7565b838801955050505b50505092915050565b6000620025e782846200254a565b915081905092915050565b7f4e487b7100000000000000000000000000000000000000000000000000000000600052601160045260246000fd5b60006200262e8262001ab5565b91507fffffffffffffffffffffffffffffffffffffffffffffffffffffffffffffffff8203620026635762002662620025f2565b5b600182019050919050565b60006200267b8262001b22565b6200268781856200252a565b93506200269981856020860162001b3e565b80840191505092915050565b6000620026b382846200266e565b915081905092915050565b7f4f6e6c79206f776e65722063616e2072656d6f7665206f666665720000000000600082015250565b6000620026f6601b8362001b2d565b91506200270382620026be565b602082019050919050565b600060208201905081810360008301526200272981620026e7565b9050919050565b6200273b8162001ab5565b82525050565b600060208201905062002758600083018462002730565b92915050565b620027698162001c80565b81146200277557600080fd5b50565b60008151905062002789816200275e565b92915050565b600060208284031215620027a857620027a762001aab565b5b6000620027b88482850162002778565b91505092915050565b6000620027ce8262001ab5565b9150620027db8362001ab5565b9250828202620027eb8162001ab5565b91508282048414831517620028055762002804620025f2565b5b5092915050565b6000620028198262001ab5565b9150620028268362001ab5565b9250828201905080821115620028415762002840620025f2565b5b92915050565b7f4e6f6e636520776173207573656420726563656e746c79000000000000000000600082015250565b60006200287f60178362001b2d565b91506200288c8262002847565b602082019050919050565b60006020820190508181036000830152620028b28162002870565b9050919050565b6000604082019050620028d0600083018562001a73565b620028df602083018462001a73565b9392505050565b7f536d617274204d65746572206e6f74207265676973746572656420627920436160008201527f626c6520436f6d70616e79000000000000000000000000000000000000000000602082015250565b600062002944602b8362001b2d565b91506200295182620028e6565b604082019050919050565b60006020820190508181036000830152620029778162002935565b9050919050565b7f4f6666657273206c6966657370616e20697320746f6f206c6f6e670000000000600082015250565b6000620029b6601b8362001b2d565b9150620029c3826200297e565b602082019050919050565b60006020820190508181036000830152620029e981620029a7565b9050919050565b7f4f6e6c79206f776e65722063616e20616464206f666665720000000000000000600082015250565b600062002a2860188362001b2d565b915062002a3582620029f0565b602082019050919050565b6000602082019050818103600083015262002a5b8162002a19565b9050919050565b600060608201905062002a79600083018662002730565b818103602083015262002a8d818562001b7b565b9050818103604083015262002aa3818462001b7b565b9050949350505050565b7f4e6f7420656e6f7567682073746f72656420656e657267790000000000000000600082015250565b600062002ae560188362001b2d565b915062002af28262002aad565b602082019050919050565b6000602082019050818103600083015262002b188162002ad6565b9050919050565b60008190508160005260206000209050919050565b60006020601f8301049050919050565b600082821b905092915050565b60006008830262002b837fffffffffffffffffffffffffffffffffffffffffffffffffffffffffffffffff8262002b44565b62002b8f868362002b44565b95508019841693508086168417925050509392505050565b6000819050919050565b600062002bd262002bcc62002bc68462001ab5565b62002ba7565b62001ab5565b9050919050565b6000819050919050565b62002bee8362002bb1565b62002c0662002bfd8262002bd9565b84845462002b51565b825550505050565b600090565b62002c1d62002c0e565b62002c2a81848462002be3565b505050565b5b8181101562002c525762002c4660008262002c13565b60018101905062002c30565b5050565b601f82111562002ca15762002c6b8162002b1f565b62002c768462002b34565b8101602085101562002c86578190505b62002c9e62002c958562002b34565b83018262002c2f565b50505b505050565b600082821c905092915050565b600062002cc66000198460080262002ca6565b1980831691505092915050565b600062002ce1838362002cb3565b9150826002028217905092915050565b62002cfc8262001b22565b67ffffffffffffffff81111562002d185762002d1762001e4d565b5b62002d248254620024c6565b62002d3182828562002c56565b600060209050601f83116001811462002d69576000841562002d54578287015190505b62002d60858262002cd3565b86555062002dd0565b601f19841662002d798662002b1f565b60005b8281101562002da35784890151825560018201915060208501945060208101905062002d7c565b8683101562002dc3578489015162002dbf601f89168262002cb3565b8355505b6001600288020188555050505b505050505050565b7f4e6f206f6666657220666f756e64000000000000000000000000000000000000600082015250565b600062002e10600e8362001b2d565b915062002e1d8262002dd8565b602082019050919050565b6000602082019050818103600083015262002e438162002e01565b9050919050565b7f43616e6e6f74206275792065787069726564206f666665720000000000000000600082015250565b600062002e8260188362001b2d565b915062002e8f8262002e4a565b602082019050919050565b6000602082019050818103600083015262002eb58162002e73565b9050919050565b7f4f776e65722063616e6e6f7420627579206f776e206f66666572000000000000600082015250565b600062002ef4601a8362001b2d565b915062002f018262002ebc565b602082019050919050565b6000602082019050818103600083015262002f278162002ee5565b9050919050565b600060a082019050818103600083015262002f4a818862001b7b565b9050818103602083015262002f60818762001b7b565b905062002f71604083018662002730565b62002f80606083018562002730565b62002f8f608083018462002730565b9695505050505050565b600081905092915050565b60008190508160005260206000209050919050565b6000815462002fc881620024c6565b62002fd4818662002f99565b9450600182166000811462002ff2576001811462003008576200303f565b60ff19831686528115158202860193506200303f565b620030138562002fa4565b60005b83811015620030375781548189015260018201915060208101905062003016565b838801955050505b50505092915050565b600062003056828462002fb9565b915081905092915050565b60006200306e8262001ab5565b91506200307b8362001ab5565b9250828203905081811115620030965762003095620025f2565b5b92915050565b600081549050620030ad81620024c6565b9050919050565b818103620030c4575050620031b3565b620030cf826200309c565b67ffffffffffffffff811115620030eb57620030ea62001e4d565b5b620030f78254620024c6565b6200310482828562002c56565b6000601f83116001811462003138576000841562003123578287015490505b6200312f858262002cd3565b865550620031ac565b601f198416620031488762002535565b9650620031558662002b1f565b60005b828110156200317f5784890154825560018201915060018501945060208101905062003158565b868310156200319f57848901546200319b601f89168262002cb3565b8355505b6001600288020188555050505b5050505050505b565b7f4e487b7100000000000000000000000000000000000000000000000000000000600052603160045260246000fdfe60806040523480156200001157600080fd5b5060405162000d8a38038062000d8a83398181016040528101906200003791906200026b565b846000908162000048919062000572565b5083600190816200005a919062000572565b508260028190555081600381905550426004819055506000600560006101000a81548160ff02191690831515021790555080600681905550505050505062000659565b6000604051905090565b600080fd5b600080fd5b600080fd5b600080fd5b6000601f19601f8301169050919050565b7f4e487b7100000000000000000000000000000000000000000000000000000000600052604160045260246000fd5b6200010682620000bb565b810181811067ffffffffffffffff82111715620001285762000127620000cc565b5b80604052505050565b60006200013d6200009d565b90506200014b8282620000fb565b919050565b600067ffffffffffffffff8211156200016e576200016d620000cc565b5b6200017982620000bb565b9050602081019050919050565b60005b83811015620001a657808201518184015260208101905062000189565b60008484015250505050565b6000620001c9620001c38462000150565b62000131565b905082815260208101848484011115620001e857620001e7620000b6565b5b620001f584828562000186565b509392505050565b600082601f830112620002155762000214620000b1565b5b815162000227848260208601620001b2565b91505092915050565b6000819050919050565b620002458162000230565b81146200025157600080fd5b50565b60008151905062000265816200023a565b92915050565b600080600080600060a086880312156200028a5762000289620000a7565b5b600086015167ffffffffffffffff811115620002ab57620002aa620000ac565b5b620002b988828901620001fd565b955050602086015167ffffffffffffffff811115620002dd57620002dc620000ac565b5b620002eb88828901620001fd565b9450506040620002fe8882890162000254565b9350506060620003118882890162000254565b9250506080620003248882890162000254565b9150509295509295909350565b600081519050919050565b7f4e487b7100000000000000000000000000000000000000000000000000000000600052602260045260246000fd5b600060028204905060018216806200038457607f821691505b6020821081036200039a57620003996200033c565b5b50919050565b60008190508160005260206000209050919050565b60006020601f8301049050919050565b600082821b905092915050565b600060088302620004047fffffffffffffffffffffffffffffffffffffffffffffffffffffffffffffffff82620003c5565b620004108683620003c5565b95508019841693508086168417925050509392505050565b6000819050919050565b6000620004536200044d620004478462000230565b62000428565b62000230565b9050919050565b6000819050919050565b6200046f8362000432565b620004876200047e826200045a565b848454620003d2565b825550505050565b600090565b6200049e6200048f565b620004ab81848462000464565b505050565b5b81811015620004d357620004c760008262000494565b600181019050620004b1565b5050565b601f8211156200052257620004ec81620003a0565b620004f784620003b5565b8101602085101562000507578190505b6200051f6200051685620003b5565b830182620004b0565b50505b505050565b600082821c905092915050565b6000620005476000198460080262000527565b1980831691505092915050565b600062000562838362000534565b9150826002028217905092915050565b6200057d8262000331565b67ffffffffffffffff811115620005995762000598620000cc565b5b620005a582546200036b565b620005b2828285620004d7565b600060209050601f831160018114620005ea5760008415620005d5578287015190505b620005e1858262000554565b86555062000651565b601f198416620005fa86620003a0565b60005b828110156200062457848901518255600182019150602085019450602081019050620005fd565b8683101562000644578489015162000640601f89168262000534565b8355505b6001600288020188555050505b505050505050565b61072180620006696000396000f3fe608060405234801561001057600080fd5b50600436106100575760003560e01c80635a9b0b891461005c578063603daf9a1461007a57806398d5fdca14610098578063d321fe29146100b6578063dbd0e1b6146100d4575b600080fd5b6100646100f2565b60405161007191906105d3565b60405180910390f35b610082610282565b60405161008f919061063f565b60405180910390f35b6100a0610314565b6040516100ad9190610670565b60405180910390f35b6100be61031e565b6040516100cb9190610670565b60405180910390f35b6100dc610328565b6040516100e9919061063f565b60405180910390f35b6100fa6103ba565b60006040518061010001604052803073ffffffffffffffffffffffffffffffffffffffff16815260200160008054610131906106ba565b80601f016020809104026020016040519081016040528092919081815260200182805461015d906106ba565b80156101aa5780601f1061017f576101008083540402835291602001916101aa565b820191906000526020600020905b81548152906001019060200180831161018d57829003601f168201915b50505050508152602001600180546101c1906106ba565b80601f01602080910402602001604051908101604052809291908181526020018280546101ed906106ba565b801561023a5780601f1061020f5761010080835404028352916020019161023a565b820191906000526020600020905b81548152906001019060200180831161021d57829003601f168201915b50505050508152602001600354815260200160025481526020016004548152602001600560009054906101000a900460ff161515815260200160065481525090508091505090565b606060008054610291906106ba565b80601f01602080910402602001604051908101604052809291908181526020018280546102bd906106ba565b801561030a5780601f106102df5761010080835404028352916020019161030a565b820191906000526020600020905b8154815290600101906020018083116102ed57829003601f168201915b5050505050905090565b6000600354905090565b6000600254905090565b606060018054610337906106ba565b80601f0160208091040260200160405190810160405280929190818152602001828054610363906106ba565b80156103b05780601f10610385576101008083540402835291602001916103b0565b820191906000526020600020905b81548152906001019060200180831161039357829003601f168201915b5050505050905090565b604051806101000160405280600073ffffffffffffffffffffffffffffffffffffffff1681526020016060815260200160608152602001600081526020016000815260200160008152602001600015158152602001600081525090565b600073ffffffffffffffffffffffffffffffffffffffff82169050919050565b600061044282610417565b9050919050565b61045281610437565b82525050565b600081519050919050565b600082825260208201905092915050565b60005b83811015610492578082015181840152602081019050610477565b60008484015250505050565b6000601f19601f8301169050919050565b60006104ba82610458565b6104c48185610463565b93506104d4818560208601610474565b6104dd8161049e565b840191505092915050565b6000819050919050565b6104fb816104e8565b82525050565b60008115159050919050565b61051681610501565b82525050565b6000610100830160008301516105356000860182610449565b506020830151848203602086015261054d82826104af565b9150506040830151848203604086015261056782826104af565b915050606083015161057c60608601826104f2565b50608083015161058f60808601826104f2565b5060a08301516105a260a08601826104f2565b5060c08301516105b560c086018261050d565b5060e08301516105c860e08601826104f2565b508091505092915050565b600060208201905081810360008301526105ed818461051c565b905092915050565b600082825260208201905092915050565b600061061182610458565b61061b81856105f5565b935061062b818560208601610474565b6106348161049e565b840191505092915050565b600060208201905081810360008301526106598184610606565b905092915050565b61066a816104e8565b82525050565b60006020820190506106856000830184610661565b92915050565b7f4e487b7100000000000000000000000000000000000000000000000000000000600052602260045260246000fd5b600060028204905060018216806106d257607f821691505b6020821081036106e5576106e461068b565b5b5091905056fea26469706673582212200cb6b06e37970c29669e9a10f860c764a828cef6780560337eff35239feaf05664736f6c63430008130033a26469706673582212208b9ff950c935cfa81cb3ad95ef7096fba21334e416d617799b0dd4f34763232264736f6c63430008130033",
  "immutableReferences": {},
  "source": "// SPDX-License-Identifier: GPL-3.0\n// pragma experimental ABIEncoderV2;\npragma solidity ^0.8.9;\n\ninterface ICableCompany {\n    function registerKey(\n        address smartMeterPubKey,\n        address smartMeterAddress\n    ) external;\n\n    function isRegisteredKey(\n        address smartMeterPubKey,\n        address smartMeterAddress\n    ) external view returns (bool);\n\n    function removeRegisteredKey(address smartMeterPubKey) external;\n}\n\ninterface ISmartMeter {\n    function returnReservedBatteryCharge(uint amount) external returns (bool);\n\n    function subtractBatteryCharge(uint amount, string memory blindingFactor, string memory _nextHash) external returns (bool);\n}\n\ncontract Market {\n    address owner;\n    ICableCompany cableCompany; // Maybe change the name of CableCompany to something else, like DSO\n    uint maxOfferLivespan = 1000 * 60 * 60 * 24 * 7;\n\n    struct Offer {\n        string id;\n        uint price;\n        uint amount;\n        uint expiration;\n        address owner;\n        address smartMeterAddress;\n        bool active;\n        string sellerSignature;\n        uint nonce;\n    }\n\n    mapping(string => Offer) private offers;\n    mapping(string => Offer) private pendingConfirmation;\n\n    string[] public offerIds;\n    address public lastestSupplyChainAddress;\n\n    // mapping is nonce to the timestamp it was used at.\n    mapping(uint => uint) private usedNonces;\n\n    modifier nonceGuard(uint nonce) {\n        uint timestamp = usedNonces[nonce];\n        // nonce was used within the last two weeks.\n        if (timestamp + maxOfferLivespan * 2 > block.timestamp * 1000) {\n            revert(\"Nonce was used recently\");\n        }\n        _;\n    }\n\n    constructor(address _cableCompanyAddress) payable {\n        owner = msg.sender;\n        cableCompany = ICableCompany(_cableCompanyAddress);\n    }\n\n    function addOffer(\n        string memory id,\n        uint amount,\n        uint price,\n        uint expiration,\n        address smartMeterAddress,\n        string memory sellerSignature,\n        uint nonce,\n        address sellerAddress,\n        string memory blindingFactor, \n        string memory _nextHash\n    ) public nonceGuard(nonce) returns (bool) {\n\n        // Require conditions\n        require(\n            cableCompany.isRegisteredKey(msg.sender, smartMeterAddress),\n            \"Smart Meter not registered by Cable Company\"\n        );\n        require(block.timestamp * 1000 + maxOfferLivespan > expiration, \"Offers lifespan is too long\");\n        require(sellerAddress == msg.sender, \"Only owner can add offer\");\n\n        ISmartMeter smartMeter = ISmartMeter(smartMeterAddress);\n        require(\n            smartMeter.subtractBatteryCharge(amount, blindingFactor, _nextHash),\n            \"Not enough stored energy\"\n        );\n\n        // Adding offer\n        usedNonces[nonce] = block.timestamp * 1000;\n        offers[id] = Offer({\n            id: id,\n            amount: amount,\n            price: price,\n            expiration: expiration,\n            owner: msg.sender,\n            smartMeterAddress: smartMeterAddress,\n            active: true,\n            sellerSignature: sellerSignature,\n            nonce: nonce\n        });\n        offerIds.push(id);\n\n        return true;\n    }\n\n    function removeOffer(\n        string memory id,\n        address smartMeterAddress\n    ) public returns (bool) {\n        // Initialization\n        Offer memory offer = offers[id];\n        ISmartMeter smartMeter = ISmartMeter(smartMeterAddress);\n\n        // Require conditions\n        require(msg.sender == offer.owner, \"Only owner can remove offer\");\n\n        // Removing offer\n        smartMeter.returnReservedBatteryCharge(offer.amount);\n        delete offers[id];\n\n        return true;\n    }\n\n    function buyOffer(\n        string memory id,\n        string memory buyerSignature\n    ) public returns (address) {\n        // Initialization\n        Offer memory offer = offers[id];\n\n        // Require conditions\n        require(\n            keccak256(bytes(offer.id)) == keccak256(bytes(id)),\n            \"No offer found\"\n        );\n        string memory sellerSignature = offer.sellerSignature;\n        address seller = offer.owner;\n        uint amount = offer.amount;\n        uint price = offer.price;\n        uint expiration = offer.expiration;\n        uint offerNonce = offer.nonce;\n        require(expiration > block.timestamp, \"Cannot buy expired offer\");\n        require(msg.sender != seller, \"Owner cannot buy own offer\");\n\n        // Buying offer and creating SupplyContract\n        SupplyContract sc = new SupplyContract({\n            _buyerSignature: buyerSignature,\n            _sellerSignature: sellerSignature,\n            _amount: amount,\n            _price: price,\n            _nonce: offerNonce\n        });\n        lastestSupplyChainAddress = address(sc);\n        delete offers[id];\n\n        for (uint i = 0; i < offerIds.length; i++) {\n            // String comparison to remove purchased offer\n            if (keccak256(bytes(offerIds[i])) == keccak256(bytes(id))) {\n                offerIds[i] = offerIds[offerIds.length - 1];\n                offerIds.pop();\n            }\n        }\n\n        return address(sc);\n    }\n\n    function getOffer(string memory id) public view returns (Offer memory) {\n        return offers[id];\n    }\n\n    function getOffers() public view returns (Offer[] memory) {\n        Offer[] memory offersReturn = new Offer[](offerIds.length);\n        for (uint i = 0; i < offerIds.length; i++) {\n            string storage offerId = offerIds[i];\n            Offer storage offer = offers[offerId];\n\n            offersReturn[i] = offer;\n        }\n        return offersReturn;\n    }\n\n    function getOfferIDs() public view returns (string[] memory) {\n        return offerIds;\n    }\n\n    function getLatestSupplyContract() public view returns (address) {\n        return lastestSupplyChainAddress;\n    }\n\n    function getPendingOffers() public view returns (address) {\n        return lastestSupplyChainAddress;\n    }\n}\n\ncontract SupplyContract {\n    string buyerSignature;\n    string sellerSignature;\n    uint amount; // Wh\n    uint price; // Euro cents\n    uint timestamp; // Unix\n    bool confirmed;\n    uint nonce;\n\n    struct SupplyContractDTO {\n        address scAddress;\n        string buyerSignature;\n        string sellerSignature;\n        uint price;\n        uint amount;\n        uint timestamp;\n        bool confirmed;\n        uint nonce;\n    }\n\n    constructor(\n        string memory _buyerSignature,\n        string memory _sellerSignature,\n        uint _amount,\n        uint _price,\n        uint _nonce\n    ) {\n        buyerSignature = _buyerSignature;\n        sellerSignature = _sellerSignature;\n        amount = _amount;\n        price = _price;\n        timestamp = block.timestamp;\n        confirmed = false;\n        nonce = _nonce;\n    }\n\n    function getBuyer() public view returns (string memory) {\n        return buyerSignature;\n    }\n\n    function getSeller() public view returns (string memory) {\n        return sellerSignature;\n    }\n\n    function getAmount() public view returns (uint) {\n        return amount;\n    }\n\n    function getPrice() public view returns (uint) {\n        return price;\n    }\n\n    function getInfo() public view returns (SupplyContractDTO memory) {\n        SupplyContractDTO memory scDTO = SupplyContractDTO({\n            scAddress: address(this),\n            buyerSignature: buyerSignature,\n            sellerSignature: sellerSignature,\n            price: price,\n            amount: amount,\n            timestamp: timestamp,\n            confirmed: confirmed,\n            nonce: nonce\n        });\n\n        return scDTO;\n    }\n}\n",
  "sourcePath": "/home/nobert/speciale/blockchain/contracts/Market.sol",
  "compiler": {
    "name": "solc",
    "version": "0.8.19+commit.7dd6d404.Emscripten.clang"
  },
  "schemaVersion": "3.4.16",
  "updatedAt": "2024-01-05T14:19:21.331Z",
  "networkType": "ethereum",
  "devdoc": {
    "kind": "dev",
    "methods": {},
    "version": 1
  },
  "userdoc": {
    "kind": "user",
    "methods": {},
    "version": 1
  }
}