{
  "contractName": "SmartMeter",
  "abi": [
    {
      "inputs": [],
      "stateMutability": "nonpayable",
      "type": "constructor"
    },
    {
      "anonymous": false,
      "inputs": [
        {
          "components": [
            {
              "internalType": "uint256",
              "name": "intervalConsumption",
              "type": "uint256"
            },
            {
              "internalType": "uint256",
              "name": "intervalProduction",
              "type": "uint256"
            },
            {
              "internalType": "uint256",
              "name": "totalConsumption",
              "type": "uint256"
            },
            {
              "internalType": "uint256",
              "name": "totalProduction",
              "type": "uint256"
            }
          ],
          "indexed": false,
          "internalType": "struct SmartMeter.PowerData",
          "name": "pd",
          "type": "tuple"
        },
        {
          "indexed": false,
          "internalType": "uint256",
          "name": "timeStamp",
          "type": "uint256"
        }
      ],
      "name": "Log",
      "type": "event"
    },
    {
      "inputs": [
        {
          "internalType": "uint256",
          "name": "intervalConsumption",
          "type": "uint256"
        },
        {
          "internalType": "uint256",
          "name": "intervalProduction",
          "type": "uint256"
        }
      ],
      "name": "createLog",
      "outputs": [],
      "stateMutability": "nonpayable",
      "type": "function"
    },
    {
      "inputs": [],
      "name": "getBatteryCharge",
      "outputs": [
        {
          "internalType": "uint256",
          "name": "",
          "type": "uint256"
        }
      ],
      "stateMutability": "view",
      "type": "function"
    },
    {
      "inputs": [
        {
          "internalType": "uint256",
          "name": "amount",
          "type": "uint256"
        }
      ],
      "name": "subtractBatteryCharge",
      "outputs": [
        {
          "internalType": "bool",
          "name": "",
          "type": "bool"
        }
      ],
      "stateMutability": "nonpayable",
      "type": "function"
    },
    {
      "inputs": [
        {
          "internalType": "address",
          "name": "marketAddress",
          "type": "address"
        }
      ],
      "name": "setCurrentMarketAddress",
      "outputs": [
        {
          "internalType": "bool",
          "name": "",
          "type": "bool"
        }
      ],
      "stateMutability": "nonpayable",
      "type": "function"
    },
    {
      "inputs": [
        {
          "internalType": "uint256",
          "name": "returnedBatteryCharge",
          "type": "uint256"
        }
      ],
      "name": "returnReservedBatteryCharge",
      "outputs": [
        {
          "internalType": "bool",
          "name": "",
          "type": "bool"
        }
      ],
      "stateMutability": "nonpayable",
      "type": "function"
    }
  ],
  "bytecode": "0x6080604052600f60065534801561001557600080fd5b50336000806101000a81548173ffffffffffffffffffffffffffffffffffffffff021916908373ffffffffffffffffffffffffffffffffffffffff16021790555060006002819055506000600381905550610abc806100756000396000f3fe608060405234801561001057600080fd5b50600436106100575760003560e01c8063859c2ead1461005c57806385c96e661461008c578063997d1826146100aa578063b9857d87146100da578063f709bda8146100f6575b600080fd5b61007660048036038101906100719190610566565b610126565b60405161008391906105ae565b60405180910390f35b610094610201565b6040516100a191906105e2565b60405180910390f35b6100c460048036038101906100bf9190610629565b61020b565b6040516100d191906105ae565b60405180910390f35b6100f460048036038101906100ef9190610656565b6102bf565b005b610110600480360381019061010b9190610629565b61043b565b60405161011d91906105ae565b60405180910390f35b60008060009054906101000a900473ffffffffffffffffffffffffffffffffffffffff1673ffffffffffffffffffffffffffffffffffffffff163373ffffffffffffffffffffffffffffffffffffffff16146101b7576040517f08c379a00000000000000000000000000000000000000000000000000000000081526004016101ae90610719565b60405180910390fd5b81600160006101000a81548173ffffffffffffffffffffffffffffffffffffffff021916908373ffffffffffffffffffffffffffffffffffffffff16021790555060019050919050565b6000600454905090565b6000600160009054906101000a900473ffffffffffffffffffffffffffffffffffffffff1673ffffffffffffffffffffffffffffffffffffffff163373ffffffffffffffffffffffffffffffffffffffff161461029d576040517f08c379a0000000000000000000000000000000000000000000000000000000008152600401610294906107ab565b60405180910390fd5b81600460008282546102af91906107fa565b9250508190555060019050919050565b60008054906101000a900473ffffffffffffffffffffffffffffffffffffffff1673ffffffffffffffffffffffffffffffffffffffff163373ffffffffffffffffffffffffffffffffffffffff161461031757600080fd5b60065460055442610328919061082e565b11610368576040517f08c379a000000000000000000000000000000000000000000000000000000000815260040161035f906108fa565b60405180910390fd5b816002600082825461037a91906107fa565b92505081905550806003600082825461039391906107fa565b92505081905550600082826103a89190610924565b13156103d35781816103ba919061082e565b600460008282546103cb91906107fa565b925050819055505b7ff81f04a8de1e79e0b7db480a5a083044bd4909a244b9a369deb5f0ac37425ed360405180608001604052808481526020018381526020016002548152602001600354815250426040516104289291906109cb565b60405180910390a1426005819055505050565b6000600160009054906101000a900473ffffffffffffffffffffffffffffffffffffffff1673ffffffffffffffffffffffffffffffffffffffff163373ffffffffffffffffffffffffffffffffffffffff16146104cd576040517f08c379a00000000000000000000000000000000000000000000000000000000081526004016104c490610a66565b60405180910390fd5b8160045410156104e057600090506104fe565b81600460008282546104f2919061082e565b92505081905550600190505b919050565b600080fd5b600073ffffffffffffffffffffffffffffffffffffffff82169050919050565b600061053382610508565b9050919050565b61054381610528565b811461054e57600080fd5b50565b6000813590506105608161053a565b92915050565b60006020828403121561057c5761057b610503565b5b600061058a84828501610551565b91505092915050565b60008115159050919050565b6105a881610593565b82525050565b60006020820190506105c3600083018461059f565b92915050565b6000819050919050565b6105dc816105c9565b82525050565b60006020820190506105f760008301846105d3565b92915050565b610606816105c9565b811461061157600080fd5b50565b600081359050610623816105fd565b92915050565b60006020828403121561063f5761063e610503565b5b600061064d84828501610614565b91505092915050565b6000806040838503121561066d5761066c610503565b5b600061067b85828601610614565b925050602061068c85828601610614565b9150509250929050565b600082825260208201905092915050565b7f4f6e6c79206f776e65722063616e206368616e6765206d61726b65742061646460008201527f7265737300000000000000000000000000000000000000000000000000000000602082015250565b6000610703602483610696565b915061070e826106a7565b604082019050919050565b60006020820190508181036000830152610732816106f6565b9050919050565b7f4f6e6c792072656769737465726564206d61726b65742063616e20726574757260008201527f6e20656e65726779000000000000000000000000000000000000000000000000602082015250565b6000610795602883610696565b91506107a082610739565b604082019050919050565b600060208201905081810360008301526107c481610788565b9050919050565b7f4e487b7100000000000000000000000000000000000000000000000000000000600052601160045260246000fd5b6000610805826105c9565b9150610810836105c9565b9250828201905080821115610828576108276107cb565b5b92915050565b6000610839826105c9565b9150610844836105c9565b925082820390508181111561085c5761085b6107cb565b5b92915050565b7f4c6f67732063616e6e6f7420617070656172206d6f7265206672657175656e7460008201527f6c79207468616e20746865207472616e736d697373696f6e20696e746572766160208201527f6c00000000000000000000000000000000000000000000000000000000000000604082015250565b60006108e4604183610696565b91506108ef82610862565b606082019050919050565b60006020820190508181036000830152610913816108d7565b9050919050565b6000819050919050565b600061092f8261091a565b915061093a8361091a565b9250828203905081811260008412168282136000851215161715610961576109606107cb565b5b92915050565b610970816105c9565b82525050565b60808201600082015161098c6000850182610967565b50602082015161099f6020850182610967565b5060408201516109b26040850182610967565b5060608201516109c56060850182610967565b50505050565b600060a0820190506109e06000830185610976565b6109ed60808301846105d3565b9392505050565b7f4f6e6c792072656769737465726564206d61726b65742063616e20737562737460008201527f7261637420656e65726779000000000000000000000000000000000000000000602082015250565b6000610a50602b83610696565b9150610a5b826109f4565b604082019050919050565b60006020820190508181036000830152610a7f81610a43565b905091905056fea26469706673582212206cd7d3ae13a0df070542c8950930322df2e5b1428d4e15d9791cab162499d1dc64736f6c63430008130033",
  "immutableReferences": {},
  "source": "// SPDX-License-Identifier: GPL-3.0\n// pragma experimental ABIEncoderV2;\npragma solidity ^0.8.9;\n\ncontract SmartMeter {\n    address owner;\n    address currentMarketAddress;\n    uint private totalConsumption;\n    uint private totalProduction;\n    uint batteryCharge;\n    uint lastDataSent;\n    uint transmissionInterval = 15 seconds;\n\n    constructor() {\n        owner = msg.sender;\n        totalConsumption = 0;\n        totalProduction = 0;\n    }\n\n    struct PowerData {\n        uint256 intervalConsumption;\n        uint256 intervalProduction;\n        uint256 totalConsumption;\n        uint256 totalProduction;\n    }\n\n    event Log(PowerData pd, uint256 timeStamp);\n\n    function createLog(\n        uint256 intervalConsumption,\n        uint256 intervalProduction\n    ) public {\n        require(msg.sender == owner);\n        require(\n            block.timestamp - lastDataSent > transmissionInterval,\n            \"Logs cannot appear more frequently than the transmission interval\"\n        );\n        totalConsumption += intervalConsumption;\n        totalProduction += intervalProduction;\n\n        if ((int(intervalProduction) - int(intervalConsumption)) > 0) {\n            batteryCharge += intervalProduction - intervalConsumption;\n        }\n\n        emit Log(\n            PowerData({\n                totalProduction: totalProduction,\n                totalConsumption: totalConsumption,\n                intervalConsumption: intervalConsumption,\n                intervalProduction: intervalProduction\n            }),\n            block.timestamp\n        );\n        lastDataSent = block.timestamp;\n    }\n\n    function getBatteryCharge() public view returns (uint) {\n        return batteryCharge;\n    }\n\n    function subtractBatteryCharge(uint amount) public returns (bool) {\n        require(\n            msg.sender == currentMarketAddress,\n            \"Only registered market can substract energy\"\n        );\n        if (batteryCharge < amount) {\n            return false;\n        }\n        batteryCharge -= amount;\n        return true;\n    }\n\n    function setCurrentMarketAddress(\n        address marketAddress\n    ) public returns (bool) {\n        require(msg.sender == owner, \"Only owner can change market address\");\n        currentMarketAddress = marketAddress;\n        return true;\n    }\n\n    function returnReservedBatteryCharge(\n        uint returnedBatteryCharge\n    ) public returns (bool) {\n        require(\n            msg.sender == currentMarketAddress,\n            \"Only registered market can return energy\"\n        );\n        batteryCharge += returnedBatteryCharge;\n        return true;\n    }\n}\n",
  "sourcePath": "/Users/antonoeschmidt/Projects/Master/SmartGridEnabled/contracts/SmartMeter.sol",
  "compiler": {
    "name": "solc",
    "version": "0.8.19+commit.7dd6d404.Emscripten.clang"
  },
  "schemaVersion": "3.4.3",
  "updatedAt": "2023-11-13T16:31:05.695Z",
  "devdoc": {
    "kind": "dev",
    "methods": {},
    "version": 1
  },
  "userdoc": {
    "kind": "user",
    "methods": {},
    "version": 1
  }
}