{
  "contractName": "SmartMeter",
  "abi": [
    {
      "anonymous": false,
      "inputs": [
        {
          "indexed": false,
          "internalType": "uint256",
          "name": "c",
          "type": "uint256"
        },
        {
          "indexed": false,
          "internalType": "uint256",
          "name": "p",
          "type": "uint256"
        }
      ],
      "name": "Log",
      "type": "event"
    },
    {
      "inputs": [
        {
          "internalType": "address",
          "name": "",
          "type": "address"
        }
      ],
      "name": "smartMeters",
      "outputs": [
        {
          "internalType": "bytes32",
          "name": "otsHash",
          "type": "bytes32"
        },
        {
          "internalType": "uint256",
          "name": "batteryCharge",
          "type": "uint256"
        },
        {
          "internalType": "uint256",
          "name": "lastDataSent",
          "type": "uint256"
        },
        {
          "internalType": "address",
          "name": "marketAddress",
          "type": "address"
        }
      ],
      "stateMutability": "view",
      "type": "function",
      "constant": true
    },
    {
      "inputs": [
        {
          "internalType": "uint256",
          "name": "consumption",
          "type": "uint256"
        },
        {
          "internalType": "uint256",
          "name": "production",
          "type": "uint256"
        }
      ],
      "name": "createLog",
      "outputs": [],
      "stateMutability": "nonpayable",
      "type": "function"
    },
    {
      "inputs": [
        {
          "internalType": "address",
          "name": "smartMeterAddress",
          "type": "address"
        }
      ],
      "name": "getBatteryCharge",
      "outputs": [
        {
          "internalType": "uint256",
          "name": "",
          "type": "uint256"
        }
      ],
      "stateMutability": "view",
      "type": "function",
      "constant": true
    },
    {
      "inputs": [
        {
          "internalType": "bytes",
          "name": "ots",
          "type": "bytes"
        },
        {
          "internalType": "bytes32",
          "name": "nextOtsHash",
          "type": "bytes32"
        },
        {
          "internalType": "address",
          "name": "smartMeterAddress",
          "type": "address"
        }
      ],
      "name": "checkHashAndSetHash",
      "outputs": [
        {
          "internalType": "bool",
          "name": "",
          "type": "bool"
        }
      ],
      "stateMutability": "nonpayable",
      "type": "function"
    },
    {
      "inputs": [
        {
          "internalType": "uint256",
          "name": "amount",
          "type": "uint256"
        },
        {
          "internalType": "bytes",
          "name": "ots",
          "type": "bytes"
        },
        {
          "internalType": "bytes32",
          "name": "nextOtsHash",
          "type": "bytes32"
        },
        {
          "internalType": "address",
          "name": "smartMeterAddress",
          "type": "address"
        }
      ],
      "name": "subtractBatteryCharge",
      "outputs": [
        {
          "internalType": "bool",
          "name": "",
          "type": "bool"
        }
      ],
      "stateMutability": "nonpayable",
      "type": "function"
    },
    {
      "inputs": [
        {
          "internalType": "uint256",
          "name": "returnedBatteryCharge",
          "type": "uint256"
        },
        {
          "internalType": "address",
          "name": "smartMeterAddress",
          "type": "address"
        }
      ],
      "name": "returnReservedBatteryCharge",
      "outputs": [
        {
          "internalType": "bool",
          "name": "",
          "type": "bool"
        }
      ],
      "stateMutability": "nonpayable",
      "type": "function"
    },
    {
      "inputs": [
        {
          "internalType": "address",
          "name": "_marketAddress",
          "type": "address"
        }
      ],
      "name": "setMarketAddress",
      "outputs": [],
      "stateMutability": "nonpayable",
      "type": "function"
    },
    {
      "inputs": [
        {
          "internalType": "address",
          "name": "_marketAddress",
          "type": "address"
        },
        {
          "internalType": "bytes32",
          "name": "_otsHash",
          "type": "bytes32"
        }
      ],
      "name": "createSmartMeter",
      "outputs": [],
      "stateMutability": "nonpayable",
      "type": "function"
    }
  ],
  "bytecode": "0x6080604052600f60015534801561001557600080fd5b50611292806100256000396000f3fe608060405234801561001057600080fd5b50600436106100885760003560e01c80635847ebed1161005b5780635847ebed1461013c578063b9857d871461016c578063f7fb40be14610188578063fae92612146101b857610088565b806310f6a3431461008d57806324dee484146100c057806336c73364146100f0578063571f978214610120575b600080fd5b6100a760048036038101906100a29190610a7c565b6101d4565b6040516100b79493929190610aea565b60405180910390f35b6100da60048036038101906100d59190610b5b565b610224565b6040516100e79190610bb6565b60405180910390f35b61010a60048036038101906101059190610d43565b610357565b6040516101179190610bb6565b60405180910390f35b61013a60048036038101906101359190610db2565b610403565b005b61015660048036038101906101519190610df2565b6104e6565b6040516101639190610bb6565b60405180910390f35b61018660048036038101906101819190610e75565b6106b8565b005b6101a2600480360381019061019d9190610a7c565b61093c565b6040516101af9190610eb5565b60405180910390f35b6101d260048036038101906101cd9190610a7c565b610987565b005b60006020528060005260406000206000915090508060000154908060010154908060020154908060030160009054906101000a900473ffffffffffffffffffffffffffffffffffffffff16905084565b60008060008373ffffffffffffffffffffffffffffffffffffffff1673ffffffffffffffffffffffffffffffffffffffff16815260200190815260200160002060030160009054906101000a900473ffffffffffffffffffffffffffffffffffffffff1673ffffffffffffffffffffffffffffffffffffffff163373ffffffffffffffffffffffffffffffffffffffff16146102f5576040517f08c379a00000000000000000000000000000000000000000000000000000000081526004016102ec90610f53565b60405180910390fd5b826000808473ffffffffffffffffffffffffffffffffffffffff1673ffffffffffffffffffffffffffffffffffffffff16815260200190815260200160002060010160008282546103469190610fa2565b925050819055506001905092915050565b60008060008373ffffffffffffffffffffffffffffffffffffffff1673ffffffffffffffffffffffffffffffffffffffff168152602001908152602001600020600001548480519060200120036103f757826000808473ffffffffffffffffffffffffffffffffffffffff1673ffffffffffffffffffffffffffffffffffffffff16815260200190815260200160002060000181905550600190506103fc565b600090505b9392505050565b604051806080016040528082815260200160008152602001600081526020018373ffffffffffffffffffffffffffffffffffffffff168152506000803373ffffffffffffffffffffffffffffffffffffffff1673ffffffffffffffffffffffffffffffffffffffff16815260200190815260200160002060008201518160000155602082015181600101556040820151816002015560608201518160030160006101000a81548173ffffffffffffffffffffffffffffffffffffffff021916908373ffffffffffffffffffffffffffffffffffffffff1602179055509050505050565b60008060008373ffffffffffffffffffffffffffffffffffffffff1673ffffffffffffffffffffffffffffffffffffffff16815260200190815260200160002060030160009054906101000a900473ffffffffffffffffffffffffffffffffffffffff1673ffffffffffffffffffffffffffffffffffffffff163373ffffffffffffffffffffffffffffffffffffffff16146105b7576040517f08c379a00000000000000000000000000000000000000000000000000000000081526004016105ae90611048565b60405180910390fd5b6105c2848484610357565b610601576040517f08c379a00000000000000000000000000000000000000000000000000000000081526004016105f8906110da565b60405180910390fd5b846000808473ffffffffffffffffffffffffffffffffffffffff1673ffffffffffffffffffffffffffffffffffffffff16815260200190815260200160002060010154101561065357600090506106b0565b846000808473ffffffffffffffffffffffffffffffffffffffff1673ffffffffffffffffffffffffffffffffffffffff16815260200190815260200160002060010160008282546106a491906110fa565b92505081905550600190505b949350505050565b6001546000803373ffffffffffffffffffffffffffffffffffffffff1673ffffffffffffffffffffffffffffffffffffffff168152602001908152602001600020600201544261070891906110fa565b11610748576040517f08c379a000000000000000000000000000000000000000000000000000000000815260040161073f906111c6565b60405180910390fd5b6000828261075691906111f0565b905060008113156107be57806000803373ffffffffffffffffffffffffffffffffffffffff1673ffffffffffffffffffffffffffffffffffffffff16815260200190815260200160002060010160008282546107b29190610fa2565b925050819055506108b8565b6000803373ffffffffffffffffffffffffffffffffffffffff1673ffffffffffffffffffffffffffffffffffffffff16815260200190815260200160002060010154828461080c91906110fa565b111561085e5760008060003373ffffffffffffffffffffffffffffffffffffffff1673ffffffffffffffffffffffffffffffffffffffff168152602001908152602001600020600101819055506108b7565b806000803373ffffffffffffffffffffffffffffffffffffffff1673ffffffffffffffffffffffffffffffffffffffff16815260200190815260200160002060010160008282546108af91906110fa565b925050819055505b5b7fbd0faddf87043dd749c1b9d4dca8a12589b8cb5e2106832111ce23f219b1436783836040516108e9929190611233565b60405180910390a1426000803373ffffffffffffffffffffffffffffffffffffffff1673ffffffffffffffffffffffffffffffffffffffff16815260200190815260200160002060020181905550505050565b60008060008373ffffffffffffffffffffffffffffffffffffffff1673ffffffffffffffffffffffffffffffffffffffff168152602001908152602001600020600101549050919050565b806000803373ffffffffffffffffffffffffffffffffffffffff1673ffffffffffffffffffffffffffffffffffffffff16815260200190815260200160002060030160006101000a81548173ffffffffffffffffffffffffffffffffffffffff021916908373ffffffffffffffffffffffffffffffffffffffff16021790555050565b6000604051905090565b600080fd5b600080fd5b600073ffffffffffffffffffffffffffffffffffffffff82169050919050565b6000610a4982610a1e565b9050919050565b610a5981610a3e565b8114610a6457600080fd5b50565b600081359050610a7681610a50565b92915050565b600060208284031215610a9257610a91610a14565b5b6000610aa084828501610a67565b91505092915050565b6000819050919050565b610abc81610aa9565b82525050565b6000819050919050565b610ad581610ac2565b82525050565b610ae481610a3e565b82525050565b6000608082019050610aff6000830187610ab3565b610b0c6020830186610acc565b610b196040830185610acc565b610b266060830184610adb565b95945050505050565b610b3881610ac2565b8114610b4357600080fd5b50565b600081359050610b5581610b2f565b92915050565b60008060408385031215610b7257610b71610a14565b5b6000610b8085828601610b46565b9250506020610b9185828601610a67565b9150509250929050565b60008115159050919050565b610bb081610b9b565b82525050565b6000602082019050610bcb6000830184610ba7565b92915050565b600080fd5b600080fd5b6000601f19601f8301169050919050565b7f4e487b7100000000000000000000000000000000000000000000000000000000600052604160045260246000fd5b610c2482610bdb565b810181811067ffffffffffffffff82111715610c4357610c42610bec565b5b80604052505050565b6000610c56610a0a565b9050610c628282610c1b565b919050565b600067ffffffffffffffff821115610c8257610c81610bec565b5b610c8b82610bdb565b9050602081019050919050565b82818337600083830152505050565b6000610cba610cb584610c67565b610c4c565b905082815260208101848484011115610cd657610cd5610bd6565b5b610ce1848285610c98565b509392505050565b600082601f830112610cfe57610cfd610bd1565b5b8135610d0e848260208601610ca7565b91505092915050565b610d2081610aa9565b8114610d2b57600080fd5b50565b600081359050610d3d81610d17565b92915050565b600080600060608486031215610d5c57610d5b610a14565b5b600084013567ffffffffffffffff811115610d7a57610d79610a19565b5b610d8686828701610ce9565b9350506020610d9786828701610d2e565b9250506040610da886828701610a67565b9150509250925092565b60008060408385031215610dc957610dc8610a14565b5b6000610dd785828601610a67565b9250506020610de885828601610d2e565b9150509250929050565b60008060008060808587031215610e0c57610e0b610a14565b5b6000610e1a87828801610b46565b945050602085013567ffffffffffffffff811115610e3b57610e3a610a19565b5b610e4787828801610ce9565b9350506040610e5887828801610d2e565b9250506060610e6987828801610a67565b91505092959194509250565b60008060408385031215610e8c57610e8b610a14565b5b6000610e9a85828601610b46565b9250506020610eab85828601610b46565b9150509250929050565b6000602082019050610eca6000830184610acc565b92915050565b600082825260208201905092915050565b7f4f6e6c792072656769737465726564206d61726b65742063616e20726574757260008201527f6e20656e65726779000000000000000000000000000000000000000000000000602082015250565b6000610f3d602883610ed0565b9150610f4882610ee1565b604082019050919050565b60006020820190508181036000830152610f6c81610f30565b9050919050565b7f4e487b7100000000000000000000000000000000000000000000000000000000600052601160045260246000fd5b6000610fad82610ac2565b9150610fb883610ac2565b9250828201905080821115610fd057610fcf610f73565b5b92915050565b7f4f6e6c792072656769737465726564206d61726b65742063616e20737562737460008201527f7261637420656e65726779000000000000000000000000000000000000000000602082015250565b6000611032602b83610ed0565b915061103d82610fd6565b604082019050919050565b6000602082019050818103600083015261106181611025565b9050919050565b7f54686520626c696e64696e6720666163746f7220776173206e6f7420636f727260008201527f6563740000000000000000000000000000000000000000000000000000000000602082015250565b60006110c4602383610ed0565b91506110cf82611068565b604082019050919050565b600060208201905081810360008301526110f3816110b7565b9050919050565b600061110582610ac2565b915061111083610ac2565b925082820390508181111561112857611127610f73565b5b92915050565b7f4c6f67732063616e6e6f7420617070656172206d6f7265206672657175656e7460008201527f6c79207468616e20746865207472616e736d697373696f6e20696e746572766160208201527f6c00000000000000000000000000000000000000000000000000000000000000604082015250565b60006111b0604183610ed0565b91506111bb8261112e565b606082019050919050565b600060208201905081810360008301526111df816111a3565b9050919050565b6000819050919050565b60006111fb826111e6565b9150611206836111e6565b925082820390508181126000841216828213600085121516171561122d5761122c610f73565b5b92915050565b60006040820190506112486000830185610acc565b6112556020830184610acc565b939250505056fea26469706673582212207880acaefd24051160cdca43367b2b0d2b1fd562ae0a13c2a49d8956663e93d164736f6c63430008130033",
  "immutableReferences": {},
  "source": "// SPDX-License-Identifier: GPL-3.0\n// pragma experimental ABIEncoderV2;\npragma solidity ^0.8.9;\n\ncontract SmartMeter {\n    struct SmartMeterInstance {\n        bytes32 otsHash;\n        uint batteryCharge;\n        uint lastDataSent;\n        address marketAddress;\n    }\n\n    mapping(address => SmartMeterInstance) public smartMeters;\n\n    uint transmissionInterval = 15 seconds;\n\n    event Log(uint256 c, uint256 p);\n\n    function createLog(\n        uint256 consumption,\n        uint256 production\n    ) public {\n        require(\n            block.timestamp - smartMeters[msg.sender].lastDataSent >\n                transmissionInterval,\n            \"Logs cannot appear more frequently than the transmission interval\"\n        );\n\n        int netDifference = int(production) - int(consumption);\n\n        if (netDifference > 0) {\n            smartMeters[msg.sender].batteryCharge += uint(netDifference);\n        } else {\n            if (consumption - production > smartMeters[msg.sender].batteryCharge) {\n                smartMeters[msg.sender].batteryCharge = 0;\n            } else {\n                smartMeters[msg.sender].batteryCharge -= uint(netDifference);\n            }\n        }\n\n        emit Log(consumption, production);\n\n        smartMeters[msg.sender].lastDataSent = block.timestamp;\n    }\n\n    function getBatteryCharge(\n        address smartMeterAddress\n    ) public view returns (uint) {\n        return smartMeters[smartMeterAddress].batteryCharge;\n    }\n\n    function checkHashAndSetHash(\n        bytes memory ots,\n        bytes32 nextOtsHash,\n        address smartMeterAddress\n    ) public returns (bool) {\n        if (keccak256(ots) == smartMeters[smartMeterAddress].otsHash) {\n            smartMeters[smartMeterAddress].otsHash = nextOtsHash;\n            return true;\n        }\n        return false;\n    }\n\n    function subtractBatteryCharge(\n        uint amount,\n        bytes memory ots,\n        bytes32 nextOtsHash,\n        address smartMeterAddress\n    ) public returns (bool) {\n        require(\n            msg.sender == smartMeters[smartMeterAddress].marketAddress,\n            \"Only registered market can substract energy\"\n        );\n        require(\n            checkHashAndSetHash(ots, nextOtsHash, smartMeterAddress),\n            \"The blinding factor was not correct\"\n        );\n        if (smartMeters[smartMeterAddress].batteryCharge < amount) {\n            return false;\n        }\n        smartMeters[smartMeterAddress].batteryCharge -= amount;\n        return true;\n    }\n\n    function returnReservedBatteryCharge(\n        uint returnedBatteryCharge,\n        address smartMeterAddress\n    ) public returns (bool) {\n        require(\n            msg.sender == smartMeters[smartMeterAddress].marketAddress,\n            \"Only registered market can return energy\"\n        );\n        smartMeters[smartMeterAddress].batteryCharge += returnedBatteryCharge;\n        return true;\n    }\n\n    function setMarketAddress(address _marketAddress) public {\n        smartMeters[msg.sender].marketAddress = _marketAddress;\n    }\n\n    function createSmartMeter(address _marketAddress, bytes32 _otsHash) public {\n        smartMeters[msg.sender] = SmartMeterInstance({\n            otsHash: _otsHash,\n            marketAddress: _marketAddress,\n            lastDataSent: 0,\n            batteryCharge: 0\n        });\n    }\n}\n",
  "sourcePath": "/home/nobert/speciale/blockchain/contracts/SmartMeter.sol",
  "compiler": {
    "name": "solc",
    "version": "0.8.19+commit.7dd6d404.Emscripten.clang"
  },
  "schemaVersion": "3.4.16",
  "updatedAt": "2024-01-18T10:06:43.882Z",
  "networkType": "ethereum",
  "devdoc": {
    "kind": "dev",
    "methods": {},
    "version": 1
  },
  "userdoc": {
    "kind": "user",
    "methods": {},
    "version": 1
  }
}