{
  "contractName": "SmartMeter",
  "abi": [
    {
      "anonymous": false,
      "inputs": [
        {
          "indexed": false,
          "internalType": "uint256",
          "name": "c",
          "type": "uint256"
        },
        {
          "indexed": false,
          "internalType": "uint256",
          "name": "p",
          "type": "uint256"
        }
      ],
      "name": "Log",
      "type": "event"
    },
    {
      "inputs": [
        {
          "internalType": "address",
          "name": "",
          "type": "address"
        }
      ],
      "name": "smartMeters",
      "outputs": [
        {
          "internalType": "bytes32",
          "name": "otsHash",
          "type": "bytes32"
        },
        {
          "internalType": "uint256",
          "name": "batteryCharge",
          "type": "uint256"
        },
        {
          "internalType": "uint256",
          "name": "lastDataSent",
          "type": "uint256"
        },
        {
          "internalType": "address",
          "name": "marketAddress",
          "type": "address"
        }
      ],
      "stateMutability": "view",
      "type": "function",
      "constant": true
    },
    {
      "inputs": [
        {
          "internalType": "uint256",
          "name": "consumption",
          "type": "uint256"
        },
        {
          "internalType": "uint256",
          "name": "production",
          "type": "uint256"
        }
      ],
      "name": "createLog",
      "outputs": [],
      "stateMutability": "nonpayable",
      "type": "function"
    },
    {
      "inputs": [
        {
          "internalType": "address",
          "name": "smartMeterAddress",
          "type": "address"
        }
      ],
      "name": "getBatteryCharge",
      "outputs": [
        {
          "internalType": "uint256",
          "name": "",
          "type": "uint256"
        }
      ],
      "stateMutability": "view",
      "type": "function",
      "constant": true
    },
    {
      "inputs": [
        {
          "internalType": "bytes",
          "name": "ots",
          "type": "bytes"
        },
        {
          "internalType": "bytes32",
          "name": "nextOtsHash",
          "type": "bytes32"
        },
        {
          "internalType": "address",
          "name": "smartMeterAddress",
          "type": "address"
        }
      ],
      "name": "checkHashAndSetHash",
      "outputs": [
        {
          "internalType": "bool",
          "name": "",
          "type": "bool"
        }
      ],
      "stateMutability": "nonpayable",
      "type": "function"
    },
    {
      "inputs": [
        {
          "internalType": "uint256",
          "name": "amount",
          "type": "uint256"
        },
        {
          "internalType": "bytes",
          "name": "ots",
          "type": "bytes"
        },
        {
          "internalType": "bytes32",
          "name": "nextOtsHash",
          "type": "bytes32"
        },
        {
          "internalType": "address",
          "name": "smartMeterAddress",
          "type": "address"
        }
      ],
      "name": "subtractBatteryCharge",
      "outputs": [
        {
          "internalType": "bool",
          "name": "",
          "type": "bool"
        }
      ],
      "stateMutability": "nonpayable",
      "type": "function"
    },
    {
      "inputs": [
        {
          "internalType": "uint256",
          "name": "returnedBatteryCharge",
          "type": "uint256"
        },
        {
          "internalType": "address",
          "name": "smartMeterAddress",
          "type": "address"
        }
      ],
      "name": "returnReservedBatteryCharge",
      "outputs": [
        {
          "internalType": "bool",
          "name": "",
          "type": "bool"
        }
      ],
      "stateMutability": "nonpayable",
      "type": "function"
    },
    {
      "inputs": [
        {
          "internalType": "address",
          "name": "_marketAddress",
          "type": "address"
        }
      ],
      "name": "setMarketAddress",
      "outputs": [],
      "stateMutability": "nonpayable",
      "type": "function"
    },
    {
      "inputs": [
        {
          "internalType": "address",
          "name": "_marketAddress",
          "type": "address"
        },
        {
          "internalType": "bytes32",
          "name": "_otsHash",
          "type": "bytes32"
        }
      ],
      "name": "createSmartMeter",
      "outputs": [],
      "stateMutability": "nonpayable",
      "type": "function"
    }
  ],
  "bytecode": "0x6080604052600f60015534801561001557600080fd5b5061129d806100256000396000f3fe608060405234801561001057600080fd5b50600436106100885760003560e01c80635847ebed1161005b5780635847ebed1461013c578063b9857d871461016c578063f7fb40be14610188578063fae92612146101b857610088565b806310f6a3431461008d57806324dee484146100c057806336c73364146100f0578063571f978214610120575b600080fd5b6100a760048036038101906100a29190610a87565b6101d4565b6040516100b79493929190610af5565b60405180910390f35b6100da60048036038101906100d59190610b66565b610224565b6040516100e79190610bc1565b60405180910390f35b61010a60048036038101906101059190610d4e565b610357565b6040516101179190610bc1565b60405180910390f35b61013a60048036038101906101359190610dbd565b610403565b005b61015660048036038101906101519190610dfd565b6104e6565b6040516101639190610bc1565b60405180910390f35b61018660048036038101906101819190610e80565b6106b8565b005b6101a2600480360381019061019d9190610a87565b610947565b6040516101af9190610ec0565b60405180910390f35b6101d260048036038101906101cd9190610a87565b610992565b005b60006020528060005260406000206000915090508060000154908060010154908060020154908060030160009054906101000a900473ffffffffffffffffffffffffffffffffffffffff16905084565b60008060008373ffffffffffffffffffffffffffffffffffffffff1673ffffffffffffffffffffffffffffffffffffffff16815260200190815260200160002060030160009054906101000a900473ffffffffffffffffffffffffffffffffffffffff1673ffffffffffffffffffffffffffffffffffffffff163373ffffffffffffffffffffffffffffffffffffffff16146102f5576040517f08c379a00000000000000000000000000000000000000000000000000000000081526004016102ec90610f5e565b60405180910390fd5b826000808473ffffffffffffffffffffffffffffffffffffffff1673ffffffffffffffffffffffffffffffffffffffff16815260200190815260200160002060010160008282546103469190610fad565b925050819055506001905092915050565b60008060008373ffffffffffffffffffffffffffffffffffffffff1673ffffffffffffffffffffffffffffffffffffffff168152602001908152602001600020600001548480519060200120036103f757826000808473ffffffffffffffffffffffffffffffffffffffff1673ffffffffffffffffffffffffffffffffffffffff16815260200190815260200160002060000181905550600190506103fc565b600090505b9392505050565b604051806080016040528082815260200160008152602001600081526020018373ffffffffffffffffffffffffffffffffffffffff168152506000803373ffffffffffffffffffffffffffffffffffffffff1673ffffffffffffffffffffffffffffffffffffffff16815260200190815260200160002060008201518160000155602082015181600101556040820151816002015560608201518160030160006101000a81548173ffffffffffffffffffffffffffffffffffffffff021916908373ffffffffffffffffffffffffffffffffffffffff1602179055509050505050565b60008060008373ffffffffffffffffffffffffffffffffffffffff1673ffffffffffffffffffffffffffffffffffffffff16815260200190815260200160002060030160009054906101000a900473ffffffffffffffffffffffffffffffffffffffff1673ffffffffffffffffffffffffffffffffffffffff163373ffffffffffffffffffffffffffffffffffffffff16146105b7576040517f08c379a00000000000000000000000000000000000000000000000000000000081526004016105ae90611053565b60405180910390fd5b6105c2848484610357565b610601576040517f08c379a00000000000000000000000000000000000000000000000000000000081526004016105f8906110e5565b60405180910390fd5b846000808473ffffffffffffffffffffffffffffffffffffffff1673ffffffffffffffffffffffffffffffffffffffff16815260200190815260200160002060010154101561065357600090506106b0565b846000808473ffffffffffffffffffffffffffffffffffffffff1673ffffffffffffffffffffffffffffffffffffffff16815260200190815260200160002060010160008282546106a49190611105565b92505081905550600190505b949350505050565b6001546000803373ffffffffffffffffffffffffffffffffffffffff1673ffffffffffffffffffffffffffffffffffffffff16815260200190815260200160002060020154426107089190611105565b11610748576040517f08c379a000000000000000000000000000000000000000000000000000000000815260040161073f906111d1565b60405180910390fd5b6000828261075691906111fb565b905060008113156107be57806000803373ffffffffffffffffffffffffffffffffffffffff1673ffffffffffffffffffffffffffffffffffffffff16815260200190815260200160002060010160008282546107b29190610fad565b925050819055506108c3565b6000803373ffffffffffffffffffffffffffffffffffffffff1673ffffffffffffffffffffffffffffffffffffffff16815260200190815260200160002060010154828461080c9190611105565b111561085e5760008060003373ffffffffffffffffffffffffffffffffffffffff1673ffffffffffffffffffffffffffffffffffffffff168152602001908152602001600020600101819055506108c2565b818361086a9190611105565b6000803373ffffffffffffffffffffffffffffffffffffffff1673ffffffffffffffffffffffffffffffffffffffff16815260200190815260200160002060010160008282546108ba9190611105565b925050819055505b5b7fbd0faddf87043dd749c1b9d4dca8a12589b8cb5e2106832111ce23f219b1436783836040516108f492919061123e565b60405180910390a1426000803373ffffffffffffffffffffffffffffffffffffffff1673ffffffffffffffffffffffffffffffffffffffff16815260200190815260200160002060020181905550505050565b60008060008373ffffffffffffffffffffffffffffffffffffffff1673ffffffffffffffffffffffffffffffffffffffff168152602001908152602001600020600101549050919050565b806000803373ffffffffffffffffffffffffffffffffffffffff1673ffffffffffffffffffffffffffffffffffffffff16815260200190815260200160002060030160006101000a81548173ffffffffffffffffffffffffffffffffffffffff021916908373ffffffffffffffffffffffffffffffffffffffff16021790555050565b6000604051905090565b600080fd5b600080fd5b600073ffffffffffffffffffffffffffffffffffffffff82169050919050565b6000610a5482610a29565b9050919050565b610a6481610a49565b8114610a6f57600080fd5b50565b600081359050610a8181610a5b565b92915050565b600060208284031215610a9d57610a9c610a1f565b5b6000610aab84828501610a72565b91505092915050565b6000819050919050565b610ac781610ab4565b82525050565b6000819050919050565b610ae081610acd565b82525050565b610aef81610a49565b82525050565b6000608082019050610b0a6000830187610abe565b610b176020830186610ad7565b610b246040830185610ad7565b610b316060830184610ae6565b95945050505050565b610b4381610acd565b8114610b4e57600080fd5b50565b600081359050610b6081610b3a565b92915050565b60008060408385031215610b7d57610b7c610a1f565b5b6000610b8b85828601610b51565b9250506020610b9c85828601610a72565b9150509250929050565b60008115159050919050565b610bbb81610ba6565b82525050565b6000602082019050610bd66000830184610bb2565b92915050565b600080fd5b600080fd5b6000601f19601f8301169050919050565b7f4e487b7100000000000000000000000000000000000000000000000000000000600052604160045260246000fd5b610c2f82610be6565b810181811067ffffffffffffffff82111715610c4e57610c4d610bf7565b5b80604052505050565b6000610c61610a15565b9050610c6d8282610c26565b919050565b600067ffffffffffffffff821115610c8d57610c8c610bf7565b5b610c9682610be6565b9050602081019050919050565b82818337600083830152505050565b6000610cc5610cc084610c72565b610c57565b905082815260208101848484011115610ce157610ce0610be1565b5b610cec848285610ca3565b509392505050565b600082601f830112610d0957610d08610bdc565b5b8135610d19848260208601610cb2565b91505092915050565b610d2b81610ab4565b8114610d3657600080fd5b50565b600081359050610d4881610d22565b92915050565b600080600060608486031215610d6757610d66610a1f565b5b600084013567ffffffffffffffff811115610d8557610d84610a24565b5b610d9186828701610cf4565b9350506020610da286828701610d39565b9250506040610db386828701610a72565b9150509250925092565b60008060408385031215610dd457610dd3610a1f565b5b6000610de285828601610a72565b9250506020610df385828601610d39565b9150509250929050565b60008060008060808587031215610e1757610e16610a1f565b5b6000610e2587828801610b51565b945050602085013567ffffffffffffffff811115610e4657610e45610a24565b5b610e5287828801610cf4565b9350506040610e6387828801610d39565b9250506060610e7487828801610a72565b91505092959194509250565b60008060408385031215610e9757610e96610a1f565b5b6000610ea585828601610b51565b9250506020610eb685828601610b51565b9150509250929050565b6000602082019050610ed56000830184610ad7565b92915050565b600082825260208201905092915050565b7f4f6e6c792072656769737465726564206d61726b65742063616e20726574757260008201527f6e20656e65726779000000000000000000000000000000000000000000000000602082015250565b6000610f48602883610edb565b9150610f5382610eec565b604082019050919050565b60006020820190508181036000830152610f7781610f3b565b9050919050565b7f4e487b7100000000000000000000000000000000000000000000000000000000600052601160045260246000fd5b6000610fb882610acd565b9150610fc383610acd565b9250828201905080821115610fdb57610fda610f7e565b5b92915050565b7f4f6e6c792072656769737465726564206d61726b65742063616e20737562737460008201527f7261637420656e65726779000000000000000000000000000000000000000000602082015250565b600061103d602b83610edb565b915061104882610fe1565b604082019050919050565b6000602082019050818103600083015261106c81611030565b9050919050565b7f54686520626c696e64696e6720666163746f7220776173206e6f7420636f727260008201527f6563740000000000000000000000000000000000000000000000000000000000602082015250565b60006110cf602383610edb565b91506110da82611073565b604082019050919050565b600060208201905081810360008301526110fe816110c2565b9050919050565b600061111082610acd565b915061111b83610acd565b925082820390508181111561113357611132610f7e565b5b92915050565b7f4c6f67732063616e6e6f7420617070656172206d6f7265206672657175656e7460008201527f6c79207468616e20746865207472616e736d697373696f6e20696e746572766160208201527f6c00000000000000000000000000000000000000000000000000000000000000604082015250565b60006111bb604183610edb565b91506111c682611139565b606082019050919050565b600060208201905081810360008301526111ea816111ae565b9050919050565b6000819050919050565b6000611206826111f1565b9150611211836111f1565b925082820390508181126000841216828213600085121516171561123857611237610f7e565b5b92915050565b60006040820190506112536000830185610ad7565b6112606020830184610ad7565b939250505056fea26469706673582212205e6708cf0af173e2596adf116e938ea0b43122c41d168f0bc99417f2d980139964736f6c63430008130033",
  "immutableReferences": {},
  "source": "// SPDX-License-Identifier: GPL-3.0\n// pragma experimental ABIEncoderV2;\npragma solidity ^0.8.9;\n\ncontract SmartMeter {\n    struct SmartMeterInstance {\n        bytes32 otsHash;\n        uint batteryCharge;\n        uint lastDataSent;\n        address marketAddress;\n    }\n\n    mapping(address => SmartMeterInstance) public smartMeters;\n    \n    uint transmissionInterval = 15 seconds;\n\n    event Log(uint256 c, uint256 p);\n\n    function createLog(\n        uint256 consumption,\n        uint256 production\n    ) public {\n        require(\n            block.timestamp - smartMeters[msg.sender].lastDataSent >\n                transmissionInterval,\n            \"Logs cannot appear more frequently than the transmission interval\"\n        );\n\n        int netDifference = int(production) - int(consumption);\n\n        if (netDifference > 0) {\n            smartMeters[msg.sender].batteryCharge += uint(netDifference);\n        } else {\n            if (consumption - production > smartMeters[msg.sender].batteryCharge) {\n                smartMeters[msg.sender].batteryCharge = 0;\n            } else {\n                smartMeters[msg.sender].batteryCharge -= consumption - production;\n            }\n        }\n\n        emit Log(consumption, production);\n\n        smartMeters[msg.sender].lastDataSent = block.timestamp;\n    }\n\n    function getBatteryCharge(\n        address smartMeterAddress\n    ) public view returns (uint) {\n        return smartMeters[smartMeterAddress].batteryCharge;\n    }\n\n    function checkHashAndSetHash(\n        bytes memory ots,\n        bytes32 nextOtsHash,\n        address smartMeterAddress\n    ) public returns (bool) {\n        if (keccak256(ots) == smartMeters[smartMeterAddress].otsHash) {\n            smartMeters[smartMeterAddress].otsHash = nextOtsHash;\n            return true;\n        }\n        return false;\n    }\n\n    function subtractBatteryCharge(\n        uint amount,\n        bytes memory ots,\n        bytes32 nextOtsHash,\n        address smartMeterAddress\n    ) public returns (bool) {\n        require(\n            msg.sender == smartMeters[smartMeterAddress].marketAddress,\n            \"Only registered market can substract energy\"\n        );\n        require(\n            checkHashAndSetHash(ots, nextOtsHash, smartMeterAddress),\n            \"The blinding factor was not correct\"\n        );\n        if (smartMeters[smartMeterAddress].batteryCharge < amount) {\n            return false;\n        }\n        smartMeters[smartMeterAddress].batteryCharge -= amount;\n        return true;\n    }\n\n    function returnReservedBatteryCharge(\n        uint returnedBatteryCharge,\n        address smartMeterAddress\n    ) public returns (bool) {\n        require(\n            msg.sender == smartMeters[smartMeterAddress].marketAddress,\n            \"Only registered market can return energy\"\n        );\n        smartMeters[smartMeterAddress].batteryCharge += returnedBatteryCharge;\n        return true;\n    }\n\n    function setMarketAddress(address _marketAddress) public {\n        smartMeters[msg.sender].marketAddress = _marketAddress;\n    }\n\n    function createSmartMeter(address _marketAddress, bytes32 _otsHash) public {\n        smartMeters[msg.sender] = SmartMeterInstance({\n            otsHash: _otsHash,\n            marketAddress: _marketAddress,\n            lastDataSent: 0,\n            batteryCharge: 0\n        });\n    }\n}\n",
  "sourcePath": "/home/nobert/speciale/blockchain/contracts/SmartMeter.sol",
  "compiler": {
    "name": "solc",
    "version": "0.8.19+commit.7dd6d404.Emscripten.clang"
  },
  "schemaVersion": "3.4.16",
  "updatedAt": "2024-01-31T11:01:47.731Z",
  "networkType": "ethereum",
  "devdoc": {
    "kind": "dev",
    "methods": {},
    "version": 1
  },
  "userdoc": {
    "kind": "user",
    "methods": {},
    "version": 1
  }
}