{
  "contractName": "SmartMeter",
  "abi": [
    {
      "inputs": [
        {
          "internalType": "bytes32",
          "name": "_hashedValue",
          "type": "bytes32"
        }
      ],
      "stateMutability": "nonpayable",
      "type": "constructor"
    },
    {
      "anonymous": false,
      "inputs": [
        {
          "indexed": false,
          "internalType": "address",
          "name": "sender",
          "type": "address"
        },
        {
          "components": [
            {
              "internalType": "uint256",
              "name": "intervalConsumption",
              "type": "uint256"
            },
            {
              "internalType": "uint256",
              "name": "intervalProduction",
              "type": "uint256"
            },
            {
              "internalType": "uint256",
              "name": "totalConsumption",
              "type": "uint256"
            },
            {
              "internalType": "uint256",
              "name": "totalProduction",
              "type": "uint256"
            }
          ],
          "indexed": false,
          "internalType": "struct SmartMeter.PowerData",
          "name": "pd",
          "type": "tuple"
        },
        {
          "indexed": false,
          "internalType": "uint256",
          "name": "timeStamp",
          "type": "uint256"
        }
      ],
      "name": "Log",
      "type": "event"
    },
    {
      "inputs": [
        {
          "internalType": "uint256",
          "name": "intervalConsumption",
          "type": "uint256"
        },
        {
          "internalType": "uint256",
          "name": "intervalProduction",
          "type": "uint256"
        }
      ],
      "name": "createLog",
      "outputs": [],
      "stateMutability": "nonpayable",
      "type": "function"
    },
    {
      "inputs": [],
      "name": "getBatteryCharge",
      "outputs": [
        {
          "internalType": "uint256",
          "name": "",
          "type": "uint256"
        }
      ],
      "stateMutability": "view",
      "type": "function"
    },
    {
      "inputs": [
        {
          "internalType": "bytes32",
          "name": "blindingFactor",
          "type": "bytes32"
        },
        {
          "internalType": "bytes32",
          "name": "_nextHash",
          "type": "bytes32"
        }
      ],
      "name": "checkHashAndSetHash",
      "outputs": [
        {
          "internalType": "bool",
          "name": "",
          "type": "bool"
        }
      ],
      "stateMutability": "nonpayable",
      "type": "function"
    },
    {
      "inputs": [
        {
          "internalType": "uint256",
          "name": "amount",
          "type": "uint256"
        },
        {
          "internalType": "bytes32",
          "name": "blindingFactor",
          "type": "bytes32"
        },
        {
          "internalType": "bytes32",
          "name": "_nextHash",
          "type": "bytes32"
        }
      ],
      "name": "subtractBatteryCharge",
      "outputs": [
        {
          "internalType": "bool",
          "name": "",
          "type": "bool"
        }
      ],
      "stateMutability": "nonpayable",
      "type": "function"
    },
    {
      "inputs": [
        {
          "internalType": "address",
          "name": "marketAddress",
          "type": "address"
        }
      ],
      "name": "setCurrentMarketAddress",
      "outputs": [
        {
          "internalType": "bool",
          "name": "",
          "type": "bool"
        }
      ],
      "stateMutability": "nonpayable",
      "type": "function"
    },
    {
      "inputs": [
        {
          "internalType": "uint256",
          "name": "returnedBatteryCharge",
          "type": "uint256"
        }
      ],
      "name": "returnReservedBatteryCharge",
      "outputs": [
        {
          "internalType": "bool",
          "name": "",
          "type": "bool"
        }
      ],
      "stateMutability": "nonpayable",
      "type": "function"
    }
  ],
  "bytecode": "0x6080604052600f60075534801561001557600080fd5b50604051610ff4380380610ff4833981810160405281019061003791906100d0565b33600160006101000a81548173ffffffffffffffffffffffffffffffffffffffff021916908373ffffffffffffffffffffffffffffffffffffffff1602179055508060008190555060006003819055506000600481905550506100fd565b600080fd5b6000819050919050565b6100ad8161009a565b81146100b857600080fd5b50565b6000815190506100ca816100a4565b92915050565b6000602082840312156100e6576100e5610095565b5b60006100f4848285016100bb565b91505092915050565b610ee88061010c6000396000f3fe608060405234801561001057600080fd5b50600436106100625760003560e01c8063859c2ead1461006757806385c96e6614610097578063997d1826146100b5578063b82f7262146100e5578063b9857d8714610115578063bed64d8b14610131575b600080fd5b610081600480360381019061007c91906106ba565b610161565b60405161008e9190610702565b60405180910390f35b61009f61023d565b6040516100ac9190610736565b60405180910390f35b6100cf60048036038101906100ca919061077d565b610247565b6040516100dc9190610702565b60405180910390f35b6100ff60048036038101906100fa91906107e0565b6102fb565b60405161010c9190610702565b60405180910390f35b61012f600480360381019061012a9190610820565b61038e565b005b61014b60048036038101906101469190610860565b610544565b6040516101589190610702565b60405180910390f35b6000600160009054906101000a900473ffffffffffffffffffffffffffffffffffffffff1673ffffffffffffffffffffffffffffffffffffffff163373ffffffffffffffffffffffffffffffffffffffff16146101f3576040517f08c379a00000000000000000000000000000000000000000000000000000000081526004016101ea90610936565b60405180910390fd5b81600260006101000a81548173ffffffffffffffffffffffffffffffffffffffff021916908373ffffffffffffffffffffffffffffffffffffffff16021790555060019050919050565b6000600554905090565b6000600260009054906101000a900473ffffffffffffffffffffffffffffffffffffffff1673ffffffffffffffffffffffffffffffffffffffff163373ffffffffffffffffffffffffffffffffffffffff16146102d9576040517f08c379a00000000000000000000000000000000000000000000000000000000081526004016102d0906109c8565b60405180910390fd5b81600560008282546102eb9190610a17565b9250508190555060019050919050565b600080546002846040516020016103129190610a5a565b60405160208183030381529060405260405161032e9190610ae6565b602060405180830381855afa15801561034b573d6000803e3d6000fd5b5050506040513d601f19601f8201168201806040525081019061036e9190610b12565b03610383578160008190555060019050610388565b600090505b92915050565b600160009054906101000a900473ffffffffffffffffffffffffffffffffffffffff1673ffffffffffffffffffffffffffffffffffffffff163373ffffffffffffffffffffffffffffffffffffffff161461041e576040517f08c379a000000000000000000000000000000000000000000000000000000000815260040161041590610b8b565b60405180910390fd5b6007546006544261042f9190610bab565b1161046f576040517f08c379a000000000000000000000000000000000000000000000000000000000815260040161046690610c77565b60405180910390fd5b81600360008282546104819190610a17565b92505081905550806004600082825461049a9190610a17565b92505081905550600082826104af9190610ca1565b13156104da5781816104c19190610bab565b600560008282546104d29190610a17565b925050819055505b7f11cf1f698196c52545565642a7b6e6b8a30b4e1a8079386f679f087ab2f5832133604051806080016040528085815260200184815260200160035481526020016004548152504260405161053193929190610d57565b60405180910390a1426006819055505050565b6000600260009054906101000a900473ffffffffffffffffffffffffffffffffffffffff1673ffffffffffffffffffffffffffffffffffffffff163373ffffffffffffffffffffffffffffffffffffffff16146105d6576040517f08c379a00000000000000000000000000000000000000000000000000000000081526004016105cd90610e00565b60405180910390fd5b6105e083836102fb565b61061f576040517f08c379a000000000000000000000000000000000000000000000000000000000815260040161061690610e92565b60405180910390fd5b8360055410156106325760009050610650565b83600560008282546106449190610bab565b92505081905550600190505b9392505050565b600080fd5b600073ffffffffffffffffffffffffffffffffffffffff82169050919050565b60006106878261065c565b9050919050565b6106978161067c565b81146106a257600080fd5b50565b6000813590506106b48161068e565b92915050565b6000602082840312156106d0576106cf610657565b5b60006106de848285016106a5565b91505092915050565b60008115159050919050565b6106fc816106e7565b82525050565b600060208201905061071760008301846106f3565b92915050565b6000819050919050565b6107308161071d565b82525050565b600060208201905061074b6000830184610727565b92915050565b61075a8161071d565b811461076557600080fd5b50565b60008135905061077781610751565b92915050565b60006020828403121561079357610792610657565b5b60006107a184828501610768565b91505092915050565b6000819050919050565b6107bd816107aa565b81146107c857600080fd5b50565b6000813590506107da816107b4565b92915050565b600080604083850312156107f7576107f6610657565b5b6000610805858286016107cb565b9250506020610816858286016107cb565b9150509250929050565b6000806040838503121561083757610836610657565b5b600061084585828601610768565b925050602061085685828601610768565b9150509250929050565b60008060006060848603121561087957610878610657565b5b600061088786828701610768565b9350506020610898868287016107cb565b92505060406108a9868287016107cb565b9150509250925092565b600082825260208201905092915050565b7f4f6e6c79206f776e65722063616e206368616e6765206d61726b65742061646460008201527f7265737300000000000000000000000000000000000000000000000000000000602082015250565b60006109206024836108b3565b915061092b826108c4565b604082019050919050565b6000602082019050818103600083015261094f81610913565b9050919050565b7f4f6e6c792072656769737465726564206d61726b65742063616e20726574757260008201527f6e20656e65726779000000000000000000000000000000000000000000000000602082015250565b60006109b26028836108b3565b91506109bd82610956565b604082019050919050565b600060208201905081810360008301526109e1816109a5565b9050919050565b7f4e487b7100000000000000000000000000000000000000000000000000000000600052601160045260246000fd5b6000610a228261071d565b9150610a2d8361071d565b9250828201905080821115610a4557610a446109e8565b5b92915050565b610a54816107aa565b82525050565b6000602082019050610a6f6000830184610a4b565b92915050565b600081519050919050565b600081905092915050565b60005b83811015610aa9578082015181840152602081019050610a8e565b60008484015250505050565b6000610ac082610a75565b610aca8185610a80565b9350610ada818560208601610a8b565b80840191505092915050565b6000610af28284610ab5565b915081905092915050565b600081519050610b0c816107b4565b92915050565b600060208284031215610b2857610b27610657565b5b6000610b3684828501610afd565b91505092915050565b7f4f6e6c79206f776e65722063616e20637265617465206c6f6773000000000000600082015250565b6000610b75601a836108b3565b9150610b8082610b3f565b602082019050919050565b60006020820190508181036000830152610ba481610b68565b9050919050565b6000610bb68261071d565b9150610bc18361071d565b9250828203905081811115610bd957610bd86109e8565b5b92915050565b7f4c6f67732063616e6e6f7420617070656172206d6f7265206672657175656e7460008201527f6c79207468616e20746865207472616e736d697373696f6e20696e746572766160208201527f6c00000000000000000000000000000000000000000000000000000000000000604082015250565b6000610c616041836108b3565b9150610c6c82610bdf565b606082019050919050565b60006020820190508181036000830152610c9081610c54565b9050919050565b6000819050919050565b6000610cac82610c97565b9150610cb783610c97565b9250828203905081811260008412168282136000851215161715610cde57610cdd6109e8565b5b92915050565b610ced8161067c565b82525050565b610cfc8161071d565b82525050565b608082016000820151610d186000850182610cf3565b506020820151610d2b6020850182610cf3565b506040820151610d3e6040850182610cf3565b506060820151610d516060850182610cf3565b50505050565b600060c082019050610d6c6000830186610ce4565b610d796020830185610d02565b610d8660a0830184610727565b949350505050565b7f4f6e6c792072656769737465726564206d61726b65742063616e20737562737460008201527f7261637420656e65726779000000000000000000000000000000000000000000602082015250565b6000610dea602b836108b3565b9150610df582610d8e565b604082019050919050565b60006020820190508181036000830152610e1981610ddd565b9050919050565b7f54686520626c696e64696e6720666163746f7220776173206e6f7420636f727260008201527f6563740000000000000000000000000000000000000000000000000000000000602082015250565b6000610e7c6023836108b3565b9150610e8782610e20565b604082019050919050565b60006020820190508181036000830152610eab81610e6f565b905091905056fea26469706673582212207e7189241821b4f6ebbd61fce63ab561124aa4ac8910af50437bca48e4b0995664736f6c63430008130033",
  "immutableReferences": {},
  "source": "// SPDX-License-Identifier: GPL-3.0\n// pragma experimental ABIEncoderV2;\npragma solidity ^0.8.9;\n\ncontract SmartMeter {\n    bytes32 hashedValue;\n    address owner;\n    address currentMarketAddress;\n    uint private totalConsumption;\n    uint private totalProduction;\n    uint batteryCharge;\n    uint lastDataSent;\n    uint transmissionInterval = 15 seconds;\n\n    constructor(bytes32 _hashedValue) {\n        owner = msg.sender;\n        hashedValue = _hashedValue;\n        totalConsumption = 0;\n        totalProduction = 0;\n    }\n\n    struct PowerData {\n        uint256 intervalConsumption;\n        uint256 intervalProduction;\n        uint256 totalConsumption;\n        uint256 totalProduction;\n    }\n\n    event Log(address sender, PowerData pd, uint256 timeStamp);\n\n    function createLog(\n        uint256 intervalConsumption,\n        uint256 intervalProduction\n    ) public {\n        require(msg.sender == owner, \"Only owner can create logs\");\n        require(\n            block.timestamp - lastDataSent > transmissionInterval,\n            \"Logs cannot appear more frequently than the transmission interval\"\n        );\n        totalConsumption += intervalConsumption;\n        totalProduction += intervalProduction;\n\n        if ((int(intervalProduction) - int(intervalConsumption)) > 0) {\n            batteryCharge += intervalProduction - intervalConsumption;\n        }\n\n        emit Log(\n            msg.sender,\n            PowerData({\n                totalProduction: totalProduction,\n                totalConsumption: totalConsumption,\n                intervalConsumption: intervalConsumption,\n                intervalProduction: intervalProduction\n            }),\n            block.timestamp\n        );\n        lastDataSent = block.timestamp;\n    }\n\n    function getBatteryCharge() public view returns (uint) {\n        return batteryCharge;\n    }\n\n    function checkHashAndSetHash(bytes32 blindingFactor, bytes32 _nextHash) public returns (bool) {\n        if (sha256(abi.encode(blindingFactor)) == hashedValue) {\n           hashedValue = _nextHash;\n           return true;\n        }\n        return false;\n    }\n\n    function subtractBatteryCharge(uint amount, bytes32 blindingFactor, bytes32 _nextHash) public returns (bool) {\n        require(\n            msg.sender == currentMarketAddress,\n            \"Only registered market can substract energy\"\n        );\n        require(checkHashAndSetHash(blindingFactor, _nextHash), \"The blinding factor was not correct\");\n        if (batteryCharge < amount) {\n            return false;\n        }\n        batteryCharge -= amount;\n        return true;\n    }\n\n    function setCurrentMarketAddress(\n        address marketAddress\n    ) public returns (bool) {\n        require(msg.sender == owner, \"Only owner can change market address\");\n        currentMarketAddress = marketAddress;\n        return true;\n    }\n\n    function returnReservedBatteryCharge(\n        uint returnedBatteryCharge\n    ) public returns (bool) {\n        require(\n            msg.sender == currentMarketAddress,\n            \"Only registered market can return energy\"\n        );\n        batteryCharge += returnedBatteryCharge;\n        return true;\n    }\n}\n",
  "sourcePath": "/home/nobert/speciale/blockchain/contracts/SmartMeter.sol",
  "compiler": {
    "name": "solc",
    "version": "0.8.19+commit.7dd6d404.Emscripten.clang"
  },
  "schemaVersion": "3.4.16",
  "updatedAt": "2024-01-05T13:30:05.707Z",
  "networkType": "ethereum",
  "devdoc": {
    "kind": "dev",
    "methods": {},
    "version": 1
  },
  "userdoc": {
    "kind": "user",
    "methods": {},
    "version": 1
  }
}