{
  "contractName": "SmartMeter",
  "abi": [
    {
      "inputs": [
        {
          "internalType": "bytes32",
          "name": "_otsHash",
          "type": "bytes32"
        }
      ],
      "stateMutability": "nonpayable",
      "type": "constructor"
    },
    {
      "anonymous": false,
      "inputs": [
        {
          "indexed": false,
          "internalType": "uint256",
          "name": "intervalConsumption",
          "type": "uint256"
        },
        {
          "indexed": false,
          "internalType": "uint256",
          "name": "intervalProduction",
          "type": "uint256"
        }
      ],
      "name": "Log",
      "type": "event"
    },
    {
      "inputs": [
        {
          "internalType": "uint256",
          "name": "intervalConsumption",
          "type": "uint256"
        },
        {
          "internalType": "uint256",
          "name": "intervalProduction",
          "type": "uint256"
        }
      ],
      "name": "createLog",
      "outputs": [],
      "stateMutability": "nonpayable",
      "type": "function"
    },
    {
      "inputs": [],
      "name": "getBatteryCharge",
      "outputs": [
        {
          "internalType": "uint256",
          "name": "",
          "type": "uint256"
        }
      ],
      "stateMutability": "view",
      "type": "function"
    },
    {
      "inputs": [
        {
          "internalType": "bytes",
          "name": "ots",
          "type": "bytes"
        },
        {
          "internalType": "bytes32",
          "name": "nextOtsHash",
          "type": "bytes32"
        }
      ],
      "name": "checkHashAndSetHash",
      "outputs": [
        {
          "internalType": "bool",
          "name": "",
          "type": "bool"
        }
      ],
      "stateMutability": "nonpayable",
      "type": "function"
    },
    {
      "inputs": [
        {
          "internalType": "uint256",
          "name": "amount",
          "type": "uint256"
        },
        {
          "internalType": "bytes",
          "name": "ots",
          "type": "bytes"
        },
        {
          "internalType": "bytes32",
          "name": "nextOtsHash",
          "type": "bytes32"
        }
      ],
      "name": "subtractBatteryCharge",
      "outputs": [
        {
          "internalType": "bool",
          "name": "",
          "type": "bool"
        }
      ],
      "stateMutability": "nonpayable",
      "type": "function"
    },
    {
      "inputs": [
        {
          "internalType": "address",
          "name": "marketAddress",
          "type": "address"
        }
      ],
      "name": "setCurrentMarketAddress",
      "outputs": [
        {
          "internalType": "bool",
          "name": "",
          "type": "bool"
        }
      ],
      "stateMutability": "nonpayable",
      "type": "function"
    },
    {
      "inputs": [
        {
          "internalType": "uint256",
          "name": "amount",
          "type": "uint256"
        }
      ],
      "name": "returnReservedBatteryCharge",
      "outputs": [
        {
          "internalType": "bool",
          "name": "",
          "type": "bool"
        }
      ],
      "stateMutability": "nonpayable",
      "type": "function"
    }
  ],
  "bytecode": "0x6080604052600f60075534801561001557600080fd5b50604051610f8d380380610f8d833981810160405281019061003791906100d0565b33600160006101000a81548173ffffffffffffffffffffffffffffffffffffffff021916908373ffffffffffffffffffffffffffffffffffffffff1602179055508060008190555060006003819055506000600481905550506100fd565b600080fd5b6000819050919050565b6100ad8161009a565b81146100b857600080fd5b50565b6000815190506100ca816100a4565b92915050565b6000602082840312156100e6576100e5610095565b5b60006100f4848285016100bb565b91505092915050565b610e818061010c6000396000f3fe608060405234801561001057600080fd5b50600436106100625760003560e01c8063859c2ead1461006757806385c96e6614610097578063997d1826146100b5578063b9857d87146100e5578063eb2e3b5614610101578063f6b2795e14610131575b600080fd5b610081600480360381019061007c919061064a565b610161565b60405161008e9190610692565b60405180910390f35b61009f61023d565b6040516100ac91906106c6565b60405180910390f35b6100cf60048036038101906100ca919061070d565b610247565b6040516100dc9190610692565b60405180910390f35b6100ff60048036038101906100fa919061073a565b6102fb565b005b61011b600480360381019061011691906108f6565b610499565b6040516101289190610692565b60405180910390f35b61014b60048036038101906101469190610965565b6105ac565b6040516101589190610692565b60405180910390f35b6000600160009054906101000a900473ffffffffffffffffffffffffffffffffffffffff1673ffffffffffffffffffffffffffffffffffffffff163373ffffffffffffffffffffffffffffffffffffffff16146101f3576040517f08c379a00000000000000000000000000000000000000000000000000000000081526004016101ea90610a44565b60405180910390fd5b81600260006101000a81548173ffffffffffffffffffffffffffffffffffffffff021916908373ffffffffffffffffffffffffffffffffffffffff16021790555060019050919050565b6000600554905090565b6000600260009054906101000a900473ffffffffffffffffffffffffffffffffffffffff1673ffffffffffffffffffffffffffffffffffffffff163373ffffffffffffffffffffffffffffffffffffffff16146102d9576040517f08c379a00000000000000000000000000000000000000000000000000000000081526004016102d090610ad6565b60405180910390fd5b81600560008282546102eb9190610b25565b9250508190555060019050919050565b600160009054906101000a900473ffffffffffffffffffffffffffffffffffffffff1673ffffffffffffffffffffffffffffffffffffffff163373ffffffffffffffffffffffffffffffffffffffff161461038b576040517f08c379a000000000000000000000000000000000000000000000000000000000815260040161038290610ba5565b60405180910390fd5b6007546006544261039c9190610bc5565b116103dc576040517f08c379a00000000000000000000000000000000000000000000000000000000081526004016103d390610c91565b60405180910390fd5b600082826103ea9190610cbb565b905060008113156104135780600560008282546104079190610b25565b92505081905550610450565b60055482846104229190610bc5565b111561043557600060058190555061044f565b80600560008282546104479190610bc5565b925050819055505b5b7fbd0faddf87043dd749c1b9d4dca8a12589b8cb5e2106832111ce23f219b14367600454600354604051610485929190610cfe565b60405180910390a142600681905550505050565b6000600260009054906101000a900473ffffffffffffffffffffffffffffffffffffffff1673ffffffffffffffffffffffffffffffffffffffff163373ffffffffffffffffffffffffffffffffffffffff161461052b576040517f08c379a000000000000000000000000000000000000000000000000000000000815260040161052290610d99565b60405180910390fd5b61053583836105ac565b610574576040517f08c379a000000000000000000000000000000000000000000000000000000000815260040161056b90610e2b565b60405180910390fd5b83600554101561058757600090506105a5565b83600560008282546105999190610bc5565b92505081905550600190505b9392505050565b600080548380519060200120036105cd5781600081905550600190506105d2565b600090505b92915050565b6000604051905090565b600080fd5b600080fd5b600073ffffffffffffffffffffffffffffffffffffffff82169050919050565b6000610617826105ec565b9050919050565b6106278161060c565b811461063257600080fd5b50565b6000813590506106448161061e565b92915050565b6000602082840312156106605761065f6105e2565b5b600061066e84828501610635565b91505092915050565b60008115159050919050565b61068c81610677565b82525050565b60006020820190506106a76000830184610683565b92915050565b6000819050919050565b6106c0816106ad565b82525050565b60006020820190506106db60008301846106b7565b92915050565b6106ea816106ad565b81146106f557600080fd5b50565b600081359050610707816106e1565b92915050565b600060208284031215610723576107226105e2565b5b6000610731848285016106f8565b91505092915050565b60008060408385031215610751576107506105e2565b5b600061075f858286016106f8565b9250506020610770858286016106f8565b9150509250929050565b600080fd5b600080fd5b6000601f19601f8301169050919050565b7f4e487b7100000000000000000000000000000000000000000000000000000000600052604160045260246000fd5b6107cd82610784565b810181811067ffffffffffffffff821117156107ec576107eb610795565b5b80604052505050565b60006107ff6105d8565b905061080b82826107c4565b919050565b600067ffffffffffffffff82111561082b5761082a610795565b5b61083482610784565b9050602081019050919050565b82818337600083830152505050565b600061086361085e84610810565b6107f5565b90508281526020810184848401111561087f5761087e61077f565b5b61088a848285610841565b509392505050565b600082601f8301126108a7576108a661077a565b5b81356108b7848260208601610850565b91505092915050565b6000819050919050565b6108d3816108c0565b81146108de57600080fd5b50565b6000813590506108f0816108ca565b92915050565b60008060006060848603121561090f5761090e6105e2565b5b600061091d868287016106f8565b935050602084013567ffffffffffffffff81111561093e5761093d6105e7565b5b61094a86828701610892565b925050604061095b868287016108e1565b9150509250925092565b6000806040838503121561097c5761097b6105e2565b5b600083013567ffffffffffffffff81111561099a576109996105e7565b5b6109a685828601610892565b92505060206109b7858286016108e1565b9150509250929050565b600082825260208201905092915050565b7f4f6e6c79206f776e65722063616e206368616e6765206d61726b65742061646460008201527f7265737300000000000000000000000000000000000000000000000000000000602082015250565b6000610a2e6024836109c1565b9150610a39826109d2565b604082019050919050565b60006020820190508181036000830152610a5d81610a21565b9050919050565b7f4f6e6c792072656769737465726564206d61726b65742063616e20726574757260008201527f6e20656e65726779000000000000000000000000000000000000000000000000602082015250565b6000610ac06028836109c1565b9150610acb82610a64565b604082019050919050565b60006020820190508181036000830152610aef81610ab3565b9050919050565b7f4e487b7100000000000000000000000000000000000000000000000000000000600052601160045260246000fd5b6000610b30826106ad565b9150610b3b836106ad565b9250828201905080821115610b5357610b52610af6565b5b92915050565b7f4f6e6c79206f776e65722063616e20637265617465206c6f6773000000000000600082015250565b6000610b8f601a836109c1565b9150610b9a82610b59565b602082019050919050565b60006020820190508181036000830152610bbe81610b82565b9050919050565b6000610bd0826106ad565b9150610bdb836106ad565b9250828203905081811115610bf357610bf2610af6565b5b92915050565b7f4c6f67732063616e6e6f7420617070656172206d6f7265206672657175656e7460008201527f6c79207468616e20746865207472616e736d697373696f6e20696e746572766160208201527f6c00000000000000000000000000000000000000000000000000000000000000604082015250565b6000610c7b6041836109c1565b9150610c8682610bf9565b606082019050919050565b60006020820190508181036000830152610caa81610c6e565b9050919050565b6000819050919050565b6000610cc682610cb1565b9150610cd183610cb1565b9250828203905081811260008412168282136000851215161715610cf857610cf7610af6565b5b92915050565b6000604082019050610d1360008301856106b7565b610d2060208301846106b7565b9392505050565b7f4f6e6c792072656769737465726564206d61726b65742063616e20737562737460008201527f7261637420656e65726779000000000000000000000000000000000000000000602082015250565b6000610d83602b836109c1565b9150610d8e82610d27565b604082019050919050565b60006020820190508181036000830152610db281610d76565b9050919050565b7f54686520626c696e64696e6720666163746f7220776173206e6f7420636f727260008201527f6563740000000000000000000000000000000000000000000000000000000000602082015250565b6000610e156023836109c1565b9150610e2082610db9565b604082019050919050565b60006020820190508181036000830152610e4481610e08565b905091905056fea2646970667358221220d8d418766c558a01b8e7f35d53b726d3c5de6a3c1dab75a677c597747a59fef164736f6c63430008130033",
  "immutableReferences": {},
  "source": "// SPDX-License-Identifier: GPL-3.0\n// pragma experimental ABIEncoderV2;\npragma solidity ^0.8.9;\n\ncontract SmartMeter {\n    bytes32 otsHash;\n    address owner;\n    address currentMarketAddress;\n    uint private totalConsumption;\n    uint private totalProduction;\n    uint batteryCharge;\n    uint lastDataSent;\n    uint transmissionInterval = 15 seconds;\n\n    constructor(bytes32 _otsHash) {\n        owner = msg.sender;\n        otsHash = _otsHash;\n        totalConsumption = 0;\n        totalProduction = 0;\n    }\n\n    struct PowerData {\n        uint256 intervalConsumption;\n        uint256 intervalProduction;\n        uint256 totalConsumption;\n        uint256 totalProduction;\n    }\n\n    event Log(uint256 intervalConsumption, uint256 intervalProduction);\n\n    function createLog(\n        uint256 intervalConsumption,\n        uint256 intervalProduction\n    ) public {\n        require(msg.sender == owner, \"Only owner can create logs\");\n        require(\n            block.timestamp - lastDataSent > transmissionInterval,\n            \"Logs cannot appear more frequently than the transmission interval\"\n        );\n\n        // if ((int(intervalProduction) - int(intervalConsumption)) > 0) {\n        //     batteryCharge += intervalProduction - intervalConsumption;\n        // }\n        int netDifference = int(intervalProduction) - int(intervalConsumption);\n\n        if (netDifference > 0) {\n            batteryCharge += uint(netDifference);\n        } else {\n            if (intervalConsumption - intervalProduction > batteryCharge) {\n                batteryCharge = 0;\n            } else {\n                batteryCharge -= uint(netDifference);\n            }\n        }\n\n        emit Log(\n                totalProduction,\n                totalConsumption\n        );\n        lastDataSent = block.timestamp;\n    }\n\n    function getBatteryCharge() public view returns (uint) {\n        return batteryCharge;\n    }\n\n    function checkHashAndSetHash(\n        bytes memory ots,\n        bytes32 nextOtsHash\n    ) public returns (bool) {\n        if (keccak256(ots) == otsHash) {\n            otsHash = nextOtsHash;\n            return true;\n        }\n        return false;\n    }\n\n    function subtractBatteryCharge(\n        uint amount,\n        bytes memory ots,\n        bytes32 nextOtsHash\n    ) public returns (bool) {\n        require(\n            msg.sender == currentMarketAddress,\n            \"Only registered market can substract energy\"\n        );\n        require(\n            checkHashAndSetHash(ots, nextOtsHash),\n            \"The blinding factor was not correct\"\n        );\n        if (batteryCharge < amount) {\n            return false;\n        }\n        batteryCharge -= amount;\n        return true;\n    }\n\n    function setCurrentMarketAddress(\n        address marketAddress\n    ) public returns (bool) {\n        require(msg.sender == owner, \"Only owner can change market address\");\n        currentMarketAddress = marketAddress;\n        return true;\n    }\n\n    function returnReservedBatteryCharge(uint amount) public returns (bool) {\n        require(\n            msg.sender == currentMarketAddress,\n            \"Only registered market can return energy\"\n        );\n        batteryCharge += amount;\n        return true;\n    }\n}\n",
  "sourcePath": "/Users/antonoeschmidt/Projects/Master/SmartGridEmpowered/contracts/SmartMeter.sol",
  "compiler": {
    "name": "solc",
    "version": "0.8.19+commit.7dd6d404.Emscripten.clang"
  },
  "schemaVersion": "3.4.16",
  "updatedAt": "2024-01-23T15:25:59.513Z",
  "devdoc": {
    "kind": "dev",
    "methods": {},
    "version": 1
  },
  "userdoc": {
    "kind": "user",
    "methods": {},
    "version": 1
  }
}