{
  "contractName": "SmartMeter",
  "abi": [
    {
      "inputs": [
        {
          "internalType": "bytes32",
          "name": "_hashedValue",
          "type": "bytes32"
        }
      ],
      "stateMutability": "nonpayable",
      "type": "constructor"
    },
    {
      "anonymous": false,
      "inputs": [
        {
          "indexed": false,
          "internalType": "address",
          "name": "sender",
          "type": "address"
        },
        {
          "components": [
            {
              "internalType": "uint256",
              "name": "intervalConsumption",
              "type": "uint256"
            },
            {
              "internalType": "uint256",
              "name": "intervalProduction",
              "type": "uint256"
            },
            {
              "internalType": "uint256",
              "name": "totalConsumption",
              "type": "uint256"
            },
            {
              "internalType": "uint256",
              "name": "totalProduction",
              "type": "uint256"
            }
          ],
          "indexed": false,
          "internalType": "struct SmartMeter.PowerData",
          "name": "pd",
          "type": "tuple"
        },
        {
          "indexed": false,
          "internalType": "uint256",
          "name": "timeStamp",
          "type": "uint256"
        }
      ],
      "name": "Log",
      "type": "event"
    },
    {
      "inputs": [
        {
          "internalType": "uint256",
          "name": "intervalConsumption",
          "type": "uint256"
        },
        {
          "internalType": "uint256",
          "name": "intervalProduction",
          "type": "uint256"
        }
      ],
      "name": "createLog",
      "outputs": [],
      "stateMutability": "nonpayable",
      "type": "function"
    },
    {
      "inputs": [],
      "name": "getBatteryCharge",
      "outputs": [
        {
          "internalType": "uint256",
          "name": "",
          "type": "uint256"
        }
      ],
      "stateMutability": "view",
      "type": "function"
    },
    {
      "inputs": [
        {
          "internalType": "string",
          "name": "blindingFactor",
          "type": "string"
        },
        {
          "internalType": "string",
          "name": "_nextHash",
          "type": "string"
        }
      ],
      "name": "checkHashAndSetHash",
      "outputs": [
        {
          "internalType": "bool",
          "name": "",
          "type": "bool"
        }
      ],
      "stateMutability": "nonpayable",
      "type": "function"
    },
    {
      "inputs": [
        {
          "internalType": "uint256",
          "name": "amount",
          "type": "uint256"
        },
        {
          "internalType": "string",
          "name": "blindingFactor",
          "type": "string"
        },
        {
          "internalType": "string",
          "name": "_nextHash",
          "type": "string"
        }
      ],
      "name": "subtractBatteryCharge",
      "outputs": [
        {
          "internalType": "bool",
          "name": "",
          "type": "bool"
        }
      ],
      "stateMutability": "nonpayable",
      "type": "function"
    },
    {
      "inputs": [
        {
          "internalType": "address",
          "name": "marketAddress",
          "type": "address"
        }
      ],
      "name": "setCurrentMarketAddress",
      "outputs": [
        {
          "internalType": "bool",
          "name": "",
          "type": "bool"
        }
      ],
      "stateMutability": "nonpayable",
      "type": "function"
    },
    {
      "inputs": [
        {
          "internalType": "uint256",
          "name": "returnedBatteryCharge",
          "type": "uint256"
        }
      ],
      "name": "returnReservedBatteryCharge",
      "outputs": [
        {
          "internalType": "bool",
          "name": "",
          "type": "bool"
        }
      ],
      "stateMutability": "nonpayable",
      "type": "function"
    }
  ],
  "bytecode": "0x6080604052600f6007553480156200001657600080fd5b50604051620013f6380380620013f683398181016040528101906200003c9190620000db565b33600160006101000a81548173ffffffffffffffffffffffffffffffffffffffff021916908373ffffffffffffffffffffffffffffffffffffffff1602179055508060008190555060006003819055506000600481905550506200010d565b600080fd5b6000819050919050565b620000b581620000a0565b8114620000c157600080fd5b50565b600081519050620000d581620000aa565b92915050565b600060208284031215620000f457620000f36200009b565b5b60006200010484828501620000c4565b91505092915050565b6112d9806200011d6000396000f3fe608060405234801561001057600080fd5b50600436106100625760003560e01c806316e44424146100675780633139d59614610097578063859c2ead146100c757806385c96e66146100f7578063997d182614610115578063b9857d8714610145575b600080fd5b610081600480360381019061007c9190610917565b610161565b60405161008e91906109bd565b60405180910390f35b6100b160048036038101906100ac91906109d8565b61039b565b6040516100be91906109bd565b60405180910390f35b6100e160048036038101906100dc9190610aae565b610437565b6040516100ee91906109bd565b60405180910390f35b6100ff610513565b60405161010c9190610aea565b60405180910390f35b61012f600480360381019061012a9190610b05565b61051d565b60405161013c91906109bd565b60405180910390f35b61015f600480360381019061015a9190610b32565b6105d1565b005b6000806002846040516020016101779190610bf1565b6040516020818303038152906040526040516101939190610c5a565b602060405180830381855afa1580156101b0573d6000803e3d6000fd5b5050506040513d601f19601f820116820180604052508101906101d39190610ca7565b9050600160009054906101000a900473ffffffffffffffffffffffffffffffffffffffff1673ffffffffffffffffffffffffffffffffffffffff163373ffffffffffffffffffffffffffffffffffffffff1614816040516020016102379190610cf5565b60405160208183030381529060405290610287576040517f08c379a000000000000000000000000000000000000000000000000000000000815260040161027e9190610bf1565b60405180910390fd5b50600260009054906101000a900473ffffffffffffffffffffffffffffffffffffffff1673ffffffffffffffffffffffffffffffffffffffff163373ffffffffffffffffffffffffffffffffffffffff1614610318576040517f08c379a000000000000000000000000000000000000000000000000000000000815260040161030f90610d82565b60405180910390fd5b610322848461039b565b610361576040517f08c379a000000000000000000000000000000000000000000000000000000000815260040161035890610e14565b60405180910390fd5b846005541015610375576000915050610394565b84600560008282546103879190610e63565b9250508190555060019150505b9392505050565b600080546002846040516020016103b29190610bf1565b6040516020818303038152906040526040516103ce9190610c5a565b602060405180830381855afa1580156103eb573d6000803e3d6000fd5b5050506040513d601f19601f8201168201806040525081019061040e9190610ca7565b0361042c578161041d90610ec9565b60008190555060019050610431565b600090505b92915050565b6000600160009054906101000a900473ffffffffffffffffffffffffffffffffffffffff1673ffffffffffffffffffffffffffffffffffffffff163373ffffffffffffffffffffffffffffffffffffffff16146104c9576040517f08c379a00000000000000000000000000000000000000000000000000000000081526004016104c090610fa2565b60405180910390fd5b81600260006101000a81548173ffffffffffffffffffffffffffffffffffffffff021916908373ffffffffffffffffffffffffffffffffffffffff16021790555060019050919050565b6000600554905090565b6000600260009054906101000a900473ffffffffffffffffffffffffffffffffffffffff1673ffffffffffffffffffffffffffffffffffffffff163373ffffffffffffffffffffffffffffffffffffffff16146105af576040517f08c379a00000000000000000000000000000000000000000000000000000000081526004016105a690611034565b60405180910390fd5b81600560008282546105c19190611054565b9250508190555060019050919050565b600160009054906101000a900473ffffffffffffffffffffffffffffffffffffffff1673ffffffffffffffffffffffffffffffffffffffff163373ffffffffffffffffffffffffffffffffffffffff1614610661576040517f08c379a0000000000000000000000000000000000000000000000000000000008152600401610658906110d4565b60405180910390fd5b600754600654426106729190610e63565b116106b2576040517f08c379a00000000000000000000000000000000000000000000000000000000081526004016106a99061118c565b60405180910390fd5b81600360008282546106c49190611054565b9250508190555080600460008282546106dd9190611054565b92505081905550600082826106f291906111b6565b131561071d5781816107049190610e63565b600560008282546107159190611054565b925050819055505b7f11cf1f698196c52545565642a7b6e6b8a30b4e1a8079386f679f087ab2f583213360405180608001604052808581526020018481526020016003548152602001600454815250426040516107749392919061126c565b60405180910390a1426006819055505050565b6000604051905090565b600080fd5b600080fd5b6000819050919050565b6107ae8161079b565b81146107b957600080fd5b50565b6000813590506107cb816107a5565b92915050565b600080fd5b600080fd5b6000601f19601f8301169050919050565b7f4e487b7100000000000000000000000000000000000000000000000000000000600052604160045260246000fd5b610824826107db565b810181811067ffffffffffffffff82111715610843576108426107ec565b5b80604052505050565b6000610856610787565b9050610862828261081b565b919050565b600067ffffffffffffffff821115610882576108816107ec565b5b61088b826107db565b9050602081019050919050565b82818337600083830152505050565b60006108ba6108b584610867565b61084c565b9050828152602081018484840111156108d6576108d56107d6565b5b6108e1848285610898565b509392505050565b600082601f8301126108fe576108fd6107d1565b5b813561090e8482602086016108a7565b91505092915050565b6000806000606084860312156109305761092f610791565b5b600061093e868287016107bc565b935050602084013567ffffffffffffffff81111561095f5761095e610796565b5b61096b868287016108e9565b925050604084013567ffffffffffffffff81111561098c5761098b610796565b5b610998868287016108e9565b9150509250925092565b60008115159050919050565b6109b7816109a2565b82525050565b60006020820190506109d260008301846109ae565b92915050565b600080604083850312156109ef576109ee610791565b5b600083013567ffffffffffffffff811115610a0d57610a0c610796565b5b610a19858286016108e9565b925050602083013567ffffffffffffffff811115610a3a57610a39610796565b5b610a46858286016108e9565b9150509250929050565b600073ffffffffffffffffffffffffffffffffffffffff82169050919050565b6000610a7b82610a50565b9050919050565b610a8b81610a70565b8114610a9657600080fd5b50565b600081359050610aa881610a82565b92915050565b600060208284031215610ac457610ac3610791565b5b6000610ad284828501610a99565b91505092915050565b610ae48161079b565b82525050565b6000602082019050610aff6000830184610adb565b92915050565b600060208284031215610b1b57610b1a610791565b5b6000610b29848285016107bc565b91505092915050565b60008060408385031215610b4957610b48610791565b5b6000610b57858286016107bc565b9250506020610b68858286016107bc565b9150509250929050565b600081519050919050565b600082825260208201905092915050565b60005b83811015610bac578082015181840152602081019050610b91565b60008484015250505050565b6000610bc382610b72565b610bcd8185610b7d565b9350610bdd818560208601610b8e565b610be6816107db565b840191505092915050565b60006020820190508181036000830152610c0b8184610bb8565b905092915050565b600081519050919050565b600081905092915050565b6000610c3482610c13565b610c3e8185610c1e565b9350610c4e818560208601610b8e565b80840191505092915050565b6000610c668284610c29565b915081905092915050565b6000819050919050565b610c8481610c71565b8114610c8f57600080fd5b50565b600081519050610ca181610c7b565b92915050565b600060208284031215610cbd57610cbc610791565b5b6000610ccb84828501610c92565b91505092915050565b6000819050919050565b610cef610cea82610c71565b610cd4565b82525050565b6000610d018284610cde565b60208201915081905092915050565b7f4f6e6c792072656769737465726564206d61726b65742063616e20737562737460008201527f7261637420656e65726779000000000000000000000000000000000000000000602082015250565b6000610d6c602b83610b7d565b9150610d7782610d10565b604082019050919050565b60006020820190508181036000830152610d9b81610d5f565b9050919050565b7f54686520626c696e64696e6720666163746f7220776173206e6f7420636f727260008201527f6563740000000000000000000000000000000000000000000000000000000000602082015250565b6000610dfe602383610b7d565b9150610e0982610da2565b604082019050919050565b60006020820190508181036000830152610e2d81610df1565b9050919050565b7f4e487b7100000000000000000000000000000000000000000000000000000000600052601160045260246000fd5b6000610e6e8261079b565b9150610e798361079b565b9250828203905081811115610e9157610e90610e34565b5b92915050565b6000819050602082019050919050565b6000610eb38251610c71565b80915050919050565b600082821b905092915050565b6000610ed482610c13565b82610ede84610e97565b9050610ee981610ea7565b92506020821015610f2957610f247fffffffffffffffffffffffffffffffffffffffffffffffffffffffffffffffff83602003600802610ebc565b831692505b5050919050565b7f4f6e6c79206f776e65722063616e206368616e6765206d61726b65742061646460008201527f7265737300000000000000000000000000000000000000000000000000000000602082015250565b6000610f8c602483610b7d565b9150610f9782610f30565b604082019050919050565b60006020820190508181036000830152610fbb81610f7f565b9050919050565b7f4f6e6c792072656769737465726564206d61726b65742063616e20726574757260008201527f6e20656e65726779000000000000000000000000000000000000000000000000602082015250565b600061101e602883610b7d565b915061102982610fc2565b604082019050919050565b6000602082019050818103600083015261104d81611011565b9050919050565b600061105f8261079b565b915061106a8361079b565b925082820190508082111561108257611081610e34565b5b92915050565b7f4f6e6c79206f776e65722063616e20637265617465206c6f6773000000000000600082015250565b60006110be601a83610b7d565b91506110c982611088565b602082019050919050565b600060208201905081810360008301526110ed816110b1565b9050919050565b7f4c6f67732063616e6e6f7420617070656172206d6f7265206672657175656e7460008201527f6c79207468616e20746865207472616e736d697373696f6e20696e746572766160208201527f6c00000000000000000000000000000000000000000000000000000000000000604082015250565b6000611176604183610b7d565b9150611181826110f4565b606082019050919050565b600060208201905081810360008301526111a581611169565b9050919050565b6000819050919050565b60006111c1826111ac565b91506111cc836111ac565b92508282039050818112600084121682821360008512151617156111f3576111f2610e34565b5b92915050565b61120281610a70565b82525050565b6112118161079b565b82525050565b60808201600082015161122d6000850182611208565b5060208201516112406020850182611208565b5060408201516112536040850182611208565b5060608201516112666060850182611208565b50505050565b600060c08201905061128160008301866111f9565b61128e6020830185611217565b61129b60a0830184610adb565b94935050505056fea2646970667358221220a88684ee5ca8293cb23dfb7bfb504516cbce957b1b4376b3545d24a868eccac364736f6c63430008130033",
  "immutableReferences": {},
  "source": "// SPDX-License-Identifier: GPL-3.0\n// pragma experimental ABIEncoderV2;\npragma solidity ^0.8.9;\n\ncontract SmartMeter {\n    bytes32 hashedValue;\n    address owner;\n    address currentMarketAddress;\n    uint private totalConsumption;\n    uint private totalProduction;\n    uint batteryCharge;\n    uint lastDataSent;\n    uint transmissionInterval = 15 seconds;\n\n    constructor(bytes32 _hashedValue) {\n        owner = msg.sender;\n        hashedValue = _hashedValue;\n        totalConsumption = 0;\n        totalProduction = 0;\n    }\n\n    struct PowerData {\n        uint256 intervalConsumption;\n        uint256 intervalProduction;\n        uint256 totalConsumption;\n        uint256 totalProduction;\n    }\n\n    event Log(address sender, PowerData pd, uint256 timeStamp);\n\n    function createLog(\n        uint256 intervalConsumption,\n        uint256 intervalProduction\n    ) public {\n        require(msg.sender == owner, \"Only owner can create logs\");\n        require(\n            block.timestamp - lastDataSent > transmissionInterval,\n            \"Logs cannot appear more frequently than the transmission interval\"\n        );\n        totalConsumption += intervalConsumption;\n        totalProduction += intervalProduction;\n\n        if ((int(intervalProduction) - int(intervalConsumption)) > 0) {\n            batteryCharge += intervalProduction - intervalConsumption;\n        }\n\n        emit Log(\n            msg.sender,\n            PowerData({\n                totalProduction: totalProduction,\n                totalConsumption: totalConsumption,\n                intervalConsumption: intervalConsumption,\n                intervalProduction: intervalProduction\n            }),\n            block.timestamp\n        );\n        lastDataSent = block.timestamp;\n    }\n\n    function getBatteryCharge() public view returns (uint) {\n        return batteryCharge;\n    }\n\n    function checkHashAndSetHash(string memory blindingFactor, string memory _nextHash) public returns (bool) {\n        if (sha256(abi.encode(blindingFactor)) == hashedValue) {\n           hashedValue = bytes32(bytes(_nextHash));\n           return true;\n        }\n        return false;\n    }\n\n    function subtractBatteryCharge(uint amount, string memory blindingFactor, string memory _nextHash) public returns (bool) {\n        bytes32 hashed = sha256(abi.encode(blindingFactor));\n        require(msg.sender == owner, string(abi.encodePacked(hashed)));\n        \n        require(\n            msg.sender == currentMarketAddress,\n            \"Only registered market can substract energy\"\n        );\n        require(checkHashAndSetHash(blindingFactor, _nextHash), \"The blinding factor was not correct\");\n        if (batteryCharge < amount) {\n            return false;\n        }\n        batteryCharge -= amount;\n        return true;\n    }\n\n    function setCurrentMarketAddress(\n        address marketAddress\n    ) public returns (bool) {\n        require(msg.sender == owner, \"Only owner can change market address\");\n        currentMarketAddress = marketAddress;\n        return true;\n    }\n\n    function returnReservedBatteryCharge(\n        uint returnedBatteryCharge\n    ) public returns (bool) {\n        require(\n            msg.sender == currentMarketAddress,\n            \"Only registered market can return energy\"\n        );\n        batteryCharge += returnedBatteryCharge;\n        return true;\n    }\n}\n",
  "sourcePath": "/home/nobert/speciale/blockchain/contracts/SmartMeter.sol",
  "compiler": {
    "name": "solc",
    "version": "0.8.19+commit.7dd6d404.Emscripten.clang"
  },
  "schemaVersion": "3.4.16",
  "updatedAt": "2024-01-05T14:19:21.372Z",
  "networkType": "ethereum",
  "devdoc": {
    "kind": "dev",
    "methods": {},
    "version": 1
  },
  "userdoc": {
    "kind": "user",
    "methods": {},
    "version": 1
  }
}