{
  "contractName": "SmartMeter",
  "abi": [
    {
      "inputs": [],
      "stateMutability": "nonpayable",
      "type": "constructor"
    },
    {
      "anonymous": false,
      "inputs": [
        {
          "indexed": false,
          "internalType": "address",
          "name": "sender",
          "type": "address"
        },
        {
          "components": [
            {
              "internalType": "uint256",
              "name": "intervalConsumption",
              "type": "uint256"
            },
            {
              "internalType": "uint256",
              "name": "intervalProduction",
              "type": "uint256"
            },
            {
              "internalType": "uint256",
              "name": "totalConsumption",
              "type": "uint256"
            },
            {
              "internalType": "uint256",
              "name": "totalProduction",
              "type": "uint256"
            }
          ],
          "indexed": false,
          "internalType": "struct SmartMeter.PowerData",
          "name": "pd",
          "type": "tuple"
        },
        {
          "indexed": false,
          "internalType": "uint256",
          "name": "timeStamp",
          "type": "uint256"
        }
      ],
      "name": "Log",
      "type": "event"
    },
    {
      "inputs": [
        {
          "internalType": "uint256",
          "name": "intervalConsumption",
          "type": "uint256"
        },
        {
          "internalType": "uint256",
          "name": "intervalProduction",
          "type": "uint256"
        }
      ],
      "name": "createLog",
      "outputs": [],
      "stateMutability": "nonpayable",
      "type": "function"
    },
    {
      "inputs": [],
      "name": "getBatteryCharge",
      "outputs": [
        {
          "internalType": "uint256",
          "name": "",
          "type": "uint256"
        }
      ],
      "stateMutability": "view",
      "type": "function"
    },
    {
      "inputs": [
        {
          "internalType": "uint256",
          "name": "amount",
          "type": "uint256"
        }
      ],
      "name": "subtractBatteryCharge",
      "outputs": [
        {
          "internalType": "bool",
          "name": "",
          "type": "bool"
        }
      ],
      "stateMutability": "nonpayable",
      "type": "function"
    },
    {
      "inputs": [
        {
          "internalType": "address",
          "name": "marketAddress",
          "type": "address"
        }
      ],
      "name": "setCurrentMarketAddress",
      "outputs": [
        {
          "internalType": "bool",
          "name": "",
          "type": "bool"
        }
      ],
      "stateMutability": "nonpayable",
      "type": "function"
    },
    {
      "inputs": [
        {
          "internalType": "uint256",
          "name": "returnedBatteryCharge",
          "type": "uint256"
        }
      ],
      "name": "returnReservedBatteryCharge",
      "outputs": [
        {
          "internalType": "bool",
          "name": "",
          "type": "bool"
        }
      ],
      "stateMutability": "nonpayable",
      "type": "function"
    }
  ],
  "bytecode": "0x6080604052600f60065534801561001557600080fd5b50336000806101000a81548173ffffffffffffffffffffffffffffffffffffffff021916908373ffffffffffffffffffffffffffffffffffffffff16021790555060006002819055506000600381905550610b7d806100756000396000f3fe608060405234801561001057600080fd5b50600436106100575760003560e01c8063859c2ead1461005c57806385c96e661461008c578063997d1826146100aa578063b9857d87146100da578063f709bda8146100f6575b600080fd5b6100766004803603810190610071919061059e565b610126565b60405161008391906105e6565b60405180910390f35b610094610201565b6040516100a1919061061a565b60405180910390f35b6100c460048036038101906100bf9190610661565b61020b565b6040516100d191906105e6565b60405180910390f35b6100f460048036038101906100ef919061068e565b6102bf565b005b610110600480360381019061010b9190610661565b610473565b60405161011d91906105e6565b60405180910390f35b60008060009054906101000a900473ffffffffffffffffffffffffffffffffffffffff1673ffffffffffffffffffffffffffffffffffffffff163373ffffffffffffffffffffffffffffffffffffffff16146101b7576040517f08c379a00000000000000000000000000000000000000000000000000000000081526004016101ae90610751565b60405180910390fd5b81600160006101000a81548173ffffffffffffffffffffffffffffffffffffffff021916908373ffffffffffffffffffffffffffffffffffffffff16021790555060019050919050565b6000600454905090565b6000600160009054906101000a900473ffffffffffffffffffffffffffffffffffffffff1673ffffffffffffffffffffffffffffffffffffffff163373ffffffffffffffffffffffffffffffffffffffff161461029d576040517f08c379a0000000000000000000000000000000000000000000000000000000008152600401610294906107e3565b60405180910390fd5b81600460008282546102af9190610832565b9250508190555060019050919050565b60008054906101000a900473ffffffffffffffffffffffffffffffffffffffff1673ffffffffffffffffffffffffffffffffffffffff163373ffffffffffffffffffffffffffffffffffffffff161461034d576040517f08c379a0000000000000000000000000000000000000000000000000000000008152600401610344906108b2565b60405180910390fd5b6006546005544261035e91906108d2565b1161039e576040517f08c379a00000000000000000000000000000000000000000000000000000000081526004016103959061099e565b60405180910390fd5b81600260008282546103b09190610832565b9250508190555080600360008282546103c99190610832565b92505081905550600082826103de91906109c8565b13156104095781816103f091906108d2565b600460008282546104019190610832565b925050819055505b7f11cf1f698196c52545565642a7b6e6b8a30b4e1a8079386f679f087ab2f5832133604051806080016040528085815260200184815260200160025481526020016003548152504260405161046093929190610a7e565b60405180910390a1426005819055505050565b6000600160009054906101000a900473ffffffffffffffffffffffffffffffffffffffff1673ffffffffffffffffffffffffffffffffffffffff163373ffffffffffffffffffffffffffffffffffffffff1614610505576040517f08c379a00000000000000000000000000000000000000000000000000000000081526004016104fc90610b27565b60405180910390fd5b8160045410156105185760009050610536565b816004600082825461052a91906108d2565b92505081905550600190505b919050565b600080fd5b600073ffffffffffffffffffffffffffffffffffffffff82169050919050565b600061056b82610540565b9050919050565b61057b81610560565b811461058657600080fd5b50565b60008135905061059881610572565b92915050565b6000602082840312156105b4576105b361053b565b5b60006105c284828501610589565b91505092915050565b60008115159050919050565b6105e0816105cb565b82525050565b60006020820190506105fb60008301846105d7565b92915050565b6000819050919050565b61061481610601565b82525050565b600060208201905061062f600083018461060b565b92915050565b61063e81610601565b811461064957600080fd5b50565b60008135905061065b81610635565b92915050565b6000602082840312156106775761067661053b565b5b60006106858482850161064c565b91505092915050565b600080604083850312156106a5576106a461053b565b5b60006106b38582860161064c565b92505060206106c48582860161064c565b9150509250929050565b600082825260208201905092915050565b7f4f6e6c79206f776e65722063616e206368616e6765206d61726b65742061646460008201527f7265737300000000000000000000000000000000000000000000000000000000602082015250565b600061073b6024836106ce565b9150610746826106df565b604082019050919050565b6000602082019050818103600083015261076a8161072e565b9050919050565b7f4f6e6c792072656769737465726564206d61726b65742063616e20726574757260008201527f6e20656e65726779000000000000000000000000000000000000000000000000602082015250565b60006107cd6028836106ce565b91506107d882610771565b604082019050919050565b600060208201905081810360008301526107fc816107c0565b9050919050565b7f4e487b7100000000000000000000000000000000000000000000000000000000600052601160045260246000fd5b600061083d82610601565b915061084883610601565b92508282019050808211156108605761085f610803565b5b92915050565b7f4f6e6c79206f776e65722063616e20637265617465206c6f6773000000000000600082015250565b600061089c601a836106ce565b91506108a782610866565b602082019050919050565b600060208201905081810360008301526108cb8161088f565b9050919050565b60006108dd82610601565b91506108e883610601565b9250828203905081811115610900576108ff610803565b5b92915050565b7f4c6f67732063616e6e6f7420617070656172206d6f7265206672657175656e7460008201527f6c79207468616e20746865207472616e736d697373696f6e20696e746572766160208201527f6c00000000000000000000000000000000000000000000000000000000000000604082015250565b60006109886041836106ce565b915061099382610906565b606082019050919050565b600060208201905081810360008301526109b78161097b565b9050919050565b6000819050919050565b60006109d3826109be565b91506109de836109be565b9250828203905081811260008412168282136000851215161715610a0557610a04610803565b5b92915050565b610a1481610560565b82525050565b610a2381610601565b82525050565b608082016000820151610a3f6000850182610a1a565b506020820151610a526020850182610a1a565b506040820151610a656040850182610a1a565b506060820151610a786060850182610a1a565b50505050565b600060c082019050610a936000830186610a0b565b610aa06020830185610a29565b610aad60a083018461060b565b949350505050565b7f4f6e6c792072656769737465726564206d61726b65742063616e20737562737460008201527f7261637420656e65726779000000000000000000000000000000000000000000602082015250565b6000610b11602b836106ce565b9150610b1c82610ab5565b604082019050919050565b60006020820190508181036000830152610b4081610b04565b905091905056fea2646970667358221220f6e21581045ff8ac1cc292f434e38234761f55ad58f4fe59640765c13418ed3e64736f6c63430008130033",
  "immutableReferences": {},
  "source": "// SPDX-License-Identifier: GPL-3.0\n// pragma experimental ABIEncoderV2;\npragma solidity ^0.8.9;\n\ncontract SmartMeter {\n    address owner;\n    address currentMarketAddress;\n    uint private totalConsumption;\n    uint private totalProduction;\n    uint batteryCharge;\n    uint lastDataSent;\n    uint transmissionInterval = 15 seconds;\n\n    constructor() {\n        owner = msg.sender;\n        totalConsumption = 0;\n        totalProduction = 0;\n    }\n\n    struct PowerData {\n        uint256 intervalConsumption;\n        uint256 intervalProduction;\n        uint256 totalConsumption;\n        uint256 totalProduction;\n    }\n\n    event Log(address sender, PowerData pd, uint256 timeStamp);\n\n    function createLog(\n        uint256 intervalConsumption,\n        uint256 intervalProduction\n    ) public {\n        require(msg.sender == owner, \"Only owner can create logs\");\n        require(\n            block.timestamp - lastDataSent > transmissionInterval,\n            \"Logs cannot appear more frequently than the transmission interval\"\n        );\n        totalConsumption += intervalConsumption;\n        totalProduction += intervalProduction;\n\n        if ((int(intervalProduction) - int(intervalConsumption)) > 0) {\n            batteryCharge += intervalProduction - intervalConsumption;\n        }\n\n        emit Log(\n            msg.sender,\n            PowerData({\n                totalProduction: totalProduction,\n                totalConsumption: totalConsumption,\n                intervalConsumption: intervalConsumption,\n                intervalProduction: intervalProduction\n            }),\n            block.timestamp\n        );\n        lastDataSent = block.timestamp;\n    }\n\n    function getBatteryCharge() public view returns (uint) {\n        return batteryCharge;\n    }\n\n    function subtractBatteryCharge(uint amount) public returns (bool) {\n        require(\n            msg.sender == currentMarketAddress,\n            \"Only registered market can substract energy\"\n        );\n        if (batteryCharge < amount) {\n            return false;\n        }\n        batteryCharge -= amount;\n        return true;\n    }\n\n    function setCurrentMarketAddress(\n        address marketAddress\n    ) public returns (bool) {\n        require(msg.sender == owner, \"Only owner can change market address\");\n        currentMarketAddress = marketAddress;\n        return true;\n    }\n\n    function returnReservedBatteryCharge(\n        uint returnedBatteryCharge\n    ) public returns (bool) {\n        require(\n            msg.sender == currentMarketAddress,\n            \"Only registered market can return energy\"\n        );\n        batteryCharge += returnedBatteryCharge;\n        return true;\n    }\n}\n",
  "sourcePath": "/Users/antonoeschmidt/Projects/Master/SmartGridEmpowered/contracts/SmartMeter.sol",
  "compiler": {
    "name": "solc",
    "version": "0.8.19+commit.7dd6d404.Emscripten.clang"
  },
  "schemaVersion": "3.4.3",
  "updatedAt": "2023-12-18T06:04:58.653Z",
  "networkType": "ethereum",
  "devdoc": {
    "kind": "dev",
    "methods": {},
    "version": 1
  },
  "userdoc": {
    "kind": "user",
    "methods": {},
    "version": 1
  }
}