{
  "contractName": "SmartMeter",
  "abi": [
    {
      "inputs": [
        {
          "internalType": "bytes32",
          "name": "_otsHash",
          "type": "bytes32"
        }
      ],
      "stateMutability": "nonpayable",
      "type": "constructor"
    },
    {
      "anonymous": false,
      "inputs": [
        {
          "indexed": false,
          "internalType": "address",
          "name": "sender",
          "type": "address"
        },
        {
          "components": [
            {
              "internalType": "uint256",
              "name": "intervalConsumption",
              "type": "uint256"
            },
            {
              "internalType": "uint256",
              "name": "intervalProduction",
              "type": "uint256"
            },
            {
              "internalType": "uint256",
              "name": "totalConsumption",
              "type": "uint256"
            },
            {
              "internalType": "uint256",
              "name": "totalProduction",
              "type": "uint256"
            }
          ],
          "indexed": false,
          "internalType": "struct SmartMeter.PowerData",
          "name": "pd",
          "type": "tuple"
        },
        {
          "indexed": false,
          "internalType": "uint256",
          "name": "timeStamp",
          "type": "uint256"
        }
      ],
      "name": "Log",
      "type": "event"
    },
    {
      "inputs": [
        {
          "internalType": "uint256",
          "name": "intervalConsumption",
          "type": "uint256"
        },
        {
          "internalType": "uint256",
          "name": "intervalProduction",
          "type": "uint256"
        }
      ],
      "name": "createLog",
      "outputs": [],
      "stateMutability": "nonpayable",
      "type": "function"
    },
    {
      "inputs": [],
      "name": "getBatteryCharge",
      "outputs": [
        {
          "internalType": "uint256",
          "name": "",
          "type": "uint256"
        }
      ],
      "stateMutability": "view",
      "type": "function"
    },
    {
      "inputs": [
        {
          "internalType": "bytes",
          "name": "ots",
          "type": "bytes"
        },
        {
          "internalType": "bytes32",
          "name": "nextOtsHash",
          "type": "bytes32"
        }
      ],
      "name": "checkHashAndSetHash",
      "outputs": [
        {
          "internalType": "bool",
          "name": "",
          "type": "bool"
        }
      ],
      "stateMutability": "nonpayable",
      "type": "function"
    },
    {
      "inputs": [
        {
          "internalType": "uint256",
          "name": "amount",
          "type": "uint256"
        },
        {
          "internalType": "bytes",
          "name": "ots",
          "type": "bytes"
        },
        {
          "internalType": "bytes32",
          "name": "nextOtsHash",
          "type": "bytes32"
        }
      ],
      "name": "subtractBatteryCharge",
      "outputs": [
        {
          "internalType": "bool",
          "name": "",
          "type": "bool"
        }
      ],
      "stateMutability": "nonpayable",
      "type": "function"
    },
    {
      "inputs": [
        {
          "internalType": "address",
          "name": "marketAddress",
          "type": "address"
        }
      ],
      "name": "setCurrentMarketAddress",
      "outputs": [
        {
          "internalType": "bool",
          "name": "",
          "type": "bool"
        }
      ],
      "stateMutability": "nonpayable",
      "type": "function"
    },
    {
      "inputs": [
        {
          "internalType": "uint256",
          "name": "returnedBatteryCharge",
          "type": "uint256"
        }
      ],
      "name": "returnReservedBatteryCharge",
      "outputs": [
        {
          "internalType": "bool",
          "name": "",
          "type": "bool"
        }
      ],
      "stateMutability": "nonpayable",
      "type": "function"
    }
  ],
  "bytecode": "0x6080604052600f60075534801561001557600080fd5b50604051611026380380611026833981810160405281019061003791906100d0565b33600160006101000a81548173ffffffffffffffffffffffffffffffffffffffff021916908373ffffffffffffffffffffffffffffffffffffffff1602179055508060008190555060006003819055506000600481905550506100fd565b600080fd5b6000819050919050565b6100ad8161009a565b81146100b857600080fd5b50565b6000815190506100ca816100a4565b92915050565b6000602082840312156100e6576100e5610095565b5b60006100f4848285016100bb565b91505092915050565b610f1a8061010c6000396000f3fe608060405234801561001057600080fd5b50600436106100625760003560e01c8063859c2ead1461006757806385c96e6614610097578063997d1826146100b5578063b9857d87146100e5578063eb2e3b5614610101578063f6b2795e14610131575b600080fd5b610081600480360381019061007c9190610662565b610161565b60405161008e91906106aa565b60405180910390f35b61009f61023d565b6040516100ac91906106de565b60405180910390f35b6100cf60048036038101906100ca9190610725565b610247565b6040516100dc91906106aa565b60405180910390f35b6100ff60048036038101906100fa9190610752565b6102fb565b005b61011b6004803603810190610116919061090e565b6104b1565b60405161012891906106aa565b60405180910390f35b61014b6004803603810190610146919061097d565b6105c4565b60405161015891906106aa565b60405180910390f35b6000600160009054906101000a900473ffffffffffffffffffffffffffffffffffffffff1673ffffffffffffffffffffffffffffffffffffffff163373ffffffffffffffffffffffffffffffffffffffff16146101f3576040517f08c379a00000000000000000000000000000000000000000000000000000000081526004016101ea90610a5c565b60405180910390fd5b81600260006101000a81548173ffffffffffffffffffffffffffffffffffffffff021916908373ffffffffffffffffffffffffffffffffffffffff16021790555060019050919050565b6000600554905090565b6000600260009054906101000a900473ffffffffffffffffffffffffffffffffffffffff1673ffffffffffffffffffffffffffffffffffffffff163373ffffffffffffffffffffffffffffffffffffffff16146102d9576040517f08c379a00000000000000000000000000000000000000000000000000000000081526004016102d090610aee565b60405180910390fd5b81600560008282546102eb9190610b3d565b9250508190555060019050919050565b600160009054906101000a900473ffffffffffffffffffffffffffffffffffffffff1673ffffffffffffffffffffffffffffffffffffffff163373ffffffffffffffffffffffffffffffffffffffff161461038b576040517f08c379a000000000000000000000000000000000000000000000000000000000815260040161038290610bbd565b60405180910390fd5b6007546006544261039c9190610bdd565b116103dc576040517f08c379a00000000000000000000000000000000000000000000000000000000081526004016103d390610ca9565b60405180910390fd5b81600360008282546103ee9190610b3d565b9250508190555080600460008282546104079190610b3d565b925050819055506000828261041c9190610cd3565b131561044757818161042e9190610bdd565b6005600082825461043f9190610b3d565b925050819055505b7f11cf1f698196c52545565642a7b6e6b8a30b4e1a8079386f679f087ab2f5832133604051806080016040528085815260200184815260200160035481526020016004548152504260405161049e93929190610d89565b60405180910390a1426006819055505050565b6000600260009054906101000a900473ffffffffffffffffffffffffffffffffffffffff1673ffffffffffffffffffffffffffffffffffffffff163373ffffffffffffffffffffffffffffffffffffffff1614610543576040517f08c379a000000000000000000000000000000000000000000000000000000000815260040161053a90610e32565b60405180910390fd5b61054d83836105c4565b61058c576040517f08c379a000000000000000000000000000000000000000000000000000000000815260040161058390610ec4565b60405180910390fd5b83600554101561059f57600090506105bd565b83600560008282546105b19190610bdd565b92505081905550600190505b9392505050565b600080548380519060200120036105e55781600081905550600190506105ea565b600090505b92915050565b6000604051905090565b600080fd5b600080fd5b600073ffffffffffffffffffffffffffffffffffffffff82169050919050565b600061062f82610604565b9050919050565b61063f81610624565b811461064a57600080fd5b50565b60008135905061065c81610636565b92915050565b600060208284031215610678576106776105fa565b5b60006106868482850161064d565b91505092915050565b60008115159050919050565b6106a48161068f565b82525050565b60006020820190506106bf600083018461069b565b92915050565b6000819050919050565b6106d8816106c5565b82525050565b60006020820190506106f360008301846106cf565b92915050565b610702816106c5565b811461070d57600080fd5b50565b60008135905061071f816106f9565b92915050565b60006020828403121561073b5761073a6105fa565b5b600061074984828501610710565b91505092915050565b60008060408385031215610769576107686105fa565b5b600061077785828601610710565b925050602061078885828601610710565b9150509250929050565b600080fd5b600080fd5b6000601f19601f8301169050919050565b7f4e487b7100000000000000000000000000000000000000000000000000000000600052604160045260246000fd5b6107e58261079c565b810181811067ffffffffffffffff82111715610804576108036107ad565b5b80604052505050565b60006108176105f0565b905061082382826107dc565b919050565b600067ffffffffffffffff821115610843576108426107ad565b5b61084c8261079c565b9050602081019050919050565b82818337600083830152505050565b600061087b61087684610828565b61080d565b90508281526020810184848401111561089757610896610797565b5b6108a2848285610859565b509392505050565b600082601f8301126108bf576108be610792565b5b81356108cf848260208601610868565b91505092915050565b6000819050919050565b6108eb816108d8565b81146108f657600080fd5b50565b600081359050610908816108e2565b92915050565b600080600060608486031215610927576109266105fa565b5b600061093586828701610710565b935050602084013567ffffffffffffffff811115610956576109556105ff565b5b610962868287016108aa565b9250506040610973868287016108f9565b9150509250925092565b60008060408385031215610994576109936105fa565b5b600083013567ffffffffffffffff8111156109b2576109b16105ff565b5b6109be858286016108aa565b92505060206109cf858286016108f9565b9150509250929050565b600082825260208201905092915050565b7f4f6e6c79206f776e65722063616e206368616e6765206d61726b65742061646460008201527f7265737300000000000000000000000000000000000000000000000000000000602082015250565b6000610a466024836109d9565b9150610a51826109ea565b604082019050919050565b60006020820190508181036000830152610a7581610a39565b9050919050565b7f4f6e6c792072656769737465726564206d61726b65742063616e20726574757260008201527f6e20656e65726779000000000000000000000000000000000000000000000000602082015250565b6000610ad86028836109d9565b9150610ae382610a7c565b604082019050919050565b60006020820190508181036000830152610b0781610acb565b9050919050565b7f4e487b7100000000000000000000000000000000000000000000000000000000600052601160045260246000fd5b6000610b48826106c5565b9150610b53836106c5565b9250828201905080821115610b6b57610b6a610b0e565b5b92915050565b7f4f6e6c79206f776e65722063616e20637265617465206c6f6773000000000000600082015250565b6000610ba7601a836109d9565b9150610bb282610b71565b602082019050919050565b60006020820190508181036000830152610bd681610b9a565b9050919050565b6000610be8826106c5565b9150610bf3836106c5565b9250828203905081811115610c0b57610c0a610b0e565b5b92915050565b7f4c6f67732063616e6e6f7420617070656172206d6f7265206672657175656e7460008201527f6c79207468616e20746865207472616e736d697373696f6e20696e746572766160208201527f6c00000000000000000000000000000000000000000000000000000000000000604082015250565b6000610c936041836109d9565b9150610c9e82610c11565b606082019050919050565b60006020820190508181036000830152610cc281610c86565b9050919050565b6000819050919050565b6000610cde82610cc9565b9150610ce983610cc9565b9250828203905081811260008412168282136000851215161715610d1057610d0f610b0e565b5b92915050565b610d1f81610624565b82525050565b610d2e816106c5565b82525050565b608082016000820151610d4a6000850182610d25565b506020820151610d5d6020850182610d25565b506040820151610d706040850182610d25565b506060820151610d836060850182610d25565b50505050565b600060c082019050610d9e6000830186610d16565b610dab6020830185610d34565b610db860a08301846106cf565b949350505050565b7f4f6e6c792072656769737465726564206d61726b65742063616e20737562737460008201527f7261637420656e65726779000000000000000000000000000000000000000000602082015250565b6000610e1c602b836109d9565b9150610e2782610dc0565b604082019050919050565b60006020820190508181036000830152610e4b81610e0f565b9050919050565b7f54686520626c696e64696e6720666163746f7220776173206e6f7420636f727260008201527f6563740000000000000000000000000000000000000000000000000000000000602082015250565b6000610eae6023836109d9565b9150610eb982610e52565b604082019050919050565b60006020820190508181036000830152610edd81610ea1565b905091905056fea2646970667358221220d1ef066bf3a6ee960af04639229f099055a7a9f1657d16afdcad9142cdcee51a64736f6c63430008130033",
  "immutableReferences": {},
  "source": "// SPDX-License-Identifier: GPL-3.0\n// pragma experimental ABIEncoderV2;\npragma solidity ^0.8.9;\n\ncontract SmartMeter {\n    bytes32 otsHash;\n    address owner;\n    address currentMarketAddress;\n    uint private totalConsumption;\n    uint private totalProduction;\n    uint batteryCharge;\n    uint lastDataSent;\n    uint transmissionInterval = 15 seconds;\n\n    constructor(bytes32 _otsHash) {\n        owner = msg.sender;\n        otsHash = _otsHash;\n        totalConsumption = 0;\n        totalProduction = 0;\n    }\n\n    struct PowerData {\n        uint256 intervalConsumption;\n        uint256 intervalProduction;\n        uint256 totalConsumption;\n        uint256 totalProduction;\n    }\n\n    event Log(address sender, PowerData pd, uint256 timeStamp);\n\n    function createLog(\n        uint256 intervalConsumption,\n        uint256 intervalProduction\n    ) public {\n        require(msg.sender == owner, \"Only owner can create logs\");\n        require(\n            block.timestamp - lastDataSent > transmissionInterval,\n            \"Logs cannot appear more frequently than the transmission interval\"\n        );\n        totalConsumption += intervalConsumption;\n        totalProduction += intervalProduction;\n\n        if ((int(intervalProduction) - int(intervalConsumption)) > 0) {\n            batteryCharge += intervalProduction - intervalConsumption;\n        }\n\n        emit Log(\n            msg.sender,\n            PowerData({\n                totalProduction: totalProduction,\n                totalConsumption: totalConsumption,\n                intervalConsumption: intervalConsumption,\n                intervalProduction: intervalProduction\n            }),\n            block.timestamp\n        );\n        lastDataSent = block.timestamp;\n    }\n\n    function getBatteryCharge() public view returns (uint) {\n        return batteryCharge;\n    }\n\n    function checkHashAndSetHash(\n        bytes memory ots,\n        bytes32 nextOtsHash\n    ) public returns (bool) {\n        if (keccak256(ots) == otsHash) {\n            otsHash = nextOtsHash;\n            return true;\n        }\n        return false;\n    }\n\n    function subtractBatteryCharge(\n        uint amount,\n        bytes memory ots,\n        bytes32 nextOtsHash\n    ) public returns (bool) {\n        require(\n            msg.sender == currentMarketAddress,\n            \"Only registered market can substract energy\"\n        );\n        require(\n            checkHashAndSetHash(ots, nextOtsHash),\n            \"The blinding factor was not correct\"\n        );\n        if (batteryCharge < amount) {\n            return false;\n        }\n        batteryCharge -= amount;\n        return true;\n    }\n\n    function setCurrentMarketAddress(\n        address marketAddress\n    ) public returns (bool) {\n        require(msg.sender == owner, \"Only owner can change market address\");\n        currentMarketAddress = marketAddress;\n        return true;\n    }\n\n    function returnReservedBatteryCharge(\n        uint returnedBatteryCharge\n    ) public returns (bool) {\n        require(\n            msg.sender == currentMarketAddress,\n            \"Only registered market can return energy\"\n        );\n        batteryCharge += returnedBatteryCharge;\n        return true;\n    }\n}\n",
  "sourcePath": "/Users/antonoeschmidt/Projects/Master/SmartGridEmpowered/contracts/SmartMeter.sol",
  "compiler": {
    "name": "solc",
    "version": "0.8.19+commit.7dd6d404.Emscripten.clang"
  },
  "schemaVersion": "3.4.16",
  "updatedAt": "2024-01-08T08:05:54.305Z",
  "devdoc": {
    "kind": "dev",
    "methods": {},
    "version": 1
  },
  "userdoc": {
    "kind": "user",
    "methods": {},
    "version": 1
  }
}