{
  "contractName": "SupplyContract",
  "abi": [
    {
      "inputs": [
        {
          "internalType": "string",
          "name": "_buyerSignature",
          "type": "string"
        },
        {
          "internalType": "string",
          "name": "_sellerSignature",
          "type": "string"
        },
        {
          "internalType": "uint256",
          "name": "_amount",
          "type": "uint256"
        },
        {
          "internalType": "uint256",
          "name": "_price",
          "type": "uint256"
        },
        {
          "internalType": "uint256",
          "name": "_nonce",
          "type": "uint256"
        }
      ],
      "stateMutability": "nonpayable",
      "type": "constructor"
    },
    {
      "inputs": [],
      "name": "getBuyer",
      "outputs": [
        {
          "internalType": "string",
          "name": "",
          "type": "string"
        }
      ],
      "stateMutability": "view",
      "type": "function"
    },
    {
      "inputs": [],
      "name": "getSeller",
      "outputs": [
        {
          "internalType": "string",
          "name": "",
          "type": "string"
        }
      ],
      "stateMutability": "view",
      "type": "function"
    },
    {
      "inputs": [],
      "name": "getAmount",
      "outputs": [
        {
          "internalType": "uint256",
          "name": "",
          "type": "uint256"
        }
      ],
      "stateMutability": "view",
      "type": "function"
    },
    {
      "inputs": [],
      "name": "getPrice",
      "outputs": [
        {
          "internalType": "uint256",
          "name": "",
          "type": "uint256"
        }
      ],
      "stateMutability": "view",
      "type": "function"
    },
    {
      "inputs": [],
      "name": "getInfo",
      "outputs": [
        {
          "components": [
            {
              "internalType": "address",
              "name": "scAddress",
              "type": "address"
            },
            {
              "internalType": "string",
              "name": "buyerSignature",
              "type": "string"
            },
            {
              "internalType": "string",
              "name": "sellerSignature",
              "type": "string"
            },
            {
              "internalType": "uint256",
              "name": "price",
              "type": "uint256"
            },
            {
              "internalType": "uint256",
              "name": "amount",
              "type": "uint256"
            },
            {
              "internalType": "uint256",
              "name": "timestamp",
              "type": "uint256"
            },
            {
              "internalType": "bool",
              "name": "confirmed",
              "type": "bool"
            },
            {
              "internalType": "uint256",
              "name": "nonce",
              "type": "uint256"
            }
          ],
          "internalType": "struct SupplyContract.SupplyContractDTO",
          "name": "",
          "type": "tuple"
        }
      ],
      "stateMutability": "view",
      "type": "function"
    }
  ],
  "bytecode": "0x60806040523480156200001157600080fd5b5060405162000d8a38038062000d8a83398181016040528101906200003791906200026b565b846000908162000048919062000572565b5083600190816200005a919062000572565b508260028190555081600381905550426004819055506000600560006101000a81548160ff02191690831515021790555080600681905550505050505062000659565b6000604051905090565b600080fd5b600080fd5b600080fd5b600080fd5b6000601f19601f8301169050919050565b7f4e487b7100000000000000000000000000000000000000000000000000000000600052604160045260246000fd5b6200010682620000bb565b810181811067ffffffffffffffff82111715620001285762000127620000cc565b5b80604052505050565b60006200013d6200009d565b90506200014b8282620000fb565b919050565b600067ffffffffffffffff8211156200016e576200016d620000cc565b5b6200017982620000bb565b9050602081019050919050565b60005b83811015620001a657808201518184015260208101905062000189565b60008484015250505050565b6000620001c9620001c38462000150565b62000131565b905082815260208101848484011115620001e857620001e7620000b6565b5b620001f584828562000186565b509392505050565b600082601f830112620002155762000214620000b1565b5b815162000227848260208601620001b2565b91505092915050565b6000819050919050565b620002458162000230565b81146200025157600080fd5b50565b60008151905062000265816200023a565b92915050565b600080600080600060a086880312156200028a5762000289620000a7565b5b600086015167ffffffffffffffff811115620002ab57620002aa620000ac565b5b620002b988828901620001fd565b955050602086015167ffffffffffffffff811115620002dd57620002dc620000ac565b5b620002eb88828901620001fd565b9450506040620002fe8882890162000254565b9350506060620003118882890162000254565b9250506080620003248882890162000254565b9150509295509295909350565b600081519050919050565b7f4e487b7100000000000000000000000000000000000000000000000000000000600052602260045260246000fd5b600060028204905060018216806200038457607f821691505b6020821081036200039a57620003996200033c565b5b50919050565b60008190508160005260206000209050919050565b60006020601f8301049050919050565b600082821b905092915050565b600060088302620004047fffffffffffffffffffffffffffffffffffffffffffffffffffffffffffffffff82620003c5565b620004108683620003c5565b95508019841693508086168417925050509392505050565b6000819050919050565b6000620004536200044d620004478462000230565b62000428565b62000230565b9050919050565b6000819050919050565b6200046f8362000432565b620004876200047e826200045a565b848454620003d2565b825550505050565b600090565b6200049e6200048f565b620004ab81848462000464565b505050565b5b81811015620004d357620004c760008262000494565b600181019050620004b1565b5050565b601f8211156200052257620004ec81620003a0565b620004f784620003b5565b8101602085101562000507578190505b6200051f6200051685620003b5565b830182620004b0565b50505b505050565b600082821c905092915050565b6000620005476000198460080262000527565b1980831691505092915050565b600062000562838362000534565b9150826002028217905092915050565b6200057d8262000331565b67ffffffffffffffff811115620005995762000598620000cc565b5b620005a582546200036b565b620005b2828285620004d7565b600060209050601f831160018114620005ea5760008415620005d5578287015190505b620005e1858262000554565b86555062000651565b601f198416620005fa86620003a0565b60005b828110156200062457848901518255600182019150602085019450602081019050620005fd565b8683101562000644578489015162000640601f89168262000534565b8355505b6001600288020188555050505b505050505050565b61072180620006696000396000f3fe608060405234801561001057600080fd5b50600436106100575760003560e01c80635a9b0b891461005c578063603daf9a1461007a57806398d5fdca14610098578063d321fe29146100b6578063dbd0e1b6146100d4575b600080fd5b6100646100f2565b60405161007191906105d3565b60405180910390f35b610082610282565b60405161008f919061063f565b60405180910390f35b6100a0610314565b6040516100ad9190610670565b60405180910390f35b6100be61031e565b6040516100cb9190610670565b60405180910390f35b6100dc610328565b6040516100e9919061063f565b60405180910390f35b6100fa6103ba565b60006040518061010001604052803073ffffffffffffffffffffffffffffffffffffffff16815260200160008054610131906106ba565b80601f016020809104026020016040519081016040528092919081815260200182805461015d906106ba565b80156101aa5780601f1061017f576101008083540402835291602001916101aa565b820191906000526020600020905b81548152906001019060200180831161018d57829003601f168201915b50505050508152602001600180546101c1906106ba565b80601f01602080910402602001604051908101604052809291908181526020018280546101ed906106ba565b801561023a5780601f1061020f5761010080835404028352916020019161023a565b820191906000526020600020905b81548152906001019060200180831161021d57829003601f168201915b50505050508152602001600354815260200160025481526020016004548152602001600560009054906101000a900460ff161515815260200160065481525090508091505090565b606060008054610291906106ba565b80601f01602080910402602001604051908101604052809291908181526020018280546102bd906106ba565b801561030a5780601f106102df5761010080835404028352916020019161030a565b820191906000526020600020905b8154815290600101906020018083116102ed57829003601f168201915b5050505050905090565b6000600354905090565b6000600254905090565b606060018054610337906106ba565b80601f0160208091040260200160405190810160405280929190818152602001828054610363906106ba565b80156103b05780601f10610385576101008083540402835291602001916103b0565b820191906000526020600020905b81548152906001019060200180831161039357829003601f168201915b5050505050905090565b604051806101000160405280600073ffffffffffffffffffffffffffffffffffffffff1681526020016060815260200160608152602001600081526020016000815260200160008152602001600015158152602001600081525090565b600073ffffffffffffffffffffffffffffffffffffffff82169050919050565b600061044282610417565b9050919050565b61045281610437565b82525050565b600081519050919050565b600082825260208201905092915050565b60005b83811015610492578082015181840152602081019050610477565b60008484015250505050565b6000601f19601f8301169050919050565b60006104ba82610458565b6104c48185610463565b93506104d4818560208601610474565b6104dd8161049e565b840191505092915050565b6000819050919050565b6104fb816104e8565b82525050565b60008115159050919050565b61051681610501565b82525050565b6000610100830160008301516105356000860182610449565b506020830151848203602086015261054d82826104af565b9150506040830151848203604086015261056782826104af565b915050606083015161057c60608601826104f2565b50608083015161058f60808601826104f2565b5060a08301516105a260a08601826104f2565b5060c08301516105b560c086018261050d565b5060e08301516105c860e08601826104f2565b508091505092915050565b600060208201905081810360008301526105ed818461051c565b905092915050565b600082825260208201905092915050565b600061061182610458565b61061b81856105f5565b935061062b818560208601610474565b6106348161049e565b840191505092915050565b600060208201905081810360008301526106598184610606565b905092915050565b61066a816104e8565b82525050565b60006020820190506106856000830184610661565b92915050565b7f4e487b7100000000000000000000000000000000000000000000000000000000600052602260045260246000fd5b600060028204905060018216806106d257607f821691505b6020821081036106e5576106e461068b565b5b5091905056fea2646970667358221220481507f2af2e6f2515d70f440714066ee17549e1842ffcbe7cada15b3ad5181264736f6c63430008130033",
  "immutableReferences": {},
  "source": "// SPDX-License-Identifier: GPL-3.0\n// pragma experimental ABIEncoderV2;\npragma solidity ^0.8.9;\n\ninterface ICableCompany {\n    function registerKey(\n        address smartMeterPubKey,\n        address smartMeterAddress\n    ) external;\n\n    function isRegisteredKey(\n        address smartMeterPubKey,\n        address smartMeterAddress\n    ) external view returns (bool);\n\n    function removeRegisteredKey(address smartMeterPubKey) external;\n}\n\ninterface ISmartMeter {\n    function returnReservedBatteryCharge(uint amount) external returns (bool);\n\n    function subtractBatteryCharge(uint amount, bytes memory blindingFactor, bytes32 _nextHash) external returns (bool);\n}\n\ncontract Market {\n    address owner;\n    ICableCompany cableCompany; // Maybe change the name of CableCompany to something else, like DSO\n    uint maxOfferLivespan = 1000 * 60 * 60 * 24 * 7;\n\n    struct Offer {\n        string id;\n        uint price;\n        uint amount;\n        uint expiration;\n        address owner;\n        address smartMeterAddress;\n        bool active;\n        string sellerSignature;\n        uint nonce;\n    }\n\n    mapping(string => Offer) private offers;\n    mapping(string => Offer) private pendingConfirmation;\n\n    string[] public offerIds;\n    address public lastestSupplyChainAddress;\n\n    // mapping is nonce to the timestamp it was used at.\n    mapping(uint => uint) private usedNonces;\n\n    modifier nonceGuard(uint nonce) {\n        uint timestamp = usedNonces[nonce];\n        // nonce was used within the last two weeks.\n        if (timestamp + maxOfferLivespan * 2 > block.timestamp * 1000) {\n            revert(\"Nonce was used recently\");\n        }\n        _;\n    }\n\n    constructor(address _cableCompanyAddress) payable {\n        owner = msg.sender;\n        cableCompany = ICableCompany(_cableCompanyAddress);\n    }\n\n    function addOffer(\n        string memory id,\n        uint amount,\n        uint price,\n        uint expiration,\n        address smartMeterAddress,\n        string memory sellerSignature,\n        uint nonce,\n        address sellerAddress,\n        bytes memory blindingFactor, \n        bytes32 _nextHash\n    ) public nonceGuard(nonce) returns (bool) {\n\n        // Require conditions\n        require(\n            cableCompany.isRegisteredKey(msg.sender, smartMeterAddress),\n            \"Smart Meter not registered by Cable Company\"\n        );\n        require(block.timestamp * 1000 + maxOfferLivespan > expiration, \"Offers lifespan is too long\");\n        require(sellerAddress == msg.sender, \"Only owner can add offer\");\n\n        ISmartMeter smartMeter = ISmartMeter(smartMeterAddress);\n        require(\n            smartMeter.subtractBatteryCharge(amount, blindingFactor, _nextHash),\n            \"Not enough stored energy\"\n        );\n\n        // Adding offer\n        usedNonces[nonce] = block.timestamp * 1000;\n        offers[id] = Offer({\n            id: id,\n            amount: amount,\n            price: price,\n            expiration: expiration,\n            owner: msg.sender,\n            smartMeterAddress: smartMeterAddress,\n            active: true,\n            sellerSignature: sellerSignature,\n            nonce: nonce\n        });\n        offerIds.push(id);\n\n        return true;\n    }\n\n    function removeOffer(\n        string memory id,\n        address smartMeterAddress\n    ) public returns (bool) {\n        // Initialization\n        Offer memory offer = offers[id];\n        ISmartMeter smartMeter = ISmartMeter(smartMeterAddress);\n\n        // Require conditions\n        require(msg.sender == offer.owner, \"Only owner can remove offer\");\n\n        // Removing offer\n        smartMeter.returnReservedBatteryCharge(offer.amount);\n        delete offers[id];\n\n        return true;\n    }\n\n    function buyOffer(\n        string memory id,\n        string memory buyerSignature\n    ) public returns (address) {\n        // Initialization\n        Offer memory offer = offers[id];\n\n        // Require conditions\n        require(\n            keccak256(bytes(offer.id)) == keccak256(bytes(id)),\n            \"No offer found\"\n        );\n        string memory sellerSignature = offer.sellerSignature;\n        address seller = offer.owner;\n        uint amount = offer.amount;\n        uint price = offer.price;\n        uint expiration = offer.expiration;\n        uint offerNonce = offer.nonce;\n        require(expiration > block.timestamp, \"Cannot buy expired offer\");\n        require(msg.sender != seller, \"Owner cannot buy own offer\");\n\n        // Buying offer and creating SupplyContract\n        SupplyContract sc = new SupplyContract({\n            _buyerSignature: buyerSignature,\n            _sellerSignature: sellerSignature,\n            _amount: amount,\n            _price: price,\n            _nonce: offerNonce\n        });\n        lastestSupplyChainAddress = address(sc);\n        delete offers[id];\n\n        for (uint i = 0; i < offerIds.length; i++) {\n            // String comparison to remove purchased offer\n            if (keccak256(bytes(offerIds[i])) == keccak256(bytes(id))) {\n                offerIds[i] = offerIds[offerIds.length - 1];\n                offerIds.pop();\n            }\n        }\n\n        return address(sc);\n    }\n\n    function getOffer(string memory id) public view returns (Offer memory) {\n        return offers[id];\n    }\n\n    function getOffers() public view returns (Offer[] memory) {\n        Offer[] memory offersReturn = new Offer[](offerIds.length);\n        for (uint i = 0; i < offerIds.length; i++) {\n            string storage offerId = offerIds[i];\n            Offer storage offer = offers[offerId];\n\n            offersReturn[i] = offer;\n        }\n        return offersReturn;\n    }\n\n    function getOfferIDs() public view returns (string[] memory) {\n        return offerIds;\n    }\n\n    function getLatestSupplyContract() public view returns (address) {\n        return lastestSupplyChainAddress;\n    }\n\n    function getPendingOffers() public view returns (address) {\n        return lastestSupplyChainAddress;\n    }\n}\n\ncontract SupplyContract {\n    string buyerSignature;\n    string sellerSignature;\n    uint amount; // Wh\n    uint price; // Euro cents\n    uint timestamp; // Unix\n    bool confirmed;\n    uint nonce;\n\n    struct SupplyContractDTO {\n        address scAddress;\n        string buyerSignature;\n        string sellerSignature;\n        uint price;\n        uint amount;\n        uint timestamp;\n        bool confirmed;\n        uint nonce;\n    }\n\n    constructor(\n        string memory _buyerSignature,\n        string memory _sellerSignature,\n        uint _amount,\n        uint _price,\n        uint _nonce\n    ) {\n        buyerSignature = _buyerSignature;\n        sellerSignature = _sellerSignature;\n        amount = _amount;\n        price = _price;\n        timestamp = block.timestamp;\n        confirmed = false;\n        nonce = _nonce;\n    }\n\n    function getBuyer() public view returns (string memory) {\n        return buyerSignature;\n    }\n\n    function getSeller() public view returns (string memory) {\n        return sellerSignature;\n    }\n\n    function getAmount() public view returns (uint) {\n        return amount;\n    }\n\n    function getPrice() public view returns (uint) {\n        return price;\n    }\n\n    function getInfo() public view returns (SupplyContractDTO memory) {\n        SupplyContractDTO memory scDTO = SupplyContractDTO({\n            scAddress: address(this),\n            buyerSignature: buyerSignature,\n            sellerSignature: sellerSignature,\n            price: price,\n            amount: amount,\n            timestamp: timestamp,\n            confirmed: confirmed,\n            nonce: nonce\n        });\n\n        return scDTO;\n    }\n}\n",
  "sourcePath": "/Users/antonoeschmidt/Projects/Master/SmartGridEmpowered/contracts/Market.sol",
  "compiler": {
    "name": "solc",
    "version": "0.8.19+commit.7dd6d404.Emscripten.clang"
  },
  "schemaVersion": "3.4.3",
  "updatedAt": "2024-01-06T15:07:12.703Z",
  "devdoc": {
    "kind": "dev",
    "methods": {},
    "version": 1
  },
  "userdoc": {
    "kind": "user",
    "methods": {},
    "version": 1
  }
}